{
  "contractName": "MarketContractFactoryMPX",
  "abi": [
    {
      "constant": false,
      "inputs": [],
      "name": "renounceOwnership",
      "outputs": [],
      "payable": false,
      "stateMutability": "nonpayable",
      "type": "function"
    },
    {
      "constant": true,
      "inputs": [],
      "name": "oracleHub",
      "outputs": [
        {
          "name": "",
          "type": "address"
        }
      ],
      "payable": false,
      "stateMutability": "view",
      "type": "function"
    },
    {
      "constant": true,
      "inputs": [],
      "name": "owner",
      "outputs": [
        {
          "name": "",
          "type": "address"
        }
      ],
      "payable": false,
      "stateMutability": "view",
      "type": "function"
    },
    {
      "constant": true,
      "inputs": [],
      "name": "isOwner",
      "outputs": [
        {
          "name": "",
          "type": "bool"
        }
      ],
      "payable": false,
      "stateMutability": "view",
      "type": "function"
    },
    {
      "constant": true,
      "inputs": [],
      "name": "MARKET_COLLATERAL_POOL",
      "outputs": [
        {
          "name": "",
          "type": "address"
        }
      ],
      "payable": false,
      "stateMutability": "view",
      "type": "function"
    },
    {
      "constant": true,
      "inputs": [],
      "name": "marketContractRegistry",
      "outputs": [
        {
          "name": "",
          "type": "address"
        }
      ],
      "payable": false,
      "stateMutability": "view",
      "type": "function"
    },
    {
      "constant": false,
      "inputs": [
        {
          "name": "newOwner",
          "type": "address"
        }
      ],
      "name": "transferOwnership",
      "outputs": [],
      "payable": false,
      "stateMutability": "nonpayable",
      "type": "function"
    },
    {
      "inputs": [
        {
          "name": "registryAddress",
          "type": "address"
        },
        {
          "name": "collateralPoolAddress",
          "type": "address"
        },
        {
          "name": "oracleHubAddress",
          "type": "address"
        }
      ],
      "payable": false,
      "stateMutability": "nonpayable",
      "type": "constructor"
    },
    {
      "anonymous": false,
      "inputs": [
        {
          "indexed": true,
          "name": "creator",
          "type": "address"
        },
        {
          "indexed": true,
          "name": "contractAddress",
          "type": "address"
        }
      ],
      "name": "MarketContractCreated",
      "type": "event"
    },
    {
      "anonymous": false,
      "inputs": [
        {
          "indexed": true,
          "name": "previousOwner",
          "type": "address"
        },
        {
          "indexed": true,
          "name": "newOwner",
          "type": "address"
        }
      ],
      "name": "OwnershipTransferred",
      "type": "event"
    },
    {
      "constant": false,
      "inputs": [
        {
          "name": "contractNames",
          "type": "string"
        },
        {
          "name": "collateralTokenAddress",
          "type": "address"
        },
        {
          "name": "contractSpecs",
          "type": "uint256[7]"
        },
        {
          "name": "oracleURL",
          "type": "string"
        },
        {
          "name": "oracleStatistic",
          "type": "string"
        }
      ],
      "name": "deployMarketContractMPX",
      "outputs": [],
      "payable": false,
      "stateMutability": "nonpayable",
      "type": "function"
    },
    {
      "constant": false,
      "inputs": [
        {
          "name": "registryAddress",
          "type": "address"
        }
      ],
      "name": "setRegistryAddress",
      "outputs": [],
      "payable": false,
      "stateMutability": "nonpayable",
      "type": "function"
    },
    {
      "constant": false,
      "inputs": [
        {
          "name": "oracleHubAddress",
          "type": "address"
        }
      ],
      "name": "setOracleHubAddress",
      "outputs": [],
      "payable": false,
      "stateMutability": "nonpayable",
      "type": "function"
    }
  ],
  "bytecode": "0x608060405234801561001057600080fd5b506040516060806152e5833981018060405281019080805190602001909291908051906020019092919080519060200190929190505050336000806101000a81548173ffffffffffffffffffffffffffffffffffffffff021916908373ffffffffffffffffffffffffffffffffffffffff1602179055506000809054906101000a900473ffffffffffffffffffffffffffffffffffffffff1673ffffffffffffffffffffffffffffffffffffffff16600073ffffffffffffffffffffffffffffffffffffffff167f8be0079c531659141344cd1fd0a4f28419497f9722a3daafe3b4186f6b6457e060405160405180910390a382600160006101000a81548173ffffffffffffffffffffffffffffffffffffffff021916908373ffffffffffffffffffffffffffffffffffffffff16021790555081600360006101000a81548173ffffffffffffffffffffffffffffffffffffffff021916908373ffffffffffffffffffffffffffffffffffffffff16021790555080600260006101000a81548173ffffffffffffffffffffffffffffffffffffffff021916908373ffffffffffffffffffffffffffffffffffffffff16021790555050505061510d806101d86000396000f300608060405260043610620000af576000357c0100000000000000000000000000000000000000000000000000000000900463ffffffff168063715018a614620000b457806373d62b4614620000ce5780638da5cb5b14620001285780638f32d59b1462000182578063a8a5d27014620001b4578063ab7b499314620001fa578063c6f8d5f01462000240578063ceaaa915146200029a578063e07ff7aa14620002f4578063f2fde38b146200038c575b600080fd5b348015620000c157600080fd5b50620000cc620003d2565b005b348015620000db57600080fd5b50620000e6620004a7565b604051808273ffffffffffffffffffffffffffffffffffffffff1673ffffffffffffffffffffffffffffffffffffffff16815260200191505060405180910390f35b3480156200013557600080fd5b5062000140620004cd565b604051808273ffffffffffffffffffffffffffffffffffffffff1673ffffffffffffffffffffffffffffffffffffffff16815260200191505060405180910390f35b3480156200018f57600080fd5b506200019a620004f6565b604051808215151515815260200191505060405180910390f35b348015620001c157600080fd5b50620001f8600480360381019080803573ffffffffffffffffffffffffffffffffffffffff1690602001909291905050506200054d565b005b3480156200020757600080fd5b506200023e600480360381019080803573ffffffffffffffffffffffffffffffffffffffff169060200190929190505050620005e4565b005b3480156200024d57600080fd5b50620002586200067b565b604051808273ffffffffffffffffffffffffffffffffffffffff1673ffffffffffffffffffffffffffffffffffffffff16815260200191505060405180910390f35b348015620002a757600080fd5b50620002b2620006a1565b604051808273ffffffffffffffffffffffffffffffffffffffff1673ffffffffffffffffffffffffffffffffffffffff16815260200191505060405180910390f35b3480156200030157600080fd5b506200038a600480360381019080803590602001908201803590602001919091929391929390803573ffffffffffffffffffffffffffffffffffffffff1690602001909291908060e001909192919290803590602001908201803590602001919091929391929390803590602001908201803590602001919091929391929390505050620006c7565b005b3480156200039957600080fd5b50620003d0600480360381019080803573ffffffffffffffffffffffffffffffffffffffff169060200190929190505050620009fb565b005b620003dc620004f6565b1515620003e857600080fd5b600073ffffffffffffffffffffffffffffffffffffffff166000809054906101000a900473ffffffffffffffffffffffffffffffffffffffff1673ffffffffffffffffffffffffffffffffffffffff167f8be0079c531659141344cd1fd0a4f28419497f9722a3daafe3b4186f6b6457e060405160405180910390a360008060006101000a81548173ffffffffffffffffffffffffffffffffffffffff021916908373ffffffffffffffffffffffffffffffffffffffff160217905550565b600260009054906101000a900473ffffffffffffffffffffffffffffffffffffffff1681565b60008060009054906101000a900473ffffffffffffffffffffffffffffffffffffffff16905090565b60008060009054906101000a900473ffffffffffffffffffffffffffffffffffffffff1673ffffffffffffffffffffffffffffffffffffffff163373ffffffffffffffffffffffffffffffffffffffff1614905090565b62000557620004f6565b15156200056357600080fd5b600073ffffffffffffffffffffffffffffffffffffffff168173ffffffffffffffffffffffffffffffffffffffff1614151515620005a057600080fd5b80600260006101000a81548173ffffffffffffffffffffffffffffffffffffffff021916908373ffffffffffffffffffffffffffffffffffffffff16021790555050565b620005ee620004f6565b1515620005fa57600080fd5b600073ffffffffffffffffffffffffffffffffffffffff168173ffffffffffffffffffffffffffffffffffffffff16141515156200063757600080fd5b80600160006101000a81548173ffffffffffffffffffffffffffffffffffffffff021916908373ffffffffffffffffffffffffffffffffffffffff16021790555050565b600360009054906101000a900473ffffffffffffffffffffffffffffffffffffffff1681565b600160009054906101000a900473ffffffffffffffffffffffffffffffffffffffff1681565b60008888606060405190810160405280620006e1620004cd565b73ffffffffffffffffffffffffffffffffffffffff1673ffffffffffffffffffffffffffffffffffffffff1681526020018a73ffffffffffffffffffffffffffffffffffffffff1673ffffffffffffffffffffffffffffffffffffffff168152602001600360009054906101000a900473ffffffffffffffffffffffffffffffffffffffff1673ffffffffffffffffffffffffffffffffffffffff1673ffffffffffffffffffffffffffffffffffffffff16815250600260009054906101000a900473ffffffffffffffffffffffffffffffffffffffff168989898989620007c862000b1a565b808060200189600360200280838360005b83811015620007f6578082015181840152602081019050620007d9565b505050509050018873ffffffffffffffffffffffffffffffffffffffff1673ffffffffffffffffffffffffffffffffffffffff168152602001876007602002808284378201915050806020018060200184810384528d8d82818152602001925080828437820191505084810383528888828181526020019250808284378201915050848103825286868281815260200192508082843782019150509c50505050505050505050505050604051809103906000f080158015620008bc573d6000803e3d6000fd5b509050600160009054906101000a900473ffffffffffffffffffffffffffffffffffffffff1673ffffffffffffffffffffffffffffffffffffffff16639244f496826040518263ffffffff167c0100000000000000000000000000000000000000000000000000000000028152600401808273ffffffffffffffffffffffffffffffffffffffff1673ffffffffffffffffffffffffffffffffffffffff168152602001915050600060405180830381600087803b1580156200097d57600080fd5b505af115801562000992573d6000803e3d6000fd5b505050508073ffffffffffffffffffffffffffffffffffffffff163373ffffffffffffffffffffffffffffffffffffffff167f38ee3ff13b5d3453452a79e0799d83b2c8207bf126b2798fa512343680f643ee60405160405180910390a3505050505050505050565b62000a05620004f6565b151562000a1157600080fd5b62000a1c8162000a1f565b50565b600073ffffffffffffffffffffffffffffffffffffffff168173ffffffffffffffffffffffffffffffffffffffff161415151562000a5c57600080fd5b8073ffffffffffffffffffffffffffffffffffffffff166000809054906101000a900473ffffffffffffffffffffffffffffffffffffffff1673ffffffffffffffffffffffffffffffffffffffff167f8be0079c531659141344cd1fd0a4f28419497f9722a3daafe3b4186f6b6457e060405160405180910390a3806000806101000a81548173ffffffffffffffffffffffffffffffffffffffff021916908373ffffffffffffffffffffffffffffffffffffffff16021790555050565b6040516145b68062000b2c833901905600608060405262015180600c556000601260006101000a81548160ff0219169083151502179055503480156200003357600080fd5b50604051620045b6380380620045b6833981018060405281019080805182019291906020019190826060018051906020019092919091908260e00180518201929190602001805182019291905050508585846200008f62000fe5565b6200009962000fe5565b600080336000806101000a81548173ffffffffffffffffffffffffffffffffffffffff021916908373ffffffffffffffffffffffffffffffffffffffff1602179055506000809054906101000a900473ffffffffffffffffffffffffffffffffffffffff1673ffffffffffffffffffffffffffffffffffffffff16600073ffffffffffffffffffffffffffffffffffffffff167f8be0079c531659141344cd1fd0a4f28419497f9722a3daafe3b4186f6b6457e060405160405180910390a38460006007811015156200016857fe5b60200201516005819055508460016007811015156200018357fe5b6020020151600481905550600554600454111515620001a157600080fd5b846002600781101515620001b157fe5b6020020151600681905550846003600781101515620001cc57fe5b6020020151600781905550846006600781101515620001e757fe5b6020020151600b8190555042600b541115156200026c576040517f08c379a00000000000000000000000000000000000000000000000000000000081526004018080602001828103825260208152602001807f65787069726174696f6e206d75737420626520696e207468652066757475726581525060200191505060405180910390fd5b8560016003811015156200027c57fe5b6020020151600260006101000a81548173ffffffffffffffffffffffffffffffffffffffff021916908373ffffffffffffffffffffffffffffffffffffffff160217905550856002600381101515620002d157fe5b6020020151600360006101000a81548173ffffffffffffffffffffffffffffffffffffffff021916908373ffffffffffffffffffffffffffffffffffffffff16021790555073__MathLib_______________________________63f226512c6005546004546007546040518463ffffffff167c010000000000000000000000000000000000000000000000000000000002815260040180848152602001838152602001828152602001935050505060206040518083038186803b1580156200039857600080fd5b505af4158015620003ad573d6000803e3d6000fd5b505050506040513d6020811015620003c457600080fd5b810190808051906020019092919050505060088190555073__MathLib_______________________________63dab48bd96005546004546007548960046007811015156200040e57fe5b60200201516040518563ffffffff167c01000000000000000000000000000000000000000000000000000000000281526004018085815260200184815260200183815260200182815260200194505050505060206040518083038186803b1580156200047957600080fd5b505af41580156200048e573d6000803e3d6000fd5b505050506040513d6020811015620004a557600080fd5b810190808051906020019092919050505060098190555073__MathLib_______________________________63dab48bd9600554600454600754896005600781101515620004ef57fe5b60200201516040518563ffffffff167c01000000000000000000000000000000000000000000000000000000000281526004018085815260200184815260200183815260200182815260200194505050505060206040518083038186803b1580156200055a57600080fd5b505af41580156200056f573d6000803e3d6000fd5b505050506040513d60208110156200058657600080fd5b8101908080519060200190929190505050600a81905550620005bc8762000af464010000000002620016c4176401000000009004565b9350620006126040805190810160405280600181526020017f2c0000000000000000000000000000000000000000000000000000000000000081525062000af464010000000002620016c4176401000000009004565b9250600262000639848662000b2464010000000002620016f2179091906401000000009004565b141515620006d5576040517f08c379a00000000000000000000000000000000000000000000000000000000081526004018080602001828103825260228152602001807f436f6e74726163744e616d6573206d75737420636f6e7461696e2033206e616d81526020017f657300000000000000000000000000000000000000000000000000000000000081525060400191505060405180910390fd5b62000716620006fc848662000bbf6401000000000262001769179091906401000000009004565b62000bec6401000000000262001783176401000000009004565b600190805190602001906200072d92919062000fff565b506200076f62000755848662000bbf6401000000000262001769179091906401000000009004565b62000bec6401000000000262001783176401000000009004565b60006200077b62001086565b8080602001806020018460ff168152602001838103835260238152602001807f4d41524b45542050726f746f636f6c204c6f6e6720506f736974696f6e20546f81526020017f6b656e0000000000000000000000000000000000000000000000000000000000815250604001838103825285818151815260200191508051906020019080838360005b838110156200082157808201518184015260208101905062000804565b50505050905090810190601f1680156200084f5780820380516001836020036101000a031916815260200191505b50945050505050604051809103906000f08015801562000873573d6000803e3d6000fd5b509150620008b76200089d848662000bbf6401000000000262001769179091906401000000009004565b62000bec6401000000000262001783176401000000009004565b6001620008c362001086565b8080602001806020018460ff168152602001838103835260248152602001807f4d41524b45542050726f746f636f6c2053686f727420506f736974696f6e205481526020017f6f6b656e00000000000000000000000000000000000000000000000000000000815250604001838103825285818151815260200191508051906020019080838360005b83811015620009695780820151818401526020810190506200094c565b50505050905090810190601f168015620009975780820380516001836020036101000a031916815260200191505b50945050505050604051809103906000f080158015620009bb573d6000803e3d6000fd5b50905081600d60006101000a81548173ffffffffffffffffffffffffffffffffffffffff021916908373ffffffffffffffffffffffffffffffffffffffff16021790555080600e60006101000a81548173ffffffffffffffffffffffffffffffffffffffff021916908373ffffffffffffffffffffffffffffffffffffffff16021790555062000a6e86600060038110151562000a5457fe5b602002015162000c60640100000000026401000000009004565b50505050505050816013908051906020019062000a8d92919062000fff565b50806014908051906020019062000aa692919062000fff565b5083601260016101000a81548173ffffffffffffffffffffffffffffffffffffffff021916908373ffffffffffffffffffffffffffffffffffffffff160217905550505050505050620010bf565b62000afe62000fe5565b600060208301905060408051908101604052808451815260200182815250915050919050565b600080826000015162000b59856000015186602001518660000151876020015162000ca2640100000000026401000000009004565b0190505b83600001518460200151018111151562000bb8578180600101925050826000015162000baf85602001518303866000015103838660000151876020015162000ca2640100000000026401000000009004565b01905062000b5d565b5092915050565b62000bc962000fe5565b62000be583838362000d93640100000000026401000000009004565b5092915050565b606080600083600001516040519080825280601f01601f19166020018201604052801562000c295781602001602082028038833980820191505090505b50915060208201905062000c56818560200151866000015162000e46640100000000026401000000009004565b8192505050919050565b62000c7962000e93640100000000026401000000009004565b151562000c8557600080fd5b62000c9f8162000eea640100000000026401000000009004565b50565b60008060008060008060008060008b97508c8b11151562000d7d5760208b11151562000d335760018b60200360080260020a03196001029550858a511694508a8d8d010393508588511692505b8460001916836000191614151562000d2a57838810151562000d16578c8c01985062000d83565b878060010198505085885116925062000cef565b87985062000d83565b8a8a209150600096505b8a8d038711151562000d7c578a8820905080600019168260001916141562000d685787985062000d83565b600188019750868060010197505062000d3d565b5b8c8c0198505b5050505050505050949350505050565b62000d9d62000fe5565b600062000dcc856000015186602001518660000151876020015162000ca2640100000000026401000000009004565b9050846020015183602001818152505084602001518103836000018181525050846000015185602001510181141562000e1057600085600001818152505062000e3b565b8360000151836000015101856000018181510391508181525050836000015181018560200181815250505b829150509392505050565b60005b60208210151562000e70578251845260208401935060208301925060208203915062000e49565b6001826020036101000a0390508019835116818551168181178652505050505050565b60008060009054906101000a900473ffffffffffffffffffffffffffffffffffffffff1673ffffffffffffffffffffffffffffffffffffffff163373ffffffffffffffffffffffffffffffffffffffff1614905090565b600073ffffffffffffffffffffffffffffffffffffffff168173ffffffffffffffffffffffffffffffffffffffff161415151562000f2757600080fd5b8073ffffffffffffffffffffffffffffffffffffffff166000809054906101000a900473ffffffffffffffffffffffffffffffffffffffff1673ffffffffffffffffffffffffffffffffffffffff167f8be0079c531659141344cd1fd0a4f28419497f9722a3daafe3b4186f6b6457e060405160405180910390a3806000806101000a81548173ffffffffffffffffffffffffffffffffffffffff021916908373ffffffffffffffffffffffffffffffffffffffff16021790555050565b604080519081016040528060008152602001600081525090565b828054600181600116156101000203166002900490600052602060002090601f016020900481019282601f106200104257805160ff191683800117855562001073565b8280016001018555821562001073579182015b828111156200107257825182559160200191906001019062001055565b5b50905062001082919062001097565b5090565b604051611aed8062002ac983390190565b620010bc91905b80821115620010b85760008160009055506001016200109e565b5090565b90565b6119fa80620010cf6000396000f300608060405260043610610196576000357c0100000000000000000000000000000000000000000000000000000000900463ffffffff168063053f14da1461019b57806322d1c35e146101c65780632fed1b001461021d578063323bb775146102485780633270bb5b1461029f5780633d168eda146102ce5780634ac77f221461035e57806357d1ba25146103ee5780635b3f1e3f146104195780635c7c705914610470578063614d08f81461049b5780636d3594671461052b5780636fbce94014610578578063715018a6146105a55780637df23753146105bc57806386aa7cdc146105e95780638da5cb5b146106145780638f32d59b1461066b578063986c20631461069a578063a8a5d270146106f1578063b5471dee14610734578063bb4b57341461075f578063bd220dae1461078a578063c25c4444146107b9578063c32b1dfa14610806578063ca361d6714610831578063cabd58341461085c578063db3fa771146108a9578063e158e02d146108d4578063eaafb4fa146108ff578063f2fde38b14610956578063f348e8b214610999575b600080fd5b3480156101a757600080fd5b506101b06109c4565b6040518082815260200191505060405180910390f35b3480156101d257600080fd5b506101db6109ca565b604051808273ffffffffffffffffffffffffffffffffffffffff1673ffffffffffffffffffffffffffffffffffffffff16815260200191505060405180910390f35b34801561022957600080fd5b506102326109f0565b6040518082815260200191505060405180910390f35b34801561025457600080fd5b5061025d6109f6565b604051808273ffffffffffffffffffffffffffffffffffffffff1673ffffffffffffffffffffffffffffffffffffffff16815260200191505060405180910390f35b3480156102ab57600080fd5b506102b4610a1c565b604051808215151515815260200191505060405180910390f35b3480156102da57600080fd5b506102e3610a2f565b6040518080602001828103825283818151815260200191508051906020019080838360005b83811015610323578082015181840152602081019050610308565b50505050905090810190601f1680156103505780820380516001836020036101000a031916815260200191505b509250505060405180910390f35b34801561036a57600080fd5b50610373610acd565b6040518080602001828103825283818151815260200191508051906020019080838360005b838110156103b3578082015181840152602081019050610398565b50505050905090810190601f1680156103e05780820380516001836020036101000a031916815260200191505b509250505060405180910390f35b3480156103fa57600080fd5b50610403610b6b565b6040518082815260200191505060405180910390f35b34801561042557600080fd5b5061042e610b71565b604051808273ffffffffffffffffffffffffffffffffffffffff1673ffffffffffffffffffffffffffffffffffffffff16815260200191505060405180910390f35b34801561047c57600080fd5b50610485610b97565b6040518082815260200191505060405180910390f35b3480156104a757600080fd5b506104b0610b9d565b6040518080602001828103825283818151815260200191508051906020019080838360005b838110156104f05780820151818401526020810190506104d5565b50505050905090810190601f16801561051d5780820380516001836020036101000a031916815260200191505b509250505060405180910390f35b34801561053757600080fd5b5061057660048036038101908080359060200190929190803573ffffffffffffffffffffffffffffffffffffffff169060200190929190505050610c3b565b005b34801561058457600080fd5b506105a360048036038101908080359060200190929190505050610d78565b005b3480156105b157600080fd5b506105ba610e39565b005b3480156105c857600080fd5b506105e760048036038101908080359060200190929190505050610f0b565b005b3480156105f557600080fd5b506105fe610f83565b6040518082815260200191505060405180910390f35b34801561062057600080fd5b50610629610f89565b604051808273ffffffffffffffffffffffffffffffffffffffff1673ffffffffffffffffffffffffffffffffffffffff16815260200191505060405180910390f35b34801561067757600080fd5b50610680610fb2565b604051808215151515815260200191505060405180910390f35b3480156106a657600080fd5b506106af611009565b604051808273ffffffffffffffffffffffffffffffffffffffff1673ffffffffffffffffffffffffffffffffffffffff16815260200191505060405180910390f35b3480156106fd57600080fd5b50610732600480360381019080803573ffffffffffffffffffffffffffffffffffffffff16906020019092919050505061102f565b005b34801561074057600080fd5b506107496110c2565b6040518082815260200191505060405180910390f35b34801561076b57600080fd5b506107746110c8565b6040518082815260200191505060405180910390f35b34801561079657600080fd5b5061079f6110ce565b604051808215151515815260200191505060405180910390f35b3480156107c557600080fd5b5061080460048036038101908080359060200190929190803573ffffffffffffffffffffffffffffffffffffffff1690602001909291905050506110f7565b005b34801561081257600080fd5b5061081b611234565b6040518082815260200191505060405180910390f35b34801561083d57600080fd5b5061084661123a565b6040518082815260200191505060405180910390f35b34801561086857600080fd5b506108a760048036038101908080359060200190929190803573ffffffffffffffffffffffffffffffffffffffff169060200190929190505050611240565b005b3480156108b557600080fd5b506108be61145a565b6040518082815260200191505060405180910390f35b3480156108e057600080fd5b506108e9611460565b6040518082815260200191505060405180910390f35b34801561090b57600080fd5b50610914611466565b604051808273ffffffffffffffffffffffffffffffffffffffff1673ffffffffffffffffffffffffffffffffffffffff16815260200191505060405180910390f35b34801561096257600080fd5b50610997600480360381019080803573ffffffffffffffffffffffffffffffffffffffff16906020019092919050505061148c565b005b3480156109a557600080fd5b506109ae6114ab565b6040518082815260200191505060405180910390f35b600f5481565b600d60009054906101000a900473ffffffffffffffffffffffffffffffffffffffff1681565b60065481565b600260009054906101000a900473ffffffffffffffffffffffffffffffffffffffff1681565b601260009054906101000a900460ff1681565b60138054600181600116156101000203166002900480601f016020809104026020016040519081016040528092919081815260200182805460018160011615610100020316600290048015610ac55780601f10610a9a57610100808354040283529160200191610ac5565b820191906000526020600020905b815481529060010190602001808311610aa857829003601f168201915b505050505081565b60148054600181600116156101000203166002900480601f016020809104026020016040519081016040528092919081815260200182805460018160011615610100020316600290048015610b635780601f10610b3857610100808354040283529160200191610b63565b820191906000526020600020905b815481529060010190602001808311610b4657829003601f168201915b505050505081565b600c5481565b600e60009054906101000a900473ffffffffffffffffffffffffffffffffffffffff1681565b60095481565b60018054600181600116156101000203166002900480601f016020809104026020016040519081016040528092919081815260200182805460018160011615610100020316600290048015610c335780601f10610c0857610100808354040283529160200191610c33565b820191906000526020600020905b815481529060010190602001808311610c1657829003601f168201915b505050505081565b600360009054906101000a900473ffffffffffffffffffffffffffffffffffffffff1673ffffffffffffffffffffffffffffffffffffffff163373ffffffffffffffffffffffffffffffffffffffff16141515610c9757600080fd5b600e60009054906101000a900473ffffffffffffffffffffffffffffffffffffffff1673ffffffffffffffffffffffffffffffffffffffff1663c3501ff683836040518363ffffffff167c0100000000000000000000000000000000000000000000000000000000028152600401808381526020018273ffffffffffffffffffffffffffffffffffffffff1673ffffffffffffffffffffffffffffffffffffffff16815260200192505050600060405180830381600087803b158015610d5c57600080fd5b505af1158015610d70573d6000803e3d6000fd5b505050505050565b601260019054906101000a900473ffffffffffffffffffffffffffffffffffffffff1673ffffffffffffffffffffffffffffffffffffffff163373ffffffffffffffffffffffffffffffffffffffff16141515610dd457600080fd5b601260009054906101000a900460ff16151515610df057600080fd5b80600f819055507f8848a3fb6a59cb2631434df52b885e109a25f8b683d0721da7ef92618182b482816040518082815260200191505060405180910390a1610e366114b1565b50565b610e41610fb2565b1515610e4c57600080fd5b600073ffffffffffffffffffffffffffffffffffffffff166000809054906101000a900473ffffffffffffffffffffffffffffffffffffffff1673ffffffffffffffffffffffffffffffffffffffff167f8be0079c531659141344cd1fd0a4f28419497f9722a3daafe3b4186f6b6457e060405160405180910390a360008060006101000a81548173ffffffffffffffffffffffffffffffffffffffff021916908373ffffffffffffffffffffffffffffffffffffffff160217905550565b610f13610fb2565b1515610f1e57600080fd5b80600f819055507f8848a3fb6a59cb2631434df52b885e109a25f8b683d0721da7ef92618182b482816040518082815260200191505060405180910390a1610f6581611582565b6001601260006101000a81548160ff02191690831515021790555050565b60115481565b60008060009054906101000a900473ffffffffffffffffffffffffffffffffffffffff16905090565b60008060009054906101000a900473ffffffffffffffffffffffffffffffffffffffff1673ffffffffffffffffffffffffffffffffffffffff163373ffffffffffffffffffffffffffffffffffffffff1614905090565b601260019054906101000a900473ffffffffffffffffffffffffffffffffffffffff1681565b611037610fb2565b151561104257600080fd5b600073ffffffffffffffffffffffffffffffffffffffff168173ffffffffffffffffffffffffffffffffffffffff161415151561107e57600080fd5b80601260016101000a81548173ffffffffffffffffffffffffffffffffffffffff021916908373ffffffffffffffffffffffffffffffffffffffff16021790555050565b60045481565b600b5481565b6000601260009054906101000a900460ff1680156110f25750600c54601154014210155b905090565b600360009054906101000a900473ffffffffffffffffffffffffffffffffffffffff1673ffffffffffffffffffffffffffffffffffffffff163373ffffffffffffffffffffffffffffffffffffffff1614151561115357600080fd5b600d60009054906101000a900473ffffffffffffffffffffffffffffffffffffffff1673ffffffffffffffffffffffffffffffffffffffff1663c3501ff683836040518363ffffffff167c0100000000000000000000000000000000000000000000000000000000028152600401808381526020018273ffffffffffffffffffffffffffffffffffffffff1673ffffffffffffffffffffffffffffffffffffffff16815260200192505050600060405180830381600087803b15801561121857600080fd5b505af115801561122c573d6000803e3d6000fd5b505050505050565b60055481565b60075481565b600360009054906101000a900473ffffffffffffffffffffffffffffffffffffffff1673ffffffffffffffffffffffffffffffffffffffff163373ffffffffffffffffffffffffffffffffffffffff1614151561129c57600080fd5b600d60009054906101000a900473ffffffffffffffffffffffffffffffffffffffff1673ffffffffffffffffffffffffffffffffffffffff16637251cd0283836040518363ffffffff167c0100000000000000000000000000000000000000000000000000000000028152600401808381526020018273ffffffffffffffffffffffffffffffffffffffff1673ffffffffffffffffffffffffffffffffffffffff16815260200192505050600060405180830381600087803b15801561136157600080fd5b505af1158015611375573d6000803e3d6000fd5b50505050600e60009054906101000a900473ffffffffffffffffffffffffffffffffffffffff1673ffffffffffffffffffffffffffffffffffffffff16637251cd0283836040518363ffffffff167c0100000000000000000000000000000000000000000000000000000000028152600401808381526020018273ffffffffffffffffffffffffffffffffffffffff1673ffffffffffffffffffffffffffffffffffffffff16815260200192505050600060405180830381600087803b15801561143e57600080fd5b505af1158015611452573d6000803e3d6000fd5b505050505050565b600a5481565b60085481565b600360009054906101000a900473ffffffffffffffffffffffffffffffffffffffff1681565b611494610fb2565b151561149f57600080fd5b6114a8816115ca565b50565b60105481565b6000601260009054906101000a900460ff161515156114cf57600080fd5b600b544211156114fe576001601260006101000a81548160ff021916908315150217905550600f549050611560565b600454600f54101515611530576001601260006101000a81548160ff021916908315150217905550600454905061155f565b600554600f5411151561155e576001601260006101000a81548160ff02191690831515021790555060055490505b5b5b601260009054906101000a900460ff161561157f5761157e81611582565b5b50565b42601181905550806010819055507f68170b705528d3ff1d324cda28eb28cc3d11ce81207f157c05e11c18411a013c816040518082815260200191505060405180910390a150565b600073ffffffffffffffffffffffffffffffffffffffff168173ffffffffffffffffffffffffffffffffffffffff161415151561160657600080fd5b8073ffffffffffffffffffffffffffffffffffffffff166000809054906101000a900473ffffffffffffffffffffffffffffffffffffffff1673ffffffffffffffffffffffffffffffffffffffff167f8be0079c531659141344cd1fd0a4f28419497f9722a3daafe3b4186f6b6457e060405160405180910390a3806000806101000a81548173ffffffffffffffffffffffffffffffffffffffff021916908373ffffffffffffffffffffffffffffffffffffffff16021790555050565b6116cc6119b4565b600060208301905060408051908101604052808451815260200182815250915050919050565b600080826000015161171685600001518660200151866000015187602001516117e5565b0190505b836000015184602001510181111515611762578180600101925050826000015161175a8560200151830386600001510383866000015187602001516117e5565b01905061171a565b5092915050565b6117716119b4565b61177c8383836118cb565b5092915050565b606080600083600001516040519080825280601f01601f1916602001820160405280156117bf5781602001602082028038833980820191505090505b5091506020820190506117db8185602001518660000151611969565b8192505050919050565b60008060008060008060008060008b97508c8b1115156118b55760208b11151561186f5760018b60200360080260020a03196001029550858a511694508a8d8d010393508588511692505b84600019168360001916141515611867578388101515611854578c8c0198506118bb565b8780600101985050858851169250611830565b8798506118bb565b8a8a209150600096505b8a8d03871115156118b4578a882090508060001916826000191614156118a1578798506118bb565b6001880197508680600101975050611879565b5b8c8c0198505b5050505050505050949350505050565b6118d36119b4565b60006118f185600001518660200151866000015187602001516117e5565b9050846020015183602001818152505084602001518103836000018181525050846000015185602001510181141561193357600085600001818152505061195e565b8360000151836000015101856000018181510391508181525050836000015181018560200181815250505b829150509392505050565b60005b602082101515611991578251845260208401935060208301925060208203915061196c565b6001826020036101000a0390508019835116818551168181178652505050505050565b6040805190810160405280600081526020016000815250905600a165627a7a72305820091820bc78700fd3400b35e7cf0ee400563c038736296e39cc252e4cda111882002960806040523480156200001157600080fd5b5060405162001aed38038062001aed83398101806040528101908080518201929190602001805182019291906020018051906020019092919050505033600360006101000a81548173ffffffffffffffffffffffffffffffffffffffff021916908373ffffffffffffffffffffffffffffffffffffffff160217905550600360009054906101000a900473ffffffffffffffffffffffffffffffffffffffff1673ffffffffffffffffffffffffffffffffffffffff16600073ffffffffffffffffffffffffffffffffffffffff167f8be0079c531659141344cd1fd0a4f28419497f9722a3daafe3b4186f6b6457e060405160405180910390a38260049080519060200190620001239291906200017d565b5081600590805190602001906200013c9291906200017d565b506005600660006101000a81548160ff021916908360ff16021790555080600660016101000a81548160ff021916908360ff1602179055505050506200022c565b828054600181600116156101000203166002900490600052602060002090601f016020900481019282601f10620001c057805160ff1916838001178555620001f1565b82800160010185558215620001f1579182015b82811115620001f0578251825591602001919060010190620001d3565b5b50905062000200919062000204565b5090565b6200022991905b80821115620002255760008160009055506001016200020b565b5090565b90565b6118b1806200023c6000396000f3006080604052600436106100fc576000357c0100000000000000000000000000000000000000000000000000000000900463ffffffff16806306fdde0314610101578063095ea7b31461019157806318160ddd146101f657806323b872dd14610221578063313ce567146102a657806339509351146102d757806370a082311461033c578063715018a6146103935780637251cd02146103aa5780638da5cb5b146103f75780638f32d59b1461044e57806395d89b411461047d578063a457c2d71461050d578063a9059cbb14610572578063b003b127146105d7578063c3501ff614610608578063dd62ed3e14610655578063f2fde38b146106cc575b600080fd5b34801561010d57600080fd5b5061011661070f565b6040518080602001828103825283818151815260200191508051906020019080838360005b8381101561015657808201518184015260208101905061013b565b50505050905090810190601f1680156101835780820380516001836020036101000a031916815260200191505b509250505060405180910390f35b34801561019d57600080fd5b506101dc600480360381019080803573ffffffffffffffffffffffffffffffffffffffff169060200190929190803590602001909291905050506107ad565b604051808215151515815260200191505060405180910390f35b34801561020257600080fd5b5061020b6108da565b6040518082815260200191505060405180910390f35b34801561022d57600080fd5b5061028c600480360381019080803573ffffffffffffffffffffffffffffffffffffffff169060200190929190803573ffffffffffffffffffffffffffffffffffffffff169060200190929190803590602001909291905050506108e4565b604051808215151515815260200191505060405180910390f35b3480156102b257600080fd5b506102bb610a96565b604051808260ff1660ff16815260200191505060405180910390f35b3480156102e357600080fd5b50610322600480360381019080803573ffffffffffffffffffffffffffffffffffffffff16906020019092919080359060200190929190505050610aa9565b604051808215151515815260200191505060405180910390f35b34801561034857600080fd5b5061037d600480360381019080803573ffffffffffffffffffffffffffffffffffffffff169060200190929190505050610ce0565b6040518082815260200191505060405180910390f35b34801561039f57600080fd5b506103a8610d28565b005b3480156103b657600080fd5b506103f560048036038101908080359060200190929190803573ffffffffffffffffffffffffffffffffffffffff169060200190929190505050610dfc565b005b34801561040357600080fd5b5061040c610e1d565b604051808273ffffffffffffffffffffffffffffffffffffffff1673ffffffffffffffffffffffffffffffffffffffff16815260200191505060405180910390f35b34801561045a57600080fd5b50610463610e47565b604051808215151515815260200191505060405180910390f35b34801561048957600080fd5b50610492610e9f565b6040518080602001828103825283818151815260200191508051906020019080838360005b838110156104d25780820151818401526020810190506104b7565b50505050905090810190601f1680156104ff5780820380516001836020036101000a031916815260200191505b509250505060405180910390f35b34801561051957600080fd5b50610558600480360381019080803573ffffffffffffffffffffffffffffffffffffffff16906020019092919080359060200190929190505050610f3d565b604051808215151515815260200191505060405180910390f35b34801561057e57600080fd5b506105bd600480360381019080803573ffffffffffffffffffffffffffffffffffffffff16906020019092919080359060200190929190505050611174565b604051808215151515815260200191505060405180910390f35b3480156105e357600080fd5b506105ec61118b565b604051808260ff1660ff16815260200191505060405180910390f35b34801561061457600080fd5b5061065360048036038101908080359060200190929190803573ffffffffffffffffffffffffffffffffffffffff16906020019092919050505061119e565b005b34801561066157600080fd5b506106b6600480360381019080803573ffffffffffffffffffffffffffffffffffffffff169060200190929190803573ffffffffffffffffffffffffffffffffffffffff1690602001909291905050506111bf565b6040518082815260200191505060405180910390f35b3480156106d857600080fd5b5061070d600480360381019080803573ffffffffffffffffffffffffffffffffffffffff169060200190929190505050611246565b005b60048054600181600116156101000203166002900480601f0160208091040260200160405190810160405280929190818152602001828054600181600116156101000203166002900480156107a55780601f1061077a576101008083540402835291602001916107a5565b820191906000526020600020905b81548152906001019060200180831161078857829003601f168201915b505050505081565b60008073ffffffffffffffffffffffffffffffffffffffff168373ffffffffffffffffffffffffffffffffffffffff16141515156107ea57600080fd5b81600160003373ffffffffffffffffffffffffffffffffffffffff1673ffffffffffffffffffffffffffffffffffffffff16815260200190815260200160002060008573ffffffffffffffffffffffffffffffffffffffff1673ffffffffffffffffffffffffffffffffffffffff168152602001908152602001600020819055508273ffffffffffffffffffffffffffffffffffffffff163373ffffffffffffffffffffffffffffffffffffffff167f8c5be1e5ebec7d5bd14f71427d1e84f3dd0314c0f7b2291e5b200ac8c7c3b925846040518082815260200191505060405180910390a36001905092915050565b6000600254905090565b6000600160008573ffffffffffffffffffffffffffffffffffffffff1673ffffffffffffffffffffffffffffffffffffffff16815260200190815260200160002060003373ffffffffffffffffffffffffffffffffffffffff1673ffffffffffffffffffffffffffffffffffffffff16815260200190815260200160002054821115151561097157600080fd5b610a0082600160008773ffffffffffffffffffffffffffffffffffffffff1673ffffffffffffffffffffffffffffffffffffffff16815260200190815260200160002060003373ffffffffffffffffffffffffffffffffffffffff1673ffffffffffffffffffffffffffffffffffffffff1681526020019081526020016000205461126590919063ffffffff16565b600160008673ffffffffffffffffffffffffffffffffffffffff1673ffffffffffffffffffffffffffffffffffffffff16815260200190815260200160002060003373ffffffffffffffffffffffffffffffffffffffff1673ffffffffffffffffffffffffffffffffffffffff16815260200190815260200160002081905550610a8b848484611286565b600190509392505050565b600660009054906101000a900460ff1681565b60008073ffffffffffffffffffffffffffffffffffffffff168373ffffffffffffffffffffffffffffffffffffffff1614151515610ae657600080fd5b610b7582600160003373ffffffffffffffffffffffffffffffffffffffff1673ffffffffffffffffffffffffffffffffffffffff16815260200190815260200160002060008673ffffffffffffffffffffffffffffffffffffffff1673ffffffffffffffffffffffffffffffffffffffff1681526020019081526020016000205461149f90919063ffffffff16565b600160003373ffffffffffffffffffffffffffffffffffffffff1673ffffffffffffffffffffffffffffffffffffffff16815260200190815260200160002060008573ffffffffffffffffffffffffffffffffffffffff1673ffffffffffffffffffffffffffffffffffffffff168152602001908152602001600020819055508273ffffffffffffffffffffffffffffffffffffffff163373ffffffffffffffffffffffffffffffffffffffff167f8c5be1e5ebec7d5bd14f71427d1e84f3dd0314c0f7b2291e5b200ac8c7c3b925600160003373ffffffffffffffffffffffffffffffffffffffff1673ffffffffffffffffffffffffffffffffffffffff16815260200190815260200160002060008773ffffffffffffffffffffffffffffffffffffffff1673ffffffffffffffffffffffffffffffffffffffff168152602001908152602001600020546040518082815260200191505060405180910390a36001905092915050565b60008060008373ffffffffffffffffffffffffffffffffffffffff1673ffffffffffffffffffffffffffffffffffffffff168152602001908152602001600020549050919050565b610d30610e47565b1515610d3b57600080fd5b600073ffffffffffffffffffffffffffffffffffffffff16600360009054906101000a900473ffffffffffffffffffffffffffffffffffffffff1673ffffffffffffffffffffffffffffffffffffffff167f8be0079c531659141344cd1fd0a4f28419497f9722a3daafe3b4186f6b6457e060405160405180910390a36000600360006101000a81548173ffffffffffffffffffffffffffffffffffffffff021916908373ffffffffffffffffffffffffffffffffffffffff160217905550565b610e04610e47565b1515610e0f57600080fd5b610e1981836114c0565b5050565b6000600360009054906101000a900473ffffffffffffffffffffffffffffffffffffffff16905090565b6000600360009054906101000a900473ffffffffffffffffffffffffffffffffffffffff1673ffffffffffffffffffffffffffffffffffffffff163373ffffffffffffffffffffffffffffffffffffffff1614905090565b60058054600181600116156101000203166002900480601f016020809104026020016040519081016040528092919081815260200182805460018160011615610100020316600290048015610f355780601f10610f0a57610100808354040283529160200191610f35565b820191906000526020600020905b815481529060010190602001808311610f1857829003601f168201915b505050505081565b60008073ffffffffffffffffffffffffffffffffffffffff168373ffffffffffffffffffffffffffffffffffffffff1614151515610f7a57600080fd5b61100982600160003373ffffffffffffffffffffffffffffffffffffffff1673ffffffffffffffffffffffffffffffffffffffff16815260200190815260200160002060008673ffffffffffffffffffffffffffffffffffffffff1673ffffffffffffffffffffffffffffffffffffffff1681526020019081526020016000205461126590919063ffffffff16565b600160003373ffffffffffffffffffffffffffffffffffffffff1673ffffffffffffffffffffffffffffffffffffffff16815260200190815260200160002060008573ffffffffffffffffffffffffffffffffffffffff1673ffffffffffffffffffffffffffffffffffffffff168152602001908152602001600020819055508273ffffffffffffffffffffffffffffffffffffffff163373ffffffffffffffffffffffffffffffffffffffff167f8c5be1e5ebec7d5bd14f71427d1e84f3dd0314c0f7b2291e5b200ac8c7c3b925600160003373ffffffffffffffffffffffffffffffffffffffff1673ffffffffffffffffffffffffffffffffffffffff16815260200190815260200160002060008773ffffffffffffffffffffffffffffffffffffffff1673ffffffffffffffffffffffffffffffffffffffff168152602001908152602001600020546040518082815260200191505060405180910390a36001905092915050565b6000611181338484611286565b6001905092915050565b600660019054906101000a900460ff1681565b6111a6610e47565b15156111b157600080fd5b6111bb81836115fe565b5050565b6000600160008473ffffffffffffffffffffffffffffffffffffffff1673ffffffffffffffffffffffffffffffffffffffff16815260200190815260200160002060008373ffffffffffffffffffffffffffffffffffffffff1673ffffffffffffffffffffffffffffffffffffffff16815260200190815260200160002054905092915050565b61124e610e47565b151561125957600080fd5b61126281611789565b50565b60008083831115151561127757600080fd5b82840390508091505092915050565b6000808473ffffffffffffffffffffffffffffffffffffffff1673ffffffffffffffffffffffffffffffffffffffff1681526020019081526020016000205481111515156112d357600080fd5b600073ffffffffffffffffffffffffffffffffffffffff168273ffffffffffffffffffffffffffffffffffffffff161415151561130f57600080fd5b611360816000808673ffffffffffffffffffffffffffffffffffffffff1673ffffffffffffffffffffffffffffffffffffffff1681526020019081526020016000205461126590919063ffffffff16565b6000808573ffffffffffffffffffffffffffffffffffffffff1673ffffffffffffffffffffffffffffffffffffffff168152602001908152602001600020819055506113f3816000808573ffffffffffffffffffffffffffffffffffffffff1673ffffffffffffffffffffffffffffffffffffffff1681526020019081526020016000205461149f90919063ffffffff16565b6000808473ffffffffffffffffffffffffffffffffffffffff1673ffffffffffffffffffffffffffffffffffffffff168152602001908152602001600020819055508173ffffffffffffffffffffffffffffffffffffffff168373ffffffffffffffffffffffffffffffffffffffff167fddf252ad1be2c89b69c2b068fc378daa952ba7f163c4a11628f55a4df523b3ef836040518082815260200191505060405180910390a3505050565b60008082840190508381101515156114b657600080fd5b8091505092915050565b60008273ffffffffffffffffffffffffffffffffffffffff16141515156114e657600080fd5b6114fb8160025461149f90919063ffffffff16565b600281905550611552816000808573ffffffffffffffffffffffffffffffffffffffff1673ffffffffffffffffffffffffffffffffffffffff1681526020019081526020016000205461149f90919063ffffffff16565b6000808473ffffffffffffffffffffffffffffffffffffffff1673ffffffffffffffffffffffffffffffffffffffff168152602001908152602001600020819055508173ffffffffffffffffffffffffffffffffffffffff16600073ffffffffffffffffffffffffffffffffffffffff167fddf252ad1be2c89b69c2b068fc378daa952ba7f163c4a11628f55a4df523b3ef836040518082815260200191505060405180910390a35050565b60008273ffffffffffffffffffffffffffffffffffffffff161415151561162457600080fd5b6000808373ffffffffffffffffffffffffffffffffffffffff1673ffffffffffffffffffffffffffffffffffffffff16815260200190815260200160002054811115151561167157600080fd5b6116868160025461126590919063ffffffff16565b6002819055506116dd816000808573ffffffffffffffffffffffffffffffffffffffff1673ffffffffffffffffffffffffffffffffffffffff1681526020019081526020016000205461126590919063ffffffff16565b6000808473ffffffffffffffffffffffffffffffffffffffff1673ffffffffffffffffffffffffffffffffffffffff16815260200190815260200160002081905550600073ffffffffffffffffffffffffffffffffffffffff168273ffffffffffffffffffffffffffffffffffffffff167fddf252ad1be2c89b69c2b068fc378daa952ba7f163c4a11628f55a4df523b3ef836040518082815260200191505060405180910390a35050565b600073ffffffffffffffffffffffffffffffffffffffff168173ffffffffffffffffffffffffffffffffffffffff16141515156117c557600080fd5b8073ffffffffffffffffffffffffffffffffffffffff16600360009054906101000a900473ffffffffffffffffffffffffffffffffffffffff1673ffffffffffffffffffffffffffffffffffffffff167f8be0079c531659141344cd1fd0a4f28419497f9722a3daafe3b4186f6b6457e060405160405180910390a380600360006101000a81548173ffffffffffffffffffffffffffffffffffffffff021916908373ffffffffffffffffffffffffffffffffffffffff160217905550505600a165627a7a72305820017fb30ad726a7831d145ba20a83550806e836a03594a34f27e0a3f98b5dac300029a165627a7a72305820ef00ef348d1e34ed2e9eebb546163dde835d5a1aa06b3c8741bc37dee07081d60029",
  "source": "/*\n    Copyright 2017-2019 Phillip A. Elsasser\n\n    Licensed under the Apache License, Version 2.0 (the \"License\");\n    you may not use this file except in compliance with the License.\n    You may obtain a copy of the License at\n\n    http://www.apache.org/licenses/LICENSE-2.0\n\n    Unless required by applicable law or agreed to in writing, software\n    distributed under the License is distributed on an \"AS IS\" BASIS,\n    WITHOUT WARRANTIES OR CONDITIONS OF ANY KIND, either express or implied.\n    See the License for the specific language governing permissions and\n    limitations under the License.\n*/\n\npragma solidity 0.4.25;\n\nimport \"./MarketContractMPX.sol\";\nimport \"../MarketContractRegistryInterface.sol\";\n\nimport \"openzeppelin-solidity/contracts/ownership/Ownable.sol\";\n\n\n/// @title MarketContractFactoryMPX\n/// @author Phil Elsasser <phil@marketprotocol.io>\ncontract MarketContractFactoryMPX is Ownable {\n\n    address public marketContractRegistry;\n    address public oracleHub;\n    address public MARKET_COLLATERAL_POOL;\n\n    event MarketContractCreated(address indexed creator, address indexed contractAddress);\n\n    /// @dev deploys our factory and ties it to the supplied registry address\n    /// @param registryAddress - address of our MARKET registry\n    /// @param collateralPoolAddress - address of our MARKET Collateral pool\n    /// @param oracleHubAddress - address of the MPX oracle\n    constructor(\n        address registryAddress,\n        address collateralPoolAddress,\n        address oracleHubAddress\n    ) public {\n        marketContractRegistry = registryAddress;\n        MARKET_COLLATERAL_POOL = collateralPoolAddress;\n        oracleHub = oracleHubAddress;\n    }\n\n    /// @dev Deploys a new instance of a market contract and adds it to the whitelist.\n    /// @param contractNames comma separated list of 3 names \"contractName,longTokenSymbol,shortTokenSymbol\"\n    /// @param collateralTokenAddress address of the ERC20 token that will be used for collateral and pricing\n    /// @param contractSpecs array of unsigned integers including:\n    ///     floorPrice              minimum tradeable price of this contract, contract enters settlement if breached\n    ///     capPrice                maximum tradeable price of this contract, contract enters settlement if breached\n    ///     priceDecimalPlaces      number of decimal places to convert our queried price from a floating point to\n    ///                             an integer\n    ///     qtyMultiplier           multiply traded qty by this value from base units of collateral token.\n    ///     feeInBasisPoints    fee amount in basis points (Collateral token denominated) for minting.\n    ///     mktFeeInBasisPoints fee amount in basis points (MKT denominated) for minting.\n    ///     expirationTimeStamp     seconds from epoch that this contract expires and enters settlement\n    /// @param oracleURL url of data\n    /// @param oracleStatistic statistic type (lastPrice, vwap, etc)\n    function deployMarketContractMPX(\n        string contractNames,\n        address collateralTokenAddress,\n        uint[7] contractSpecs,\n        string oracleURL,\n        string oracleStatistic\n    ) external\n    {\n        MarketContractMPX mktContract = new MarketContractMPX(\n            contractNames,\n            [\n            owner(),\n            collateralTokenAddress,\n            MARKET_COLLATERAL_POOL\n            ],\n            oracleHub,\n            contractSpecs,\n            oracleURL,\n            oracleStatistic\n        );\n\n        MarketContractRegistryInterface(marketContractRegistry).addAddressToWhiteList(address(mktContract));\n        emit MarketContractCreated(msg.sender, address(mktContract));\n    }\n\n    /// @dev allows for the owner to set the desired registry for contract creation.\n    /// @param registryAddress desired registry address.\n    function setRegistryAddress(address registryAddress) external onlyOwner {\n        require(registryAddress != address(0));\n        marketContractRegistry = registryAddress;\n    }\n\n    /// @dev allows for the owner to set a new oracle hub address which is responsible for providing data to our\n    /// contracts\n    /// @param oracleHubAddress   address of the oracle hub, cannot be null address\n    function setOracleHubAddress(address oracleHubAddress) external onlyOwner {\n        require(oracleHubAddress != address(0));\n        oracleHub = oracleHubAddress;\n    }\n}",
  "sourcePath": "/home/travis/build/MARKETProtocol/MARKETProtocol/contracts/mpx/MarketContractFactoryMPX.sol",
  "compiler": {
    "name": "solc",
    "version": "0.4.25+commit.59dbf8f1.Emscripten.clang"
  },
  "schemaVersion": "2.0.2",
  "updatedAt": "2019-04-10T20:47:20.803Z"
}