{
  "contractName": "MarketContractFactoryOraclize",
  "abi": [
    {
      "constant": true,
      "inputs": [],
      "name": "MKT_TOKEN_ADDRESS",
      "outputs": [
        {
          "name": "",
          "type": "address"
        }
      ],
      "payable": false,
      "stateMutability": "view",
      "type": "function"
    },
    {
      "constant": true,
      "inputs": [],
      "name": "owner",
      "outputs": [
        {
          "name": "",
          "type": "address"
        }
      ],
      "payable": false,
      "stateMutability": "view",
      "type": "function"
    },
    {
      "constant": true,
      "inputs": [],
      "name": "marketContractRegistry",
      "outputs": [
        {
          "name": "",
          "type": "address"
        }
      ],
      "payable": false,
      "stateMutability": "view",
      "type": "function"
    },
    {
      "constant": true,
      "inputs": [],
      "name": "MKT_TOKEN",
      "outputs": [
        {
          "name": "",
          "type": "address"
        }
      ],
      "payable": false,
      "stateMutability": "view",
      "type": "function"
    },
    {
      "constant": false,
      "inputs": [
        {
          "name": "newOwner",
          "type": "address"
        }
      ],
      "name": "transferOwnership",
      "outputs": [],
      "payable": false,
      "stateMutability": "nonpayable",
      "type": "function"
    },
    {
      "inputs": [
        {
          "name": "registryAddress",
          "type": "address"
        },
        {
          "name": "mktTokenAddress",
          "type": "address"
        }
      ],
      "payable": false,
      "stateMutability": "nonpayable",
      "type": "constructor"
    },
    {
      "anonymous": false,
      "inputs": [
        {
          "indexed": true,
          "name": "creator",
          "type": "address"
        },
        {
          "indexed": true,
          "name": "contractAddress",
          "type": "address"
        }
      ],
      "name": "MarketContractCreated",
      "type": "event"
    },
    {
      "anonymous": false,
      "inputs": [
        {
          "indexed": true,
          "name": "previousOwner",
          "type": "address"
        },
        {
          "indexed": true,
          "name": "newOwner",
          "type": "address"
        }
      ],
      "name": "OwnershipTransferred",
      "type": "event"
    },
    {
      "constant": false,
      "inputs": [
        {
          "name": "contractName",
          "type": "string"
        },
        {
          "name": "collateralTokenAddress",
          "type": "address"
        },
        {
          "name": "contractSpecs",
          "type": "uint256[5]"
        },
        {
          "name": "oracleDataSource",
          "type": "string"
        },
        {
          "name": "oracleQuery",
          "type": "string"
        }
      ],
      "name": "deployMarketContractOraclize",
      "outputs": [],
      "payable": false,
      "stateMutability": "nonpayable",
      "type": "function"
    },
    {
      "constant": false,
      "inputs": [
        {
          "name": "registryAddress",
          "type": "address"
        }
      ],
      "name": "setRegistryAddress",
      "outputs": [],
      "payable": false,
      "stateMutability": "nonpayable",
      "type": "function"
    }
  ],
  "bytecode": "0x608060405234801561001057600080fd5b506040516040806144fe8339810180604052810190808051906020019092919080519060200190929190505050336000806101000a81548173ffffffffffffffffffffffffffffffffffffffff021916908373ffffffffffffffffffffffffffffffffffffffff16021790555081600160006101000a81548173ffffffffffffffffffffffffffffffffffffffff021916908373ffffffffffffffffffffffffffffffffffffffff16021790555080600260006101000a81548173ffffffffffffffffffffffffffffffffffffffff021916908373ffffffffffffffffffffffffffffffffffffffff16021790555080600360006101000a81548173ffffffffffffffffffffffffffffffffffffffff021916908373ffffffffffffffffffffffffffffffffffffffff16021790555050506143ad806101516000396000f3006080604052600436106200008b576000357c0100000000000000000000000000000000000000000000000000000000900463ffffffff168063798ddbc814620000905780638da5cb5b14620000ea578063ab7b49931462000144578063ceaaa915146200018a578063ea0a80fb14620001e4578063f2fde38b146200023e578063fdea945f1462000284575b600080fd5b3480156200009d57600080fd5b50620000a86200031c565b604051808273ffffffffffffffffffffffffffffffffffffffff1673ffffffffffffffffffffffffffffffffffffffff16815260200191505060405180910390f35b348015620000f757600080fd5b506200010262000342565b604051808273ffffffffffffffffffffffffffffffffffffffff1673ffffffffffffffffffffffffffffffffffffffff16815260200191505060405180910390f35b3480156200015157600080fd5b5062000188600480360381019080803573ffffffffffffffffffffffffffffffffffffffff16906020019092919050505062000367565b005b3480156200019757600080fd5b50620001a262000444565b604051808273ffffffffffffffffffffffffffffffffffffffff1673ffffffffffffffffffffffffffffffffffffffff16815260200191505060405180910390f35b348015620001f157600080fd5b50620001fc6200046a565b604051808273ffffffffffffffffffffffffffffffffffffffff1673ffffffffffffffffffffffffffffffffffffffff16815260200191505060405180910390f35b3480156200024b57600080fd5b5062000282600480360381019080803573ffffffffffffffffffffffffffffffffffffffff16906020019092919050505062000490565b005b3480156200029157600080fd5b506200031a600480360381019080803590602001908201803590602001919091929391929390803573ffffffffffffffffffffffffffffffffffffffff1690602001909291908060a001909192919290803590602001908201803590602001919091929391929390803590602001908201803590602001919091929391929390505050620005e7565b005b600260009054906101000a900473ffffffffffffffffffffffffffffffffffffffff1681565b6000809054906101000a900473ffffffffffffffffffffffffffffffffffffffff1681565b6000809054906101000a900473ffffffffffffffffffffffffffffffffffffffff1673ffffffffffffffffffffffffffffffffffffffff163373ffffffffffffffffffffffffffffffffffffffff16141515620003c357600080fd5b600073ffffffffffffffffffffffffffffffffffffffff168173ffffffffffffffffffffffffffffffffffffffff16141515156200040057600080fd5b80600160006101000a81548173ffffffffffffffffffffffffffffffffffffffff021916908373ffffffffffffffffffffffffffffffffffffffff16021790555050565b600160009054906101000a900473ffffffffffffffffffffffffffffffffffffffff1681565b600360009054906101000a900473ffffffffffffffffffffffffffffffffffffffff1681565b6000809054906101000a900473ffffffffffffffffffffffffffffffffffffffff1673ffffffffffffffffffffffffffffffffffffffff163373ffffffffffffffffffffffffffffffffffffffff16141515620004ec57600080fd5b600073ffffffffffffffffffffffffffffffffffffffff168173ffffffffffffffffffffffffffffffffffffffff16141515156200052957600080fd5b8073ffffffffffffffffffffffffffffffffffffffff166000809054906101000a900473ffffffffffffffffffffffffffffffffffffffff1673ffffffffffffffffffffffffffffffffffffffff167f8be0079c531659141344cd1fd0a4f28419497f9722a3daafe3b4186f6b6457e060405160405180910390a3806000806101000a81548173ffffffffffffffffffffffffffffffffffffffff021916908373ffffffffffffffffffffffffffffffffffffffff16021790555050565b6000600360009054906101000a900473ffffffffffffffffffffffffffffffffffffffff1673ffffffffffffffffffffffffffffffffffffffff166384281dcc336040518263ffffffff167c0100000000000000000000000000000000000000000000000000000000028152600401808273ffffffffffffffffffffffffffffffffffffffff1673ffffffffffffffffffffffffffffffffffffffff168152602001915050602060405180830381600087803b158015620006a757600080fd5b505af1158015620006bc573d6000803e3d6000fd5b505050506040513d6020811015620006d357600080fd5b81019080805190602001909291905050501515620006f057600080fd5b888860408051908101604052803373ffffffffffffffffffffffffffffffffffffffff1673ffffffffffffffffffffffffffffffffffffffff1681526020018a73ffffffffffffffffffffffffffffffffffffffff1673ffffffffffffffffffffffffffffffffffffffff1681525088888888886200076e6200096e565b808060200188600260200280838360005b838110156200079c5780820151818401526020810190506200077f565b50505050905001876005602002808284378201915050806020018060200184810384528c8c82818152602001925080828437820191505084810383528888828181526020019250808284378201915050848103825286868281815260200192508082843782019150509b505050505050505050505050604051809103906000f0801580156200082f573d6000803e3d6000fd5b509050600160009054906101000a900473ffffffffffffffffffffffffffffffffffffffff1673ffffffffffffffffffffffffffffffffffffffff16639244f496826040518263ffffffff167c0100000000000000000000000000000000000000000000000000000000028152600401808273ffffffffffffffffffffffffffffffffffffffff1673ffffffffffffffffffffffffffffffffffffffff168152602001915050600060405180830381600087803b158015620008f057600080fd5b505af115801562000905573d6000803e3d6000fd5b505050508073ffffffffffffffffffffffffffffffffffffffff163373ffffffffffffffffffffffffffffffffffffffff167f38ee3ff13b5d3453452a79e0799d83b2c8207bf126b2798fa512343680f643ee60405160405180910390a3505050505050505050565b604051613a02806200098083390190560060806040526000600a60006101000a81548160ff0219169083151502179055503480156200002c57600080fd5b5060405162003a0238038062003a028339810180604052810190808051820192919060200191908260400191908260a0018051820192919060200180518201929190505050848484336000806101000a81548173ffffffffffffffffffffffffffffffffffffffff021916908373ffffffffffffffffffffffffffffffffffffffff160217905550806000600581101515620000c457fe5b6020020151600481905550806001600581101515620000df57fe5b6020020151600381905550600454600354111515620000fd57600080fd5b8060026005811015156200010d57fe5b60200201516005819055508060036005811015156200012857fe5b60200201516006819055508060046005811015156200014357fe5b6020020151600781905550426007541115156200015f57600080fd5b826001908051906020019062000177929190620013d1565b508160016002811015156200018857fe5b6020020151600260006101000a81548173ffffffffffffffffffffffffffffffffffffffff021916908373ffffffffffffffffffffffffffffffffffffffff160217905550816000600281101515620001dd57fe5b60200201516000806101000a81548173ffffffffffffffffffffffffffffffffffffffff021916908373ffffffffffffffffffffffffffffffffffffffff1602179055505050506200028660017f01000000000000000000000000000000000000000000000000000000000000000260107f01000000000000000000000000000000000000000000000000000000000000000217620002f3640100000000026401000000009004565b81600d90805190602001906200029e929190620013d1565b5080600e9080519060200190620002b7929190620013d1565b50624f1a00426007540311151515620002cf57600080fd5b620002e8620006ab640100000000026401000000009004565b505050505062001480565b6000600a60019054906101000a900473ffffffffffffffffffffffffffffffffffffffff1673ffffffffffffffffffffffffffffffffffffffff161480620003765750600062000374600a60019054906101000a900473ffffffffffffffffffffffffffffffffffffffff166200085c640100000000026401000000009004565b145b15620003995762000397600062000867640100000000026401000000009004565b505b600a60019054906101000a900473ffffffffffffffffffffffffffffffffffffffff1673ffffffffffffffffffffffffffffffffffffffff166338cc48316040518163ffffffff167c0100000000000000000000000000000000000000000000000000000000028152600401602060405180830381600087803b1580156200042057600080fd5b505af115801562000435573d6000803e3d6000fd5b505050506040513d60208110156200044c57600080fd5b810190808051906020019092919050505073ffffffffffffffffffffffffffffffffffffffff16600b60009054906101000a900473ffffffffffffffffffffffffffffffffffffffff1673ffffffffffffffffffffffffffffffffffffffff16141515620005b957600a60019054906101000a900473ffffffffffffffffffffffffffffffffffffffff1673ffffffffffffffffffffffffffffffffffffffff166338cc48316040518163ffffffff167c0100000000000000000000000000000000000000000000000000000000028152600401602060405180830381600087803b1580156200053b57600080fd5b505af115801562000550573d6000803e3d6000fd5b505050506040513d60208110156200056757600080fd5b8101908080519060200190929190505050600b60006101000a81548173ffffffffffffffffffffffffffffffffffffffff021916908373ffffffffffffffffffffffffffffffffffffffff1602179055505b600b60009054906101000a900473ffffffffffffffffffffffffffffffffffffffff1673ffffffffffffffffffffffffffffffffffffffff1663688dcfd7826040518263ffffffff167c010000000000000000000000000000000000000000000000000000000002815260040180827effffffffffffffffffffffffffffffffffffffffffffffffffffffffffffff19167effffffffffffffffffffffffffffffffffffffffffffffffffffffffffffff19168152602001915050600060405180830381600087803b1580156200068f57600080fd5b505af1158015620006a4573d6000803e3d6000fd5b5050505050565b60006200080b600754600d8054600181600116156101000203166002900480601f0160208091040260200160405190810160405280929190818152602001828054600181600116156101000203166002900480156200074e5780601f1062000722576101008083540402835291602001916200074e565b820191906000526020600020905b8154815290600101906020018083116200073057829003601f168201915b5050505050600e8054600181600116156101000203166002900480601f016020809104026020016040519081016040528092919081815260200182805460018160011615610100020316600290048015620007ed5780601f10620007c157610100808354040283529160200191620007ed565b820191906000526020600020905b815481529060010190602001808311620007cf57829003601f168201915b5050505050620249f062000889640100000000026401000000009004565b905060006001028160001916141515156200082557600080fd5b600160106000836000191660001916815260200190815260200160002060006101000a81548160ff02191690831515021790555050565b6000813b9050919050565b60006200088262000e56640100000000026401000000009004565b9050919050565b6000806000600a60019054906101000a900473ffffffffffffffffffffffffffffffffffffffff1673ffffffffffffffffffffffffffffffffffffffff1614806200090f575060006200090d600a60019054906101000a900473ffffffffffffffffffffffffffffffffffffffff166200085c640100000000026401000000009004565b145b15620009325762000930600062000867640100000000026401000000009004565b505b600a60019054906101000a900473ffffffffffffffffffffffffffffffffffffffff1673ffffffffffffffffffffffffffffffffffffffff166338cc48316040518163ffffffff167c0100000000000000000000000000000000000000000000000000000000028152600401602060405180830381600087803b158015620009b957600080fd5b505af1158015620009ce573d6000803e3d6000fd5b505050506040513d6020811015620009e557600080fd5b810190808051906020019092919050505073ffffffffffffffffffffffffffffffffffffffff16600b60009054906101000a900473ffffffffffffffffffffffffffffffffffffffff1673ffffffffffffffffffffffffffffffffffffffff1614151562000b5257600a60019054906101000a900473ffffffffffffffffffffffffffffffffffffffff1673ffffffffffffffffffffffffffffffffffffffff166338cc48316040518163ffffffff167c0100000000000000000000000000000000000000000000000000000000028152600401602060405180830381600087803b15801562000ad457600080fd5b505af115801562000ae9573d6000803e3d6000fd5b505050506040513d602081101562000b0057600080fd5b8101908080519060200190929190505050600b60006101000a81548173ffffffffffffffffffffffffffffffffffffffff021916908373ffffffffffffffffffffffffffffffffffffffff1602179055505b600b60009054906101000a900473ffffffffffffffffffffffffffffffffffffffff1673ffffffffffffffffffffffffffffffffffffffff16632ef3accc86856040518363ffffffff167c01000000000000000000000000000000000000000000000000000000000281526004018080602001838152602001828103825284818151815260200191508051906020019080838360005b8381101562000c0557808201518184015260208101905062000be8565b50505050905090810190601f16801562000c335780820380516001836020036101000a031916815260200191505b509350505050602060405180830381600087803b15801562000c5457600080fd5b505af115801562000c69573d6000803e3d6000fd5b505050506040513d602081101562000c8057600080fd5b81019080805190602001909291905050509050600b60009054906101000a900473ffffffffffffffffffffffffffffffffffffffff1673ffffffffffffffffffffffffffffffffffffffff1663c51be90f82888888886040518663ffffffff167c0100000000000000000000000000000000000000000000000000000000028152600401808581526020018060200180602001848152602001838103835286818151815260200191508051906020019080838360005b8381101562000d5357808201518184015260208101905062000d36565b50505050905090810190601f16801562000d815780820380516001836020036101000a031916815260200191505b50838103825285818151815260200191508051906020019080838360005b8381101562000dbc57808201518184015260208101905062000d9f565b50505050905090810190601f16801562000dea5780820380516001836020036101000a031916815260200191505b5096505050505050506020604051808303818588803b15801562000e0d57600080fd5b505af115801562000e22573d6000803e3d6000fd5b50505050506040513d602081101562000e3a57600080fd5b8101908080519060200190929190505050915050949350505050565b60008062000e87731d3b2638a7cc9f2cb3d298a3da7a90b67e5506ed6200085c640100000000026401000000009004565b111562000f3c57731d3b2638a7cc9f2cb3d298a3da7a90b67e5506ed600a60016101000a81548173ffffffffffffffffffffffffffffffffffffffff021916908373ffffffffffffffffffffffffffffffffffffffff16021790555062000f326040805190810160405280600b81526020017f6574685f6d61696e6e6574000000000000000000000000000000000000000000815250620013b5640100000000026401000000009004565b60019050620013b2565b600062000f6c73c03a2615d5efaf5f49f60b7bb6583eaec212fdf16200085c640100000000026401000000009004565b1115620010215773c03a2615d5efaf5f49f60b7bb6583eaec212fdf1600a60016101000a81548173ffffffffffffffffffffffffffffffffffffffff021916908373ffffffffffffffffffffffffffffffffffffffff160217905550620010176040805190810160405280600c81526020017f6574685f726f707374656e330000000000000000000000000000000000000000815250620013b5640100000000026401000000009004565b60019050620013b2565b60006200105173b7a07bcf2ba2f2703b24c0691b5278999c59ac7e6200085c640100000000026401000000009004565b1115620011065773b7a07bcf2ba2f2703b24c0691b5278999c59ac7e600a60016101000a81548173ffffffffffffffffffffffffffffffffffffffff021916908373ffffffffffffffffffffffffffffffffffffffff160217905550620010fc6040805190810160405280600981526020017f6574685f6b6f76616e0000000000000000000000000000000000000000000000815250620013b5640100000000026401000000009004565b60019050620013b2565b60006200113673146500cfd35b22e4a392fe0adc06de1a1368ed486200085c640100000000026401000000009004565b1115620011eb5773146500cfd35b22e4a392fe0adc06de1a1368ed48600a60016101000a81548173ffffffffffffffffffffffffffffffffffffffff021916908373ffffffffffffffffffffffffffffffffffffffff160217905550620011e16040805190810160405280600b81526020017f6574685f72696e6b656279000000000000000000000000000000000000000000815250620013b5640100000000026401000000009004565b60019050620013b2565b60006200121b736f485c8bf6fc43ea212e93bbf8ce046c7f1cb4756200085c640100000000026401000000009004565b11156200128157736f485c8bf6fc43ea212e93bbf8ce046c7f1cb475600a60016101000a81548173ffffffffffffffffffffffffffffffffffffffff021916908373ffffffffffffffffffffffffffffffffffffffff16021790555060019050620013b2565b6000620012b17320e12a1f859b3feae5fb2a0a32c18f5a65555bbf6200085c640100000000026401000000009004565b111562001317577320e12a1f859b3feae5fb2a0a32c18f5a65555bbf600a60016101000a81548173ffffffffffffffffffffffffffffffffffffffff021916908373ffffffffffffffffffffffffffffffffffffffff16021790555060019050620013b2565b6000620013477351efaf4c8b3c9afbd5ab9f4bbc82784ab6ef8faa6200085c640100000000026401000000009004565b1115620013ad577351efaf4c8b3c9afbd5ab9f4bbc82784ab6ef8faa600a60016101000a81548173ffffffffffffffffffffffffffffffffffffffff021916908373ffffffffffffffffffffffffffffffffffffffff16021790555060019050620013b2565b600090505b90565b80600c9080519060200190620013cd929190620013d1565b5050565b828054600181600116156101000203166002900490600052602060002090601f016020900481019282601f106200141457805160ff191683800117855562001445565b8280016001018555821562001445579182015b828111156200144457825182559160200191906001019062001427565b5b50905062001454919062001458565b5090565b6200147d91905b80821115620014795760008160009055506001016200145f565b5090565b90565b61257280620014906000396000f300608060405260043610610107576000357c0100000000000000000000000000000000000000000000000000000000900463ffffffff16806302d05d3f1461010c578063053f14da146101635780630c8eb6751461018e57806327dc297e1461021e5780632fed1b0014610295578063323bb775146102c05780633270bb5b1461031757806338bbfa5014610346578063411449bb1461040357806356357d911461042e5780635ea7867a146104be578063614d08f81461054e5780636db7f77c146105de578063b5471dee146105e8578063bb4b573414610613578063c32b1dfa1461063e578063ca361d6714610669578063f348e8b214610694578063fa3fa196146106bf575b600080fd5b34801561011857600080fd5b50610121610702565b604051808273ffffffffffffffffffffffffffffffffffffffff1673ffffffffffffffffffffffffffffffffffffffff16815260200191505060405180910390f35b34801561016f57600080fd5b50610178610727565b6040518082815260200191505060405180910390f35b34801561019a57600080fd5b506101a361072d565b6040518080602001828103825283818151815260200191508051906020019080838360005b838110156101e35780820151818401526020810190506101c8565b50505050905090810190601f1680156102105780820380516001836020036101000a031916815260200191505b509250505060405180910390f35b34801561022a57600080fd5b506102936004803603810190808035600019169060200190929190803590602001908201803590602001908080601f01602080910402602001604051908101604052809392919081815260200183838082843782019150505050505091929192905050506107cb565b005b3480156102a157600080fd5b506102aa61080e565b6040518082815260200191505060405180910390f35b3480156102cc57600080fd5b506102d5610814565b604051808273ffffffffffffffffffffffffffffffffffffffff1673ffffffffffffffffffffffffffffffffffffffff16815260200191505060405180910390f35b34801561032357600080fd5b5061032c61083a565b604051808215151515815260200191505060405180910390f35b34801561035257600080fd5b506104016004803603810190808035600019169060200190929190803590602001908201803590602001908080601f0160208091040260200160405190810160405280939291908181526020018383808284378201915050505050509192919290803590602001908201803590602001908080601f016020809104026020016040519081016040528093929190818152602001838380828437820191505050505050919291929050505061084d565b005b34801561040f57600080fd5b5061041861095c565b6040518082815260200191505060405180910390f35b34801561043a57600080fd5b50610443610963565b6040518080602001828103825283818151815260200191508051906020019080838360005b83811015610483578082015181840152602081019050610468565b50505050905090810190601f1680156104b05780820380516001836020036101000a031916815260200191505b509250505060405180910390f35b3480156104ca57600080fd5b506104d3610a01565b6040518080602001828103825283818151815260200191508051906020019080838360005b838110156105135780820151818401526020810190506104f8565b50505050905090810190601f1680156105405780820380516001836020036101000a031916815260200191505b509250505060405180910390f35b34801561055a57600080fd5b50610563610a9f565b6040518080602001828103825283818151815260200191508051906020019080838360005b838110156105a3578082015181840152602081019050610588565b50505050905090810190601f1680156105d05780820380516001836020036101000a031916815260200191505b509250505060405180910390f35b6105e6610b3d565b005b3480156105f457600080fd5b506105fd610d8b565b6040518082815260200191505060405180910390f35b34801561061f57600080fd5b50610628610d91565b6040518082815260200191505060405180910390f35b34801561064a57600080fd5b50610653610d97565b6040518082815260200191505060405180910390f35b34801561067557600080fd5b5061067e610d9d565b6040518082815260200191505060405180910390f35b3480156106a057600080fd5b506106a9610da3565b6040518082815260200191505060405180910390f35b3480156106cb57600080fd5b50610700600480360381019080803573ffffffffffffffffffffffffffffffffffffffff169060200190929190505050610da9565b005b6000809054906101000a900473ffffffffffffffffffffffffffffffffffffffff1681565b60085481565b600f8054600181600116156101000203166002900480601f0160208091040260200160405190810160405280929190818152602001828054600181600116156101000203166002900480156107c35780601f10610798576101008083540402835291602001916107c3565b820191906000526020600020905b8154815290600101906020018083116107a657829003601f168201915b505050505081565b61080a828260006040519080825280601f01601f1916602001820160405280156108045781602001602082028038833980820191505090505b5061084d565b5050565b60055481565b600260009054906101000a900473ffffffffffffffffffffffffffffffffffffffff1681565b600a60009054906101000a900460ff1681565b610855610efe565b73ffffffffffffffffffffffffffffffffffffffff163373ffffffffffffffffffffffffffffffffffffffff1614151561088e57600080fd5b60106000846000191660001916815260200190815260200160002060009054906101000a900460ff1615156108c257600080fd5b81600f90805190602001906108d89291906124a1565b506108e582600554611260565b6008819055507f8848a3fb6a59cb2631434df52b885e109a25f8b683d0721da7ef92618182b4826008546040518082815260200191505060405180910390a161092c611554565b60106000846000191660001916815260200190815260200160002060006101000a81549060ff0219169055505050565b620249f081565b600d8054600181600116156101000203166002900480601f0160208091040260200160405190810160405280929190818152602001828054600181600116156101000203166002900480156109f95780601f106109ce576101008083540402835291602001916109f9565b820191906000526020600020905b8154815290600101906020018083116109dc57829003601f168201915b505050505081565b600e8054600181600116156101000203166002900480601f016020809104026020016040519081016040528092919081815260200182805460018160011615610100020316600290048015610a975780601f10610a6c57610100808354040283529160200191610a97565b820191906000526020600020905b815481529060010190602001808311610a7a57829003601f168201915b505050505081565b60018054600181600116156101000203166002900480601f016020809104026020016040519081016040528092919081815260200182805460018160011615610100020316600290048015610b355780601f10610b0a57610100808354040283529160200191610b35565b820191906000526020600020905b815481529060010190602001808311610b1857829003601f168201915b505050505081565b600080610be7600d8054600181600116156101000203166002900480601f016020809104026020016040519081016040528092919081815260200182805460018160011615610100020316600290048015610bd95780601f10610bae57610100808354040283529160200191610bd9565b820191906000526020600020905b815481529060010190602001808311610bbc57829003601f168201915b5050505050620249f0611624565b9150813410151515610bf857600080fd5b610d3a600d8054600181600116156101000203166002900480601f016020809104026020016040519081016040528092919081815260200182805460018160011615610100020316600290048015610c915780601f10610c6657610100808354040283529160200191610c91565b820191906000526020600020905b815481529060010190602001808311610c7457829003601f168201915b5050505050600e8054600181600116156101000203166002900480601f016020809104026020016040519081016040528092919081815260200182805460018160011615610100020316600290048015610d2c5780601f10610d0157610100808354040283529160200191610d2c565b820191906000526020600020905b815481529060010190602001808311610d0f57829003601f168201915b5050505050620249f0611a01565b90506000600102816000191614151515610d5357600080fd5b600160106000836000191660001916815260200190815260200160002060006101000a81548160ff0219169083151502179055505050565b60035481565b60075481565b60045481565b60065481565b60095481565b6000809054906101000a900473ffffffffffffffffffffffffffffffffffffffff1673ffffffffffffffffffffffffffffffffffffffff163373ffffffffffffffffffffffffffffffffffffffff16141515610e0457600080fd5b600073ffffffffffffffffffffffffffffffffffffffff168173ffffffffffffffffffffffffffffffffffffffff1614151515610e4057600080fd5b8073ffffffffffffffffffffffffffffffffffffffff166000809054906101000a900473ffffffffffffffffffffffffffffffffffffffff1673ffffffffffffffffffffffffffffffffffffffff167f7f11fe0c7098e1a76afcc68f35abaa07ef156fa7d6dd2d39664812fe37348d1660405160405180910390a3806000806101000a81548173ffffffffffffffffffffffffffffffffffffffff021916908373ffffffffffffffffffffffffffffffffffffffff16021790555050565b600080600a60019054906101000a900473ffffffffffffffffffffffffffffffffffffffff1673ffffffffffffffffffffffffffffffffffffffff161480610f7057506000610f6e600a60019054906101000a900473ffffffffffffffffffffffffffffffffffffffff16611f94565b145b15610f8157610f7f6000611f9f565b505b600a60019054906101000a900473ffffffffffffffffffffffffffffffffffffffff1673ffffffffffffffffffffffffffffffffffffffff166338cc48316040518163ffffffff167c0100000000000000000000000000000000000000000000000000000000028152600401602060405180830381600087803b15801561100757600080fd5b505af115801561101b573d6000803e3d6000fd5b505050506040513d602081101561103157600080fd5b810190808051906020019092919050505073ffffffffffffffffffffffffffffffffffffffff16600b60009054906101000a900473ffffffffffffffffffffffffffffffffffffffff1673ffffffffffffffffffffffffffffffffffffffff1614151561119a57600a60019054906101000a900473ffffffffffffffffffffffffffffffffffffffff1673ffffffffffffffffffffffffffffffffffffffff166338cc48316040518163ffffffff167c0100000000000000000000000000000000000000000000000000000000028152600401602060405180830381600087803b15801561111e57600080fd5b505af1158015611132573d6000803e3d6000fd5b505050506040513d602081101561114857600080fd5b8101908080519060200190929190505050600b60006101000a81548173ffffffffffffffffffffffffffffffffffffffff021916908373ffffffffffffffffffffffffffffffffffffffff1602179055505b600b60009054906101000a900473ffffffffffffffffffffffffffffffffffffffff1673ffffffffffffffffffffffffffffffffffffffff1663c281d19e6040518163ffffffff167c0100000000000000000000000000000000000000000000000000000000028152600401602060405180830381600087803b15801561122057600080fd5b505af1158015611234573d6000803e3d6000fd5b505050506040513d602081101561124a57600080fd5b8101908080519060200190929190505050905090565b6000606060008060008693506000925060009150600090505b83518110156115355760307f01000000000000000000000000000000000000000000000000000000000000000284828151811015156112b457fe5b9060200101517f010000000000000000000000000000000000000000000000000000000000000090047f0100000000000000000000000000000000000000000000000000000000000000027effffffffffffffffffffffffffffffffffffffffffffffffffffffffffffff1916101580156113cc575060397f010000000000000000000000000000000000000000000000000000000000000002848281518110151561135c57fe5b9060200101517f010000000000000000000000000000000000000000000000000000000000000090047f0100000000000000000000000000000000000000000000000000000000000000027effffffffffffffffffffffffffffffffffffffffffffffffffffffffffffff191611155b1561147d5781156113ef5760008614156113e557611535565b8580600190039650505b600a830292506030848281518110151561140557fe5b9060200101517f010000000000000000000000000000000000000000000000000000000000000090047f0100000000000000000000000000000000000000000000000000000000000000027f010000000000000000000000000000000000000000000000000000000000000090040383019250611528565b602e7f01000000000000000000000000000000000000000000000000000000000000000284828151811015156114af57fe5b9060200101517f010000000000000000000000000000000000000000000000000000000000000090047f0100000000000000000000000000000000000000000000000000000000000000027effffffffffffffffffffffffffffffffffffffffffffffffffffffffffffff1916141561152757600191505b5b8080600101915050611279565b60008611156115475785600a0a830292505b8294505050505092915050565b6000600a60009054906101000a900460ff161561157057611621565b60075442111561159f576001600a60006101000a81548160ff0219169083151502179055506008549050611601565b6003546008541015156115d1576001600a60006101000a81548160ff0219169083151502179055506003549050611600565b6004546008541115156115ff576001600a60006101000a81548160ff02191690831515021790555060045490505b5b5b600a60009054906101000a900460ff16156116205761161f81611fb0565b5b5b50565b600080600a60019054906101000a900473ffffffffffffffffffffffffffffffffffffffff1673ffffffffffffffffffffffffffffffffffffffff16148061169657506000611694600a60019054906101000a900473ffffffffffffffffffffffffffffffffffffffff16611f94565b145b156116a7576116a56000611f9f565b505b600a60019054906101000a900473ffffffffffffffffffffffffffffffffffffffff1673ffffffffffffffffffffffffffffffffffffffff166338cc48316040518163ffffffff167c0100000000000000000000000000000000000000000000000000000000028152600401602060405180830381600087803b15801561172d57600080fd5b505af1158015611741573d6000803e3d6000fd5b505050506040513d602081101561175757600080fd5b810190808051906020019092919050505073ffffffffffffffffffffffffffffffffffffffff16600b60009054906101000a900473ffffffffffffffffffffffffffffffffffffffff1673ffffffffffffffffffffffffffffffffffffffff161415156118c057600a60019054906101000a900473ffffffffffffffffffffffffffffffffffffffff1673ffffffffffffffffffffffffffffffffffffffff166338cc48316040518163ffffffff167c0100000000000000000000000000000000000000000000000000000000028152600401602060405180830381600087803b15801561184457600080fd5b505af1158015611858573d6000803e3d6000fd5b505050506040513d602081101561186e57600080fd5b8101908080519060200190929190505050600b60006101000a81548173ffffffffffffffffffffffffffffffffffffffff021916908373ffffffffffffffffffffffffffffffffffffffff1602179055505b600b60009054906101000a900473ffffffffffffffffffffffffffffffffffffffff1673ffffffffffffffffffffffffffffffffffffffff16632ef3accc84846040518363ffffffff167c01000000000000000000000000000000000000000000000000000000000281526004018080602001838152602001828103825284818151815260200191508051906020019080838360005b83811015611971578082015181840152602081019050611956565b50505050905090810190601f16801561199e5780820380516001836020036101000a031916815260200191505b509350505050602060405180830381600087803b1580156119be57600080fd5b505af11580156119d2573d6000803e3d6000fd5b505050506040513d60208110156119e857600080fd5b8101908080519060200190929190505050905092915050565b6000806000600a60019054906101000a900473ffffffffffffffffffffffffffffffffffffffff1673ffffffffffffffffffffffffffffffffffffffff161480611a7557506000611a73600a60019054906101000a900473ffffffffffffffffffffffffffffffffffffffff16611f94565b145b15611a8657611a846000611f9f565b505b600a60019054906101000a900473ffffffffffffffffffffffffffffffffffffffff1673ffffffffffffffffffffffffffffffffffffffff166338cc48316040518163ffffffff167c0100000000000000000000000000000000000000000000000000000000028152600401602060405180830381600087803b158015611b0c57600080fd5b505af1158015611b20573d6000803e3d6000fd5b505050506040513d6020811015611b3657600080fd5b810190808051906020019092919050505073ffffffffffffffffffffffffffffffffffffffff16600b60009054906101000a900473ffffffffffffffffffffffffffffffffffffffff1673ffffffffffffffffffffffffffffffffffffffff16141515611c9f57600a60019054906101000a900473ffffffffffffffffffffffffffffffffffffffff1673ffffffffffffffffffffffffffffffffffffffff166338cc48316040518163ffffffff167c0100000000000000000000000000000000000000000000000000000000028152600401602060405180830381600087803b158015611c2357600080fd5b505af1158015611c37573d6000803e3d6000fd5b505050506040513d6020811015611c4d57600080fd5b8101908080519060200190929190505050600b60006101000a81548173ffffffffffffffffffffffffffffffffffffffff021916908373ffffffffffffffffffffffffffffffffffffffff1602179055505b600b60009054906101000a900473ffffffffffffffffffffffffffffffffffffffff1673ffffffffffffffffffffffffffffffffffffffff16632ef3accc86856040518363ffffffff167c01000000000000000000000000000000000000000000000000000000000281526004018080602001838152602001828103825284818151815260200191508051906020019080838360005b83811015611d50578082015181840152602081019050611d35565b50505050905090810190601f168015611d7d5780820380516001836020036101000a031916815260200191505b509350505050602060405180830381600087803b158015611d9d57600080fd5b505af1158015611db1573d6000803e3d6000fd5b505050506040513d6020811015611dc757600080fd5b81019080805190602001909291905050509050600b60009054906101000a900473ffffffffffffffffffffffffffffffffffffffff1673ffffffffffffffffffffffffffffffffffffffff1663c51be90f8260008888886040518663ffffffff167c0100000000000000000000000000000000000000000000000000000000028152600401808581526020018060200180602001848152602001838103835286818151815260200191508051906020019080838360005b83811015611e99578082015181840152602081019050611e7e565b50505050905090810190601f168015611ec65780820380516001836020036101000a031916815260200191505b50838103825285818151815260200191508051906020019080838360005b83811015611eff578082015181840152602081019050611ee4565b50505050905090810190601f168015611f2c5780820380516001836020036101000a031916815260200191505b5096505050505050506020604051808303818588803b158015611f4e57600080fd5b505af1158015611f62573d6000803e3d6000fd5b50505050506040513d6020811015611f7957600080fd5b81019080805190602001909291905050509150509392505050565b6000813b9050919050565b6000611fa9611ff1565b9050919050565b806009819055507f68170b705528d3ff1d324cda28eb28cc3d11ce81207f157c05e11c18411a013c816040518082815260200191505060405180910390a150565b600080612011731d3b2638a7cc9f2cb3d298a3da7a90b67e5506ed611f94565b11156120b357731d3b2638a7cc9f2cb3d298a3da7a90b67e5506ed600a60016101000a81548173ffffffffffffffffffffffffffffffffffffffff021916908373ffffffffffffffffffffffffffffffffffffffff1602179055506120aa6040805190810160405280600b81526020017f6574685f6d61696e6e6574000000000000000000000000000000000000000000815250612487565b60019050612484565b60006120d273c03a2615d5efaf5f49f60b7bb6583eaec212fdf1611f94565b11156121745773c03a2615d5efaf5f49f60b7bb6583eaec212fdf1600a60016101000a81548173ffffffffffffffffffffffffffffffffffffffff021916908373ffffffffffffffffffffffffffffffffffffffff16021790555061216b6040805190810160405280600c81526020017f6574685f726f707374656e330000000000000000000000000000000000000000815250612487565b60019050612484565b600061219373b7a07bcf2ba2f2703b24c0691b5278999c59ac7e611f94565b11156122355773b7a07bcf2ba2f2703b24c0691b5278999c59ac7e600a60016101000a81548173ffffffffffffffffffffffffffffffffffffffff021916908373ffffffffffffffffffffffffffffffffffffffff16021790555061222c6040805190810160405280600981526020017f6574685f6b6f76616e0000000000000000000000000000000000000000000000815250612487565b60019050612484565b600061225473146500cfd35b22e4a392fe0adc06de1a1368ed48611f94565b11156122f65773146500cfd35b22e4a392fe0adc06de1a1368ed48600a60016101000a81548173ffffffffffffffffffffffffffffffffffffffff021916908373ffffffffffffffffffffffffffffffffffffffff1602179055506122ed6040805190810160405280600b81526020017f6574685f72696e6b656279000000000000000000000000000000000000000000815250612487565b60019050612484565b6000612315736f485c8bf6fc43ea212e93bbf8ce046c7f1cb475611f94565b111561237957736f485c8bf6fc43ea212e93bbf8ce046c7f1cb475600a60016101000a81548173ffffffffffffffffffffffffffffffffffffffff021916908373ffffffffffffffffffffffffffffffffffffffff16021790555060019050612484565b60006123987320e12a1f859b3feae5fb2a0a32c18f5a65555bbf611f94565b11156123fc577320e12a1f859b3feae5fb2a0a32c18f5a65555bbf600a60016101000a81548173ffffffffffffffffffffffffffffffffffffffff021916908373ffffffffffffffffffffffffffffffffffffffff16021790555060019050612484565b600061241b7351efaf4c8b3c9afbd5ab9f4bbc82784ab6ef8faa611f94565b111561247f577351efaf4c8b3c9afbd5ab9f4bbc82784ab6ef8faa600a60016101000a81548173ffffffffffffffffffffffffffffffffffffffff021916908373ffffffffffffffffffffffffffffffffffffffff16021790555060019050612484565b600090505b90565b80600c908051906020019061249d9291906124a1565b5050565b828054600181600116156101000203166002900490600052602060002090601f016020900481019282601f106124e257805160ff1916838001178555612510565b82800160010185558215612510579182015b8281111561250f5782518255916020019190600101906124f4565b5b50905061251d9190612521565b5090565b61254391905b8082111561253f576000816000905550600101612527565b5090565b905600a165627a7a7230582084346538b36e33969fd9e39bf57d37a0bb80f6a8398f20a6b19f78858f9743f90029a165627a7a72305820b195aaefd3cb1cac817ccdd30e3620f9c6877f1b7d0be0632ba48ee2c8059b520029",
  "source": "/*\n    Copyright 2017-2018 Phillip A. Elsasser\n\n    Licensed under the Apache License, Version 2.0 (the \"License\");\n    you may not use this file except in compliance with the License.\n    You may obtain a copy of the License at\n\n    http://www.apache.org/licenses/LICENSE-2.0\n\n    Unless required by applicable law or agreed to in writing, software\n    distributed under the License is distributed on an \"AS IS\" BASIS,\n    WITHOUT WARRANTIES OR CONDITIONS OF ANY KIND, either express or implied.\n    See the License for the specific language governing permissions and\n    limitations under the License.\n*/\n\npragma solidity ^0.4.24;\n\nimport \"./MarketContractOraclize.sol\";\nimport \"../MarketContractRegistryInterface.sol\";\nimport \"../tokens/MarketToken.sol\";\n\nimport \"openzeppelin-solidity/contracts/ownership/Ownable.sol\";\n\n\n/// @title MarketContractFactoryOraclize\n/// @author Phil Elsasser <phil@marketprotocol.io>\ncontract MarketContractFactoryOraclize is Ownable {\n\n    address public marketContractRegistry;\n    address public MKT_TOKEN_ADDRESS;\n    MarketToken public MKT_TOKEN;\n\n    event MarketContractCreated(address indexed creator, address indexed contractAddress);\n\n    /// @dev deploys our factory and ties it the a supply registry address\n    /// @param registryAddress - address of our MARKET registry\n    /// @param mktTokenAddress - MARKET Token address\n    constructor(address registryAddress, address mktTokenAddress) public {\n        marketContractRegistry = registryAddress;\n        MKT_TOKEN_ADDRESS = mktTokenAddress;\n        MKT_TOKEN = MarketToken(mktTokenAddress);\n    }\n\n    /// @dev Deploys a new instance of a market contract and adds it to the whitelist.\n    /// @param contractName viewable name of this contract (BTC/ETH, LTC/ETH, etc)\n    /// @param collateralTokenAddress address of the ERC20 token that will be used for collateral and pricing\n    /// @param contractSpecs array of unsigned integers including:\n    ///     floorPrice              minimum tradeable price of this contract, contract enters settlement if breached\n    ///     capPrice                maximum tradeable price of this contract, contract enters settlement if breached\n    ///     priceDecimalPlaces      number of decimal places to convert our queried price from a floating point to\n    ///                             an integer\n    ///     qtyMultiplier           multiply traded qty by this value from base units of collateral token.\n    ///     expirationTimeStamp     seconds from epoch that this contract expires and enters settlement\n    /// @param oracleDataSource a data-source such as \"URL\", \"WolframAlpha\", \"IPFS\"\n    /// see http://docs.oraclize.it/#ethereum-quick-start-simple-query\n    /// @param oracleQuery see http://docs.oraclize.it/#ethereum-quick-start-simple-query for examples\n    function deployMarketContractOraclize(\n        string contractName,\n        address collateralTokenAddress,\n        uint[5] contractSpecs,\n        string oracleDataSource,\n        string oracleQuery\n    ) external\n    {\n        require(MKT_TOKEN.isBalanceSufficientForContractCreation(msg.sender));    // creator must be MKT holder\n        MarketContractOraclize mktContract = new MarketContractOraclize(\n            contractName,\n            [\n                msg.sender,\n                collateralTokenAddress\n            ],\n            contractSpecs,\n            oracleDataSource,\n            oracleQuery\n        );\n        MarketContractRegistryInterface(marketContractRegistry).addAddressToWhiteList(mktContract);\n        emit MarketContractCreated(msg.sender, mktContract);\n    }\n\n    /// @dev allows for the owner to set the desired registry for contract creation.\n    /// @param registryAddress desired registry address.\n    function setRegistryAddress(address registryAddress) external onlyOwner {\n        require(registryAddress != address(0));\n        marketContractRegistry = registryAddress;\n    }\n}\n",
  "sourcePath": "/home/travis/build/MARKETProtocol/MARKETProtocol/contracts/oraclize/MarketContractFactoryOraclize.sol",
  "compiler": {
    "name": "solc",
    "version": "0.4.24+commit.e67f0147.Emscripten.clang"
  },
  "schemaVersion": "2.0.1",
  "updatedAt": "2018-10-16T03:15:00.583Z"
}