{
  "contractName": "MarketContract",
  "abi": [
    {
      "constant": true,
      "inputs": [],
      "name": "creator",
      "outputs": [
        {
          "name": "",
          "type": "address"
        }
      ],
      "payable": false,
      "stateMutability": "view",
      "type": "function"
    },
    {
      "constant": true,
      "inputs": [],
      "name": "lastPrice",
      "outputs": [
        {
          "name": "",
          "type": "uint256"
        }
      ],
      "payable": false,
      "stateMutability": "view",
      "type": "function"
    },
    {
      "constant": true,
      "inputs": [],
      "name": "LONG_POSITION_TOKEN",
      "outputs": [
        {
          "name": "",
          "type": "address"
        }
      ],
      "payable": false,
      "stateMutability": "view",
      "type": "function"
    },
    {
      "constant": true,
      "inputs": [],
      "name": "PRICE_DECIMAL_PLACES",
      "outputs": [
        {
          "name": "",
          "type": "uint256"
        }
      ],
      "payable": false,
      "stateMutability": "view",
      "type": "function"
    },
    {
      "constant": true,
      "inputs": [],
      "name": "COLLATERAL_TOKEN_ADDRESS",
      "outputs": [
        {
          "name": "",
          "type": "address"
        }
      ],
      "payable": false,
      "stateMutability": "view",
      "type": "function"
    },
    {
      "constant": true,
      "inputs": [],
      "name": "isSettled",
      "outputs": [
        {
          "name": "",
          "type": "bool"
        }
      ],
      "payable": false,
      "stateMutability": "view",
      "type": "function"
    },
    {
      "constant": true,
      "inputs": [],
      "name": "SHORT_POSITION_TOKEN",
      "outputs": [
        {
          "name": "",
          "type": "address"
        }
      ],
      "payable": false,
      "stateMutability": "view",
      "type": "function"
    },
    {
      "constant": true,
      "inputs": [],
      "name": "CONTRACT_NAME",
      "outputs": [
        {
          "name": "",
          "type": "string"
        }
      ],
      "payable": false,
      "stateMutability": "view",
      "type": "function"
    },
    {
      "constant": true,
      "inputs": [],
      "name": "PRICE_CAP",
      "outputs": [
        {
          "name": "",
          "type": "uint256"
        }
      ],
      "payable": false,
      "stateMutability": "view",
      "type": "function"
    },
    {
      "constant": true,
      "inputs": [],
      "name": "EXPIRATION",
      "outputs": [
        {
          "name": "",
          "type": "uint256"
        }
      ],
      "payable": false,
      "stateMutability": "view",
      "type": "function"
    },
    {
      "constant": true,
      "inputs": [],
      "name": "PRICE_FLOOR",
      "outputs": [
        {
          "name": "",
          "type": "uint256"
        }
      ],
      "payable": false,
      "stateMutability": "view",
      "type": "function"
    },
    {
      "constant": true,
      "inputs": [],
      "name": "QTY_MULTIPLIER",
      "outputs": [
        {
          "name": "",
          "type": "uint256"
        }
      ],
      "payable": false,
      "stateMutability": "view",
      "type": "function"
    },
    {
      "constant": true,
      "inputs": [],
      "name": "COLLATERAL_PER_UNIT",
      "outputs": [
        {
          "name": "",
          "type": "uint256"
        }
      ],
      "payable": false,
      "stateMutability": "view",
      "type": "function"
    },
    {
      "constant": true,
      "inputs": [],
      "name": "COLLATERAL_POOL_ADDRESS",
      "outputs": [
        {
          "name": "",
          "type": "address"
        }
      ],
      "payable": false,
      "stateMutability": "view",
      "type": "function"
    },
    {
      "constant": true,
      "inputs": [],
      "name": "settlementPrice",
      "outputs": [
        {
          "name": "",
          "type": "uint256"
        }
      ],
      "payable": false,
      "stateMutability": "view",
      "type": "function"
    },
    {
      "constant": false,
      "inputs": [
        {
          "name": "newCreator",
          "type": "address"
        }
      ],
      "name": "transferCreator",
      "outputs": [],
      "payable": false,
      "stateMutability": "nonpayable",
      "type": "function"
    },
    {
      "inputs": [
        {
          "name": "contractName",
          "type": "string"
        },
        {
          "name": "baseAddresses",
          "type": "address[3]"
        },
        {
          "name": "contractSpecs",
          "type": "uint256[5]"
        }
      ],
      "payable": false,
      "stateMutability": "nonpayable",
      "type": "constructor"
    },
    {
      "anonymous": false,
      "inputs": [
        {
          "indexed": false,
          "name": "price",
          "type": "uint256"
        }
      ],
      "name": "UpdatedLastPrice",
      "type": "event"
    },
    {
      "anonymous": false,
      "inputs": [
        {
          "indexed": false,
          "name": "settlePrice",
          "type": "uint256"
        }
      ],
      "name": "ContractSettled",
      "type": "event"
    },
    {
      "anonymous": false,
      "inputs": [
        {
          "indexed": true,
          "name": "currentCreator",
          "type": "address"
        },
        {
          "indexed": true,
          "name": "newCreator",
          "type": "address"
        }
      ],
      "name": "CreatorTransferred",
      "type": "event"
    },
    {
      "constant": false,
      "inputs": [
        {
          "name": "qtyToMint",
          "type": "uint256"
        },
        {
          "name": "minter",
          "type": "address"
        }
      ],
      "name": "mintPositionTokens",
      "outputs": [],
      "payable": false,
      "stateMutability": "nonpayable",
      "type": "function"
    },
    {
      "constant": false,
      "inputs": [
        {
          "name": "qtyToRedeem",
          "type": "uint256"
        },
        {
          "name": "redeemer",
          "type": "address"
        }
      ],
      "name": "redeemLongToken",
      "outputs": [],
      "payable": false,
      "stateMutability": "nonpayable",
      "type": "function"
    },
    {
      "constant": false,
      "inputs": [
        {
          "name": "qtyToRedeem",
          "type": "uint256"
        },
        {
          "name": "redeemer",
          "type": "address"
        }
      ],
      "name": "redeemShortToken",
      "outputs": [],
      "payable": false,
      "stateMutability": "nonpayable",
      "type": "function"
    }
  ],
  "bytecode": "0x60806040526000600e60006101000a81548160ff0219169083151502179055503480156200002c57600080fd5b5060405162002e5738038062002e578339810180604052810190808051820192919060200191908260600191905050600080336000806101000a81548173ffffffffffffffffffffffffffffffffffffffff021916908373ffffffffffffffffffffffffffffffffffffffff160217905550826000600581101515620000ae57fe5b6020020151600581905550826001600581101515620000c957fe5b6020020151600481905550600554600454111515620000e757600080fd5b826002600581101515620000f757fe5b60200201516006819055508260036005811015156200011257fe5b60200201516007819055508260046005811015156200012d57fe5b6020020151600981905550426009541115156200014957600080fd5b84600190805190602001906200016192919062000508565b508360006003811015156200017257fe5b60200201516000806101000a81548173ffffffffffffffffffffffffffffffffffffffff021916908373ffffffffffffffffffffffffffffffffffffffff160217905550836001600381101515620001c657fe5b6020020151600260006101000a81548173ffffffffffffffffffffffffffffffffffffffff021916908373ffffffffffffffffffffffffffffffffffffffff1602179055508360026003811015156200021b57fe5b6020020151600360006101000a81548173ffffffffffffffffffffffffffffffffffffffff021916908373ffffffffffffffffffffffffffffffffffffffff16021790555073__MathLib_______________________________63f226512c6005546004546007546040518463ffffffff167c010000000000000000000000000000000000000000000000000000000002815260040180848152602001838152602001828152602001935050505060206040518083038186803b158015620002e257600080fd5b505af4158015620002f7573d6000803e3d6000fd5b505050506040513d60208110156200030e57600080fd5b81019080805190602001909291905050506008819055506000620003316200058f565b8080602001806020018460ff168152602001838103835260138152602001807f4c6f6e6720506f736974696f6e20546f6b656e00000000000000000000000000815250602001838103825260048152602001807f4c4f4e47000000000000000000000000000000000000000000000000000000008152506020019350505050604051809103906000f080158015620003cd573d6000803e3d6000fd5b5091506001620003dc6200058f565b8080602001806020018460ff168152602001838103835260148152602001807f53686f727420506f736974696f6e20546f6b656e000000000000000000000000815250602001838103825260048152602001807f53485254000000000000000000000000000000000000000000000000000000008152506020019350505050604051809103906000f08015801562000478573d6000803e3d6000fd5b50905081600a60006101000a81548173ffffffffffffffffffffffffffffffffffffffff021916908373ffffffffffffffffffffffffffffffffffffffff16021790555080600b60006101000a81548173ffffffffffffffffffffffffffffffffffffffff021916908373ffffffffffffffffffffffffffffffffffffffff1602179055505050505050620005c8565b828054600181600116156101000203166002900490600052602060002090601f016020900481019282601f106200054b57805160ff19168380011785556200057c565b828001600101855582156200057c579182015b828111156200057b5782518255916020019190600101906200055e565b5b5090506200058b9190620005a0565b5090565b604051611acc806200138b83390190565b620005c591905b80821115620005c1576000816000905550600101620005a7565b5090565b90565b610db380620005d86000396000f300608060405260043610610107576000357c0100000000000000000000000000000000000000000000000000000000900463ffffffff16806302d05d3f1461010c578063053f14da1461016357806322d1c35e1461018e5780632fed1b00146101e5578063323bb775146102105780633270bb5b146102675780635b3f1e3f14610296578063614d08f8146102ed5780636d3594671461037d578063b5471dee146103ca578063bb4b5734146103f5578063c25c444414610420578063c32b1dfa1461046d578063ca361d6714610498578063cabd5834146104c3578063e158e02d14610510578063eaafb4fa1461053b578063f348e8b214610592578063fa3fa196146105bd575b600080fd5b34801561011857600080fd5b50610121610600565b604051808273ffffffffffffffffffffffffffffffffffffffff1673ffffffffffffffffffffffffffffffffffffffff16815260200191505060405180910390f35b34801561016f57600080fd5b50610178610625565b6040518082815260200191505060405180910390f35b34801561019a57600080fd5b506101a361062b565b604051808273ffffffffffffffffffffffffffffffffffffffff1673ffffffffffffffffffffffffffffffffffffffff16815260200191505060405180910390f35b3480156101f157600080fd5b506101fa610651565b6040518082815260200191505060405180910390f35b34801561021c57600080fd5b50610225610657565b604051808273ffffffffffffffffffffffffffffffffffffffff1673ffffffffffffffffffffffffffffffffffffffff16815260200191505060405180910390f35b34801561027357600080fd5b5061027c61067d565b604051808215151515815260200191505060405180910390f35b3480156102a257600080fd5b506102ab610690565b604051808273ffffffffffffffffffffffffffffffffffffffff1673ffffffffffffffffffffffffffffffffffffffff16815260200191505060405180910390f35b3480156102f957600080fd5b506103026106b6565b6040518080602001828103825283818151815260200191508051906020019080838360005b83811015610342578082015181840152602081019050610327565b50505050905090810190601f16801561036f5780820380516001836020036101000a031916815260200191505b509250505060405180910390f35b34801561038957600080fd5b506103c860048036038101908080359060200190929190803573ffffffffffffffffffffffffffffffffffffffff169060200190929190505050610754565b005b3480156103d657600080fd5b506103df610891565b6040518082815260200191505060405180910390f35b34801561040157600080fd5b5061040a610897565b6040518082815260200191505060405180910390f35b34801561042c57600080fd5b5061046b60048036038101908080359060200190929190803573ffffffffffffffffffffffffffffffffffffffff16906020019092919050505061089d565b005b34801561047957600080fd5b506104826109da565b6040518082815260200191505060405180910390f35b3480156104a457600080fd5b506104ad6109e0565b6040518082815260200191505060405180910390f35b3480156104cf57600080fd5b5061050e60048036038101908080359060200190929190803573ffffffffffffffffffffffffffffffffffffffff1690602001909291905050506109e6565b005b34801561051c57600080fd5b50610525610c00565b6040518082815260200191505060405180910390f35b34801561054757600080fd5b50610550610c06565b604051808273ffffffffffffffffffffffffffffffffffffffff1673ffffffffffffffffffffffffffffffffffffffff16815260200191505060405180910390f35b34801561059e57600080fd5b506105a7610c2c565b6040518082815260200191505060405180910390f35b3480156105c957600080fd5b506105fe600480360381019080803573ffffffffffffffffffffffffffffffffffffffff169060200190929190505050610c32565b005b6000809054906101000a900473ffffffffffffffffffffffffffffffffffffffff1681565b600c5481565b600a60009054906101000a900473ffffffffffffffffffffffffffffffffffffffff1681565b60065481565b600260009054906101000a900473ffffffffffffffffffffffffffffffffffffffff1681565b600e60009054906101000a900460ff1681565b600b60009054906101000a900473ffffffffffffffffffffffffffffffffffffffff1681565b60018054600181600116156101000203166002900480601f01602080910402602001604051908101604052809291908181526020018280546001816001161561010002031660029004801561074c5780601f106107215761010080835404028352916020019161074c565b820191906000526020600020905b81548152906001019060200180831161072f57829003601f168201915b505050505081565b600360009054906101000a900473ffffffffffffffffffffffffffffffffffffffff1673ffffffffffffffffffffffffffffffffffffffff163373ffffffffffffffffffffffffffffffffffffffff161415156107b057600080fd5b600b60009054906101000a900473ffffffffffffffffffffffffffffffffffffffff1673ffffffffffffffffffffffffffffffffffffffff1663c3501ff683836040518363ffffffff167c0100000000000000000000000000000000000000000000000000000000028152600401808381526020018273ffffffffffffffffffffffffffffffffffffffff1673ffffffffffffffffffffffffffffffffffffffff16815260200192505050600060405180830381600087803b15801561087557600080fd5b505af1158015610889573d6000803e3d6000fd5b505050505050565b60045481565b60095481565b600360009054906101000a900473ffffffffffffffffffffffffffffffffffffffff1673ffffffffffffffffffffffffffffffffffffffff163373ffffffffffffffffffffffffffffffffffffffff161415156108f957600080fd5b600a60009054906101000a900473ffffffffffffffffffffffffffffffffffffffff1673ffffffffffffffffffffffffffffffffffffffff1663c3501ff683836040518363ffffffff167c0100000000000000000000000000000000000000000000000000000000028152600401808381526020018273ffffffffffffffffffffffffffffffffffffffff1673ffffffffffffffffffffffffffffffffffffffff16815260200192505050600060405180830381600087803b1580156109be57600080fd5b505af11580156109d2573d6000803e3d6000fd5b505050505050565b60055481565b60075481565b600360009054906101000a900473ffffffffffffffffffffffffffffffffffffffff1673ffffffffffffffffffffffffffffffffffffffff163373ffffffffffffffffffffffffffffffffffffffff16141515610a4257600080fd5b600a60009054906101000a900473ffffffffffffffffffffffffffffffffffffffff1673ffffffffffffffffffffffffffffffffffffffff16637251cd0283836040518363ffffffff167c0100000000000000000000000000000000000000000000000000000000028152600401808381526020018273ffffffffffffffffffffffffffffffffffffffff1673ffffffffffffffffffffffffffffffffffffffff16815260200192505050600060405180830381600087803b158015610b0757600080fd5b505af1158015610b1b573d6000803e3d6000fd5b50505050600b60009054906101000a900473ffffffffffffffffffffffffffffffffffffffff1673ffffffffffffffffffffffffffffffffffffffff16637251cd0283836040518363ffffffff167c0100000000000000000000000000000000000000000000000000000000028152600401808381526020018273ffffffffffffffffffffffffffffffffffffffff1673ffffffffffffffffffffffffffffffffffffffff16815260200192505050600060405180830381600087803b158015610be457600080fd5b505af1158015610bf8573d6000803e3d6000fd5b505050505050565b60085481565b600360009054906101000a900473ffffffffffffffffffffffffffffffffffffffff1681565b600d5481565b6000809054906101000a900473ffffffffffffffffffffffffffffffffffffffff1673ffffffffffffffffffffffffffffffffffffffff163373ffffffffffffffffffffffffffffffffffffffff16141515610c8d57600080fd5b600073ffffffffffffffffffffffffffffffffffffffff168173ffffffffffffffffffffffffffffffffffffffff1614151515610cc957600080fd5b8073ffffffffffffffffffffffffffffffffffffffff166000809054906101000a900473ffffffffffffffffffffffffffffffffffffffff1673ffffffffffffffffffffffffffffffffffffffff167f7f11fe0c7098e1a76afcc68f35abaa07ef156fa7d6dd2d39664812fe37348d1660405160405180910390a3806000806101000a81548173ffffffffffffffffffffffffffffffffffffffff021916908373ffffffffffffffffffffffffffffffffffffffff160217905550505600a165627a7a72305820f944dcbeef5ab398462ea98c6856983243aebe9404dc8b1afa64de21aeee7e4d002960806040523480156200001157600080fd5b5060405162001acc38038062001acc83398101806040528101908080518201929190602001805182019291906020018051906020019092919050505033600360006101000a81548173ffffffffffffffffffffffffffffffffffffffff021916908373ffffffffffffffffffffffffffffffffffffffff1602179055508260049080519060200190620000a692919062000100565b508160059080519060200190620000bf92919062000100565b506012600660006101000a81548160ff021916908360ff16021790555080600660016101000a81548160ff021916908360ff160217905550505050620001af565b828054600181600116156101000203166002900490600052602060002090601f016020900481019282601f106200014357805160ff191683800117855562000174565b8280016001018555821562000174579182015b828111156200017357825182559160200191906001019062000156565b5b50905062000183919062000187565b5090565b620001ac91905b80821115620001a85760008160009055506001016200018e565b5090565b90565b61190d80620001bf6000396000f3006080604052600436106100e6576000357c0100000000000000000000000000000000000000000000000000000000900463ffffffff16806306fdde03146100eb578063095ea7b31461017b57806318160ddd146101e057806323b872dd1461020b578063313ce5671461029057806366188463146102c157806370a08231146103265780637251cd021461037d5780638da5cb5b146103ca57806395d89b4114610421578063a9059cbb146104b1578063b003b12714610516578063c3501ff614610547578063d73dd62314610594578063dd62ed3e146105f9578063f2fde38b14610670575b600080fd5b3480156100f757600080fd5b506101006106b3565b6040518080602001828103825283818151815260200191508051906020019080838360005b83811015610140578082015181840152602081019050610125565b50505050905090810190601f16801561016d5780820380516001836020036101000a031916815260200191505b509250505060405180910390f35b34801561018757600080fd5b506101c6600480360381019080803573ffffffffffffffffffffffffffffffffffffffff16906020019092919080359060200190929190505050610751565b604051808215151515815260200191505060405180910390f35b3480156101ec57600080fd5b506101f5610843565b6040518082815260200191505060405180910390f35b34801561021757600080fd5b50610276600480360381019080803573ffffffffffffffffffffffffffffffffffffffff169060200190929190803573ffffffffffffffffffffffffffffffffffffffff1690602001909291908035906020019092919050505061084d565b604051808215151515815260200191505060405180910390f35b34801561029c57600080fd5b506102a5610c07565b604051808260ff1660ff16815260200191505060405180910390f35b3480156102cd57600080fd5b5061030c600480360381019080803573ffffffffffffffffffffffffffffffffffffffff16906020019092919080359060200190929190505050610c1a565b604051808215151515815260200191505060405180910390f35b34801561033257600080fd5b50610367600480360381019080803573ffffffffffffffffffffffffffffffffffffffff169060200190929190505050610eab565b6040518082815260200191505060405180910390f35b34801561038957600080fd5b506103c860048036038101908080359060200190929190803573ffffffffffffffffffffffffffffffffffffffff169060200190929190505050610ef3565b005b3480156103d657600080fd5b506103df611067565b604051808273ffffffffffffffffffffffffffffffffffffffff1673ffffffffffffffffffffffffffffffffffffffff16815260200191505060405180910390f35b34801561042d57600080fd5b5061043661108d565b6040518080602001828103825283818151815260200191508051906020019080838360005b8381101561047657808201518184015260208101905061045b565b50505050905090810190601f1680156104a35780820380516001836020036101000a031916815260200191505b509250505060405180910390f35b3480156104bd57600080fd5b506104fc600480360381019080803573ffffffffffffffffffffffffffffffffffffffff1690602001909291908035906020019092919050505061112b565b604051808215151515815260200191505060405180910390f35b34801561052257600080fd5b5061052b61134a565b604051808260ff1660ff16815260200191505060405180910390f35b34801561055357600080fd5b5061059260048036038101908080359060200190929190803573ffffffffffffffffffffffffffffffffffffffff16906020019092919050505061135d565b005b3480156105a057600080fd5b506105df600480360381019080803573ffffffffffffffffffffffffffffffffffffffff169060200190929190803590602001909291905050506114d1565b604051808215151515815260200191505060405180910390f35b34801561060557600080fd5b5061065a600480360381019080803573ffffffffffffffffffffffffffffffffffffffff169060200190929190803573ffffffffffffffffffffffffffffffffffffffff1690602001909291905050506116cd565b6040518082815260200191505060405180910390f35b34801561067c57600080fd5b506106b1600480360381019080803573ffffffffffffffffffffffffffffffffffffffff169060200190929190505050611754565b005b60048054600181600116156101000203166002900480601f0160208091040260200160405190810160405280929190818152602001828054600181600116156101000203166002900480156107495780601f1061071e57610100808354040283529160200191610749565b820191906000526020600020905b81548152906001019060200180831161072c57829003601f168201915b505050505081565b600081600260003373ffffffffffffffffffffffffffffffffffffffff1673ffffffffffffffffffffffffffffffffffffffff16815260200190815260200160002060008573ffffffffffffffffffffffffffffffffffffffff1673ffffffffffffffffffffffffffffffffffffffff168152602001908152602001600020819055508273ffffffffffffffffffffffffffffffffffffffff163373ffffffffffffffffffffffffffffffffffffffff167f8c5be1e5ebec7d5bd14f71427d1e84f3dd0314c0f7b2291e5b200ac8c7c3b925846040518082815260200191505060405180910390a36001905092915050565b6000600154905090565b60008073ffffffffffffffffffffffffffffffffffffffff168373ffffffffffffffffffffffffffffffffffffffff161415151561088a57600080fd5b6000808573ffffffffffffffffffffffffffffffffffffffff1673ffffffffffffffffffffffffffffffffffffffff1681526020019081526020016000205482111515156108d757600080fd5b600260008573ffffffffffffffffffffffffffffffffffffffff1673ffffffffffffffffffffffffffffffffffffffff16815260200190815260200160002060003373ffffffffffffffffffffffffffffffffffffffff1673ffffffffffffffffffffffffffffffffffffffff16815260200190815260200160002054821115151561096257600080fd5b6109b3826000808773ffffffffffffffffffffffffffffffffffffffff1673ffffffffffffffffffffffffffffffffffffffff168152602001908152602001600020546118ac90919063ffffffff16565b6000808673ffffffffffffffffffffffffffffffffffffffff1673ffffffffffffffffffffffffffffffffffffffff16815260200190815260200160002081905550610a46826000808673ffffffffffffffffffffffffffffffffffffffff1673ffffffffffffffffffffffffffffffffffffffff168152602001908152602001600020546118c590919063ffffffff16565b6000808573ffffffffffffffffffffffffffffffffffffffff1673ffffffffffffffffffffffffffffffffffffffff16815260200190815260200160002081905550610b1782600260008773ffffffffffffffffffffffffffffffffffffffff1673ffffffffffffffffffffffffffffffffffffffff16815260200190815260200160002060003373ffffffffffffffffffffffffffffffffffffffff1673ffffffffffffffffffffffffffffffffffffffff168152602001908152602001600020546118ac90919063ffffffff16565b600260008673ffffffffffffffffffffffffffffffffffffffff1673ffffffffffffffffffffffffffffffffffffffff16815260200190815260200160002060003373ffffffffffffffffffffffffffffffffffffffff1673ffffffffffffffffffffffffffffffffffffffff168152602001908152602001600020819055508273ffffffffffffffffffffffffffffffffffffffff168473ffffffffffffffffffffffffffffffffffffffff167fddf252ad1be2c89b69c2b068fc378daa952ba7f163c4a11628f55a4df523b3ef846040518082815260200191505060405180910390a3600190509392505050565b600660009054906101000a900460ff1681565b600080600260003373ffffffffffffffffffffffffffffffffffffffff1673ffffffffffffffffffffffffffffffffffffffff16815260200190815260200160002060008573ffffffffffffffffffffffffffffffffffffffff1673ffffffffffffffffffffffffffffffffffffffff16815260200190815260200160002054905080831115610d2b576000600260003373ffffffffffffffffffffffffffffffffffffffff1673ffffffffffffffffffffffffffffffffffffffff16815260200190815260200160002060008673ffffffffffffffffffffffffffffffffffffffff1673ffffffffffffffffffffffffffffffffffffffff16815260200190815260200160002081905550610dbf565b610d3e83826118ac90919063ffffffff16565b600260003373ffffffffffffffffffffffffffffffffffffffff1673ffffffffffffffffffffffffffffffffffffffff16815260200190815260200160002060008673ffffffffffffffffffffffffffffffffffffffff1673ffffffffffffffffffffffffffffffffffffffff168152602001908152602001600020819055505b8373ffffffffffffffffffffffffffffffffffffffff163373ffffffffffffffffffffffffffffffffffffffff167f8c5be1e5ebec7d5bd14f71427d1e84f3dd0314c0f7b2291e5b200ac8c7c3b925600260003373ffffffffffffffffffffffffffffffffffffffff1673ffffffffffffffffffffffffffffffffffffffff16815260200190815260200160002060008873ffffffffffffffffffffffffffffffffffffffff1673ffffffffffffffffffffffffffffffffffffffff168152602001908152602001600020546040518082815260200191505060405180910390a3600191505092915050565b60008060008373ffffffffffffffffffffffffffffffffffffffff1673ffffffffffffffffffffffffffffffffffffffff168152602001908152602001600020549050919050565b600360009054906101000a900473ffffffffffffffffffffffffffffffffffffffff1673ffffffffffffffffffffffffffffffffffffffff163373ffffffffffffffffffffffffffffffffffffffff16141515610f4f57600080fd5b610f64826001546118c590919063ffffffff16565b600181905550610fbb826000808473ffffffffffffffffffffffffffffffffffffffff1673ffffffffffffffffffffffffffffffffffffffff168152602001908152602001600020546118c590919063ffffffff16565b6000808373ffffffffffffffffffffffffffffffffffffffff1673ffffffffffffffffffffffffffffffffffffffff168152602001908152602001600020819055508073ffffffffffffffffffffffffffffffffffffffff16600073ffffffffffffffffffffffffffffffffffffffff167fddf252ad1be2c89b69c2b068fc378daa952ba7f163c4a11628f55a4df523b3ef846040518082815260200191505060405180910390a35050565b600360009054906101000a900473ffffffffffffffffffffffffffffffffffffffff1681565b60058054600181600116156101000203166002900480601f0160208091040260200160405190810160405280929190818152602001828054600181600116156101000203166002900480156111235780601f106110f857610100808354040283529160200191611123565b820191906000526020600020905b81548152906001019060200180831161110657829003601f168201915b505050505081565b60008073ffffffffffffffffffffffffffffffffffffffff168373ffffffffffffffffffffffffffffffffffffffff161415151561116857600080fd5b6000803373ffffffffffffffffffffffffffffffffffffffff1673ffffffffffffffffffffffffffffffffffffffff1681526020019081526020016000205482111515156111b557600080fd5b611206826000803373ffffffffffffffffffffffffffffffffffffffff1673ffffffffffffffffffffffffffffffffffffffff168152602001908152602001600020546118ac90919063ffffffff16565b6000803373ffffffffffffffffffffffffffffffffffffffff1673ffffffffffffffffffffffffffffffffffffffff16815260200190815260200160002081905550611299826000808673ffffffffffffffffffffffffffffffffffffffff1673ffffffffffffffffffffffffffffffffffffffff168152602001908152602001600020546118c590919063ffffffff16565b6000808573ffffffffffffffffffffffffffffffffffffffff1673ffffffffffffffffffffffffffffffffffffffff168152602001908152602001600020819055508273ffffffffffffffffffffffffffffffffffffffff163373ffffffffffffffffffffffffffffffffffffffff167fddf252ad1be2c89b69c2b068fc378daa952ba7f163c4a11628f55a4df523b3ef846040518082815260200191505060405180910390a36001905092915050565b600660019054906101000a900460ff1681565b600360009054906101000a900473ffffffffffffffffffffffffffffffffffffffff1673ffffffffffffffffffffffffffffffffffffffff163373ffffffffffffffffffffffffffffffffffffffff161415156113b957600080fd5b61140a826000808473ffffffffffffffffffffffffffffffffffffffff1673ffffffffffffffffffffffffffffffffffffffff168152602001908152602001600020546118ac90919063ffffffff16565b6000808373ffffffffffffffffffffffffffffffffffffffff1673ffffffffffffffffffffffffffffffffffffffff16815260200190815260200160002081905550611461826001546118ac90919063ffffffff16565b600181905550600073ffffffffffffffffffffffffffffffffffffffff168173ffffffffffffffffffffffffffffffffffffffff167fddf252ad1be2c89b69c2b068fc378daa952ba7f163c4a11628f55a4df523b3ef846040518082815260200191505060405180910390a35050565b600061156282600260003373ffffffffffffffffffffffffffffffffffffffff1673ffffffffffffffffffffffffffffffffffffffff16815260200190815260200160002060008673ffffffffffffffffffffffffffffffffffffffff1673ffffffffffffffffffffffffffffffffffffffff168152602001908152602001600020546118c590919063ffffffff16565b600260003373ffffffffffffffffffffffffffffffffffffffff1673ffffffffffffffffffffffffffffffffffffffff16815260200190815260200160002060008573ffffffffffffffffffffffffffffffffffffffff1673ffffffffffffffffffffffffffffffffffffffff168152602001908152602001600020819055508273ffffffffffffffffffffffffffffffffffffffff163373ffffffffffffffffffffffffffffffffffffffff167f8c5be1e5ebec7d5bd14f71427d1e84f3dd0314c0f7b2291e5b200ac8c7c3b925600260003373ffffffffffffffffffffffffffffffffffffffff1673ffffffffffffffffffffffffffffffffffffffff16815260200190815260200160002060008773ffffffffffffffffffffffffffffffffffffffff1673ffffffffffffffffffffffffffffffffffffffff168152602001908152602001600020546040518082815260200191505060405180910390a36001905092915050565b6000600260008473ffffffffffffffffffffffffffffffffffffffff1673ffffffffffffffffffffffffffffffffffffffff16815260200190815260200160002060008373ffffffffffffffffffffffffffffffffffffffff1673ffffffffffffffffffffffffffffffffffffffff16815260200190815260200160002054905092915050565b600360009054906101000a900473ffffffffffffffffffffffffffffffffffffffff1673ffffffffffffffffffffffffffffffffffffffff163373ffffffffffffffffffffffffffffffffffffffff161415156117b057600080fd5b600073ffffffffffffffffffffffffffffffffffffffff168173ffffffffffffffffffffffffffffffffffffffff16141515156117ec57600080fd5b8073ffffffffffffffffffffffffffffffffffffffff16600360009054906101000a900473ffffffffffffffffffffffffffffffffffffffff1673ffffffffffffffffffffffffffffffffffffffff167f8be0079c531659141344cd1fd0a4f28419497f9722a3daafe3b4186f6b6457e060405160405180910390a380600360006101000a81548173ffffffffffffffffffffffffffffffffffffffff021916908373ffffffffffffffffffffffffffffffffffffffff16021790555050565b60008282111515156118ba57fe5b818303905092915050565b600081830190508281101515156118d857fe5b809050929150505600a165627a7a7230582068acf81931f8a5fc652fb0b9154ae16ae14c286f2d559033008dd9d0a367880e0029",
  "source": "/*\n    Copyright 2017-2018 Phillip A. Elsasser\n\n    Licensed under the Apache License, Version 2.0 (the \"License\");\n    you may not use this file except in compliance with the License.\n    You may obtain a copy of the License at\n\n    http://www.apache.org/licenses/LICENSE-2.0\n\n    Unless required by applicable law or agreed to in writing, software\n    distributed under the License is distributed on an \"AS IS\" BASIS,\n    WITHOUT WARRANTIES OR CONDITIONS OF ANY KIND, either express or implied.\n    See the License for the specific language governing permissions and\n    limitations under the License.\n*/\n\npragma solidity ^0.4.24;\n\nimport \"./Creatable.sol\";\nimport \"./libraries/MathLib.sol\";\nimport \"./tokens/PositionToken.sol\";\n\n\n/// @title MarketContract base contract implement all needed functionality for trading.\n/// @notice this is the abstract base contract that all contracts should inherit from to\n/// implement different oracle solutions.\n/// @author Phil Elsasser <phil@marketprotocol.io>\ncontract MarketContract is Creatable {\n\n    string public CONTRACT_NAME;\n    address public COLLATERAL_TOKEN_ADDRESS;\n    address public COLLATERAL_POOL_ADDRESS;\n    uint public PRICE_CAP;\n    uint public PRICE_FLOOR;\n    uint public PRICE_DECIMAL_PLACES;   // how to convert the pricing from decimal format (if valid) to integer\n    uint public QTY_MULTIPLIER;         // multiplier corresponding to the value of 1 increment in price to token base units\n    uint public COLLATERAL_PER_UNIT;    // required collateral amount for the full range of outcome tokens\n    uint public EXPIRATION;\n    address public LONG_POSITION_TOKEN;\n    address public SHORT_POSITION_TOKEN;\n\n    // state variables\n    uint public lastPrice;\n    uint public settlementPrice;\n    bool public isSettled = false;\n\n    // events\n    event UpdatedLastPrice(uint256 price);\n    event ContractSettled(uint settlePrice);\n\n    /// @param contractName viewable name of this contract (BTC/ETH, LTC/ETH, etc)\n    /// @param baseAddresses array of 2 addresses needed for our contract including:\n    ///     creatorAddress                  address of the person creating the contract\n    ///     collateralTokenAddress          address of the ERC20 token that will be used for collateral and pricing\n    ///     collateralPoolAddress           address of our collateral pool contract\n    /// @param contractSpecs array of unsigned integers including:\n    ///     floorPrice          minimum tradeable price of this contract, contract enters settlement if breached\n    ///     capPrice            maximum tradeable price of this contract, contract enters settlement if breached\n    ///     priceDecimalPlaces  number of decimal places to convert our queried price from a floating point to\n    ///                         an integer\n    ///     qtyMultiplier       multiply traded qty by this value from base units of collateral token.\n    ///     expirationTimeStamp seconds from epoch that this contract expires and enters settlement\n    constructor(\n        string contractName,\n        address[3] baseAddresses,\n        uint[5] contractSpecs\n    ) public\n    {\n        PRICE_FLOOR = contractSpecs[0];\n        PRICE_CAP = contractSpecs[1];\n        require(PRICE_CAP > PRICE_FLOOR);\n\n        PRICE_DECIMAL_PLACES = contractSpecs[2];\n        QTY_MULTIPLIER = contractSpecs[3];\n        EXPIRATION = contractSpecs[4];\n        require(EXPIRATION > now);\n\n        CONTRACT_NAME = contractName;\n        creator = baseAddresses[0];\n        COLLATERAL_TOKEN_ADDRESS = baseAddresses[1];\n        COLLATERAL_POOL_ADDRESS = baseAddresses[2];\n        COLLATERAL_PER_UNIT = MathLib.calculateTotalCollateral(PRICE_FLOOR, PRICE_CAP, QTY_MULTIPLIER);\n\n        // create long and short tokens  // TODO: fix names!\n        PositionToken longPosToken = new PositionToken(\"Long Position Token\", \"LONG\", 0);\n        PositionToken shortPosToken = new PositionToken(\"Short Position Token\", \"SHRT\", 1);\n        LONG_POSITION_TOKEN = address(longPosToken);\n        SHORT_POSITION_TOKEN = address(shortPosToken);\n    }\n\n    /*\n    // EXTERNAL - onlyCollateralPool METHODS\n    */\n\n    /// @notice called only by our collateral pool to create long and short position tokens\n    /// @param qtyToMint    qty in base units of how many short and long tokens to mint\n    /// @param minter       address of minter to receive tokens\n    function mintPositionTokens(\n        uint256 qtyToMint,\n        address minter\n    ) external onlyCollateralPool {\n        // mint and distribute short and long position tokens to our caller\n        PositionToken(LONG_POSITION_TOKEN).mintAndSendToken(qtyToMint, minter);\n        PositionToken(SHORT_POSITION_TOKEN).mintAndSendToken(qtyToMint, minter);\n    }\n\n    /// @notice called only by our collateral pool to redeem long position tokens\n    /// @param qtyToRedeem  qty in base units of how many tokens to redeem\n    /// @param redeemer     address of person redeeming tokens\n    function redeemLongToken(\n        uint256 qtyToRedeem,\n        address redeemer\n    ) external onlyCollateralPool {\n        // mint and distribute short and long position tokens to our caller\n        PositionToken(LONG_POSITION_TOKEN).redeemToken(qtyToRedeem, redeemer);\n    }\n\n    /// @notice called only by our collateral pool to redeem short position tokens\n    /// @param qtyToRedeem  qty in base units of how many tokens to redeem\n    /// @param redeemer     address of person redeeming tokens\n    function redeemShortToken(\n        uint256 qtyToRedeem,\n        address redeemer\n    ) external onlyCollateralPool {\n        // mint and distribute short and long position tokens to our caller\n        PositionToken(SHORT_POSITION_TOKEN).redeemToken(qtyToRedeem, redeemer);\n    }\n\n    /*\n    // PRIVATE METHODS\n    */\n\n    /// @dev checks our last query price to see if our contract should enter settlement due to it being past our\n    //  expiration date or outside of our tradeable ranges.\n    function checkSettlement() internal {\n        if (isSettled)   // already settled.\n            return;\n\n        uint newSettlementPrice;\n        if (now > EXPIRATION) {  // note: miners can cheat this by small increments of time (minutes, not hours)\n            isSettled = true;                   // time based expiration has occurred.\n            newSettlementPrice = lastPrice;\n        } else if (lastPrice >= PRICE_CAP) {    // price is greater or equal to our cap, settle to CAP price\n            isSettled = true;\n            newSettlementPrice = PRICE_CAP;\n        } else if (lastPrice <= PRICE_FLOOR) {  // price is lesser or equal to our floor, settle to FLOOR price\n            isSettled = true;\n            newSettlementPrice = PRICE_FLOOR;\n        }\n\n        if (isSettled) {\n            settleContract(newSettlementPrice);\n        }\n    }\n\n    /// @dev records our final settlement price and fires needed events.\n    /// @param finalSettlementPrice final query price at time of settlement\n    function settleContract(uint finalSettlementPrice) private {\n        settlementPrice = finalSettlementPrice;\n        emit ContractSettled(finalSettlementPrice);\n    }\n\n    /// @notice only able to be called directly by our collateral pool which controls the position tokens\n    /// for this contract!\n    modifier onlyCollateralPool {\n        require(msg.sender == COLLATERAL_POOL_ADDRESS);\n        _;\n    }\n\n}\n",
  "sourcePath": "/home/pelsasser/MARKETProtocol/contracts/MarketContract.sol",
  "compiler": {
    "name": "solc",
    "version": "0.4.24+commit.e67f0147.Emscripten.clang"
  },
  "schemaVersion": "2.0.1",
  "updatedAt": "2018-12-12T17:43:12.847Z"
}