{
  "contractName": "MarketTradingHub",
  "abi": [
    {
      "constant": true,
      "inputs": [],
      "name": "MKT_TOKEN_ADDRESS",
      "outputs": [
        {
          "name": "",
          "type": "address"
        }
      ],
      "payable": false,
      "stateMutability": "view",
      "type": "function"
    },
    {
      "constant": true,
      "inputs": [],
      "name": "MARKET_COLLATERAL_POOL_ADDRESS",
      "outputs": [
        {
          "name": "",
          "type": "address"
        }
      ],
      "payable": false,
      "stateMutability": "view",
      "type": "function"
    },
    {
      "inputs": [
        {
          "name": "mktTokenAddress",
          "type": "address"
        },
        {
          "name": "collateralPoolAddress",
          "type": "address"
        }
      ],
      "payable": false,
      "stateMutability": "nonpayable",
      "type": "constructor"
    },
    {
      "anonymous": false,
      "inputs": [
        {
          "indexed": true,
          "name": "errorCode",
          "type": "uint8"
        },
        {
          "indexed": true,
          "name": "orderHash",
          "type": "bytes32"
        }
      ],
      "name": "Error",
      "type": "event"
    },
    {
      "anonymous": false,
      "inputs": [
        {
          "indexed": true,
          "name": "marketContractAddress",
          "type": "address"
        },
        {
          "indexed": true,
          "name": "maker",
          "type": "address"
        },
        {
          "indexed": true,
          "name": "taker",
          "type": "address"
        },
        {
          "indexed": false,
          "name": "feeRecipient",
          "type": "address"
        },
        {
          "indexed": false,
          "name": "filledQty",
          "type": "int256"
        },
        {
          "indexed": false,
          "name": "paidMakerFee",
          "type": "uint256"
        },
        {
          "indexed": false,
          "name": "paidTakerFee",
          "type": "uint256"
        },
        {
          "indexed": false,
          "name": "price",
          "type": "uint256"
        },
        {
          "indexed": false,
          "name": "orderHash",
          "type": "bytes32"
        }
      ],
      "name": "OrderFilled",
      "type": "event"
    },
    {
      "anonymous": false,
      "inputs": [
        {
          "indexed": true,
          "name": "marketContractAddress",
          "type": "address"
        },
        {
          "indexed": true,
          "name": "maker",
          "type": "address"
        },
        {
          "indexed": true,
          "name": "feeRecipient",
          "type": "address"
        },
        {
          "indexed": false,
          "name": "cancelledQty",
          "type": "int256"
        },
        {
          "indexed": false,
          "name": "orderHash",
          "type": "bytes32"
        }
      ],
      "name": "OrderCancelled",
      "type": "event"
    },
    {
      "constant": false,
      "inputs": [
        {
          "name": "orderAddresses",
          "type": "address[4]"
        },
        {
          "name": "unsignedOrderValues",
          "type": "uint256[5]"
        },
        {
          "name": "orderQty",
          "type": "int256"
        },
        {
          "name": "qtyToFill",
          "type": "int256"
        },
        {
          "name": "v",
          "type": "uint8"
        },
        {
          "name": "r",
          "type": "bytes32"
        },
        {
          "name": "s",
          "type": "bytes32"
        }
      ],
      "name": "tradeOrder",
      "outputs": [
        {
          "name": "filledQty",
          "type": "int256"
        }
      ],
      "payable": false,
      "stateMutability": "nonpayable",
      "type": "function"
    },
    {
      "constant": false,
      "inputs": [
        {
          "name": "orderAddresses",
          "type": "address[4]"
        },
        {
          "name": "unsignedOrderValues",
          "type": "uint256[5]"
        },
        {
          "name": "orderQty",
          "type": "int256"
        },
        {
          "name": "qtyToCancel",
          "type": "int256"
        }
      ],
      "name": "cancelOrder",
      "outputs": [
        {
          "name": "qtyCancelled",
          "type": "int256"
        }
      ],
      "payable": false,
      "stateMutability": "nonpayable",
      "type": "function"
    },
    {
      "constant": true,
      "inputs": [
        {
          "name": "orderHash",
          "type": "bytes32"
        }
      ],
      "name": "getQtyFilledOrCancelledFromOrder",
      "outputs": [
        {
          "name": "",
          "type": "int256"
        }
      ],
      "payable": false,
      "stateMutability": "view",
      "type": "function"
    }
  ],
  "bytecode": "0x608060405234801561001057600080fd5b50604051604080611d27833981018060405281019080805190602001909291908051906020019092919050505080600260006101000a81548173ffffffffffffffffffffffffffffffffffffffff021916908373ffffffffffffffffffffffffffffffffffffffff160217905550600260009054906101000a900473ffffffffffffffffffffffffffffffffffffffff16600360006101000a81548173ffffffffffffffffffffffffffffffffffffffff021916908373ffffffffffffffffffffffffffffffffffffffff160217905550816000806101000a81548173ffffffffffffffffffffffffffffffffffffffff021916908373ffffffffffffffffffffffffffffffffffffffff1602179055506000809054906101000a900473ffffffffffffffffffffffffffffffffffffffff16600160006101000a81548173ffffffffffffffffffffffffffffffffffffffff021916908373ffffffffffffffffffffffffffffffffffffffff1602179055505050611b93806101946000396000f30060806040526004361061006d576000357c0100000000000000000000000000000000000000000000000000000000900463ffffffff16806327ffb2cb146100725780634c258eb1146100d1578063798ddbc814610116578063a8e77c9a1461016d578063f089a215146101c4575b600080fd5b34801561007e57600080fd5b506100bb600480360381019080806080019091929192908060a001909192919290803590602001909291908035906020019092919050505061024c565b6040518082815260200191505060405180910390f35b3480156100dd57600080fd5b506101006004803603810190808035600019169060200190929190505050610591565b6040518082815260200191505060405180910390f35b34801561012257600080fd5b5061012b6105ae565b604051808273ffffffffffffffffffffffffffffffffffffffff1673ffffffffffffffffffffffffffffffffffffffff16815260200191505060405180910390f35b34801561017957600080fd5b506101826105d3565b604051808273ffffffffffffffffffffffffffffffffffffffff1673ffffffffffffffffffffffffffffffffffffffff16815260200191505060405180910390f35b3480156101d057600080fd5b50610236600480360381019080806080019091929192908060a0019091929192908035906020019092919080359060200190929190803560ff169060200190929190803560001916906020019092919080356000191690602001909291905050506105f9565b6040518082815260200191505060405180910390f35b600080610257611ab8565b60008085141580156102785750610277868661131a90919063ffffffff16565b5b151561028357600080fd5b87600060048110151561029257fe5b602002013573ffffffffffffffffffffffffffffffffffffffff1692508273ffffffffffffffffffffffffffffffffffffffff16633270bb5b6040518163ffffffff167c0100000000000000000000000000000000000000000000000000000000028152600401602060405180830381600087803b15801561031357600080fd5b505af1158015610327573d6000803e3d6000fd5b505050506040513d602081101561033d57600080fd5b810190808051906020019092919050505015151561035a57600080fd5b6103af8860048060200260405190810160405280929190826004602002808284378201915050505050886005806020026040519081016040528092919082600560200280828437820191505050505088611334565b91503373ffffffffffffffffffffffffffffffffffffffff16826020015173ffffffffffffffffffffffffffffffffffffffff161415156103ef57600080fd5b8160e001514210151561044857816101200151600019166000600181111561041357fe5b7fe6104340582083fe7674a149f8da127b9d3d7f74a88ccd7610562eb5b61b919360405160405180910390a360009350610586565b610468610459836101200151610591565b8761151090919063ffffffff16565b905060008114156104be578161012001516000191660018081111561048957fe5b7fe6104340582083fe7674a149f8da127b9d3d7f74a88ccd7610562eb5b61b919360405160405180910390a360009350610586565b6104c88582611527565b93506104e58261012001518560046115509092919063ffffffff16565b816060015173ffffffffffffffffffffffffffffffffffffffff16826020015173ffffffffffffffffffffffffffffffffffffffff16836000015173ffffffffffffffffffffffffffffffffffffffff167fd224c691cf3934e363a53a617f04a43bb61716374a6bb5c3b388c98d82c634cf878661012001516040518083815260200182600019166000191681526020019250505060405180910390a48393505b505050949350505050565b60006105a78260046115a690919063ffffffff16565b9050919050565b6000809054906101000a900473ffffffffffffffffffffffffffffffffffffffff1681565b600260009054906101000a900473ffffffffffffffffffffffffffffffffffffffff1681565b600080610604611ab8565b60008060008060008e600060048110151561061b57fe5b602002013573ffffffffffffffffffffffffffffffffffffffff1696508673ffffffffffffffffffffffffffffffffffffffff16633270bb5b6040518163ffffffff167c0100000000000000000000000000000000000000000000000000000000028152600401602060405180830381600087803b15801561069c57600080fd5b505af11580156106b0573d6000803e3d6000fd5b505050506040513d60208110156106c657600080fd5b810190808051906020019092919050505015151561074c576040517f08c379a000000000000000000000000000000000000000000000000000000000815260040180806020018281038252601c8152602001807f436f6e74726163742068617320616c726561647920736574746c65640000000081525060200191505060405180910390fd5b60008d1415801561075e575060008c14155b801561077957506107788c8e61131a90919063ffffffff16565b5b15156107ed576040517f08c379a00000000000000000000000000000000000000000000000000000000081526004018080602001828103825260098152602001807f717479204572726f72000000000000000000000000000000000000000000000081525060200191505060405180910390fd5b600160009054906101000a900473ffffffffffffffffffffffffffffffffffffffff1673ffffffffffffffffffffffffffffffffffffffff1663cfab472f30336040518363ffffffff167c0100000000000000000000000000000000000000000000000000000000028152600401808373ffffffffffffffffffffffffffffffffffffffff1673ffffffffffffffffffffffffffffffffffffffff1681526020018273ffffffffffffffffffffffffffffffffffffffff1673ffffffffffffffffffffffffffffffffffffffff16815260200192505050602060405180830381600087803b1580156108de57600080fd5b505af11580156108f2573d6000803e3d6000fd5b505050506040513d602081101561090857600080fd5b8101908080519060200190929190505050151561098d576040517f08c379a00000000000000000000000000000000000000000000000000000000081526004018080602001828103825260118152602001807f74616b6572206e6f7420656e61626c656400000000000000000000000000000081525060200191505060405180910390fd5b6109e28f600480602002604051908101604052809291908260046020028082843782019150505050508f600580602002604051908101604052809291908260056020028082843782019150505050508f611334565b9550600160009054906101000a900473ffffffffffffffffffffffffffffffffffffffff1673ffffffffffffffffffffffffffffffffffffffff1663cfab472f3088602001516040518363ffffffff167c0100000000000000000000000000000000000000000000000000000000028152600401808373ffffffffffffffffffffffffffffffffffffffff1673ffffffffffffffffffffffffffffffffffffffff1681526020018273ffffffffffffffffffffffffffffffffffffffff1673ffffffffffffffffffffffffffffffffffffffff16815260200192505050602060405180830381600087803b158015610ad957600080fd5b505af1158015610aed573d6000803e3d6000fd5b505050506040513d6020811015610b0357600080fd5b81019080805190602001909291905050501515610b88576040517f08c379a00000000000000000000000000000000000000000000000000000000081526004018080602001828103825260118152602001807f6d616b6572206e6f7420656e61626c656400000000000000000000000000000081525060200191505060405180910390fd5b600073ffffffffffffffffffffffffffffffffffffffff16866040015173ffffffffffffffffffffffffffffffffffffffff161480610bf657503373ffffffffffffffffffffffffffffffffffffffff16866040015173ffffffffffffffffffffffffffffffffffffffff16145b1515610c6a576040517f08c379a000000000000000000000000000000000000000000000000000000000815260040180806020018281038252600d8152602001807f696e76616c69642074616b65720000000000000000000000000000000000000081525060200191505060405180910390fd5b600073ffffffffffffffffffffffffffffffffffffffff16866020015173ffffffffffffffffffffffffffffffffffffffff1614158015610cdb57503373ffffffffffffffffffffffffffffffffffffffff16866020015173ffffffffffffffffffffffffffffffffffffffff1614155b1515610d4f576040517f08c379a00000000000000000000000000000000000000000000000000000000081526004018080602001828103825260128152602001807f696e76616c69642077617368207472616465000000000000000000000000000081525060200191505060405180910390fd5b73__OrderLib______________________________638163681e87602001518861012001518e8e8e6040518663ffffffff167c0100000000000000000000000000000000000000000000000000000000028152600401808673ffffffffffffffffffffffffffffffffffffffff1673ffffffffffffffffffffffffffffffffffffffff16815260200185600019166000191681526020018460ff1660ff168152602001836000191660001916815260200182600019166000191681526020019550505050505060206040518083038186803b158015610e2d57600080fd5b505af4158015610e41573d6000803e3d6000fd5b505050506040513d6020811015610e5757600080fd5b81019080805190602001909291905050501515610e7357600080fd5b8560e0015142101515610ecc578561012001516000191660006001811115610e9757fe5b7fe6104340582083fe7674a149f8da127b9d3d7f74a88ccd7610562eb5b61b919360405160405180910390a360009750611308565b610eec610edd876101200151610591565b8e61151090919063ffffffff16565b94506000851415610f425785610120015160001916600180811115610f0d57fe5b7fe6104340582083fe7674a149f8da127b9d3d7f74a88ccd7610562eb5b61b919360405160405180910390a360009750611308565b610f4c858d611527565b9750600360009054906101000a900473ffffffffffffffffffffffffffffffffffffffff1673ffffffffffffffffffffffffffffffffffffffff166326fca2e287600001518860200151338c8b60c001516040518663ffffffff167c0100000000000000000000000000000000000000000000000000000000028152600401808673ffffffffffffffffffffffffffffffffffffffff1673ffffffffffffffffffffffffffffffffffffffff1681526020018573ffffffffffffffffffffffffffffffffffffffff1673ffffffffffffffffffffffffffffffffffffffff1681526020018473ffffffffffffffffffffffffffffffffffffffff1673ffffffffffffffffffffffffffffffffffffffff16815260200183815260200182815260200195505050505050600060405180830381600087803b15801561108f57600080fd5b505af11580156110a3573d6000803e3d6000fd5b505050506110c28661012001518960046115fd9092919063ffffffff16565b6000935060009250600073ffffffffffffffffffffffffffffffffffffffff16866060015173ffffffffffffffffffffffffffffffffffffffff161415156112175761110d88611653565b915061111888611653565b905060008660800151111561119a57611140828288608001516116719092919063ffffffff16565b93506111998660200151876060015186600160009054906101000a900473ffffffffffffffffffffffffffffffffffffffff1673ffffffffffffffffffffffffffffffffffffffff16611691909392919063ffffffff16565b5b60008660a001511115611216576111c082828860a001516116719092919063ffffffff16565b925061121533876060015185600160009054906101000a900473ffffffffffffffffffffffffffffffffffffffff1673ffffffffffffffffffffffffffffffffffffffff16611691909392919063ffffffff16565b5b5b3373ffffffffffffffffffffffffffffffffffffffff16866020015173ffffffffffffffffffffffffffffffffffffffff16876000015173ffffffffffffffffffffffffffffffffffffffff167fa5239e81939fd083c7e4cce9becd6d8f6991f6adf93b2354a1975197dc793d9489606001518c89898d60c001518e6101200151604051808773ffffffffffffffffffffffffffffffffffffffff1673ffffffffffffffffffffffffffffffffffffffff1681526020018681526020018581526020018481526020018381526020018260001916600019168152602001965050505050505060405180910390a48797505b50505050505050979650505050505050565b60008183148061132c57506000828402135b905092915050565b61133c611ab8565b83600060048110151561134b57fe5b6020020151816000019073ffffffffffffffffffffffffffffffffffffffff16908173ffffffffffffffffffffffffffffffffffffffff168152505083600160048110151561139657fe5b6020020151816020019073ffffffffffffffffffffffffffffffffffffffff16908173ffffffffffffffffffffffffffffffffffffffff16815250508360026004811015156113e157fe5b6020020151816040019073ffffffffffffffffffffffffffffffffffffffff16908173ffffffffffffffffffffffffffffffffffffffff168152505083600360048110151561142c57fe5b6020020151816060019073ffffffffffffffffffffffffffffffffffffffff16908173ffffffffffffffffffffffffffffffffffffffff168152505082600060058110151561147757fe5b602002015181608001818152505082600160058110151561149457fe5b60200201518160a00181815250508260026005811015156114b157fe5b60200201518160c00181815250508260036005811015156114ce57fe5b60200201518160e001818152505081816101000181815250506114f28484846117b1565b81610120019060001916908160001916815250508090509392505050565b600061151f8383600003611a1d565b905092915050565b600061153282611653565b61153b84611653565b106115465781611548565b825b905092915050565b61158081846001016000856000191660001916815260200190815260200160002054611a1d90919063ffffffff16565b836001016000846000191660001916815260200190815260200160002081905550505050565b60006115f5836001016000846000191660001916815260200190815260200160002054846000016000856000191660001916815260200190815260200160002054611a1d90919063ffffffff16565b905092915050565b61162d81846000016000856000191660001916815260200190815260200160002054611a1d90919063ffffffff16565b836000016000846000191660001916815260200190815260200160002081905550505050565b6000808212156116685781600003905061166c565b8190505b919050565b60008161167e8585611a85565b81151561168757fe5b0490509392505050565b8373ffffffffffffffffffffffffffffffffffffffff166323b872dd8484846040518463ffffffff167c0100000000000000000000000000000000000000000000000000000000028152600401808473ffffffffffffffffffffffffffffffffffffffff1673ffffffffffffffffffffffffffffffffffffffff1681526020018373ffffffffffffffffffffffffffffffffffffffff1673ffffffffffffffffffffffffffffffffffffffff1681526020018281526020019350505050602060405180830381600087803b15801561176857600080fd5b505af115801561177c573d6000803e3d6000fd5b505050506040513d602081101561179257600080fd5b810190808051906020019092919050505015156117ab57fe5b50505050565b60008360006004811015156117c257fe5b60200201518460016004811015156117d657fe5b60200201518560026004811015156117ea57fe5b60200201518660036004811015156117fe57fe5b602002015186600060058110151561181257fe5b602002015187600160058110151561182657fe5b602002015188600260058110151561183a57fe5b602002015189600360058110151561184e57fe5b60200201518a600460058110151561186257fe5b60200201518a604051602001808b73ffffffffffffffffffffffffffffffffffffffff1673ffffffffffffffffffffffffffffffffffffffff166c010000000000000000000000000281526014018a73ffffffffffffffffffffffffffffffffffffffff1673ffffffffffffffffffffffffffffffffffffffff166c010000000000000000000000000281526014018973ffffffffffffffffffffffffffffffffffffffff1673ffffffffffffffffffffffffffffffffffffffff166c010000000000000000000000000281526014018873ffffffffffffffffffffffffffffffffffffffff1673ffffffffffffffffffffffffffffffffffffffff166c010000000000000000000000000281526014018781526020018681526020018581526020018481526020018381526020018281526020019a50505050505050505050506040516020818303038152906040526040518082805190602001908083835b6020831015156119e757805182526020820191506020810190506020830392506119c2565b6001836020036101000a038019825116818451168082178552505050505050905001915050604051809103902090509392505050565b6000808284019050611a2f848461131a565b1515611a3d57809150611a7e565b600084121515611a63578360ff60019060020a0219038313151515611a5e57fe5b611a7a565b8360ff60019060020a02038312151515611a7957fe5b5b8091505b5092915050565b60008082840290506000841480611aa65750828482811515611aa357fe5b04145b1515611aae57fe5b8091505092915050565b61014060405190810160405280600073ffffffffffffffffffffffffffffffffffffffff168152602001600073ffffffffffffffffffffffffffffffffffffffff168152602001600073ffffffffffffffffffffffffffffffffffffffff168152602001600073ffffffffffffffffffffffffffffffffffffffff16815260200160008152602001600081526020016000815260200160008152602001600081526020016000801916815250905600a165627a7a72305820ca9ee397ef2c208934a2868d312d368de2990df043265046f6b76b2f688e235d0029",
  "source": "/*\n    Copyright 2017-2018 Phillip A. Elsasser\n\n    Licensed under the Apache License, Version 2.0 (the \"License\");\n    you may not use this file except in compliance with the License.\n    You may obtain a copy of the License at\n\n    http://www.apache.org/licenses/LICENSE-2.0\n\n    Unless required by applicable law or agreed to in writing, software\n    distributed under the License is distributed on an \"AS IS\" BASIS,\n    WITHOUT WARRANTIES OR CONDITIONS OF ANY KIND, either express or implied.\n    See the License for the specific language governing permissions and\n    limitations under the License.\n*/\n\npragma solidity ^0.4.24;\n\nimport \"./MarketCollateralPool.sol\";\nimport \"./MarketContract.sol\";\nimport \"./libraries/OrderLib.sol\";\nimport \"./libraries/MathLib.sol\";\nimport \"./tokens/MarketToken.sol\";\n\nimport \"openzeppelin-solidity/contracts/token/ERC20/ERC20.sol\";\nimport \"openzeppelin-solidity/contracts/token/ERC20/SafeERC20.sol\";\n\n\ncontract MarketTradingHub {\n    using OrderLib for OrderLib.Order;\n    using OrderLib for OrderLib.OrderMappings;\n    using MathLib for int;\n    using MathLib for uint;\n    using SafeERC20 for ERC20;\n    using SafeERC20 for MarketToken;\n\n    enum ErrorCodes {\n        ORDER_EXPIRED,              // past designated timestamp\n        ORDER_DEAD                  // order if fully filled or fully cancelled\n    }\n\n    // constants\n    address public MKT_TOKEN_ADDRESS;\n    MarketToken MKT_TOKEN;\n\n    // accounting\n    address public MARKET_COLLATERAL_POOL_ADDRESS;\n    MarketCollateralPool MARKET_COLLATERAL_POOL;\n    OrderLib.OrderMappings orderMappings;\n\n    // events\n    event Error(ErrorCodes indexed errorCode, bytes32 indexed orderHash);\n\n    // order events\n    event OrderFilled(\n        address indexed marketContractAddress,\n        address indexed maker,\n        address indexed taker,\n        address feeRecipient,\n        int filledQty,\n        uint paidMakerFee,\n        uint paidTakerFee,\n        uint price,\n        bytes32 orderHash\n    );\n\n    event OrderCancelled(\n        address indexed marketContractAddress,\n        address indexed maker,\n        address indexed feeRecipient,\n        int cancelledQty,\n        bytes32 orderHash\n    );\n\n    /// @param mktTokenAddress the address of the MKT ERC20 token\n    /// @param collateralPoolAddress  the address of the MarketCollateralPool\n    constructor(\n        address mktTokenAddress,\n        address collateralPoolAddress\n    ) public\n    {\n        MARKET_COLLATERAL_POOL_ADDRESS = collateralPoolAddress;\n        MARKET_COLLATERAL_POOL = MarketCollateralPool(MARKET_COLLATERAL_POOL_ADDRESS);\n        MKT_TOKEN_ADDRESS = mktTokenAddress;\n        MKT_TOKEN = MarketToken(MKT_TOKEN_ADDRESS);\n    }\n\n    /*\n    // EXTERNAL METHODS\n    */\n\n    // @notice called by a participant wanting to trade a specific order\n    /// @param orderAddresses - marketContractAddress, maker, taker and feeRecipient addresses\n    /// @param unsignedOrderValues makerFee, takerFree, price, expirationTimeStamp, and salt (for hashing)\n    /// @param orderQty quantity of the order\n    /// @param qtyToFill quantity taker is willing to fill of original order(max)\n    /// @param v order signature\n    /// @param r order signature\n    /// @param s order signature\n    function tradeOrder(\n        address[4] orderAddresses,\n        uint[5] unsignedOrderValues,\n        int orderQty,\n        int qtyToFill,\n        uint8 v,\n        bytes32 r,\n        bytes32 s\n    ) external returns (int filledQty)\n    {\n        MarketContract marketContract = MarketContract(orderAddresses[0]);\n        require(!marketContract.isSettled(), \"Contract has already settled\"); // no trading past settlement\n        require(orderQty != 0 && qtyToFill != 0 && orderQty.isSameSign(qtyToFill), \"qty Error\");   // no zero trades, sings match\n        require(MKT_TOKEN.isUserEnabledForContract(this, msg.sender), \"taker not enabled\");\n        OrderLib.Order memory order = OrderLib.createOrder(orderAddresses, unsignedOrderValues, orderQty);\n        require(MKT_TOKEN.isUserEnabledForContract(this, order.maker), \"maker not enabled\");\n\n        // taker can be anyone, or specifically the caller!\n        require(order.taker == address(0) || order.taker == msg.sender, \"invalid taker\");\n        // do not allow self trade\n        require(order.maker != address(0) && order.maker != msg.sender, \"invalid wash trade\");\n\n        require(\n            OrderLib.isValidSignature(\n                order.maker,\n                order.orderHash,\n                v,\n                r,\n                s\n            )\n        );\n\n\n        if (now >= order.expirationTimeStamp) {\n            emit Error(ErrorCodes.ORDER_EXPIRED, order.orderHash);\n            return 0;\n        }\n\n        int remainingQty = orderQty.subtract(getQtyFilledOrCancelledFromOrder(order.orderHash));\n        if (remainingQty == 0) { // there is no qty remaining  - cannot fill!\n            emit Error(ErrorCodes.ORDER_DEAD, order.orderHash);\n            return 0;\n        }\n\n        filledQty = MathLib.absMin(remainingQty, qtyToFill);\n        MARKET_COLLATERAL_POOL.updatePositions(\n            order.marketContractAddress,\n            order.maker,\n            msg.sender,\n            filledQty,\n            order.price\n        );\n        orderMappings.addFilledQtyToOrder(order.orderHash, filledQty);\n\n        uint paidMakerFee = 0;\n        uint paidTakerFee = 0;\n\n        if (order.feeRecipient != address(0)) {\n            // we need to transfer fees to recipient\n            uint filledAbsQty = filledQty.abs();\n            uint orderAbsQty = filledQty.abs();\n            if (order.makerFee > 0) {\n                paidMakerFee = order.makerFee.divideFractional(filledAbsQty, orderAbsQty);\n                MKT_TOKEN.safeTransferFrom(\n                    order.maker,\n                    order.feeRecipient,\n                    paidMakerFee\n                );\n            }\n\n            if (order.takerFee > 0) {\n                paidTakerFee = order.takerFee.divideFractional(filledAbsQty, orderAbsQty);\n                MKT_TOKEN.safeTransferFrom(\n                    msg.sender,\n                    order.feeRecipient,\n                    paidTakerFee\n                );\n            }\n        }\n\n        emit OrderFilled(\n            order.marketContractAddress,\n            order.maker,\n            msg.sender,\n            order.feeRecipient,\n            filledQty,\n            paidMakerFee,\n            paidTakerFee,\n            order.price,\n            order.orderHash\n        );\n\n        return filledQty;\n    }\n\n    /// @notice called by the maker of an order to attempt to cancel the order before its expiration time stamp\n    /// @param orderAddresses - marketContractAddress, maker, taker and feeRecipient addresses\n    /// @param unsignedOrderValues makerFee, takerFree, price, expirationTimeStamp, and salt (for hashing)\n    /// @param orderQty quantity of the order\n    /// @param qtyToCancel quantity maker is attempting to cancel\n    /// @return qty that was successfully cancelled of order.\n    function cancelOrder(\n        address[4] orderAddresses,\n        uint[5] unsignedOrderValues,\n        int orderQty,\n        int qtyToCancel\n    ) external returns (int qtyCancelled)\n    {\n        require(qtyToCancel != 0 && qtyToCancel.isSameSign(orderQty));      // cannot cancel 0 and signs must match\n        MarketContract marketContract = MarketContract(orderAddresses[0]);\n        require(!marketContract.isSettled());\n\n        OrderLib.Order memory order = OrderLib.createOrder(orderAddresses, unsignedOrderValues, orderQty);\n        require(order.maker == msg.sender);                                // only maker can cancel standing order\n        if (now >= order.expirationTimeStamp) {\n            emit Error(ErrorCodes.ORDER_EXPIRED, order.orderHash);\n            return 0;\n        }\n\n        int remainingQty = orderQty.subtract(getQtyFilledOrCancelledFromOrder(order.orderHash));\n        if (remainingQty == 0) { // there is no qty remaining to cancel order is dead\n            emit Error(ErrorCodes.ORDER_DEAD, order.orderHash);\n            return 0;\n        }\n\n        qtyCancelled = MathLib.absMin(qtyToCancel, remainingQty);   // we can only cancel what remains\n        orderMappings.addCancelledQtyToOrder(order.orderHash, qtyCancelled);\n        emit OrderCancelled(\n            order.marketContractAddress,\n            order.maker,\n            order.feeRecipient,\n            qtyCancelled,\n            order.orderHash\n        );\n\n        return qtyCancelled;\n    }\n\n    /*\n    // PUBLIC METHODS\n    */\n\n    /// @notice returns the qty that is no longer available to trade for a given order\n    /// @param orderHash hash of order to find filled and cancelled qty\n    /// @return int quantity that is no longer able to filled from the supplied order hash\n    function getQtyFilledOrCancelledFromOrder(bytes32 orderHash) public view returns (int) {\n        return orderMappings.getQtyFilledOrCancelledFromOrder(orderHash);\n    }\n\n}\n",
  "sourcePath": "/home/travis/build/MARKETProtocol/MARKETProtocol/contracts/MarketTradingHub.sol",
  "compiler": {
    "name": "solc",
    "version": "0.4.24+commit.e67f0147.Emscripten.clang"
  },
  "schemaVersion": "2.0.1",
  "updatedAt": "2018-10-16T03:15:00.566Z"
}