{
  "contractName": "MarketContract",
  "abi": [
    {
      "constant": true,
      "inputs": [],
      "name": "lastPrice",
      "outputs": [
        {
          "name": "",
          "type": "uint256"
        }
      ],
      "payable": false,
      "stateMutability": "view",
      "type": "function"
    },
    {
      "constant": true,
      "inputs": [],
      "name": "LONG_POSITION_TOKEN",
      "outputs": [
        {
          "name": "",
          "type": "address"
        }
      ],
      "payable": false,
      "stateMutability": "view",
      "type": "function"
    },
    {
      "constant": true,
      "inputs": [],
      "name": "PRICE_DECIMAL_PLACES",
      "outputs": [
        {
          "name": "",
          "type": "uint256"
        }
      ],
      "payable": false,
      "stateMutability": "view",
      "type": "function"
    },
    {
      "constant": true,
      "inputs": [],
      "name": "COLLATERAL_TOKEN_ADDRESS",
      "outputs": [
        {
          "name": "",
          "type": "address"
        }
      ],
      "payable": false,
      "stateMutability": "view",
      "type": "function"
    },
    {
      "constant": true,
      "inputs": [],
      "name": "isSettled",
      "outputs": [
        {
          "name": "",
          "type": "bool"
        }
      ],
      "payable": false,
      "stateMutability": "view",
      "type": "function"
    },
    {
      "constant": true,
      "inputs": [],
      "name": "SETTLEMENT_DELAY",
      "outputs": [
        {
          "name": "",
          "type": "uint256"
        }
      ],
      "payable": false,
      "stateMutability": "view",
      "type": "function"
    },
    {
      "constant": true,
      "inputs": [],
      "name": "SHORT_POSITION_TOKEN",
      "outputs": [
        {
          "name": "",
          "type": "address"
        }
      ],
      "payable": false,
      "stateMutability": "view",
      "type": "function"
    },
    {
      "constant": true,
      "inputs": [],
      "name": "COLLATERAL_TOKEN_FEE_PER_UNIT",
      "outputs": [
        {
          "name": "",
          "type": "uint256"
        }
      ],
      "payable": false,
      "stateMutability": "view",
      "type": "function"
    },
    {
      "constant": true,
      "inputs": [],
      "name": "CONTRACT_NAME",
      "outputs": [
        {
          "name": "",
          "type": "string"
        }
      ],
      "payable": false,
      "stateMutability": "view",
      "type": "function"
    },
    {
      "constant": false,
      "inputs": [],
      "name": "renounceOwnership",
      "outputs": [],
      "payable": false,
      "stateMutability": "nonpayable",
      "type": "function"
    },
    {
      "constant": true,
      "inputs": [],
      "name": "settlementTimeStamp",
      "outputs": [
        {
          "name": "",
          "type": "uint256"
        }
      ],
      "payable": false,
      "stateMutability": "view",
      "type": "function"
    },
    {
      "constant": true,
      "inputs": [],
      "name": "owner",
      "outputs": [
        {
          "name": "",
          "type": "address"
        }
      ],
      "payable": false,
      "stateMutability": "view",
      "type": "function"
    },
    {
      "constant": true,
      "inputs": [],
      "name": "isOwner",
      "outputs": [
        {
          "name": "",
          "type": "bool"
        }
      ],
      "payable": false,
      "stateMutability": "view",
      "type": "function"
    },
    {
      "constant": true,
      "inputs": [],
      "name": "PRICE_CAP",
      "outputs": [
        {
          "name": "",
          "type": "uint256"
        }
      ],
      "payable": false,
      "stateMutability": "view",
      "type": "function"
    },
    {
      "constant": true,
      "inputs": [],
      "name": "EXPIRATION",
      "outputs": [
        {
          "name": "",
          "type": "uint256"
        }
      ],
      "payable": false,
      "stateMutability": "view",
      "type": "function"
    },
    {
      "constant": true,
      "inputs": [],
      "name": "PRICE_FLOOR",
      "outputs": [
        {
          "name": "",
          "type": "uint256"
        }
      ],
      "payable": false,
      "stateMutability": "view",
      "type": "function"
    },
    {
      "constant": true,
      "inputs": [],
      "name": "QTY_MULTIPLIER",
      "outputs": [
        {
          "name": "",
          "type": "uint256"
        }
      ],
      "payable": false,
      "stateMutability": "view",
      "type": "function"
    },
    {
      "constant": true,
      "inputs": [],
      "name": "MKT_TOKEN_FEE_PER_UNIT",
      "outputs": [
        {
          "name": "",
          "type": "uint256"
        }
      ],
      "payable": false,
      "stateMutability": "view",
      "type": "function"
    },
    {
      "constant": true,
      "inputs": [],
      "name": "COLLATERAL_PER_UNIT",
      "outputs": [
        {
          "name": "",
          "type": "uint256"
        }
      ],
      "payable": false,
      "stateMutability": "view",
      "type": "function"
    },
    {
      "constant": true,
      "inputs": [],
      "name": "COLLATERAL_POOL_ADDRESS",
      "outputs": [
        {
          "name": "",
          "type": "address"
        }
      ],
      "payable": false,
      "stateMutability": "view",
      "type": "function"
    },
    {
      "constant": false,
      "inputs": [
        {
          "name": "newOwner",
          "type": "address"
        }
      ],
      "name": "transferOwnership",
      "outputs": [],
      "payable": false,
      "stateMutability": "nonpayable",
      "type": "function"
    },
    {
      "constant": true,
      "inputs": [],
      "name": "settlementPrice",
      "outputs": [
        {
          "name": "",
          "type": "uint256"
        }
      ],
      "payable": false,
      "stateMutability": "view",
      "type": "function"
    },
    {
      "inputs": [
        {
          "name": "contractNames",
          "type": "string"
        },
        {
          "name": "baseAddresses",
          "type": "address[3]"
        },
        {
          "name": "contractSpecs",
          "type": "uint256[7]"
        }
      ],
      "payable": false,
      "stateMutability": "nonpayable",
      "type": "constructor"
    },
    {
      "anonymous": false,
      "inputs": [
        {
          "indexed": false,
          "name": "price",
          "type": "uint256"
        }
      ],
      "name": "UpdatedLastPrice",
      "type": "event"
    },
    {
      "anonymous": false,
      "inputs": [
        {
          "indexed": false,
          "name": "settlePrice",
          "type": "uint256"
        }
      ],
      "name": "ContractSettled",
      "type": "event"
    },
    {
      "anonymous": false,
      "inputs": [
        {
          "indexed": true,
          "name": "previousOwner",
          "type": "address"
        },
        {
          "indexed": true,
          "name": "newOwner",
          "type": "address"
        }
      ],
      "name": "OwnershipTransferred",
      "type": "event"
    },
    {
      "constant": false,
      "inputs": [
        {
          "name": "qtyToMint",
          "type": "uint256"
        },
        {
          "name": "minter",
          "type": "address"
        }
      ],
      "name": "mintPositionTokens",
      "outputs": [],
      "payable": false,
      "stateMutability": "nonpayable",
      "type": "function"
    },
    {
      "constant": false,
      "inputs": [
        {
          "name": "qtyToRedeem",
          "type": "uint256"
        },
        {
          "name": "redeemer",
          "type": "address"
        }
      ],
      "name": "redeemLongToken",
      "outputs": [],
      "payable": false,
      "stateMutability": "nonpayable",
      "type": "function"
    },
    {
      "constant": false,
      "inputs": [
        {
          "name": "qtyToRedeem",
          "type": "uint256"
        },
        {
          "name": "redeemer",
          "type": "address"
        }
      ],
      "name": "redeemShortToken",
      "outputs": [],
      "payable": false,
      "stateMutability": "nonpayable",
      "type": "function"
    },
    {
      "constant": true,
      "inputs": [],
      "name": "isPostSettlementDelay",
      "outputs": [
        {
          "name": "",
          "type": "bool"
        }
      ],
      "payable": false,
      "stateMutability": "view",
      "type": "function"
    }
  ],
  "bytecode": "0x608060405262015180600c556000601260006101000a81548160ff0219169083151502179055503480156200003357600080fd5b5060405162003e7d38038062003e7d83398101806040528101908080518201929190602001919082606001919050506200006c62000f49565b6200007662000f49565b600080336000806101000a81548173ffffffffffffffffffffffffffffffffffffffff021916908373ffffffffffffffffffffffffffffffffffffffff1602179055506000809054906101000a900473ffffffffffffffffffffffffffffffffffffffff1673ffffffffffffffffffffffffffffffffffffffff16600073ffffffffffffffffffffffffffffffffffffffff167f8be0079c531659141344cd1fd0a4f28419497f9722a3daafe3b4186f6b6457e060405160405180910390a38460006007811015156200014557fe5b60200201516005819055508460016007811015156200016057fe5b60200201516004819055506005546004541115156200017e57600080fd5b8460026007811015156200018e57fe5b6020020151600681905550846003600781101515620001a957fe5b6020020151600781905550846006600781101515620001c457fe5b6020020151600b8190555042600b5411151562000249576040517f08c379a00000000000000000000000000000000000000000000000000000000081526004018080602001828103825260208152602001807f65787069726174696f6e206d75737420626520696e207468652066757475726581525060200191505060405180910390fd5b8560016003811015156200025957fe5b6020020151600260006101000a81548173ffffffffffffffffffffffffffffffffffffffff021916908373ffffffffffffffffffffffffffffffffffffffff160217905550856002600381101515620002ae57fe5b6020020151600360006101000a81548173ffffffffffffffffffffffffffffffffffffffff021916908373ffffffffffffffffffffffffffffffffffffffff16021790555073__MathLib_______________________________63f226512c6005546004546007546040518463ffffffff167c010000000000000000000000000000000000000000000000000000000002815260040180848152602001838152602001828152602001935050505060206040518083038186803b1580156200037557600080fd5b505af41580156200038a573d6000803e3d6000fd5b505050506040513d6020811015620003a157600080fd5b810190808051906020019092919050505060088190555073__MathLib_______________________________63dab48bd9600554600454600754896004600781101515620003eb57fe5b60200201516040518563ffffffff167c01000000000000000000000000000000000000000000000000000000000281526004018085815260200184815260200183815260200182815260200194505050505060206040518083038186803b1580156200045657600080fd5b505af41580156200046b573d6000803e3d6000fd5b505050506040513d60208110156200048257600080fd5b810190808051906020019092919050505060098190555073__MathLib_______________________________63dab48bd9600554600454600754896005600781101515620004cc57fe5b60200201516040518563ffffffff167c01000000000000000000000000000000000000000000000000000000000281526004018085815260200184815260200183815260200182815260200194505050505060206040518083038186803b1580156200053757600080fd5b505af41580156200054c573d6000803e3d6000fd5b505050506040513d60208110156200056357600080fd5b8101908080519060200190929190505050600a81905550620005998762000a586401000000000262001027176401000000009004565b9350620005ef6040805190810160405280600181526020017f2c0000000000000000000000000000000000000000000000000000000000000081525062000a586401000000000262001027176401000000009004565b9250600262000616848662000a886401000000000262001055179091906401000000009004565b141515620006b2576040517f08c379a00000000000000000000000000000000000000000000000000000000081526004018080602001828103825260228152602001807f436f6e74726163744e616d6573206d75737420636f6e7461696e2033206e616d81526020017f657300000000000000000000000000000000000000000000000000000000000081525060400191505060405180910390fd5b620006f3620006d9848662000b2364010000000002620010cc179091906401000000009004565b62000b5064010000000002620010e6176401000000009004565b600190805190602001906200070a92919062000f63565b506200074c62000732848662000b2364010000000002620010cc179091906401000000009004565b62000b5064010000000002620010e6176401000000009004565b60006200075862000fea565b8080602001806020018460ff168152602001838103835260238152602001807f4d41524b45542050726f746f636f6c204c6f6e6720506f736974696f6e20546f81526020017f6b656e0000000000000000000000000000000000000000000000000000000000815250604001838103825285818151815260200191508051906020019080838360005b83811015620007fe578082015181840152602081019050620007e1565b50505050905090810190601f1680156200082c5780820380516001836020036101000a031916815260200191505b50945050505050604051809103906000f08015801562000850573d6000803e3d6000fd5b509150620008946200087a848662000b2364010000000002620010cc179091906401000000009004565b62000b5064010000000002620010e6176401000000009004565b6001620008a062000fea565b8080602001806020018460ff168152602001838103835260248152602001807f4d41524b45542050726f746f636f6c2053686f727420506f736974696f6e205481526020017f6f6b656e00000000000000000000000000000000000000000000000000000000815250604001838103825285818151815260200191508051906020019080838360005b838110156200094657808201518184015260208101905062000929565b50505050905090810190601f168015620009745780820380516001836020036101000a031916815260200191505b50945050505050604051809103906000f08015801562000998573d6000803e3d6000fd5b50905081600d60006101000a81548173ffffffffffffffffffffffffffffffffffffffff021916908373ffffffffffffffffffffffffffffffffffffffff16021790555080600e60006101000a81548173ffffffffffffffffffffffffffffffffffffffff021916908373ffffffffffffffffffffffffffffffffffffffff16021790555062000a4b86600060038110151562000a3157fe5b602002015162000bc4640100000000026401000000009004565b5050505050505062001023565b62000a6262000f49565b600060208301905060408051908101604052808451815260200182815250915050919050565b600080826000015162000abd856000015186602001518660000151876020015162000c06640100000000026401000000009004565b0190505b83600001518460200151018111151562000b1c578180600101925050826000015162000b1385602001518303866000015103838660000151876020015162000c06640100000000026401000000009004565b01905062000ac1565b5092915050565b62000b2d62000f49565b62000b4983838362000cf7640100000000026401000000009004565b5092915050565b606080600083600001516040519080825280601f01601f19166020018201604052801562000b8d5781602001602082028038833980820191505090505b50915060208201905062000bba818560200151866000015162000daa640100000000026401000000009004565b8192505050919050565b62000bdd62000df7640100000000026401000000009004565b151562000be957600080fd5b62000c038162000e4e640100000000026401000000009004565b50565b60008060008060008060008060008b97508c8b11151562000ce15760208b11151562000c975760018b60200360080260020a03196001029550858a511694508a8d8d010393508588511692505b8460001916836000191614151562000c8e57838810151562000c7a578c8c01985062000ce7565b878060010198505085885116925062000c53565b87985062000ce7565b8a8a209150600096505b8a8d038711151562000ce0578a8820905080600019168260001916141562000ccc5787985062000ce7565b600188019750868060010197505062000ca1565b5b8c8c0198505b5050505050505050949350505050565b62000d0162000f49565b600062000d30856000015186602001518660000151876020015162000c06640100000000026401000000009004565b9050846020015183602001818152505084602001518103836000018181525050846000015185602001510181141562000d7457600085600001818152505062000d9f565b8360000151836000015101856000018181510391508181525050836000015181018560200181815250505b829150509392505050565b60005b60208210151562000dd4578251845260208401935060208301925060208203915062000dad565b6001826020036101000a0390508019835116818551168181178652505050505050565b60008060009054906101000a900473ffffffffffffffffffffffffffffffffffffffff1673ffffffffffffffffffffffffffffffffffffffff163373ffffffffffffffffffffffffffffffffffffffff1614905090565b600073ffffffffffffffffffffffffffffffffffffffff168173ffffffffffffffffffffffffffffffffffffffff161415151562000e8b57600080fd5b8073ffffffffffffffffffffffffffffffffffffffff166000809054906101000a900473ffffffffffffffffffffffffffffffffffffffff1673ffffffffffffffffffffffffffffffffffffffff167f8be0079c531659141344cd1fd0a4f28419497f9722a3daafe3b4186f6b6457e060405160405180910390a3806000806101000a81548173ffffffffffffffffffffffffffffffffffffffff021916908373ffffffffffffffffffffffffffffffffffffffff16021790555050565b604080519081016040528060008152602001600081525090565b828054600181600116156101000203166002900490600052602060002090601f016020900481019282601f1062000fa657805160ff191683800117855562000fd7565b8280016001018555821562000fd7579182015b8281111562000fd657825182559160200191906001019062000fb9565b5b50905062000fe6919062000ffb565b5090565b604051611aed806200239083390190565b6200102091905b808211156200101c57600081600090555060010162001002565b5090565b90565b61135d80620010336000396000f300608060405260043610610154576000357c0100000000000000000000000000000000000000000000000000000000900463ffffffff168063053f14da1461015957806322d1c35e146101845780632fed1b00146101db578063323bb775146102065780633270bb5b1461025d57806357d1ba251461028c5780635b3f1e3f146102b75780635c7c70591461030e578063614d08f8146103395780636d359467146103c9578063715018a61461041657806386aa7cdc1461042d5780638da5cb5b146104585780638f32d59b146104af578063b5471dee146104de578063bb4b573414610509578063bd220dae14610534578063c25c444414610563578063c32b1dfa146105b0578063ca361d67146105db578063cabd583414610606578063db3fa77114610653578063e158e02d1461067e578063eaafb4fa146106a9578063f2fde38b14610700578063f348e8b214610743575b600080fd5b34801561016557600080fd5b5061016e61076e565b6040518082815260200191505060405180910390f35b34801561019057600080fd5b50610199610774565b604051808273ffffffffffffffffffffffffffffffffffffffff1673ffffffffffffffffffffffffffffffffffffffff16815260200191505060405180910390f35b3480156101e757600080fd5b506101f061079a565b6040518082815260200191505060405180910390f35b34801561021257600080fd5b5061021b6107a0565b604051808273ffffffffffffffffffffffffffffffffffffffff1673ffffffffffffffffffffffffffffffffffffffff16815260200191505060405180910390f35b34801561026957600080fd5b506102726107c6565b604051808215151515815260200191505060405180910390f35b34801561029857600080fd5b506102a16107d9565b6040518082815260200191505060405180910390f35b3480156102c357600080fd5b506102cc6107df565b604051808273ffffffffffffffffffffffffffffffffffffffff1673ffffffffffffffffffffffffffffffffffffffff16815260200191505060405180910390f35b34801561031a57600080fd5b50610323610805565b6040518082815260200191505060405180910390f35b34801561034557600080fd5b5061034e61080b565b6040518080602001828103825283818151815260200191508051906020019080838360005b8381101561038e578082015181840152602081019050610373565b50505050905090810190601f1680156103bb5780820380516001836020036101000a031916815260200191505b509250505060405180910390f35b3480156103d557600080fd5b5061041460048036038101908080359060200190929190803573ffffffffffffffffffffffffffffffffffffffff1690602001909291905050506108a9565b005b34801561042257600080fd5b5061042b6109e6565b005b34801561043957600080fd5b50610442610ab8565b6040518082815260200191505060405180910390f35b34801561046457600080fd5b5061046d610abe565b604051808273ffffffffffffffffffffffffffffffffffffffff1673ffffffffffffffffffffffffffffffffffffffff16815260200191505060405180910390f35b3480156104bb57600080fd5b506104c4610ae7565b604051808215151515815260200191505060405180910390f35b3480156104ea57600080fd5b506104f3610b3e565b6040518082815260200191505060405180910390f35b34801561051557600080fd5b5061051e610b44565b6040518082815260200191505060405180910390f35b34801561054057600080fd5b50610549610b4a565b604051808215151515815260200191505060405180910390f35b34801561056f57600080fd5b506105ae60048036038101908080359060200190929190803573ffffffffffffffffffffffffffffffffffffffff169060200190929190505050610b73565b005b3480156105bc57600080fd5b506105c5610cb0565b6040518082815260200191505060405180910390f35b3480156105e757600080fd5b506105f0610cb6565b6040518082815260200191505060405180910390f35b34801561061257600080fd5b5061065160048036038101908080359060200190929190803573ffffffffffffffffffffffffffffffffffffffff169060200190929190505050610cbc565b005b34801561065f57600080fd5b50610668610ed6565b6040518082815260200191505060405180910390f35b34801561068a57600080fd5b50610693610edc565b6040518082815260200191505060405180910390f35b3480156106b557600080fd5b506106be610ee2565b604051808273ffffffffffffffffffffffffffffffffffffffff1673ffffffffffffffffffffffffffffffffffffffff16815260200191505060405180910390f35b34801561070c57600080fd5b50610741600480360381019080803573ffffffffffffffffffffffffffffffffffffffff169060200190929190505050610f08565b005b34801561074f57600080fd5b50610758610f27565b6040518082815260200191505060405180910390f35b600f5481565b600d60009054906101000a900473ffffffffffffffffffffffffffffffffffffffff1681565b60065481565b600260009054906101000a900473ffffffffffffffffffffffffffffffffffffffff1681565b601260009054906101000a900460ff1681565b600c5481565b600e60009054906101000a900473ffffffffffffffffffffffffffffffffffffffff1681565b60095481565b60018054600181600116156101000203166002900480601f0160208091040260200160405190810160405280929190818152602001828054600181600116156101000203166002900480156108a15780601f10610876576101008083540402835291602001916108a1565b820191906000526020600020905b81548152906001019060200180831161088457829003601f168201915b505050505081565b600360009054906101000a900473ffffffffffffffffffffffffffffffffffffffff1673ffffffffffffffffffffffffffffffffffffffff163373ffffffffffffffffffffffffffffffffffffffff1614151561090557600080fd5b600e60009054906101000a900473ffffffffffffffffffffffffffffffffffffffff1673ffffffffffffffffffffffffffffffffffffffff1663c3501ff683836040518363ffffffff167c0100000000000000000000000000000000000000000000000000000000028152600401808381526020018273ffffffffffffffffffffffffffffffffffffffff1673ffffffffffffffffffffffffffffffffffffffff16815260200192505050600060405180830381600087803b1580156109ca57600080fd5b505af11580156109de573d6000803e3d6000fd5b505050505050565b6109ee610ae7565b15156109f957600080fd5b600073ffffffffffffffffffffffffffffffffffffffff166000809054906101000a900473ffffffffffffffffffffffffffffffffffffffff1673ffffffffffffffffffffffffffffffffffffffff167f8be0079c531659141344cd1fd0a4f28419497f9722a3daafe3b4186f6b6457e060405160405180910390a360008060006101000a81548173ffffffffffffffffffffffffffffffffffffffff021916908373ffffffffffffffffffffffffffffffffffffffff160217905550565b60115481565b60008060009054906101000a900473ffffffffffffffffffffffffffffffffffffffff16905090565b60008060009054906101000a900473ffffffffffffffffffffffffffffffffffffffff1673ffffffffffffffffffffffffffffffffffffffff163373ffffffffffffffffffffffffffffffffffffffff1614905090565b60045481565b600b5481565b6000601260009054906101000a900460ff168015610b6e5750600c54601154014210155b905090565b600360009054906101000a900473ffffffffffffffffffffffffffffffffffffffff1673ffffffffffffffffffffffffffffffffffffffff163373ffffffffffffffffffffffffffffffffffffffff16141515610bcf57600080fd5b600d60009054906101000a900473ffffffffffffffffffffffffffffffffffffffff1673ffffffffffffffffffffffffffffffffffffffff1663c3501ff683836040518363ffffffff167c0100000000000000000000000000000000000000000000000000000000028152600401808381526020018273ffffffffffffffffffffffffffffffffffffffff1673ffffffffffffffffffffffffffffffffffffffff16815260200192505050600060405180830381600087803b158015610c9457600080fd5b505af1158015610ca8573d6000803e3d6000fd5b505050505050565b60055481565b60075481565b600360009054906101000a900473ffffffffffffffffffffffffffffffffffffffff1673ffffffffffffffffffffffffffffffffffffffff163373ffffffffffffffffffffffffffffffffffffffff16141515610d1857600080fd5b600d60009054906101000a900473ffffffffffffffffffffffffffffffffffffffff1673ffffffffffffffffffffffffffffffffffffffff16637251cd0283836040518363ffffffff167c0100000000000000000000000000000000000000000000000000000000028152600401808381526020018273ffffffffffffffffffffffffffffffffffffffff1673ffffffffffffffffffffffffffffffffffffffff16815260200192505050600060405180830381600087803b158015610ddd57600080fd5b505af1158015610df1573d6000803e3d6000fd5b50505050600e60009054906101000a900473ffffffffffffffffffffffffffffffffffffffff1673ffffffffffffffffffffffffffffffffffffffff16637251cd0283836040518363ffffffff167c0100000000000000000000000000000000000000000000000000000000028152600401808381526020018273ffffffffffffffffffffffffffffffffffffffff1673ffffffffffffffffffffffffffffffffffffffff16815260200192505050600060405180830381600087803b158015610eba57600080fd5b505af1158015610ece573d6000803e3d6000fd5b505050505050565b600a5481565b60085481565b600360009054906101000a900473ffffffffffffffffffffffffffffffffffffffff1681565b610f10610ae7565b1515610f1b57600080fd5b610f2481610f2d565b50565b60105481565b600073ffffffffffffffffffffffffffffffffffffffff168173ffffffffffffffffffffffffffffffffffffffff1614151515610f6957600080fd5b8073ffffffffffffffffffffffffffffffffffffffff166000809054906101000a900473ffffffffffffffffffffffffffffffffffffffff1673ffffffffffffffffffffffffffffffffffffffff167f8be0079c531659141344cd1fd0a4f28419497f9722a3daafe3b4186f6b6457e060405160405180910390a3806000806101000a81548173ffffffffffffffffffffffffffffffffffffffff021916908373ffffffffffffffffffffffffffffffffffffffff16021790555050565b61102f611317565b600060208301905060408051908101604052808451815260200182815250915050919050565b60008082600001516110798560000151866020015186600001518760200151611148565b0190505b8360000151846020015101811115156110c557818060010192505082600001516110bd856020015183038660000151038386600001518760200151611148565b01905061107d565b5092915050565b6110d4611317565b6110df83838361122e565b5092915050565b606080600083600001516040519080825280601f01601f1916602001820160405280156111225781602001602082028038833980820191505090505b50915060208201905061113e81856020015186600001516112cc565b8192505050919050565b60008060008060008060008060008b97508c8b1115156112185760208b1115156111d25760018b60200360080260020a03196001029550858a511694508a8d8d010393508588511692505b846000191683600019161415156111ca5783881015156111b7578c8c01985061121e565b8780600101985050858851169250611193565b87985061121e565b8a8a209150600096505b8a8d0387111515611217578a882090508060001916826000191614156112045787985061121e565b60018801975086806001019750506111dc565b5b8c8c0198505b5050505050505050949350505050565b611236611317565b60006112548560000151866020015186600001518760200151611148565b905084602001518360200181815250508460200151810383600001818152505084600001518560200151018114156112965760008560000181815250506112c1565b8360000151836000015101856000018181510391508181525050836000015181018560200181815250505b829150509392505050565b60005b6020821015156112f457825184526020840193506020830192506020820391506112cf565b6001826020036101000a0390508019835116818551168181178652505050505050565b6040805190810160405280600081526020016000815250905600a165627a7a7230582020f86613c77726cb047fd7f278ef05c1c54d349a80dbaa67147f64280c3d6b9f002960806040523480156200001157600080fd5b5060405162001aed38038062001aed83398101806040528101908080518201929190602001805182019291906020018051906020019092919050505033600360006101000a81548173ffffffffffffffffffffffffffffffffffffffff021916908373ffffffffffffffffffffffffffffffffffffffff160217905550600360009054906101000a900473ffffffffffffffffffffffffffffffffffffffff1673ffffffffffffffffffffffffffffffffffffffff16600073ffffffffffffffffffffffffffffffffffffffff167f8be0079c531659141344cd1fd0a4f28419497f9722a3daafe3b4186f6b6457e060405160405180910390a38260049080519060200190620001239291906200017d565b5081600590805190602001906200013c9291906200017d565b506005600660006101000a81548160ff021916908360ff16021790555080600660016101000a81548160ff021916908360ff1602179055505050506200022c565b828054600181600116156101000203166002900490600052602060002090601f016020900481019282601f10620001c057805160ff1916838001178555620001f1565b82800160010185558215620001f1579182015b82811115620001f0578251825591602001919060010190620001d3565b5b50905062000200919062000204565b5090565b6200022991905b80821115620002255760008160009055506001016200020b565b5090565b90565b6118b1806200023c6000396000f3006080604052600436106100fc576000357c0100000000000000000000000000000000000000000000000000000000900463ffffffff16806306fdde0314610101578063095ea7b31461019157806318160ddd146101f657806323b872dd14610221578063313ce567146102a657806339509351146102d757806370a082311461033c578063715018a6146103935780637251cd02146103aa5780638da5cb5b146103f75780638f32d59b1461044e57806395d89b411461047d578063a457c2d71461050d578063a9059cbb14610572578063b003b127146105d7578063c3501ff614610608578063dd62ed3e14610655578063f2fde38b146106cc575b600080fd5b34801561010d57600080fd5b5061011661070f565b6040518080602001828103825283818151815260200191508051906020019080838360005b8381101561015657808201518184015260208101905061013b565b50505050905090810190601f1680156101835780820380516001836020036101000a031916815260200191505b509250505060405180910390f35b34801561019d57600080fd5b506101dc600480360381019080803573ffffffffffffffffffffffffffffffffffffffff169060200190929190803590602001909291905050506107ad565b604051808215151515815260200191505060405180910390f35b34801561020257600080fd5b5061020b6108da565b6040518082815260200191505060405180910390f35b34801561022d57600080fd5b5061028c600480360381019080803573ffffffffffffffffffffffffffffffffffffffff169060200190929190803573ffffffffffffffffffffffffffffffffffffffff169060200190929190803590602001909291905050506108e4565b604051808215151515815260200191505060405180910390f35b3480156102b257600080fd5b506102bb610a96565b604051808260ff1660ff16815260200191505060405180910390f35b3480156102e357600080fd5b50610322600480360381019080803573ffffffffffffffffffffffffffffffffffffffff16906020019092919080359060200190929190505050610aa9565b604051808215151515815260200191505060405180910390f35b34801561034857600080fd5b5061037d600480360381019080803573ffffffffffffffffffffffffffffffffffffffff169060200190929190505050610ce0565b6040518082815260200191505060405180910390f35b34801561039f57600080fd5b506103a8610d28565b005b3480156103b657600080fd5b506103f560048036038101908080359060200190929190803573ffffffffffffffffffffffffffffffffffffffff169060200190929190505050610dfc565b005b34801561040357600080fd5b5061040c610e1d565b604051808273ffffffffffffffffffffffffffffffffffffffff1673ffffffffffffffffffffffffffffffffffffffff16815260200191505060405180910390f35b34801561045a57600080fd5b50610463610e47565b604051808215151515815260200191505060405180910390f35b34801561048957600080fd5b50610492610e9f565b6040518080602001828103825283818151815260200191508051906020019080838360005b838110156104d25780820151818401526020810190506104b7565b50505050905090810190601f1680156104ff5780820380516001836020036101000a031916815260200191505b509250505060405180910390f35b34801561051957600080fd5b50610558600480360381019080803573ffffffffffffffffffffffffffffffffffffffff16906020019092919080359060200190929190505050610f3d565b604051808215151515815260200191505060405180910390f35b34801561057e57600080fd5b506105bd600480360381019080803573ffffffffffffffffffffffffffffffffffffffff16906020019092919080359060200190929190505050611174565b604051808215151515815260200191505060405180910390f35b3480156105e357600080fd5b506105ec61118b565b604051808260ff1660ff16815260200191505060405180910390f35b34801561061457600080fd5b5061065360048036038101908080359060200190929190803573ffffffffffffffffffffffffffffffffffffffff16906020019092919050505061119e565b005b34801561066157600080fd5b506106b6600480360381019080803573ffffffffffffffffffffffffffffffffffffffff169060200190929190803573ffffffffffffffffffffffffffffffffffffffff1690602001909291905050506111bf565b6040518082815260200191505060405180910390f35b3480156106d857600080fd5b5061070d600480360381019080803573ffffffffffffffffffffffffffffffffffffffff169060200190929190505050611246565b005b60048054600181600116156101000203166002900480601f0160208091040260200160405190810160405280929190818152602001828054600181600116156101000203166002900480156107a55780601f1061077a576101008083540402835291602001916107a5565b820191906000526020600020905b81548152906001019060200180831161078857829003601f168201915b505050505081565b60008073ffffffffffffffffffffffffffffffffffffffff168373ffffffffffffffffffffffffffffffffffffffff16141515156107ea57600080fd5b81600160003373ffffffffffffffffffffffffffffffffffffffff1673ffffffffffffffffffffffffffffffffffffffff16815260200190815260200160002060008573ffffffffffffffffffffffffffffffffffffffff1673ffffffffffffffffffffffffffffffffffffffff168152602001908152602001600020819055508273ffffffffffffffffffffffffffffffffffffffff163373ffffffffffffffffffffffffffffffffffffffff167f8c5be1e5ebec7d5bd14f71427d1e84f3dd0314c0f7b2291e5b200ac8c7c3b925846040518082815260200191505060405180910390a36001905092915050565b6000600254905090565b6000600160008573ffffffffffffffffffffffffffffffffffffffff1673ffffffffffffffffffffffffffffffffffffffff16815260200190815260200160002060003373ffffffffffffffffffffffffffffffffffffffff1673ffffffffffffffffffffffffffffffffffffffff16815260200190815260200160002054821115151561097157600080fd5b610a0082600160008773ffffffffffffffffffffffffffffffffffffffff1673ffffffffffffffffffffffffffffffffffffffff16815260200190815260200160002060003373ffffffffffffffffffffffffffffffffffffffff1673ffffffffffffffffffffffffffffffffffffffff1681526020019081526020016000205461126590919063ffffffff16565b600160008673ffffffffffffffffffffffffffffffffffffffff1673ffffffffffffffffffffffffffffffffffffffff16815260200190815260200160002060003373ffffffffffffffffffffffffffffffffffffffff1673ffffffffffffffffffffffffffffffffffffffff16815260200190815260200160002081905550610a8b848484611286565b600190509392505050565b600660009054906101000a900460ff1681565b60008073ffffffffffffffffffffffffffffffffffffffff168373ffffffffffffffffffffffffffffffffffffffff1614151515610ae657600080fd5b610b7582600160003373ffffffffffffffffffffffffffffffffffffffff1673ffffffffffffffffffffffffffffffffffffffff16815260200190815260200160002060008673ffffffffffffffffffffffffffffffffffffffff1673ffffffffffffffffffffffffffffffffffffffff1681526020019081526020016000205461149f90919063ffffffff16565b600160003373ffffffffffffffffffffffffffffffffffffffff1673ffffffffffffffffffffffffffffffffffffffff16815260200190815260200160002060008573ffffffffffffffffffffffffffffffffffffffff1673ffffffffffffffffffffffffffffffffffffffff168152602001908152602001600020819055508273ffffffffffffffffffffffffffffffffffffffff163373ffffffffffffffffffffffffffffffffffffffff167f8c5be1e5ebec7d5bd14f71427d1e84f3dd0314c0f7b2291e5b200ac8c7c3b925600160003373ffffffffffffffffffffffffffffffffffffffff1673ffffffffffffffffffffffffffffffffffffffff16815260200190815260200160002060008773ffffffffffffffffffffffffffffffffffffffff1673ffffffffffffffffffffffffffffffffffffffff168152602001908152602001600020546040518082815260200191505060405180910390a36001905092915050565b60008060008373ffffffffffffffffffffffffffffffffffffffff1673ffffffffffffffffffffffffffffffffffffffff168152602001908152602001600020549050919050565b610d30610e47565b1515610d3b57600080fd5b600073ffffffffffffffffffffffffffffffffffffffff16600360009054906101000a900473ffffffffffffffffffffffffffffffffffffffff1673ffffffffffffffffffffffffffffffffffffffff167f8be0079c531659141344cd1fd0a4f28419497f9722a3daafe3b4186f6b6457e060405160405180910390a36000600360006101000a81548173ffffffffffffffffffffffffffffffffffffffff021916908373ffffffffffffffffffffffffffffffffffffffff160217905550565b610e04610e47565b1515610e0f57600080fd5b610e1981836114c0565b5050565b6000600360009054906101000a900473ffffffffffffffffffffffffffffffffffffffff16905090565b6000600360009054906101000a900473ffffffffffffffffffffffffffffffffffffffff1673ffffffffffffffffffffffffffffffffffffffff163373ffffffffffffffffffffffffffffffffffffffff1614905090565b60058054600181600116156101000203166002900480601f016020809104026020016040519081016040528092919081815260200182805460018160011615610100020316600290048015610f355780601f10610f0a57610100808354040283529160200191610f35565b820191906000526020600020905b815481529060010190602001808311610f1857829003601f168201915b505050505081565b60008073ffffffffffffffffffffffffffffffffffffffff168373ffffffffffffffffffffffffffffffffffffffff1614151515610f7a57600080fd5b61100982600160003373ffffffffffffffffffffffffffffffffffffffff1673ffffffffffffffffffffffffffffffffffffffff16815260200190815260200160002060008673ffffffffffffffffffffffffffffffffffffffff1673ffffffffffffffffffffffffffffffffffffffff1681526020019081526020016000205461126590919063ffffffff16565b600160003373ffffffffffffffffffffffffffffffffffffffff1673ffffffffffffffffffffffffffffffffffffffff16815260200190815260200160002060008573ffffffffffffffffffffffffffffffffffffffff1673ffffffffffffffffffffffffffffffffffffffff168152602001908152602001600020819055508273ffffffffffffffffffffffffffffffffffffffff163373ffffffffffffffffffffffffffffffffffffffff167f8c5be1e5ebec7d5bd14f71427d1e84f3dd0314c0f7b2291e5b200ac8c7c3b925600160003373ffffffffffffffffffffffffffffffffffffffff1673ffffffffffffffffffffffffffffffffffffffff16815260200190815260200160002060008773ffffffffffffffffffffffffffffffffffffffff1673ffffffffffffffffffffffffffffffffffffffff168152602001908152602001600020546040518082815260200191505060405180910390a36001905092915050565b6000611181338484611286565b6001905092915050565b600660019054906101000a900460ff1681565b6111a6610e47565b15156111b157600080fd5b6111bb81836115fe565b5050565b6000600160008473ffffffffffffffffffffffffffffffffffffffff1673ffffffffffffffffffffffffffffffffffffffff16815260200190815260200160002060008373ffffffffffffffffffffffffffffffffffffffff1673ffffffffffffffffffffffffffffffffffffffff16815260200190815260200160002054905092915050565b61124e610e47565b151561125957600080fd5b61126281611789565b50565b60008083831115151561127757600080fd5b82840390508091505092915050565b6000808473ffffffffffffffffffffffffffffffffffffffff1673ffffffffffffffffffffffffffffffffffffffff1681526020019081526020016000205481111515156112d357600080fd5b600073ffffffffffffffffffffffffffffffffffffffff168273ffffffffffffffffffffffffffffffffffffffff161415151561130f57600080fd5b611360816000808673ffffffffffffffffffffffffffffffffffffffff1673ffffffffffffffffffffffffffffffffffffffff1681526020019081526020016000205461126590919063ffffffff16565b6000808573ffffffffffffffffffffffffffffffffffffffff1673ffffffffffffffffffffffffffffffffffffffff168152602001908152602001600020819055506113f3816000808573ffffffffffffffffffffffffffffffffffffffff1673ffffffffffffffffffffffffffffffffffffffff1681526020019081526020016000205461149f90919063ffffffff16565b6000808473ffffffffffffffffffffffffffffffffffffffff1673ffffffffffffffffffffffffffffffffffffffff168152602001908152602001600020819055508173ffffffffffffffffffffffffffffffffffffffff168373ffffffffffffffffffffffffffffffffffffffff167fddf252ad1be2c89b69c2b068fc378daa952ba7f163c4a11628f55a4df523b3ef836040518082815260200191505060405180910390a3505050565b60008082840190508381101515156114b657600080fd5b8091505092915050565b60008273ffffffffffffffffffffffffffffffffffffffff16141515156114e657600080fd5b6114fb8160025461149f90919063ffffffff16565b600281905550611552816000808573ffffffffffffffffffffffffffffffffffffffff1673ffffffffffffffffffffffffffffffffffffffff1681526020019081526020016000205461149f90919063ffffffff16565b6000808473ffffffffffffffffffffffffffffffffffffffff1673ffffffffffffffffffffffffffffffffffffffff168152602001908152602001600020819055508173ffffffffffffffffffffffffffffffffffffffff16600073ffffffffffffffffffffffffffffffffffffffff167fddf252ad1be2c89b69c2b068fc378daa952ba7f163c4a11628f55a4df523b3ef836040518082815260200191505060405180910390a35050565b60008273ffffffffffffffffffffffffffffffffffffffff161415151561162457600080fd5b6000808373ffffffffffffffffffffffffffffffffffffffff1673ffffffffffffffffffffffffffffffffffffffff16815260200190815260200160002054811115151561167157600080fd5b6116868160025461126590919063ffffffff16565b6002819055506116dd816000808573ffffffffffffffffffffffffffffffffffffffff1673ffffffffffffffffffffffffffffffffffffffff1681526020019081526020016000205461126590919063ffffffff16565b6000808473ffffffffffffffffffffffffffffffffffffffff1673ffffffffffffffffffffffffffffffffffffffff16815260200190815260200160002081905550600073ffffffffffffffffffffffffffffffffffffffff168273ffffffffffffffffffffffffffffffffffffffff167fddf252ad1be2c89b69c2b068fc378daa952ba7f163c4a11628f55a4df523b3ef836040518082815260200191505060405180910390a35050565b600073ffffffffffffffffffffffffffffffffffffffff168173ffffffffffffffffffffffffffffffffffffffff16141515156117c557600080fd5b8073ffffffffffffffffffffffffffffffffffffffff16600360009054906101000a900473ffffffffffffffffffffffffffffffffffffffff1673ffffffffffffffffffffffffffffffffffffffff167f8be0079c531659141344cd1fd0a4f28419497f9722a3daafe3b4186f6b6457e060405160405180910390a380600360006101000a81548173ffffffffffffffffffffffffffffffffffffffff021916908373ffffffffffffffffffffffffffffffffffffffff160217905550505600a165627a7a72305820017fb30ad726a7831d145ba20a83550806e836a03594a34f27e0a3f98b5dac300029",
  "source": "/*\n    Copyright 2017-2019 Phillip A. Elsasser\n\n    Licensed under the Apache License, Version 2.0 (the \"License\");\n    you may not use this file except in compliance with the License.\n    You may obtain a copy of the License at\n\n    http://www.apache.org/licenses/LICENSE-2.0\n\n    Unless required by applicable law or agreed to in writing, software\n    distributed under the License is distributed on an \"AS IS\" BASIS,\n    WITHOUT WARRANTIES OR CONDITIONS OF ANY KIND, either express or implied.\n    See the License for the specific language governing permissions and\n    limitations under the License.\n*/\n\npragma solidity 0.4.25;\n\nimport \"openzeppelin-solidity/contracts/ownership/Ownable.sol\";\n\nimport \"./libraries/MathLib.sol\";\nimport \"./libraries/StringLib.sol\";\nimport \"./tokens/PositionToken.sol\";\n\n\n/// @title MarketContract base contract implement all needed functionality for trading.\n/// @notice this is the abstract base contract that all contracts should inherit from to\n/// implement different oracle solutions.\n/// @author Phil Elsasser <phil@marketprotocol.io>\ncontract MarketContract is Ownable {\n    using StringLib for *;\n\n    string public CONTRACT_NAME;\n    address public COLLATERAL_TOKEN_ADDRESS;\n    address public COLLATERAL_POOL_ADDRESS;\n    uint public PRICE_CAP;\n    uint public PRICE_FLOOR;\n    uint public PRICE_DECIMAL_PLACES;   // how to convert the pricing from decimal format (if valid) to integer\n    uint public QTY_MULTIPLIER;         // multiplier corresponding to the value of 1 increment in price to token base units\n    uint public COLLATERAL_PER_UNIT;    // required collateral amount for the full range of outcome tokens\n    uint public COLLATERAL_TOKEN_FEE_PER_UNIT;\n    uint public MKT_TOKEN_FEE_PER_UNIT;\n    uint public EXPIRATION;\n    uint public SETTLEMENT_DELAY = 1 days;\n    address public LONG_POSITION_TOKEN;\n    address public SHORT_POSITION_TOKEN;\n\n    // state variables\n    uint public lastPrice;\n    uint public settlementPrice;\n    uint public settlementTimeStamp;\n    bool public isSettled = false;\n\n    // events\n    event UpdatedLastPrice(uint256 price);\n    event ContractSettled(uint settlePrice);\n\n    /// @param contractNames comma separated list of 3 names \"contractName,longTokenSymbol,shortTokenSymbol\"\n    /// @param baseAddresses array of 2 addresses needed for our contract including:\n    ///     ownerAddress                    address of the owner of these contracts.\n    ///     collateralTokenAddress          address of the ERC20 token that will be used for collateral and pricing\n    ///     collateralPoolAddress           address of our collateral pool contract\n    /// @param contractSpecs array of unsigned integers including:\n    ///     floorPrice          minimum tradeable price of this contract, contract enters settlement if breached\n    ///     capPrice            maximum tradeable price of this contract, contract enters settlement if breached\n    ///     priceDecimalPlaces  number of decimal places to convert our queried price from a floating point to\n    ///                         an integer\n    ///     qtyMultiplier       multiply traded qty by this value from base units of collateral token.\n    ///     feeInBasisPoints    fee amount in basis points (Collateral token denominated) for minting.\n    ///     mktFeeInBasisPoints fee amount in basis points (MKT denominated) for minting.\n    ///     expirationTimeStamp seconds from epoch that this contract expires and enters settlement\n    constructor(\n        string memory contractNames,\n        address[3] memory baseAddresses,\n        uint[7] memory contractSpecs\n    ) public\n    {\n        PRICE_FLOOR = contractSpecs[0];\n        PRICE_CAP = contractSpecs[1];\n        require(PRICE_CAP > PRICE_FLOOR);\n\n        PRICE_DECIMAL_PLACES = contractSpecs[2];\n        QTY_MULTIPLIER = contractSpecs[3];\n        EXPIRATION = contractSpecs[6];\n        require(EXPIRATION > now, \"expiration must be in the future\");\n\n        COLLATERAL_TOKEN_ADDRESS = baseAddresses[1];\n        COLLATERAL_POOL_ADDRESS = baseAddresses[2];\n        COLLATERAL_PER_UNIT = MathLib.calculateTotalCollateral(PRICE_FLOOR, PRICE_CAP, QTY_MULTIPLIER);\n        COLLATERAL_TOKEN_FEE_PER_UNIT = MathLib.calculateFeePerUnit(\n            PRICE_FLOOR,\n            PRICE_CAP,\n            QTY_MULTIPLIER,\n            contractSpecs[4]\n        );\n        MKT_TOKEN_FEE_PER_UNIT = MathLib.calculateFeePerUnit(\n            PRICE_FLOOR,\n            PRICE_CAP,\n            QTY_MULTIPLIER,\n            contractSpecs[5]\n        );\n\n        // create long and short tokens\n        StringLib.slice memory pathSlice = contractNames.toSlice();\n        StringLib.slice memory delim = \",\".toSlice();\n        require(pathSlice.count(delim) == 2, \"ContractNames must contain 3 names\");  //contractName,lTokenName,sTokenName\n        CONTRACT_NAME = pathSlice.split(delim).toString();\n\n        PositionToken longPosToken = new PositionToken(\"MARKET Protocol Long Position Token\", pathSlice.split(delim).toString(), 0);\n        PositionToken shortPosToken = new PositionToken(\"MARKET Protocol Short Position Token\", pathSlice.split(delim).toString(), 1);\n\n        LONG_POSITION_TOKEN = address(longPosToken);\n        SHORT_POSITION_TOKEN = address(shortPosToken);\n\n        transferOwnership(baseAddresses[0]);\n    }\n\n    /*\n    // EXTERNAL - onlyCollateralPool METHODS\n    */\n\n    /// @notice called only by our collateral pool to create long and short position tokens\n    /// @param qtyToMint    qty in base units of how many short and long tokens to mint\n    /// @param minter       address of minter to receive tokens\n    function mintPositionTokens(\n        uint256 qtyToMint,\n        address minter\n    ) external onlyCollateralPool\n    {\n        // mint and distribute short and long position tokens to our caller\n        PositionToken(LONG_POSITION_TOKEN).mintAndSendToken(qtyToMint, minter);\n        PositionToken(SHORT_POSITION_TOKEN).mintAndSendToken(qtyToMint, minter);\n    }\n\n    /// @notice called only by our collateral pool to redeem long position tokens\n    /// @param qtyToRedeem  qty in base units of how many tokens to redeem\n    /// @param redeemer     address of person redeeming tokens\n    function redeemLongToken(\n        uint256 qtyToRedeem,\n        address redeemer\n    ) external onlyCollateralPool\n    {\n        // mint and distribute short and long position tokens to our caller\n        PositionToken(LONG_POSITION_TOKEN).redeemToken(qtyToRedeem, redeemer);\n    }\n\n    /// @notice called only by our collateral pool to redeem short position tokens\n    /// @param qtyToRedeem  qty in base units of how many tokens to redeem\n    /// @param redeemer     address of person redeeming tokens\n    function redeemShortToken(\n        uint256 qtyToRedeem,\n        address redeemer\n    ) external onlyCollateralPool\n    {\n        // mint and distribute short and long position tokens to our caller\n        PositionToken(SHORT_POSITION_TOKEN).redeemToken(qtyToRedeem, redeemer);\n    }\n\n    /*\n    // Public METHODS\n    */\n\n    /// @notice checks to see if a contract is settled, and that the settlement delay has passed\n    function isPostSettlementDelay() public view returns (bool) {\n        return isSettled && (now >= (settlementTimeStamp + SETTLEMENT_DELAY));\n    }\n\n    /*\n    // PRIVATE METHODS\n    */\n\n    /// @dev checks our last query price to see if our contract should enter settlement due to it being past our\n    //  expiration date or outside of our tradeable ranges.\n    function checkSettlement() internal {\n        require(!isSettled); // already settled.\n\n        uint newSettlementPrice;\n        if (now > EXPIRATION) {  // note: miners can cheat this by small increments of time (minutes, not hours)\n            isSettled = true;                   // time based expiration has occurred.\n            newSettlementPrice = lastPrice;\n        } else if (lastPrice >= PRICE_CAP) {    // price is greater or equal to our cap, settle to CAP price\n            isSettled = true;\n            newSettlementPrice = PRICE_CAP;\n        } else if (lastPrice <= PRICE_FLOOR) {  // price is lesser or equal to our floor, settle to FLOOR price\n            isSettled = true;\n            newSettlementPrice = PRICE_FLOOR;\n        }\n\n        if (isSettled) {\n            settleContract(newSettlementPrice);\n        }\n    }\n\n    /// @dev records our final settlement price and fires needed events.\n    /// @param finalSettlementPrice final query price at time of settlement\n    function settleContract(uint finalSettlementPrice) internal {\n        settlementTimeStamp = now;\n        settlementPrice = finalSettlementPrice;\n        emit ContractSettled(finalSettlementPrice);\n    }\n\n    /// @notice only able to be called directly by our collateral pool which controls the position tokens\n    /// for this contract!\n    modifier onlyCollateralPool {\n        require(msg.sender == COLLATERAL_POOL_ADDRESS);\n        _;\n    }\n\n}\n",
  "sourcePath": "/home/travis/build/MARKETProtocol/MARKETProtocol/contracts/MarketContract.sol",
  "compiler": {
    "name": "solc",
    "version": "0.4.25+commit.59dbf8f1.Emscripten.clang"
  },
  "schemaVersion": "2.0.2",
  "updatedAt": "2019-04-10T20:47:20.818Z"
}