{
  "contractName": "MarketContractRegistry",
  "abi": [
    {
      "constant": true,
      "inputs": [
        {
          "name": "",
          "type": "uint256"
        }
      ],
      "name": "addressWhiteList",
      "outputs": [
        {
          "name": "",
          "type": "address"
        }
      ],
      "payable": false,
      "stateMutability": "view",
      "type": "function"
    },
    {
      "constant": true,
      "inputs": [
        {
          "name": "",
          "type": "address"
        }
      ],
      "name": "factoryAddressWhiteList",
      "outputs": [
        {
          "name": "",
          "type": "bool"
        }
      ],
      "payable": false,
      "stateMutability": "view",
      "type": "function"
    },
    {
      "constant": true,
      "inputs": [
        {
          "name": "",
          "type": "address"
        }
      ],
      "name": "isWhiteListed",
      "outputs": [
        {
          "name": "",
          "type": "bool"
        }
      ],
      "payable": false,
      "stateMutability": "view",
      "type": "function"
    },
    {
      "constant": true,
      "inputs": [],
      "name": "owner",
      "outputs": [
        {
          "name": "",
          "type": "address"
        }
      ],
      "payable": false,
      "stateMutability": "view",
      "type": "function"
    },
    {
      "constant": false,
      "inputs": [
        {
          "name": "newOwner",
          "type": "address"
        }
      ],
      "name": "transferOwnership",
      "outputs": [],
      "payable": false,
      "stateMutability": "nonpayable",
      "type": "function"
    },
    {
      "anonymous": false,
      "inputs": [
        {
          "indexed": true,
          "name": "contractAddress",
          "type": "address"
        }
      ],
      "name": "AddressAddedToWhitelist",
      "type": "event"
    },
    {
      "anonymous": false,
      "inputs": [
        {
          "indexed": true,
          "name": "contractAddress",
          "type": "address"
        }
      ],
      "name": "AddressRemovedFromWhitelist",
      "type": "event"
    },
    {
      "anonymous": false,
      "inputs": [
        {
          "indexed": true,
          "name": "factoryAddress",
          "type": "address"
        }
      ],
      "name": "FactoryAddressAdded",
      "type": "event"
    },
    {
      "anonymous": false,
      "inputs": [
        {
          "indexed": true,
          "name": "factoryAddress",
          "type": "address"
        }
      ],
      "name": "FactoryAddressRemoved",
      "type": "event"
    },
    {
      "anonymous": false,
      "inputs": [
        {
          "indexed": true,
          "name": "previousOwner",
          "type": "address"
        },
        {
          "indexed": true,
          "name": "newOwner",
          "type": "address"
        }
      ],
      "name": "OwnershipTransferred",
      "type": "event"
    },
    {
      "constant": true,
      "inputs": [
        {
          "name": "contractAddress",
          "type": "address"
        }
      ],
      "name": "isAddressWhiteListed",
      "outputs": [
        {
          "name": "",
          "type": "bool"
        }
      ],
      "payable": false,
      "stateMutability": "view",
      "type": "function"
    },
    {
      "constant": true,
      "inputs": [],
      "name": "getAddressWhiteList",
      "outputs": [
        {
          "name": "",
          "type": "address[]"
        }
      ],
      "payable": false,
      "stateMutability": "view",
      "type": "function"
    },
    {
      "constant": false,
      "inputs": [
        {
          "name": "contractAddress",
          "type": "address"
        },
        {
          "name": "whiteListIndex",
          "type": "uint256"
        }
      ],
      "name": "removeContractFromWhiteList",
      "outputs": [
        {
          "name": "",
          "type": "bool"
        }
      ],
      "payable": false,
      "stateMutability": "nonpayable",
      "type": "function"
    },
    {
      "constant": false,
      "inputs": [
        {
          "name": "contractAddress",
          "type": "address"
        }
      ],
      "name": "addAddressToWhiteList",
      "outputs": [],
      "payable": false,
      "stateMutability": "nonpayable",
      "type": "function"
    },
    {
      "constant": false,
      "inputs": [
        {
          "name": "factoryAddress",
          "type": "address"
        }
      ],
      "name": "addFactoryAddress",
      "outputs": [],
      "payable": false,
      "stateMutability": "nonpayable",
      "type": "function"
    },
    {
      "constant": false,
      "inputs": [
        {
          "name": "factoryAddress",
          "type": "address"
        }
      ],
      "name": "removeFactoryAddress",
      "outputs": [],
      "payable": false,
      "stateMutability": "nonpayable",
      "type": "function"
    }
  ],
  "bytecode": "0x6080604052336000806101000a81548173ffffffffffffffffffffffffffffffffffffffff021916908373ffffffffffffffffffffffffffffffffffffffff160217905550610fe0806100536000396000f3006080604052600436106100af576000357c0100000000000000000000000000000000000000000000000000000000900463ffffffff16806318c0c695146100b45780631e7f9f36146100f7578063497acf08146101645780636f9170f6146101bf5780638da5cb5b1461021a5780639244f49614610271578063a051d9c3146102b4578063ad23de63146102f7578063c6f5d91f14610352578063d8fbbf31146103be578063f2fde38b14610423575b600080fd5b3480156100c057600080fd5b506100f5600480360381019080803573ffffffffffffffffffffffffffffffffffffffff169060200190929190505050610466565b005b34801561010357600080fd5b5061012260048036038101908080359060200190929190505050610621565b604051808273ffffffffffffffffffffffffffffffffffffffff1673ffffffffffffffffffffffffffffffffffffffff16815260200191505060405180910390f35b34801561017057600080fd5b506101a5600480360381019080803573ffffffffffffffffffffffffffffffffffffffff16906020019092919050505061065f565b604051808215151515815260200191505060405180910390f35b3480156101cb57600080fd5b50610200600480360381019080803573ffffffffffffffffffffffffffffffffffffffff16906020019092919050505061067f565b604051808215151515815260200191505060405180910390f35b34801561022657600080fd5b5061022f61069f565b604051808273ffffffffffffffffffffffffffffffffffffffff1673ffffffffffffffffffffffffffffffffffffffff16815260200191505060405180910390f35b34801561027d57600080fd5b506102b2600480360381019080803573ffffffffffffffffffffffffffffffffffffffff1690602001909291905050506106c4565b005b3480156102c057600080fd5b506102f5600480360381019080803573ffffffffffffffffffffffffffffffffffffffff16906020019092919050505061095e565b005b34801561030357600080fd5b50610338600480360381019080803573ffffffffffffffffffffffffffffffffffffffff169060200190929190505050610aaf565b604051808215151515815260200191505060405180910390f35b34801561035e57600080fd5b50610367610b05565b6040518080602001828103825283818151815260200191508051906020019060200280838360005b838110156103aa57808201518184015260208101905061038f565b505050509050019250505060405180910390f35b3480156103ca57600080fd5b50610409600480360381019080803573ffffffffffffffffffffffffffffffffffffffff16906020019092919080359060200190929190505050610b93565b604051808215151515815260200191505060405180910390f35b34801561042f57600080fd5b50610464600480360381019080803573ffffffffffffffffffffffffffffffffffffffff169060200190929190505050610e0e565b005b6000809054906101000a900473ffffffffffffffffffffffffffffffffffffffff1673ffffffffffffffffffffffffffffffffffffffff163373ffffffffffffffffffffffffffffffffffffffff161415156104c157600080fd5b600360008273ffffffffffffffffffffffffffffffffffffffff1673ffffffffffffffffffffffffffffffffffffffff16815260200190815260200160002060009054906101000a900460ff16151515610583576040517f08c379a00000000000000000000000000000000000000000000000000000000081526004018080602001828103825260158152602001807f6164647265737320616c7265616479206164646564000000000000000000000081525060200191505060405180910390fd5b6001600360008373ffffffffffffffffffffffffffffffffffffffff1673ffffffffffffffffffffffffffffffffffffffff16815260200190815260200160002060006101000a81548160ff0219169083151502179055508073ffffffffffffffffffffffffffffffffffffffff167f960c6a67a1f0f46ddffd138f2b7f44cbc573d0e0a073363b287a257b121dc48a60405160405180910390a250565b60028181548110151561063057fe5b906000526020600020016000915054906101000a900473ffffffffffffffffffffffffffffffffffffffff1681565b60036020528060005260406000206000915054906101000a900460ff1681565b60016020528060005260406000206000915054906101000a900460ff1681565b6000809054906101000a900473ffffffffffffffffffffffffffffffffffffffff1681565b6000809054906101000a900473ffffffffffffffffffffffffffffffffffffffff1673ffffffffffffffffffffffffffffffffffffffff163373ffffffffffffffffffffffffffffffffffffffff1614806107685750600360003373ffffffffffffffffffffffffffffffffffffffff1673ffffffffffffffffffffffffffffffffffffffff16815260200190815260200160002060009054906101000a900460ff165b1515610802576040517f08c379a00000000000000000000000000000000000000000000000000000000081526004018080602001828103825260248152602001807f43616e206f6e6c7920626520616464656420627920666163746f72206f72206f81526020017f776e65720000000000000000000000000000000000000000000000000000000081525060400191505060405180910390fd5b600160008273ffffffffffffffffffffffffffffffffffffffff1673ffffffffffffffffffffffffffffffffffffffff16815260200190815260200160002060009054906101000a900460ff1615151561085b57600080fd5b60018060008373ffffffffffffffffffffffffffffffffffffffff1673ffffffffffffffffffffffffffffffffffffffff16815260200190815260200160002060006101000a81548160ff02191690831515021790555060028190806001815401808255809150509060018203906000526020600020016000909192909190916101000a81548173ffffffffffffffffffffffffffffffffffffffff021916908373ffffffffffffffffffffffffffffffffffffffff160217905550508073ffffffffffffffffffffffffffffffffffffffff167f534d18c8ff24ba5980906d732f3075704749427353734fbbf05d50485643b12460405160405180910390a250565b6000809054906101000a900473ffffffffffffffffffffffffffffffffffffffff1673ffffffffffffffffffffffffffffffffffffffff163373ffffffffffffffffffffffffffffffffffffffff161415156109b957600080fd5b600360008273ffffffffffffffffffffffffffffffffffffffff1673ffffffffffffffffffffffffffffffffffffffff16815260200190815260200160002060009054906101000a900460ff161515610a1157600080fd5b6000600360008373ffffffffffffffffffffffffffffffffffffffff1673ffffffffffffffffffffffffffffffffffffffff16815260200190815260200160002060006101000a81548160ff0219169083151502179055508073ffffffffffffffffffffffffffffffffffffffff167f5d6ac55db628f137c53a554c300a684dc6b3db9d8f24e9611ea5e84c282d177d60405160405180910390a250565b6000600160008373ffffffffffffffffffffffffffffffffffffffff1673ffffffffffffffffffffffffffffffffffffffff16815260200190815260200160002060009054906101000a900460ff169050919050565b60606002805480602002602001604051908101604052809291908181526020018280548015610b8957602002820191906000526020600020905b8160009054906101000a900473ffffffffffffffffffffffffffffffffffffffff1673ffffffffffffffffffffffffffffffffffffffff1681526020019060010190808311610b3f575b5050505050905090565b60008060009054906101000a900473ffffffffffffffffffffffffffffffffffffffff1673ffffffffffffffffffffffffffffffffffffffff163373ffffffffffffffffffffffffffffffffffffffff16141515610bf057600080fd5b600160008473ffffffffffffffffffffffffffffffffffffffff1673ffffffffffffffffffffffffffffffffffffffff16815260200190815260200160002060009054906101000a900460ff161515610c4857600080fd5b8273ffffffffffffffffffffffffffffffffffffffff16600283815481101515610c6e57fe5b9060005260206000200160009054906101000a900473ffffffffffffffffffffffffffffffffffffffff1673ffffffffffffffffffffffffffffffffffffffff16141515610cbb57600080fd5b6000600160008573ffffffffffffffffffffffffffffffffffffffff1673ffffffffffffffffffffffffffffffffffffffff16815260200190815260200160002060006101000a81548160ff0219169083151502179055506002600160028054905003815481101515610d2a57fe5b9060005260206000200160009054906101000a900473ffffffffffffffffffffffffffffffffffffffff16600283815481101515610d6457fe5b9060005260206000200160006101000a81548173ffffffffffffffffffffffffffffffffffffffff021916908373ffffffffffffffffffffffffffffffffffffffff1602179055506001600281818054905003915081610dc49190610f63565b508273ffffffffffffffffffffffffffffffffffffffff167f535611fb62fa2a833988f283b779e417e996813e44046f521d76c17b5943b08c60405160405180910390a292915050565b6000809054906101000a900473ffffffffffffffffffffffffffffffffffffffff1673ffffffffffffffffffffffffffffffffffffffff163373ffffffffffffffffffffffffffffffffffffffff16141515610e6957600080fd5b600073ffffffffffffffffffffffffffffffffffffffff168173ffffffffffffffffffffffffffffffffffffffff1614151515610ea557600080fd5b8073ffffffffffffffffffffffffffffffffffffffff166000809054906101000a900473ffffffffffffffffffffffffffffffffffffffff1673ffffffffffffffffffffffffffffffffffffffff167f8be0079c531659141344cd1fd0a4f28419497f9722a3daafe3b4186f6b6457e060405160405180910390a3806000806101000a81548173ffffffffffffffffffffffffffffffffffffffff021916908373ffffffffffffffffffffffffffffffffffffffff16021790555050565b815481835581811115610f8a57818360005260206000209182019101610f899190610f8f565b5b505050565b610fb191905b80821115610fad576000816000905550600101610f95565b5090565b905600a165627a7a723058204daa6905d2c7904be7a6fd44f81d72326b46f0ccaaa9a8085e775d792f9624570029",
  "source": "/*\n    Copyright 2017-2018 Phillip A. Elsasser\n\n    Licensed under the Apache License, Version 2.0 (the \"License\");\n    you may not use this file except in compliance with the License.\n    You may obtain a copy of the License at\n\n    http://www.apache.org/licenses/LICENSE-2.0\n\n    Unless required by applicable law or agreed to in writing, software\n    distributed under the License is distributed on an \"AS IS\" BASIS,\n    WITHOUT WARRANTIES OR CONDITIONS OF ANY KIND, either express or implied.\n    See the License for the specific language governing permissions and\n    limitations under the License.\n*/\n\npragma solidity ^0.4.24;\n\nimport \"openzeppelin-solidity/contracts/ownership/Ownable.sol\";\nimport \"./MarketContractRegistryInterface.sol\";\n\n\n/// @title MarketContractRegistry\n/// @author Phil Elsasser <phil@marketprotocol.io>\ncontract MarketContractRegistry is Ownable, MarketContractRegistryInterface {\n\n    mapping(address => bool) public isWhiteListed;\n    address[] public addressWhiteList;                             // record of currently deployed addresses;\n    mapping(address => bool) public factoryAddressWhiteList;       // record of authorized factories\n\n    // events\n    event AddressAddedToWhitelist(address indexed contractAddress);\n    event AddressRemovedFromWhitelist(address indexed contractAddress);\n    event FactoryAddressAdded(address indexed factoryAddress);\n    event FactoryAddressRemoved(address indexed factoryAddress);\n\n    /*\n    // External Methods\n    */\n\n    /// @notice determines if an address is a valid MarketContract\n    /// @return false if the address is not white listed.\n    function isAddressWhiteListed(address contractAddress) external view returns (bool) {\n        return isWhiteListed[contractAddress];\n    }\n\n    /// @notice all currently whitelisted addresses\n    /// returns array of addresses\n    function getAddressWhiteList() external view returns (address[]) {\n        return addressWhiteList;\n    }\n\n    /// @dev allows for the owner to remove a white listed contract, eventually ownership could transition to\n    /// a decentralized smart contract of community members to vote\n    /// @param contractAddress contract to removed from white list\n    /// @param whiteListIndex of the contractAddress in the addressWhiteList to be removed.\n    function removeContractFromWhiteList(\n        address contractAddress,\n        uint whiteListIndex\n    ) external onlyOwner returns (bool)\n    {\n        require(isWhiteListed[contractAddress]);\n        require(addressWhiteList[whiteListIndex] == contractAddress);\n        isWhiteListed[contractAddress] = false;\n\n        // push the last item in array to replace the address we are removing and then trim the array.\n        addressWhiteList[whiteListIndex] = addressWhiteList[addressWhiteList.length - 1];\n        addressWhiteList.length -= 1;\n        emit AddressRemovedFromWhitelist(contractAddress);\n    }\n\n    /// @dev allows for the owner or factory to add a white listed contract, eventually ownership could transition to\n    /// a decentralized smart contract of community members to vote\n    /// @param contractAddress contract to removed from white list\n    function addAddressToWhiteList(address contractAddress) external {\n        require(msg.sender == owner || factoryAddressWhiteList[msg.sender], \"Can only be added by factor or owner\");\n        require(!isWhiteListed[contractAddress]);\n        isWhiteListed[contractAddress] = true;\n        addressWhiteList.push(contractAddress);\n        emit AddressAddedToWhitelist(contractAddress);\n    }\n\n    /// @dev allows for the owner to add a new address of a factory responsible for creating new market contracts\n    /// @param factoryAddress address of factory to be allowed to add contracts to whitelist\n    function addFactoryAddress(address factoryAddress) external onlyOwner {\n        require(!factoryAddressWhiteList[factoryAddress], \"address already added\");\n        factoryAddressWhiteList[factoryAddress] = true;\n        emit FactoryAddressAdded(factoryAddress);\n    }\n\n    /// @dev allows for the owner to remove an address of a factory\n    /// @param factoryAddress address of factory to be removed\n    function removeFactoryAddress(address factoryAddress) external onlyOwner {\n        require(factoryAddressWhiteList[factoryAddress]);\n        factoryAddressWhiteList[factoryAddress] = false;\n        emit FactoryAddressRemoved(factoryAddress);\n    }\n}\n",
  "sourcePath": "/home/travis/build/MARKETProtocol/MARKETProtocol/contracts/MarketContractRegistry.sol",
  "compiler": {
    "name": "solc",
    "version": "0.4.24+commit.e67f0147.Emscripten.clang"
  },
  "schemaVersion": "2.0.1",
  "updatedAt": "2018-10-16T03:15:00.650Z"
}