{
  "contractName": "MarketContractFactoryOraclize",
  "abi": [
    {
      "constant": true,
      "inputs": [],
      "name": "owner",
      "outputs": [
        {
          "name": "",
          "type": "address"
        }
      ],
      "payable": false,
      "stateMutability": "view",
      "type": "function"
    },
    {
      "constant": true,
      "inputs": [],
      "name": "MARKET_COLLATERAL_POOL",
      "outputs": [
        {
          "name": "",
          "type": "address"
        }
      ],
      "payable": false,
      "stateMutability": "view",
      "type": "function"
    },
    {
      "constant": true,
      "inputs": [],
      "name": "oracleHubAddress",
      "outputs": [
        {
          "name": "",
          "type": "address"
        }
      ],
      "payable": false,
      "stateMutability": "view",
      "type": "function"
    },
    {
      "constant": true,
      "inputs": [],
      "name": "marketContractRegistry",
      "outputs": [
        {
          "name": "",
          "type": "address"
        }
      ],
      "payable": false,
      "stateMutability": "view",
      "type": "function"
    },
    {
      "constant": false,
      "inputs": [
        {
          "name": "newOwner",
          "type": "address"
        }
      ],
      "name": "transferOwnership",
      "outputs": [],
      "payable": false,
      "stateMutability": "nonpayable",
      "type": "function"
    },
    {
      "inputs": [
        {
          "name": "registryAddress",
          "type": "address"
        },
        {
          "name": "collateralPoolAddress",
          "type": "address"
        }
      ],
      "payable": false,
      "stateMutability": "nonpayable",
      "type": "constructor"
    },
    {
      "anonymous": false,
      "inputs": [
        {
          "indexed": true,
          "name": "creator",
          "type": "address"
        },
        {
          "indexed": true,
          "name": "contractAddress",
          "type": "address"
        }
      ],
      "name": "MarketContractCreated",
      "type": "event"
    },
    {
      "anonymous": false,
      "inputs": [
        {
          "indexed": true,
          "name": "previousOwner",
          "type": "address"
        },
        {
          "indexed": true,
          "name": "newOwner",
          "type": "address"
        }
      ],
      "name": "OwnershipTransferred",
      "type": "event"
    },
    {
      "constant": false,
      "inputs": [
        {
          "name": "contractName",
          "type": "string"
        },
        {
          "name": "collateralTokenAddress",
          "type": "address"
        },
        {
          "name": "contractSpecs",
          "type": "uint256[5]"
        },
        {
          "name": "oracleDataSource",
          "type": "string"
        },
        {
          "name": "oracleQuery",
          "type": "string"
        }
      ],
      "name": "deployMarketContractOraclize",
      "outputs": [],
      "payable": false,
      "stateMutability": "nonpayable",
      "type": "function"
    },
    {
      "constant": false,
      "inputs": [
        {
          "name": "registryAddress",
          "type": "address"
        }
      ],
      "name": "setRegistryAddress",
      "outputs": [],
      "payable": false,
      "stateMutability": "nonpayable",
      "type": "function"
    },
    {
      "constant": false,
      "inputs": [
        {
          "name": "hubAddress",
          "type": "address"
        }
      ],
      "name": "setOracleHubAddress",
      "outputs": [],
      "payable": false,
      "stateMutability": "nonpayable",
      "type": "function"
    }
  ],
  "bytecode": "0x608060405234801561001057600080fd5b506040516040806141608339810180604052810190808051906020019092919080519060200190929190505050336000806101000a81548173ffffffffffffffffffffffffffffffffffffffff021916908373ffffffffffffffffffffffffffffffffffffffff16021790555081600160006101000a81548173ffffffffffffffffffffffffffffffffffffffff021916908373ffffffffffffffffffffffffffffffffffffffff16021790555080600360006101000a81548173ffffffffffffffffffffffffffffffffffffffff021916908373ffffffffffffffffffffffffffffffffffffffff1602179055505050614050806101106000396000f30060806040526004361062000097576000357c0100000000000000000000000000000000000000000000000000000000900463ffffffff1680638da5cb5b146200009c578063a8a5d27014620000f6578063ab7b4993146200013c578063c6f8d5f01462000182578063cac7a37c14620001dc578063ceaaa9151462000236578063f2fde38b1462000290578063fdea945f14620002d6575b600080fd5b348015620000a957600080fd5b50620000b46200036e565b604051808273ffffffffffffffffffffffffffffffffffffffff1673ffffffffffffffffffffffffffffffffffffffff16815260200191505060405180910390f35b3480156200010357600080fd5b506200013a600480360381019080803573ffffffffffffffffffffffffffffffffffffffff16906020019092919050505062000393565b005b3480156200014957600080fd5b5062000180600480360381019080803573ffffffffffffffffffffffffffffffffffffffff16906020019092919050505062000470565b005b3480156200018f57600080fd5b506200019a6200054d565b604051808273ffffffffffffffffffffffffffffffffffffffff1673ffffffffffffffffffffffffffffffffffffffff16815260200191505060405180910390f35b348015620001e957600080fd5b50620001f462000573565b604051808273ffffffffffffffffffffffffffffffffffffffff1673ffffffffffffffffffffffffffffffffffffffff16815260200191505060405180910390f35b3480156200024357600080fd5b506200024e62000599565b604051808273ffffffffffffffffffffffffffffffffffffffff1673ffffffffffffffffffffffffffffffffffffffff16815260200191505060405180910390f35b3480156200029d57600080fd5b50620002d4600480360381019080803573ffffffffffffffffffffffffffffffffffffffff169060200190929190505050620005bf565b005b348015620002e357600080fd5b506200036c600480360381019080803590602001908201803590602001919091929391929390803573ffffffffffffffffffffffffffffffffffffffff1690602001909291908060a00190919291929080359060200190820180359060200191909192939192939080359060200190820180359060200191909192939192939050505062000716565b005b6000809054906101000a900473ffffffffffffffffffffffffffffffffffffffff1681565b6000809054906101000a900473ffffffffffffffffffffffffffffffffffffffff1673ffffffffffffffffffffffffffffffffffffffff163373ffffffffffffffffffffffffffffffffffffffff16141515620003ef57600080fd5b600073ffffffffffffffffffffffffffffffffffffffff168173ffffffffffffffffffffffffffffffffffffffff16141515156200042c57600080fd5b80600260006101000a81548173ffffffffffffffffffffffffffffffffffffffff021916908373ffffffffffffffffffffffffffffffffffffffff16021790555050565b6000809054906101000a900473ffffffffffffffffffffffffffffffffffffffff1673ffffffffffffffffffffffffffffffffffffffff163373ffffffffffffffffffffffffffffffffffffffff16141515620004cc57600080fd5b600073ffffffffffffffffffffffffffffffffffffffff168173ffffffffffffffffffffffffffffffffffffffff16141515156200050957600080fd5b80600160006101000a81548173ffffffffffffffffffffffffffffffffffffffff021916908373ffffffffffffffffffffffffffffffffffffffff16021790555050565b600360009054906101000a900473ffffffffffffffffffffffffffffffffffffffff1681565b600260009054906101000a900473ffffffffffffffffffffffffffffffffffffffff1681565b600160009054906101000a900473ffffffffffffffffffffffffffffffffffffffff1681565b6000809054906101000a900473ffffffffffffffffffffffffffffffffffffffff1673ffffffffffffffffffffffffffffffffffffffff163373ffffffffffffffffffffffffffffffffffffffff161415156200061b57600080fd5b600073ffffffffffffffffffffffffffffffffffffffff168173ffffffffffffffffffffffffffffffffffffffff16141515156200065857600080fd5b8073ffffffffffffffffffffffffffffffffffffffff166000809054906101000a900473ffffffffffffffffffffffffffffffffffffffff1673ffffffffffffffffffffffffffffffffffffffff167f8be0079c531659141344cd1fd0a4f28419497f9722a3daafe3b4186f6b6457e060405160405180910390a3806000806101000a81548173ffffffffffffffffffffffffffffffffffffffff021916908373ffffffffffffffffffffffffffffffffffffffff16021790555050565b600088886060604051908101604052803373ffffffffffffffffffffffffffffffffffffffff1673ffffffffffffffffffffffffffffffffffffffff1681526020018a73ffffffffffffffffffffffffffffffffffffffff1673ffffffffffffffffffffffffffffffffffffffff168152602001600360009054906101000a900473ffffffffffffffffffffffffffffffffffffffff1673ffffffffffffffffffffffffffffffffffffffff1673ffffffffffffffffffffffffffffffffffffffff16815250600260009054906101000a900473ffffffffffffffffffffffffffffffffffffffff1689898989896200080e62000c05565b808060200189600360200280838360005b838110156200083c5780820151818401526020810190506200081f565b505050509050018873ffffffffffffffffffffffffffffffffffffffff1673ffffffffffffffffffffffffffffffffffffffff168152602001876005602002808284378201915050806020018060200184810384528d8d82818152602001925080828437820191505084810383528888828181526020019250808284378201915050848103825286868281815260200192508082843782019150509c50505050505050505050505050604051809103906000f08015801562000902573d6000803e3d6000fd5b509050600260009054906101000a900473ffffffffffffffffffffffffffffffffffffffff1673ffffffffffffffffffffffffffffffffffffffff1663d02e9c8a82878787878773ffffffffffffffffffffffffffffffffffffffff1663bb4b57346040518163ffffffff167c0100000000000000000000000000000000000000000000000000000000028152600401602060405180830381600087803b158015620009ad57600080fd5b505af1158015620009c2573d6000803e3d6000fd5b505050506040513d6020811015620009d957600080fd5b81019080805190602001909291905050506040518763ffffffff167c0100000000000000000000000000000000000000000000000000000000028152600401808773ffffffffffffffffffffffffffffffffffffffff1673ffffffffffffffffffffffffffffffffffffffff1681526020018060200180602001848152602001838103835288888281815260200192508082843782019150508381038252868682818152602001925080828437820191505098505050505050505050600060405180830381600087803b15801562000ab057600080fd5b505af115801562000ac5573d6000803e3d6000fd5b50505050600160009054906101000a900473ffffffffffffffffffffffffffffffffffffffff1673ffffffffffffffffffffffffffffffffffffffff16639244f496826040518263ffffffff167c0100000000000000000000000000000000000000000000000000000000028152600401808273ffffffffffffffffffffffffffffffffffffffff1673ffffffffffffffffffffffffffffffffffffffff168152602001915050600060405180830381600087803b15801562000b8757600080fd5b505af115801562000b9c573d6000803e3d6000fd5b505050508073ffffffffffffffffffffffffffffffffffffffff163373ffffffffffffffffffffffffffffffffffffffff167f38ee3ff13b5d3453452a79e0799d83b2c8207bf126b2798fa512343680f643ee60405160405180910390a3505050505050505050565b60405161340e8062000c1783390190560060806040526000600e60006101000a81548160ff0219169083151502179055503480156200002c57600080fd5b506040516200340e3803806200340e833981018060405281019080805182019291906020019190826060018051906020019092919091908260a0018051820192919060200180518201929190505050858584600080336000806101000a81548173ffffffffffffffffffffffffffffffffffffffff021916908373ffffffffffffffffffffffffffffffffffffffff160217905550826000600581101515620000d157fe5b6020020151600581905550826001600581101515620000ec57fe5b60200201516004819055506005546004541115156200010a57600080fd5b8260026005811015156200011a57fe5b60200201516006819055508260036005811015156200013557fe5b60200201516007819055508260046005811015156200015057fe5b6020020151600981905550426009541115156200016c57600080fd5b846001908051906020019062000184929190620005bb565b508360006003811015156200019557fe5b60200201516000806101000a81548173ffffffffffffffffffffffffffffffffffffffff021916908373ffffffffffffffffffffffffffffffffffffffff160217905550836001600381101515620001e957fe5b6020020151600260006101000a81548173ffffffffffffffffffffffffffffffffffffffff021916908373ffffffffffffffffffffffffffffffffffffffff1602179055508360026003811015156200023e57fe5b6020020151600360006101000a81548173ffffffffffffffffffffffffffffffffffffffff021916908373ffffffffffffffffffffffffffffffffffffffff16021790555073__MathLib_______________________________63f226512c6005546004546007546040518463ffffffff167c010000000000000000000000000000000000000000000000000000000002815260040180848152602001838152602001828152602001935050505060206040518083038186803b1580156200030557600080fd5b505af41580156200031a573d6000803e3d6000fd5b505050506040513d60208110156200033157600080fd5b810190808051906020019092919050505060088190555060006200035462000642565b8080602001806020018460ff168152602001838103835260138152602001807f4c6f6e6720506f736974696f6e20546f6b656e00000000000000000000000000815250602001838103825260048152602001807f4c4f4e47000000000000000000000000000000000000000000000000000000008152506020019350505050604051809103906000f080158015620003f0573d6000803e3d6000fd5b5091506001620003ff62000642565b8080602001806020018460ff168152602001838103835260148152602001807f53686f727420506f736974696f6e20546f6b656e000000000000000000000000815250602001838103825260048152602001807f53485254000000000000000000000000000000000000000000000000000000008152506020019350505050604051809103906000f0801580156200049b573d6000803e3d6000fd5b50905081600a60006101000a81548173ffffffffffffffffffffffffffffffffffffffff021916908373ffffffffffffffffffffffffffffffffffffffff16021790555080600b60006101000a81548173ffffffffffffffffffffffffffffffffffffffff021916908373ffffffffffffffffffffffffffffffffffffffff160217905550505050505081600f90805190602001906200053d929190620005bb565b50806010908051906020019062000556929190620005bb565b5083601160006101000a81548173ffffffffffffffffffffffffffffffffffffffff021916908373ffffffffffffffffffffffffffffffffffffffff160217905550624f1a00426009540311151515620005af57600080fd5b5050505050506200067b565b828054600181600116156101000203166002900490600052602060002090601f016020900481019282601f10620005fe57805160ff19168380011785556200062f565b828001600101855582156200062f579182015b828111156200062e57825182559160200191906001019062000611565b5b5090506200063e919062000653565b5090565b604051611acc806200194283390190565b6200067891905b80821115620006745760008160009055506001016200065a565b5090565b90565b6112b7806200068b6000396000f300608060405260043610610133576000357c0100000000000000000000000000000000000000000000000000000000900463ffffffff16806302d05d3f14610138578063053f14da1461018f57806322d1c35e146101ba5780632fed1b0014610211578063323bb7751461023c5780633270bb5b1461029357806356357d91146102c25780635b3f1e3f146103525780635ea7867a146103a9578063614d08f8146104395780636d359467146104c95780636fbce94014610516578063986c206314610543578063b5471dee1461059a578063bb4b5734146105c5578063c25c4444146105f0578063c32b1dfa1461063d578063ca361d6714610668578063cabd583414610693578063e158e02d146106e0578063eaafb4fa1461070b578063f348e8b214610762578063fa3fa1961461078d575b600080fd5b34801561014457600080fd5b5061014d6107d0565b604051808273ffffffffffffffffffffffffffffffffffffffff1673ffffffffffffffffffffffffffffffffffffffff16815260200191505060405180910390f35b34801561019b57600080fd5b506101a46107f5565b6040518082815260200191505060405180910390f35b3480156101c657600080fd5b506101cf6107fb565b604051808273ffffffffffffffffffffffffffffffffffffffff1673ffffffffffffffffffffffffffffffffffffffff16815260200191505060405180910390f35b34801561021d57600080fd5b50610226610821565b6040518082815260200191505060405180910390f35b34801561024857600080fd5b50610251610827565b604051808273ffffffffffffffffffffffffffffffffffffffff1673ffffffffffffffffffffffffffffffffffffffff16815260200191505060405180910390f35b34801561029f57600080fd5b506102a861084d565b604051808215151515815260200191505060405180910390f35b3480156102ce57600080fd5b506102d7610860565b6040518080602001828103825283818151815260200191508051906020019080838360005b838110156103175780820151818401526020810190506102fc565b50505050905090810190601f1680156103445780820380516001836020036101000a031916815260200191505b509250505060405180910390f35b34801561035e57600080fd5b506103676108fe565b604051808273ffffffffffffffffffffffffffffffffffffffff1673ffffffffffffffffffffffffffffffffffffffff16815260200191505060405180910390f35b3480156103b557600080fd5b506103be610924565b6040518080602001828103825283818151815260200191508051906020019080838360005b838110156103fe5780820151818401526020810190506103e3565b50505050905090810190601f16801561042b5780820380516001836020036101000a031916815260200191505b509250505060405180910390f35b34801561044557600080fd5b5061044e6109c2565b6040518080602001828103825283818151815260200191508051906020019080838360005b8381101561048e578082015181840152602081019050610473565b50505050905090810190601f1680156104bb5780820380516001836020036101000a031916815260200191505b509250505060405180910390f35b3480156104d557600080fd5b5061051460048036038101908080359060200190929190803573ffffffffffffffffffffffffffffffffffffffff169060200190929190505050610a60565b005b34801561052257600080fd5b5061054160048036038101908080359060200190929190505050610b9d565b005b34801561054f57600080fd5b50610558610c5e565b604051808273ffffffffffffffffffffffffffffffffffffffff1673ffffffffffffffffffffffffffffffffffffffff16815260200191505060405180910390f35b3480156105a657600080fd5b506105af610c84565b6040518082815260200191505060405180910390f35b3480156105d157600080fd5b506105da610c8a565b6040518082815260200191505060405180910390f35b3480156105fc57600080fd5b5061063b60048036038101908080359060200190929190803573ffffffffffffffffffffffffffffffffffffffff169060200190929190505050610c90565b005b34801561064957600080fd5b50610652610dcd565b6040518082815260200191505060405180910390f35b34801561067457600080fd5b5061067d610dd3565b6040518082815260200191505060405180910390f35b34801561069f57600080fd5b506106de60048036038101908080359060200190929190803573ffffffffffffffffffffffffffffffffffffffff169060200190929190505050610dd9565b005b3480156106ec57600080fd5b506106f5610ff3565b6040518082815260200191505060405180910390f35b34801561071757600080fd5b50610720610ff9565b604051808273ffffffffffffffffffffffffffffffffffffffff1673ffffffffffffffffffffffffffffffffffffffff16815260200191505060405180910390f35b34801561076e57600080fd5b5061077761101f565b6040518082815260200191505060405180910390f35b34801561079957600080fd5b506107ce600480360381019080803573ffffffffffffffffffffffffffffffffffffffff169060200190929190505050611025565b005b6000809054906101000a900473ffffffffffffffffffffffffffffffffffffffff1681565b600c5481565b600a60009054906101000a900473ffffffffffffffffffffffffffffffffffffffff1681565b60065481565b600260009054906101000a900473ffffffffffffffffffffffffffffffffffffffff1681565b600e60009054906101000a900460ff1681565b600f8054600181600116156101000203166002900480601f0160208091040260200160405190810160405280929190818152602001828054600181600116156101000203166002900480156108f65780601f106108cb576101008083540402835291602001916108f6565b820191906000526020600020905b8154815290600101906020018083116108d957829003601f168201915b505050505081565b600b60009054906101000a900473ffffffffffffffffffffffffffffffffffffffff1681565b60108054600181600116156101000203166002900480601f0160208091040260200160405190810160405280929190818152602001828054600181600116156101000203166002900480156109ba5780601f1061098f576101008083540402835291602001916109ba565b820191906000526020600020905b81548152906001019060200180831161099d57829003601f168201915b505050505081565b60018054600181600116156101000203166002900480601f016020809104026020016040519081016040528092919081815260200182805460018160011615610100020316600290048015610a585780601f10610a2d57610100808354040283529160200191610a58565b820191906000526020600020905b815481529060010190602001808311610a3b57829003601f168201915b505050505081565b600360009054906101000a900473ffffffffffffffffffffffffffffffffffffffff1673ffffffffffffffffffffffffffffffffffffffff163373ffffffffffffffffffffffffffffffffffffffff16141515610abc57600080fd5b600b60009054906101000a900473ffffffffffffffffffffffffffffffffffffffff1673ffffffffffffffffffffffffffffffffffffffff1663c3501ff683836040518363ffffffff167c0100000000000000000000000000000000000000000000000000000000028152600401808381526020018273ffffffffffffffffffffffffffffffffffffffff1673ffffffffffffffffffffffffffffffffffffffff16815260200192505050600060405180830381600087803b158015610b8157600080fd5b505af1158015610b95573d6000803e3d6000fd5b505050505050565b601160009054906101000a900473ffffffffffffffffffffffffffffffffffffffff1673ffffffffffffffffffffffffffffffffffffffff163373ffffffffffffffffffffffffffffffffffffffff16141515610bf957600080fd5b600e60009054906101000a900460ff16151515610c1557600080fd5b80600c819055507f8848a3fb6a59cb2631434df52b885e109a25f8b683d0721da7ef92618182b482816040518082815260200191505060405180910390a1610c5b61117a565b50565b601160009054906101000a900473ffffffffffffffffffffffffffffffffffffffff1681565b60045481565b60095481565b600360009054906101000a900473ffffffffffffffffffffffffffffffffffffffff1673ffffffffffffffffffffffffffffffffffffffff163373ffffffffffffffffffffffffffffffffffffffff16141515610cec57600080fd5b600a60009054906101000a900473ffffffffffffffffffffffffffffffffffffffff1673ffffffffffffffffffffffffffffffffffffffff1663c3501ff683836040518363ffffffff167c0100000000000000000000000000000000000000000000000000000000028152600401808381526020018273ffffffffffffffffffffffffffffffffffffffff1673ffffffffffffffffffffffffffffffffffffffff16815260200192505050600060405180830381600087803b158015610db157600080fd5b505af1158015610dc5573d6000803e3d6000fd5b505050505050565b60055481565b60075481565b600360009054906101000a900473ffffffffffffffffffffffffffffffffffffffff1673ffffffffffffffffffffffffffffffffffffffff163373ffffffffffffffffffffffffffffffffffffffff16141515610e3557600080fd5b600a60009054906101000a900473ffffffffffffffffffffffffffffffffffffffff1673ffffffffffffffffffffffffffffffffffffffff16637251cd0283836040518363ffffffff167c0100000000000000000000000000000000000000000000000000000000028152600401808381526020018273ffffffffffffffffffffffffffffffffffffffff1673ffffffffffffffffffffffffffffffffffffffff16815260200192505050600060405180830381600087803b158015610efa57600080fd5b505af1158015610f0e573d6000803e3d6000fd5b50505050600b60009054906101000a900473ffffffffffffffffffffffffffffffffffffffff1673ffffffffffffffffffffffffffffffffffffffff16637251cd0283836040518363ffffffff167c0100000000000000000000000000000000000000000000000000000000028152600401808381526020018273ffffffffffffffffffffffffffffffffffffffff1673ffffffffffffffffffffffffffffffffffffffff16815260200192505050600060405180830381600087803b158015610fd757600080fd5b505af1158015610feb573d6000803e3d6000fd5b505050505050565b60085481565b600360009054906101000a900473ffffffffffffffffffffffffffffffffffffffff1681565b600d5481565b6000809054906101000a900473ffffffffffffffffffffffffffffffffffffffff1673ffffffffffffffffffffffffffffffffffffffff163373ffffffffffffffffffffffffffffffffffffffff1614151561108057600080fd5b600073ffffffffffffffffffffffffffffffffffffffff168173ffffffffffffffffffffffffffffffffffffffff16141515156110bc57600080fd5b8073ffffffffffffffffffffffffffffffffffffffff166000809054906101000a900473ffffffffffffffffffffffffffffffffffffffff1673ffffffffffffffffffffffffffffffffffffffff167f7f11fe0c7098e1a76afcc68f35abaa07ef156fa7d6dd2d39664812fe37348d1660405160405180910390a3806000806101000a81548173ffffffffffffffffffffffffffffffffffffffff021916908373ffffffffffffffffffffffffffffffffffffffff16021790555050565b6000600e60009054906101000a900460ff161561119657611247565b6009544211156111c5576001600e60006101000a81548160ff021916908315150217905550600c549050611227565b600454600c541015156111f7576001600e60006101000a81548160ff0219169083151502179055506004549050611226565b600554600c54111515611225576001600e60006101000a81548160ff02191690831515021790555060055490505b5b5b600e60009054906101000a900460ff1615611246576112458161124a565b5b5b50565b80600d819055507f68170b705528d3ff1d324cda28eb28cc3d11ce81207f157c05e11c18411a013c816040518082815260200191505060405180910390a1505600a165627a7a7230582042306efaea09161f8575031003f37d48905554cfb7d725e2a8e95ba712ea0847002960806040523480156200001157600080fd5b5060405162001acc38038062001acc83398101806040528101908080518201929190602001805182019291906020018051906020019092919050505033600360006101000a81548173ffffffffffffffffffffffffffffffffffffffff021916908373ffffffffffffffffffffffffffffffffffffffff1602179055508260049080519060200190620000a692919062000100565b508160059080519060200190620000bf92919062000100565b506012600660006101000a81548160ff021916908360ff16021790555080600660016101000a81548160ff021916908360ff160217905550505050620001af565b828054600181600116156101000203166002900490600052602060002090601f016020900481019282601f106200014357805160ff191683800117855562000174565b8280016001018555821562000174579182015b828111156200017357825182559160200191906001019062000156565b5b50905062000183919062000187565b5090565b620001ac91905b80821115620001a85760008160009055506001016200018e565b5090565b90565b61190d80620001bf6000396000f3006080604052600436106100e6576000357c0100000000000000000000000000000000000000000000000000000000900463ffffffff16806306fdde03146100eb578063095ea7b31461017b57806318160ddd146101e057806323b872dd1461020b578063313ce5671461029057806366188463146102c157806370a08231146103265780637251cd021461037d5780638da5cb5b146103ca57806395d89b4114610421578063a9059cbb146104b1578063b003b12714610516578063c3501ff614610547578063d73dd62314610594578063dd62ed3e146105f9578063f2fde38b14610670575b600080fd5b3480156100f757600080fd5b506101006106b3565b6040518080602001828103825283818151815260200191508051906020019080838360005b83811015610140578082015181840152602081019050610125565b50505050905090810190601f16801561016d5780820380516001836020036101000a031916815260200191505b509250505060405180910390f35b34801561018757600080fd5b506101c6600480360381019080803573ffffffffffffffffffffffffffffffffffffffff16906020019092919080359060200190929190505050610751565b604051808215151515815260200191505060405180910390f35b3480156101ec57600080fd5b506101f5610843565b6040518082815260200191505060405180910390f35b34801561021757600080fd5b50610276600480360381019080803573ffffffffffffffffffffffffffffffffffffffff169060200190929190803573ffffffffffffffffffffffffffffffffffffffff1690602001909291908035906020019092919050505061084d565b604051808215151515815260200191505060405180910390f35b34801561029c57600080fd5b506102a5610c07565b604051808260ff1660ff16815260200191505060405180910390f35b3480156102cd57600080fd5b5061030c600480360381019080803573ffffffffffffffffffffffffffffffffffffffff16906020019092919080359060200190929190505050610c1a565b604051808215151515815260200191505060405180910390f35b34801561033257600080fd5b50610367600480360381019080803573ffffffffffffffffffffffffffffffffffffffff169060200190929190505050610eab565b6040518082815260200191505060405180910390f35b34801561038957600080fd5b506103c860048036038101908080359060200190929190803573ffffffffffffffffffffffffffffffffffffffff169060200190929190505050610ef3565b005b3480156103d657600080fd5b506103df611067565b604051808273ffffffffffffffffffffffffffffffffffffffff1673ffffffffffffffffffffffffffffffffffffffff16815260200191505060405180910390f35b34801561042d57600080fd5b5061043661108d565b6040518080602001828103825283818151815260200191508051906020019080838360005b8381101561047657808201518184015260208101905061045b565b50505050905090810190601f1680156104a35780820380516001836020036101000a031916815260200191505b509250505060405180910390f35b3480156104bd57600080fd5b506104fc600480360381019080803573ffffffffffffffffffffffffffffffffffffffff1690602001909291908035906020019092919050505061112b565b604051808215151515815260200191505060405180910390f35b34801561052257600080fd5b5061052b61134a565b604051808260ff1660ff16815260200191505060405180910390f35b34801561055357600080fd5b5061059260048036038101908080359060200190929190803573ffffffffffffffffffffffffffffffffffffffff16906020019092919050505061135d565b005b3480156105a057600080fd5b506105df600480360381019080803573ffffffffffffffffffffffffffffffffffffffff169060200190929190803590602001909291905050506114d1565b604051808215151515815260200191505060405180910390f35b34801561060557600080fd5b5061065a600480360381019080803573ffffffffffffffffffffffffffffffffffffffff169060200190929190803573ffffffffffffffffffffffffffffffffffffffff1690602001909291905050506116cd565b6040518082815260200191505060405180910390f35b34801561067c57600080fd5b506106b1600480360381019080803573ffffffffffffffffffffffffffffffffffffffff169060200190929190505050611754565b005b60048054600181600116156101000203166002900480601f0160208091040260200160405190810160405280929190818152602001828054600181600116156101000203166002900480156107495780601f1061071e57610100808354040283529160200191610749565b820191906000526020600020905b81548152906001019060200180831161072c57829003601f168201915b505050505081565b600081600260003373ffffffffffffffffffffffffffffffffffffffff1673ffffffffffffffffffffffffffffffffffffffff16815260200190815260200160002060008573ffffffffffffffffffffffffffffffffffffffff1673ffffffffffffffffffffffffffffffffffffffff168152602001908152602001600020819055508273ffffffffffffffffffffffffffffffffffffffff163373ffffffffffffffffffffffffffffffffffffffff167f8c5be1e5ebec7d5bd14f71427d1e84f3dd0314c0f7b2291e5b200ac8c7c3b925846040518082815260200191505060405180910390a36001905092915050565b6000600154905090565b60008073ffffffffffffffffffffffffffffffffffffffff168373ffffffffffffffffffffffffffffffffffffffff161415151561088a57600080fd5b6000808573ffffffffffffffffffffffffffffffffffffffff1673ffffffffffffffffffffffffffffffffffffffff1681526020019081526020016000205482111515156108d757600080fd5b600260008573ffffffffffffffffffffffffffffffffffffffff1673ffffffffffffffffffffffffffffffffffffffff16815260200190815260200160002060003373ffffffffffffffffffffffffffffffffffffffff1673ffffffffffffffffffffffffffffffffffffffff16815260200190815260200160002054821115151561096257600080fd5b6109b3826000808773ffffffffffffffffffffffffffffffffffffffff1673ffffffffffffffffffffffffffffffffffffffff168152602001908152602001600020546118ac90919063ffffffff16565b6000808673ffffffffffffffffffffffffffffffffffffffff1673ffffffffffffffffffffffffffffffffffffffff16815260200190815260200160002081905550610a46826000808673ffffffffffffffffffffffffffffffffffffffff1673ffffffffffffffffffffffffffffffffffffffff168152602001908152602001600020546118c590919063ffffffff16565b6000808573ffffffffffffffffffffffffffffffffffffffff1673ffffffffffffffffffffffffffffffffffffffff16815260200190815260200160002081905550610b1782600260008773ffffffffffffffffffffffffffffffffffffffff1673ffffffffffffffffffffffffffffffffffffffff16815260200190815260200160002060003373ffffffffffffffffffffffffffffffffffffffff1673ffffffffffffffffffffffffffffffffffffffff168152602001908152602001600020546118ac90919063ffffffff16565b600260008673ffffffffffffffffffffffffffffffffffffffff1673ffffffffffffffffffffffffffffffffffffffff16815260200190815260200160002060003373ffffffffffffffffffffffffffffffffffffffff1673ffffffffffffffffffffffffffffffffffffffff168152602001908152602001600020819055508273ffffffffffffffffffffffffffffffffffffffff168473ffffffffffffffffffffffffffffffffffffffff167fddf252ad1be2c89b69c2b068fc378daa952ba7f163c4a11628f55a4df523b3ef846040518082815260200191505060405180910390a3600190509392505050565b600660009054906101000a900460ff1681565b600080600260003373ffffffffffffffffffffffffffffffffffffffff1673ffffffffffffffffffffffffffffffffffffffff16815260200190815260200160002060008573ffffffffffffffffffffffffffffffffffffffff1673ffffffffffffffffffffffffffffffffffffffff16815260200190815260200160002054905080831115610d2b576000600260003373ffffffffffffffffffffffffffffffffffffffff1673ffffffffffffffffffffffffffffffffffffffff16815260200190815260200160002060008673ffffffffffffffffffffffffffffffffffffffff1673ffffffffffffffffffffffffffffffffffffffff16815260200190815260200160002081905550610dbf565b610d3e83826118ac90919063ffffffff16565b600260003373ffffffffffffffffffffffffffffffffffffffff1673ffffffffffffffffffffffffffffffffffffffff16815260200190815260200160002060008673ffffffffffffffffffffffffffffffffffffffff1673ffffffffffffffffffffffffffffffffffffffff168152602001908152602001600020819055505b8373ffffffffffffffffffffffffffffffffffffffff163373ffffffffffffffffffffffffffffffffffffffff167f8c5be1e5ebec7d5bd14f71427d1e84f3dd0314c0f7b2291e5b200ac8c7c3b925600260003373ffffffffffffffffffffffffffffffffffffffff1673ffffffffffffffffffffffffffffffffffffffff16815260200190815260200160002060008873ffffffffffffffffffffffffffffffffffffffff1673ffffffffffffffffffffffffffffffffffffffff168152602001908152602001600020546040518082815260200191505060405180910390a3600191505092915050565b60008060008373ffffffffffffffffffffffffffffffffffffffff1673ffffffffffffffffffffffffffffffffffffffff168152602001908152602001600020549050919050565b600360009054906101000a900473ffffffffffffffffffffffffffffffffffffffff1673ffffffffffffffffffffffffffffffffffffffff163373ffffffffffffffffffffffffffffffffffffffff16141515610f4f57600080fd5b610f64826001546118c590919063ffffffff16565b600181905550610fbb826000808473ffffffffffffffffffffffffffffffffffffffff1673ffffffffffffffffffffffffffffffffffffffff168152602001908152602001600020546118c590919063ffffffff16565b6000808373ffffffffffffffffffffffffffffffffffffffff1673ffffffffffffffffffffffffffffffffffffffff168152602001908152602001600020819055508073ffffffffffffffffffffffffffffffffffffffff16600073ffffffffffffffffffffffffffffffffffffffff167fddf252ad1be2c89b69c2b068fc378daa952ba7f163c4a11628f55a4df523b3ef846040518082815260200191505060405180910390a35050565b600360009054906101000a900473ffffffffffffffffffffffffffffffffffffffff1681565b60058054600181600116156101000203166002900480601f0160208091040260200160405190810160405280929190818152602001828054600181600116156101000203166002900480156111235780601f106110f857610100808354040283529160200191611123565b820191906000526020600020905b81548152906001019060200180831161110657829003601f168201915b505050505081565b60008073ffffffffffffffffffffffffffffffffffffffff168373ffffffffffffffffffffffffffffffffffffffff161415151561116857600080fd5b6000803373ffffffffffffffffffffffffffffffffffffffff1673ffffffffffffffffffffffffffffffffffffffff1681526020019081526020016000205482111515156111b557600080fd5b611206826000803373ffffffffffffffffffffffffffffffffffffffff1673ffffffffffffffffffffffffffffffffffffffff168152602001908152602001600020546118ac90919063ffffffff16565b6000803373ffffffffffffffffffffffffffffffffffffffff1673ffffffffffffffffffffffffffffffffffffffff16815260200190815260200160002081905550611299826000808673ffffffffffffffffffffffffffffffffffffffff1673ffffffffffffffffffffffffffffffffffffffff168152602001908152602001600020546118c590919063ffffffff16565b6000808573ffffffffffffffffffffffffffffffffffffffff1673ffffffffffffffffffffffffffffffffffffffff168152602001908152602001600020819055508273ffffffffffffffffffffffffffffffffffffffff163373ffffffffffffffffffffffffffffffffffffffff167fddf252ad1be2c89b69c2b068fc378daa952ba7f163c4a11628f55a4df523b3ef846040518082815260200191505060405180910390a36001905092915050565b600660019054906101000a900460ff1681565b600360009054906101000a900473ffffffffffffffffffffffffffffffffffffffff1673ffffffffffffffffffffffffffffffffffffffff163373ffffffffffffffffffffffffffffffffffffffff161415156113b957600080fd5b61140a826000808473ffffffffffffffffffffffffffffffffffffffff1673ffffffffffffffffffffffffffffffffffffffff168152602001908152602001600020546118ac90919063ffffffff16565b6000808373ffffffffffffffffffffffffffffffffffffffff1673ffffffffffffffffffffffffffffffffffffffff16815260200190815260200160002081905550611461826001546118ac90919063ffffffff16565b600181905550600073ffffffffffffffffffffffffffffffffffffffff168173ffffffffffffffffffffffffffffffffffffffff167fddf252ad1be2c89b69c2b068fc378daa952ba7f163c4a11628f55a4df523b3ef846040518082815260200191505060405180910390a35050565b600061156282600260003373ffffffffffffffffffffffffffffffffffffffff1673ffffffffffffffffffffffffffffffffffffffff16815260200190815260200160002060008673ffffffffffffffffffffffffffffffffffffffff1673ffffffffffffffffffffffffffffffffffffffff168152602001908152602001600020546118c590919063ffffffff16565b600260003373ffffffffffffffffffffffffffffffffffffffff1673ffffffffffffffffffffffffffffffffffffffff16815260200190815260200160002060008573ffffffffffffffffffffffffffffffffffffffff1673ffffffffffffffffffffffffffffffffffffffff168152602001908152602001600020819055508273ffffffffffffffffffffffffffffffffffffffff163373ffffffffffffffffffffffffffffffffffffffff167f8c5be1e5ebec7d5bd14f71427d1e84f3dd0314c0f7b2291e5b200ac8c7c3b925600260003373ffffffffffffffffffffffffffffffffffffffff1673ffffffffffffffffffffffffffffffffffffffff16815260200190815260200160002060008773ffffffffffffffffffffffffffffffffffffffff1673ffffffffffffffffffffffffffffffffffffffff168152602001908152602001600020546040518082815260200191505060405180910390a36001905092915050565b6000600260008473ffffffffffffffffffffffffffffffffffffffff1673ffffffffffffffffffffffffffffffffffffffff16815260200190815260200160002060008373ffffffffffffffffffffffffffffffffffffffff1673ffffffffffffffffffffffffffffffffffffffff16815260200190815260200160002054905092915050565b600360009054906101000a900473ffffffffffffffffffffffffffffffffffffffff1673ffffffffffffffffffffffffffffffffffffffff163373ffffffffffffffffffffffffffffffffffffffff161415156117b057600080fd5b600073ffffffffffffffffffffffffffffffffffffffff168173ffffffffffffffffffffffffffffffffffffffff16141515156117ec57600080fd5b8073ffffffffffffffffffffffffffffffffffffffff16600360009054906101000a900473ffffffffffffffffffffffffffffffffffffffff1673ffffffffffffffffffffffffffffffffffffffff167f8be0079c531659141344cd1fd0a4f28419497f9722a3daafe3b4186f6b6457e060405160405180910390a380600360006101000a81548173ffffffffffffffffffffffffffffffffffffffff021916908373ffffffffffffffffffffffffffffffffffffffff16021790555050565b60008282111515156118ba57fe5b818303905092915050565b600081830190508281101515156118d857fe5b809050929150505600a165627a7a7230582068acf81931f8a5fc652fb0b9154ae16ae14c286f2d559033008dd9d0a367880e0029a165627a7a723058202c3a7e9932013a241c36e05d78d5ce5ef12b0f78d62dee1c5166a161c98392260029",
  "source": "/*\n    Copyright 2017-2018 Phillip A. Elsasser\n\n    Licensed under the Apache License, Version 2.0 (the \"License\");\n    you may not use this file except in compliance with the License.\n    You may obtain a copy of the License at\n\n    http://www.apache.org/licenses/LICENSE-2.0\n\n    Unless required by applicable law or agreed to in writing, software\n    distributed under the License is distributed on an \"AS IS\" BASIS,\n    WITHOUT WARRANTIES OR CONDITIONS OF ANY KIND, either express or implied.\n    See the License for the specific language governing permissions and\n    limitations under the License.\n*/\n\npragma solidity ^0.4.24;\n\nimport \"./MarketContractOraclize.sol\";\nimport \"./OracleHubOraclize.sol\";\nimport \"../MarketContractRegistryInterface.sol\";\n\nimport \"openzeppelin-solidity/contracts/ownership/Ownable.sol\";\n\n/// @title MarketContractFactoryOraclize\n/// @author Phil Elsasser <phil@marketprotocol.io>\ncontract MarketContractFactoryOraclize is Ownable {\n\n    address public marketContractRegistry;\n    address public oracleHubAddress;\n    address public MARKET_COLLATERAL_POOL;\n\n    event MarketContractCreated(address indexed creator, address indexed contractAddress);\n\n    /// @dev deploys our factory and ties it the a supply registry address\n    /// @param registryAddress - address of our MARKET registry\n    /// @param collateralPoolAddress - address of our MARKET Collateral pool\n    constructor(address registryAddress, address collateralPoolAddress) public {\n        marketContractRegistry = registryAddress;\n        MARKET_COLLATERAL_POOL = collateralPoolAddress;\n    }\n\n    /// @dev Deploys a new instance of a market contract and adds it to the whitelist.\n    /// @param contractName viewable name of this contract (BTC/ETH, LTC/ETH, etc)\n    /// @param collateralTokenAddress address of the ERC20 token that will be used for collateral and pricing\n    /// @param contractSpecs array of unsigned integers including:\n    ///     floorPrice              minimum tradeable price of this contract, contract enters settlement if breached\n    ///     capPrice                maximum tradeable price of this contract, contract enters settlement if breached\n    ///     priceDecimalPlaces      number of decimal places to convert our queried price from a floating point to\n    ///                             an integer\n    ///     qtyMultiplier           multiply traded qty by this value from base units of collateral token.\n    ///     expirationTimeStamp     seconds from epoch that this contract expires and enters settlement\n    /// @param oracleDataSource a data-source such as \"URL\", \"WolframAlpha\", \"IPFS\"\n    /// see http://docs.oraclize.it/#ethereum-quick-start-simple-query\n    /// @param oracleQuery see http://docs.oraclize.it/#ethereum-quick-start-simple-query for examples\n    function deployMarketContractOraclize(\n        string contractName,\n        address collateralTokenAddress,\n        uint[5] contractSpecs,\n        string oracleDataSource,\n        string oracleQuery\n    ) external\n    {\n        MarketContractOraclize mktContract = new MarketContractOraclize(\n            contractName,\n            [\n                msg.sender,\n                collateralTokenAddress,\n                MARKET_COLLATERAL_POOL\n            ],\n            oracleHubAddress,\n            contractSpecs,\n            oracleDataSource,\n            oracleQuery\n        );\n\n        OracleHubOraclize(oracleHubAddress).requestQuery(\n            mktContract,\n            oracleDataSource,\n            oracleQuery,\n            mktContract.EXPIRATION()\n        );\n\n        MarketContractRegistryInterface(marketContractRegistry).addAddressToWhiteList(mktContract);\n        emit MarketContractCreated(msg.sender, mktContract);\n    }\n\n    /// @dev allows for the owner to set the desired registry for contract creation.\n    /// @param registryAddress desired registry address.\n    function setRegistryAddress(address registryAddress) external onlyOwner {\n        require(registryAddress != address(0));\n        marketContractRegistry = registryAddress;\n    }\n\n    /// @dev allows for the owner to set a new oracle hub address which is responsible for providing data to our\n    /// contracts\n    /// @param hubAddress   address of the oracle hub, cannot be null address\n    function setOracleHubAddress(address hubAddress) external onlyOwner {\n        require(hubAddress != address(0));\n        oracleHubAddress = hubAddress;\n    }\n}",
  "sourcePath": "/home/pelsasser/MARKETProtocol/contracts/oraclize/MarketContractFactoryOraclize.sol",
  "compiler": {
    "name": "solc",
    "version": "0.4.24+commit.e67f0147.Emscripten.clang"
  },
  "schemaVersion": "2.0.1",
  "updatedAt": "2018-12-12T17:43:12.850Z"
}