{
  "contractName": "MarketContractRegistry",
  "abi": [
    {
      "constant": false,
      "inputs": [],
      "name": "renounceOwnership",
      "outputs": [],
      "payable": false,
      "stateMutability": "nonpayable",
      "type": "function",
      "signature": "0x715018a6"
    },
    {
      "constant": true,
      "inputs": [],
      "name": "owner",
      "outputs": [
        {
          "name": "",
          "type": "address"
        }
      ],
      "payable": false,
      "stateMutability": "view",
      "type": "function",
      "signature": "0x8da5cb5b"
    },
    {
      "constant": true,
      "inputs": [],
      "name": "isOwner",
      "outputs": [
        {
          "name": "",
          "type": "bool"
        }
      ],
      "payable": false,
      "stateMutability": "view",
      "type": "function",
      "signature": "0x8f32d59b"
    },
    {
      "constant": false,
      "inputs": [
        {
          "name": "newOwner",
          "type": "address"
        }
      ],
      "name": "transferOwnership",
      "outputs": [],
      "payable": false,
      "stateMutability": "nonpayable",
      "type": "function",
      "signature": "0xf2fde38b"
    },
    {
      "anonymous": false,
      "inputs": [
        {
          "indexed": false,
          "name": "ownerAddress",
          "type": "address"
        },
        {
          "indexed": false,
          "name": "contractAddress",
          "type": "address"
        }
      ],
      "name": "OwnerContractAdded",
      "type": "event",
      "signature": "0x33479be51d1deb9c4907cc0dbacb4ec2c15bc1dab3f8da1e24f29059fdbcec5e"
    },
    {
      "anonymous": false,
      "inputs": [
        {
          "indexed": true,
          "name": "factoryAddress",
          "type": "address"
        }
      ],
      "name": "FactoryAddressAdded",
      "type": "event",
      "signature": "0x960c6a67a1f0f46ddffd138f2b7f44cbc573d0e0a073363b287a257b121dc48a"
    },
    {
      "anonymous": false,
      "inputs": [
        {
          "indexed": true,
          "name": "factoryAddress",
          "type": "address"
        }
      ],
      "name": "FactoryAddressRemoved",
      "type": "event",
      "signature": "0x5d6ac55db628f137c53a554c300a684dc6b3db9d8f24e9611ea5e84c282d177d"
    },
    {
      "anonymous": false,
      "inputs": [
        {
          "indexed": true,
          "name": "previousOwner",
          "type": "address"
        },
        {
          "indexed": true,
          "name": "newOwner",
          "type": "address"
        }
      ],
      "name": "OwnershipTransferred",
      "type": "event",
      "signature": "0x8be0079c531659141344cd1fd0a4f28419497f9722a3daafe3b4186f6b6457e0"
    },
    {
      "constant": true,
      "inputs": [
        {
          "name": "x",
          "type": "address"
        }
      ],
      "name": "toString",
      "outputs": [
        {
          "name": "",
          "type": "string"
        }
      ],
      "payable": false,
      "stateMutability": "pure",
      "type": "function",
      "signature": "0x56ca623e"
    },
    {
      "constant": false,
      "inputs": [
        {
          "name": "factoryAddress",
          "type": "address"
        }
      ],
      "name": "addFactoryAddress",
      "outputs": [],
      "payable": false,
      "stateMutability": "nonpayable",
      "type": "function",
      "signature": "0x18c0c695"
    },
    {
      "constant": false,
      "inputs": [
        {
          "name": "ownerAddress",
          "type": "address"
        },
        {
          "name": "contractAddress",
          "type": "address"
        }
      ],
      "name": "addOwnerContract",
      "outputs": [],
      "payable": false,
      "stateMutability": "nonpayable",
      "type": "function",
      "signature": "0x7194fda0"
    },
    {
      "constant": true,
      "inputs": [
        {
          "name": "ownerAddress",
          "type": "address"
        }
      ],
      "name": "getOwnerList",
      "outputs": [
        {
          "name": "",
          "type": "address[]"
        }
      ],
      "payable": false,
      "stateMutability": "view",
      "type": "function",
      "signature": "0x315594ed"
    },
    {
      "constant": true,
      "inputs": [
        {
          "name": "contractAddress",
          "type": "address"
        }
      ],
      "name": "isAddressWhiteListed",
      "outputs": [
        {
          "name": "",
          "type": "bool"
        }
      ],
      "payable": false,
      "stateMutability": "view",
      "type": "function",
      "signature": "0xad23de63"
    },
    {
      "constant": false,
      "inputs": [
        {
          "name": "factoryAddress",
          "type": "address"
        }
      ],
      "name": "removeFactoryAddress",
      "outputs": [],
      "payable": false,
      "stateMutability": "nonpayable",
      "type": "function",
      "signature": "0xa051d9c3"
    }
  ],
  "bytecode": "0x6080604052336000806101000a81548173ffffffffffffffffffffffffffffffffffffffff021916908373ffffffffffffffffffffffffffffffffffffffff1602179055506000809054906101000a900473ffffffffffffffffffffffffffffffffffffffff1673ffffffffffffffffffffffffffffffffffffffff16600073ffffffffffffffffffffffffffffffffffffffff167f8be0079c531659141344cd1fd0a4f28419497f9722a3daafe3b4186f6b6457e060405160405180910390a3610fbc806100cf6000396000f3fe608060405234801561001057600080fd5b50600436106100bb576000357c0100000000000000000000000000000000000000000000000000000000900480638da5cb5b116100835780638da5cb5b146102c85780638f32d59b14610312578063a051d9c314610334578063ad23de6314610378578063f2fde38b146103d4576100bb565b806318c0c695146100c0578063315594ed1461010457806356ca623e1461019d578063715018a61461025a5780637194fda014610264575b600080fd5b610102600480360360208110156100d657600080fd5b81019080803573ffffffffffffffffffffffffffffffffffffffff169060200190929190505050610418565b005b6101466004803603602081101561011a57600080fd5b81019080803573ffffffffffffffffffffffffffffffffffffffff1690602001909291905050506105e4565b6040518080602001828103825283818151815260200191508051906020019060200280838360005b8381101561018957808201518184015260208101905061016e565b505050509050019250505060405180910390f35b6101df600480360360208110156101b357600080fd5b81019080803573ffffffffffffffffffffffffffffffffffffffff1690602001909291905050506106b1565b6040518080602001828103825283818151815260200191508051906020019080838360005b8381101561021f578082015181840152602081019050610204565b50505050905090810190601f16801561024c5780820380516001836020036101000a031916815260200191505b509250505060405180910390f35b61026261079c565b005b6102c66004803603604081101561027a57600080fd5b81019080803573ffffffffffffffffffffffffffffffffffffffff169060200190929190803573ffffffffffffffffffffffffffffffffffffffff16906020019092919050505061086e565b005b6102d0610bd5565b604051808273ffffffffffffffffffffffffffffffffffffffff1673ffffffffffffffffffffffffffffffffffffffff16815260200191505060405180910390f35b61031a610bfe565b604051808215151515815260200191505060405180910390f35b6103766004803603602081101561034a57600080fd5b81019080803573ffffffffffffffffffffffffffffffffffffffff169060200190929190505050610c55565b005b6103ba6004803603602081101561038e57600080fd5b81019080803573ffffffffffffffffffffffffffffffffffffffff169060200190929190505050610e21565b604051808215151515815260200191505060405180910390f35b610416600480360360208110156103ea57600080fd5b81019080803573ffffffffffffffffffffffffffffffffffffffff169060200190929190505050610e77565b005b610420610bfe565b151561042b57600080fd5b80600160008273ffffffffffffffffffffffffffffffffffffffff1673ffffffffffffffffffffffffffffffffffffffff16815260200190815260200160002060009054906101000a900460ff161515156104ee576040517f08c379a000000000000000000000000000000000000000000000000000000000815260040180806020018281038252601d8152602001807f4164647265737320697320616c7265616479207265676973746572656400000081525060200191505060405180910390fd5b60018060008473ffffffffffffffffffffffffffffffffffffffff1673ffffffffffffffffffffffffffffffffffffffff16815260200190815260200160002060006101000a81548160ff0219169083151502179055506001600260008473ffffffffffffffffffffffffffffffffffffffff1673ffffffffffffffffffffffffffffffffffffffff16815260200190815260200160002060006101000a81548160ff0219169083151502179055508173ffffffffffffffffffffffffffffffffffffffff167f960c6a67a1f0f46ddffd138f2b7f44cbc573d0e0a073363b287a257b121dc48a60405160405180910390a25050565b6060600360008373ffffffffffffffffffffffffffffffffffffffff1673ffffffffffffffffffffffffffffffffffffffff1681526020019081526020016000208054806020026020016040519081016040528092919081815260200182805480156106a557602002820191906000526020600020905b8160009054906101000a900473ffffffffffffffffffffffffffffffffffffffff1673ffffffffffffffffffffffffffffffffffffffff168152602001906001019080831161065b575b50505050509050919050565b60608060146040519080825280601f01601f1916602001820160405280156106e85781602001600182028038833980820191505090505b50905060008090505b6014811015610792578060130360080260020a8473ffffffffffffffffffffffffffffffffffffffff1681151561072457fe5b047f010000000000000000000000000000000000000000000000000000000000000002828281518110151561075557fe5b9060200101907effffffffffffffffffffffffffffffffffffffffffffffffffffffffffffff1916908160001a90535080806001019150506106f1565b5080915050919050565b6107a4610bfe565b15156107af57600080fd5b600073ffffffffffffffffffffffffffffffffffffffff166000809054906101000a900473ffffffffffffffffffffffffffffffffffffffff1673ffffffffffffffffffffffffffffffffffffffff167f8be0079c531659141344cd1fd0a4f28419497f9722a3daafe3b4186f6b6457e060405160405180910390a360008060006101000a81548173ffffffffffffffffffffffffffffffffffffffff021916908373ffffffffffffffffffffffffffffffffffffffff160217905550565b610876610bfe565b806108ca5750600260003373ffffffffffffffffffffffffffffffffffffffff1673ffffffffffffffffffffffffffffffffffffffff16815260200190815260200160002060009054906101000a900460ff165b6108d3336106b1565b90151561097b576040517f08c379a00000000000000000000000000000000000000000000000000000000081526004018080602001828103825283818151815260200191508051906020019080838360005b83811015610940578082015181840152602081019050610925565b50505050905090810190601f16801561096d5780820380516001836020036101000a031916815260200191505b509250505060405180910390fd5b5080600160008273ffffffffffffffffffffffffffffffffffffffff1673ffffffffffffffffffffffffffffffffffffffff16815260200190815260200160002060009054906101000a900460ff16151515610a3f576040517f08c379a000000000000000000000000000000000000000000000000000000000815260040180806020018281038252601d8152602001807f4164647265737320697320616c7265616479207265676973746572656400000081525060200191505060405180910390fd5b60018060008473ffffffffffffffffffffffffffffffffffffffff1673ffffffffffffffffffffffffffffffffffffffff16815260200190815260200160002060006101000a81548160ff021916908315150217905550600360008473ffffffffffffffffffffffffffffffffffffffff1673ffffffffffffffffffffffffffffffffffffffff1681526020019081526020016000208290806001815401808255809150509060018203906000526020600020016000909192909190916101000a81548173ffffffffffffffffffffffffffffffffffffffff021916908373ffffffffffffffffffffffffffffffffffffffff160217905550507f33479be51d1deb9c4907cc0dbacb4ec2c15bc1dab3f8da1e24f29059fdbcec5e8383604051808373ffffffffffffffffffffffffffffffffffffffff1673ffffffffffffffffffffffffffffffffffffffff1681526020018273ffffffffffffffffffffffffffffffffffffffff1673ffffffffffffffffffffffffffffffffffffffff1681526020019250505060405180910390a1505050565b60008060009054906101000a900473ffffffffffffffffffffffffffffffffffffffff16905090565b60008060009054906101000a900473ffffffffffffffffffffffffffffffffffffffff1673ffffffffffffffffffffffffffffffffffffffff163373ffffffffffffffffffffffffffffffffffffffff1614905090565b610c5d610bfe565b1515610c6857600080fd5b80600160008273ffffffffffffffffffffffffffffffffffffffff1673ffffffffffffffffffffffffffffffffffffffff16815260200190815260200160002060009054906101000a900460ff161515610d2a576040517f08c379a00000000000000000000000000000000000000000000000000000000081526004018080602001828103825260198152602001807f41646472657373206973206e6f7420726567697374657265640000000000000081525060200191505060405180910390fd5b6000600160008473ffffffffffffffffffffffffffffffffffffffff1673ffffffffffffffffffffffffffffffffffffffff16815260200190815260200160002060006101000a81548160ff0219169083151502179055506000600260008473ffffffffffffffffffffffffffffffffffffffff1673ffffffffffffffffffffffffffffffffffffffff16815260200190815260200160002060006101000a81548160ff0219169083151502179055508173ffffffffffffffffffffffffffffffffffffffff167f5d6ac55db628f137c53a554c300a684dc6b3db9d8f24e9611ea5e84c282d177d60405160405180910390a25050565b6000600260008373ffffffffffffffffffffffffffffffffffffffff1673ffffffffffffffffffffffffffffffffffffffff16815260200190815260200160002060009054906101000a900460ff169050919050565b610e7f610bfe565b1515610e8a57600080fd5b610e9381610e96565b50565b600073ffffffffffffffffffffffffffffffffffffffff168173ffffffffffffffffffffffffffffffffffffffff1614151515610ed257600080fd5b8073ffffffffffffffffffffffffffffffffffffffff166000809054906101000a900473ffffffffffffffffffffffffffffffffffffffff1673ffffffffffffffffffffffffffffffffffffffff167f8be0079c531659141344cd1fd0a4f28419497f9722a3daafe3b4186f6b6457e060405160405180910390a3806000806101000a81548173ffffffffffffffffffffffffffffffffffffffff021916908373ffffffffffffffffffffffffffffffffffffffff1602179055505056fea165627a7a72305820f82f101b498d0ce52f0a866ff6352c4698fcf1b214592052a3d45ec18523290e0029",
  "source": "/*\n    Copyright 2017-2019 MARKET Protocol\n\n    Licensed under the Apache License, Version 2.0 (the \"License\");\n    you may not use this file except in compliance with the License.\n    You may obtain a copy of the License at\n\n    http://www.apache.org/licenses/LICENSE-2.0\n\n    Unless required by applicable law or agreed to in writing, software\n    distributed under the License is distributed on an \"AS IS\" BASIS,\n    WITHOUT WARRANTIES OR CONDITIONS OF ANY KIND, either express or implied.\n    See the License for the specific language governing permissions and\n    limitations under the License.\n*/\n\npragma solidity 0.5.2;\n\nimport \"openzeppelin-solidity/contracts/ownership/Ownable.sol\";\nimport \"./MarketContractRegistryInterface.sol\";\n\n/// @title MarketContractRegistry\n/// @author MARKET Protocol <support@marketprotocol.io>\ncontract MarketContractRegistry is Ownable, MarketContractRegistryInterface {\n    mapping(address => bool) private registered;       // record of registered addresses\n    mapping(address => bool) private whitelist;        // record of whitelist\n    mapping(address => address[]) private ownerStore;  // record of owned contracts\n\n    // events\n\n    event OwnerContractAdded(address ownerAddress, address contractAddress);\n    event FactoryAddressAdded(address indexed factoryAddress);\n    event FactoryAddressRemoved(address indexed factoryAddress);\n\n    // modifiers\n\n    modifier isRegistered(address addy) {\n        require(registered[addy], \"Address is not registered\");\n        _;\n    }\n\n    modifier notRegistered(address addy) {\n        require(!registered[addy], \"Address is already registered\");\n        _;\n    }\n\n    modifier onlyFactoryOrOwner() {\n        require(isOwner() || whitelist[msg.sender], toString(msg.sender));\n        _;\n    }\n\n    function toString(address x) public pure returns (string memory) {\n        bytes memory b = new bytes(20);\n        for (uint i = 0; i < 20; i++) {\n            b[i] = byte(uint8(uint(x) / (2**(8*(19 - i)))));\n        }\n        return string(b);\n    }\n\n    /*\n    // External Methods\n    */\n\n    /// @dev allows for the owner to add a new address of a factory responsible for creating new market contracts\n    /// @param factoryAddress address of factory to be allowed to add contracts to whitelist\n    function addFactoryAddress(address factoryAddress) public onlyOwner notRegistered(factoryAddress) {\n        registered[factoryAddress] = true;\n        whitelist[factoryAddress] = true;\n        emit FactoryAddressAdded(factoryAddress);\n    }\n\n    /// @dev tracks the owner of a contract so that contracts can be looked up by owner\n    /// @param ownerAddress address of the owner wallet\n    /// @param contractAddress address of the contract\n    function addOwnerContract(address ownerAddress, address contractAddress) public onlyFactoryOrOwner notRegistered(contractAddress) {\n        registered[contractAddress] = true;\n        ownerStore[ownerAddress].push(contractAddress);\n        emit OwnerContractAdded(ownerAddress, contractAddress);\n    }\n\n    /// @notice all contracts owned by owner\n    /// returns array of addresses\n    function getOwnerList(address ownerAddress) public view returns (address[] memory) {\n        return ownerStore[ownerAddress];\n    }\n\n    /// @notice determines if an address is a valid MarketContract\n    /// @return false if the address is not white listed.\n    function isAddressWhiteListed(address contractAddress) public view returns (bool) {\n        return whitelist[contractAddress];\n    }\n\n\n    /// @dev allows for the owner to remove an address of a factory\n    /// @param factoryAddress address of factory to be removed\n    function removeFactoryAddress(address factoryAddress) public onlyOwner isRegistered(factoryAddress) {\n        registered[factoryAddress] = false;\n        whitelist[factoryAddress] = false;\n        emit FactoryAddressRemoved(factoryAddress);\n    }\n}\n\n",
  "sourcePath": "/home/market/code/marketprotocol/contracts/MarketContractRegistry.sol",
  "compiler": {
    "name": "solc",
    "version": "0.5.2+commit.1df8f40c.Emscripten.clang"
  },
  "schemaVersion": "3.0.1",
  "updatedAt": "2019-09-10T16:37:04.970Z",
  "devdoc": {
    "author": "MARKET Protocol <support@marketprotocol.io>",
    "methods": {
      "addFactoryAddress(address)": {
        "details": "allows for the owner to add a new address of a factory responsible for creating new market contracts",
        "params": {
          "factoryAddress": "address of factory to be allowed to add contracts to whitelist"
        }
      },
      "addOwnerContract(address,address)": {
        "details": "tracks the owner of a contract so that contracts can be looked up by owner",
        "params": {
          "contractAddress": "address of the contract",
          "ownerAddress": "address of the owner wallet"
        }
      },
      "isAddressWhiteListed(address)": {
        "return": "false if the address is not white listed."
      },
      "isOwner()": {
        "return": "true if `msg.sender` is the owner of the contract."
      },
      "owner()": {
        "return": "the address of the owner."
      },
      "removeFactoryAddress(address)": {
        "details": "allows for the owner to remove an address of a factory",
        "params": {
          "factoryAddress": "address of factory to be removed"
        }
      },
      "renounceOwnership()": {
        "details": "Allows the current owner to relinquish control of the contract. It will not be possible to call the functions with the `onlyOwner` modifier anymore."
      },
      "transferOwnership(address)": {
        "details": "Allows the current owner to transfer control of the contract to a newOwner.",
        "params": {
          "newOwner": "The address to transfer ownership to."
        }
      }
    },
    "title": "MarketContractRegistry"
  },
  "userdoc": {
    "methods": {
      "getOwnerList(address)": {
        "notice": "all contracts owned by owner returns array of addresses"
      },
      "isAddressWhiteListed(address)": {
        "notice": "determines if an address is a valid MarketContract"
      },
      "renounceOwnership()": {
        "notice": "Renouncing ownership will leave the contract without an owner, thereby removing any functionality that is only available to the owner."
      }
    }
  }
}