{
  "contractName": "MarketCollateralPool",
  "abi": [
    {
      "constant": true,
      "inputs": [],
      "name": "marketTradingHub",
      "outputs": [
        {
          "name": "",
          "type": "address"
        }
      ],
      "payable": false,
      "stateMutability": "view",
      "type": "function"
    },
    {
      "constant": true,
      "inputs": [
        {
          "name": "",
          "type": "address"
        },
        {
          "name": "",
          "type": "address"
        }
      ],
      "name": "tokenAddressToAccountBalance",
      "outputs": [
        {
          "name": "",
          "type": "uint256"
        }
      ],
      "payable": false,
      "stateMutability": "view",
      "type": "function"
    },
    {
      "constant": true,
      "inputs": [
        {
          "name": "",
          "type": "address"
        },
        {
          "name": "",
          "type": "address"
        }
      ],
      "name": "tokenAddressToBalanceLockTime",
      "outputs": [
        {
          "name": "",
          "type": "uint256"
        }
      ],
      "payable": false,
      "stateMutability": "view",
      "type": "function"
    },
    {
      "constant": true,
      "inputs": [],
      "name": "owner",
      "outputs": [
        {
          "name": "",
          "type": "address"
        }
      ],
      "payable": false,
      "stateMutability": "view",
      "type": "function"
    },
    {
      "constant": true,
      "inputs": [
        {
          "name": "",
          "type": "address"
        }
      ],
      "name": "contractAddressToCollateralPoolBalance",
      "outputs": [
        {
          "name": "",
          "type": "uint256"
        }
      ],
      "payable": false,
      "stateMutability": "view",
      "type": "function"
    },
    {
      "constant": false,
      "inputs": [
        {
          "name": "newOwner",
          "type": "address"
        }
      ],
      "name": "transferOwnership",
      "outputs": [],
      "payable": false,
      "stateMutability": "nonpayable",
      "type": "function"
    },
    {
      "inputs": [],
      "payable": false,
      "stateMutability": "nonpayable",
      "type": "constructor"
    },
    {
      "anonymous": false,
      "inputs": [
        {
          "indexed": true,
          "name": "collateralTokenAddress",
          "type": "address"
        },
        {
          "indexed": true,
          "name": "user",
          "type": "address"
        },
        {
          "indexed": false,
          "name": "balance",
          "type": "uint256"
        }
      ],
      "name": "UpdatedUserBalance",
      "type": "event"
    },
    {
      "anonymous": false,
      "inputs": [
        {
          "indexed": true,
          "name": "previousOwner",
          "type": "address"
        },
        {
          "indexed": true,
          "name": "newOwner",
          "type": "address"
        }
      ],
      "name": "OwnershipTransferred",
      "type": "event"
    },
    {
      "constant": true,
      "inputs": [
        {
          "name": "marketContractAddress",
          "type": "address"
        },
        {
          "name": "userAddress",
          "type": "address"
        }
      ],
      "name": "getUserNetPosition",
      "outputs": [
        {
          "name": "",
          "type": "int256"
        }
      ],
      "payable": false,
      "stateMutability": "view",
      "type": "function"
    },
    {
      "constant": true,
      "inputs": [
        {
          "name": "marketContractAddress",
          "type": "address"
        },
        {
          "name": "userAddress",
          "type": "address"
        }
      ],
      "name": "getUserPositionCount",
      "outputs": [
        {
          "name": "",
          "type": "uint256"
        }
      ],
      "payable": false,
      "stateMutability": "view",
      "type": "function"
    },
    {
      "constant": true,
      "inputs": [
        {
          "name": "marketContractAddress",
          "type": "address"
        },
        {
          "name": "userAddress",
          "type": "address"
        },
        {
          "name": "index",
          "type": "uint256"
        }
      ],
      "name": "getUserPosition",
      "outputs": [
        {
          "name": "",
          "type": "uint256"
        },
        {
          "name": "",
          "type": "int256"
        }
      ],
      "payable": false,
      "stateMutability": "view",
      "type": "function"
    },
    {
      "constant": true,
      "inputs": [
        {
          "name": "collateralTokenAddress",
          "type": "address"
        },
        {
          "name": "userAddress",
          "type": "address"
        }
      ],
      "name": "getUserUnallocatedBalance",
      "outputs": [
        {
          "name": "",
          "type": "uint256"
        }
      ],
      "payable": false,
      "stateMutability": "view",
      "type": "function"
    },
    {
      "constant": false,
      "inputs": [
        {
          "name": "collateralTokenAddress",
          "type": "address"
        },
        {
          "name": "depositAmount",
          "type": "uint256"
        }
      ],
      "name": "depositTokensForTrading",
      "outputs": [],
      "payable": false,
      "stateMutability": "nonpayable",
      "type": "function"
    },
    {
      "constant": false,
      "inputs": [
        {
          "name": "marketContractAddress",
          "type": "address"
        }
      ],
      "name": "settleAndClose",
      "outputs": [],
      "payable": false,
      "stateMutability": "nonpayable",
      "type": "function"
    },
    {
      "constant": false,
      "inputs": [
        {
          "name": "marketContractAddress",
          "type": "address"
        },
        {
          "name": "maker",
          "type": "address"
        },
        {
          "name": "taker",
          "type": "address"
        },
        {
          "name": "qty",
          "type": "int256"
        },
        {
          "name": "price",
          "type": "uint256"
        }
      ],
      "name": "updatePositions",
      "outputs": [],
      "payable": false,
      "stateMutability": "nonpayable",
      "type": "function"
    },
    {
      "constant": false,
      "inputs": [
        {
          "name": "marketTradingHubAddress",
          "type": "address"
        }
      ],
      "name": "setMarketTradingHubAddress",
      "outputs": [],
      "payable": false,
      "stateMutability": "nonpayable",
      "type": "function"
    },
    {
      "constant": false,
      "inputs": [
        {
          "name": "collateralTokenAddress",
          "type": "address"
        },
        {
          "name": "withdrawAmount",
          "type": "uint256"
        }
      ],
      "name": "withdrawTokens",
      "outputs": [],
      "payable": false,
      "stateMutability": "nonpayable",
      "type": "function"
    }
  ],
  "bytecode": "0x608060405234801561001057600080fd5b50336000806101000a81548173ffffffffffffffffffffffffffffffffffffffff021916908373ffffffffffffffffffffffffffffffffffffffff160217905550612ab0806100606000396000f3006080604052600436106100db576000357c0100000000000000000000000000000000000000000000000000000000900463ffffffff16806306b091f9146100e057806319bfe4861461012d57806321e83c5514610184578063240d413e146101fb57806326fca2e21461027257806339a7ab44146103095780634858c0631461035657806357553cb1146103995780635e9f2eb3146104105780636f806935146104535780637d6aaab1146104ca5780638da5cb5b14610552578063ca7b1b4d146105a9578063f29edff014610600578063f2fde38b14610677575b600080fd5b3480156100ec57600080fd5b5061012b600480360381019080803573ffffffffffffffffffffffffffffffffffffffff169060200190929190803590602001909291905050506106ba565b005b34801561013957600080fd5b50610142610863565b604051808273ffffffffffffffffffffffffffffffffffffffff1673ffffffffffffffffffffffffffffffffffffffff16815260200191505060405180910390f35b34801561019057600080fd5b506101e5600480360381019080803573ffffffffffffffffffffffffffffffffffffffff169060200190929190803573ffffffffffffffffffffffffffffffffffffffff169060200190929190505050610889565b6040518082815260200191505060405180910390f35b34801561020757600080fd5b5061025c600480360381019080803573ffffffffffffffffffffffffffffffffffffffff169060200190929190803573ffffffffffffffffffffffffffffffffffffffff1690602001909291905050506108ae565b6040518082815260200191505060405180910390f35b34801561027e57600080fd5b50610307600480360381019080803573ffffffffffffffffffffffffffffffffffffffff169060200190929190803573ffffffffffffffffffffffffffffffffffffffff169060200190929190803573ffffffffffffffffffffffffffffffffffffffff1690602001909291908035906020019092919080359060200190929190505050610935565b005b34801561031557600080fd5b50610354600480360381019080803573ffffffffffffffffffffffffffffffffffffffff16906020019092919080359060200190929190505050610a67565b005b34801561036257600080fd5b50610397600480360381019080803573ffffffffffffffffffffffffffffffffffffffff169060200190929190505050610c12565b005b3480156103a557600080fd5b506103fa600480360381019080803573ffffffffffffffffffffffffffffffffffffffff169060200190929190803573ffffffffffffffffffffffffffffffffffffffff169060200190929190505050610cb1565b6040518082815260200191505060405180910390f35b34801561041c57600080fd5b50610451600480360381019080803573ffffffffffffffffffffffffffffffffffffffff169060200190929190505050610d3b565b005b34801561045f57600080fd5b506104b4600480360381019080803573ffffffffffffffffffffffffffffffffffffffff169060200190929190803573ffffffffffffffffffffffffffffffffffffffff169060200190929190505050611179565b6040518082815260200191505060405180910390f35b3480156104d657600080fd5b50610535600480360381019080803573ffffffffffffffffffffffffffffffffffffffff169060200190929190803573ffffffffffffffffffffffffffffffffffffffff1690602001909291908035906020019092919050505061119e565b604051808381526020018281526020019250505060405180910390f35b34801561055e57600080fd5b50610567611256565b604051808273ffffffffffffffffffffffffffffffffffffffff1673ffffffffffffffffffffffffffffffffffffffff16815260200191505060405180910390f35b3480156105b557600080fd5b506105ea600480360381019080803573ffffffffffffffffffffffffffffffffffffffff16906020019092919050505061127b565b6040518082815260200191505060405180910390f35b34801561060c57600080fd5b50610661600480360381019080803573ffffffffffffffffffffffffffffffffffffffff169060200190929190803573ffffffffffffffffffffffffffffffffffffffff169060200190929190505050611293565b6040518082815260200191505060405180910390f35b34801561068357600080fd5b506106b8600480360381019080803573ffffffffffffffffffffffffffffffffffffffff169060200190929190505050611320565b005b600061074b82600360008673ffffffffffffffffffffffffffffffffffffffff1673ffffffffffffffffffffffffffffffffffffffff16815260200190815260200160002060003373ffffffffffffffffffffffffffffffffffffffff1673ffffffffffffffffffffffffffffffffffffffff1681526020019081526020016000205461147590919063ffffffff16565b905080600360008573ffffffffffffffffffffffffffffffffffffffff1673ffffffffffffffffffffffffffffffffffffffff16815260200190815260200160002060003373ffffffffffffffffffffffffffffffffffffffff1673ffffffffffffffffffffffffffffffffffffffff168152602001908152602001600020819055506107f933838573ffffffffffffffffffffffffffffffffffffffff1661148e9092919063ffffffff16565b3373ffffffffffffffffffffffffffffffffffffffff168373ffffffffffffffffffffffffffffffffffffffff167ff5caacab1b992b09cc130576f869129fd1275e04ea5eee86f5c0c4040f222fe1836040518082815260200191505060405180910390a3505050565b600560009054906101000a900473ffffffffffffffffffffffffffffffffffffffff1681565b6003602052816000526040600020602052806000526040600020600091509150505481565b6000600360008473ffffffffffffffffffffffffffffffffffffffff1673ffffffffffffffffffffffffffffffffffffffff16815260200190815260200160002060008373ffffffffffffffffffffffffffffffffffffffff1673ffffffffffffffffffffffffffffffffffffffff16815260200190815260200160002054905092915050565b6000600560009054906101000a900473ffffffffffffffffffffffffffffffffffffffff1673ffffffffffffffffffffffffffffffffffffffff163373ffffffffffffffffffffffffffffffffffffffff16141515610a22576040517f08c379a00000000000000000000000000000000000000000000000000000000081526004018080602001828103825260258152602001807f43616e206f6e6c792062652063616c6c6564206279207468652074726164696e81526020017f672068756200000000000000000000000000000000000000000000000000000081525060400191505060405180910390fd5b859050610a3181868585611579565b610a5f81857fffffffffffffffffffffffffffffffffffffffffffffffffffffffffffffffff860285611579565b505050505050565b6000610af882600360008673ffffffffffffffffffffffffffffffffffffffff1673ffffffffffffffffffffffffffffffffffffffff16815260200190815260200160002060003373ffffffffffffffffffffffffffffffffffffffff1673ffffffffffffffffffffffffffffffffffffffff168152602001908152602001600020546116d890919063ffffffff16565b9050610b273330848673ffffffffffffffffffffffffffffffffffffffff166116f6909392919063ffffffff16565b80600360008573ffffffffffffffffffffffffffffffffffffffff1673ffffffffffffffffffffffffffffffffffffffff16815260200190815260200160002060003373ffffffffffffffffffffffffffffffffffffffff1673ffffffffffffffffffffffffffffffffffffffff168152602001908152602001600020819055503373ffffffffffffffffffffffffffffffffffffffff168373ffffffffffffffffffffffffffffffffffffffff167ff5caacab1b992b09cc130576f869129fd1275e04ea5eee86f5c0c4040f222fe1836040518082815260200191505060405180910390a3505050565b6000809054906101000a900473ffffffffffffffffffffffffffffffffffffffff1673ffffffffffffffffffffffffffffffffffffffff163373ffffffffffffffffffffffffffffffffffffffff16141515610c6d57600080fd5b80600560006101000a81548173ffffffffffffffffffffffffffffffffffffffff021916908373ffffffffffffffffffffffffffffffffffffffff16021790555050565b6000600260008473ffffffffffffffffffffffffffffffffffffffff1673ffffffffffffffffffffffffffffffffffffffff16815260200190815260200160002060008373ffffffffffffffffffffffffffffffffffffffff1673ffffffffffffffffffffffffffffffffffffffff16815260200190815260200160002060010154905092915050565b6000808291508173ffffffffffffffffffffffffffffffffffffffff16633270bb5b6040518163ffffffff167c0100000000000000000000000000000000000000000000000000000000028152600401602060405180830381600087803b158015610da557600080fd5b505af1158015610db9573d6000803e3d6000fd5b505050506040513d6020811015610dcf57600080fd5b81019080805190602001909291905050501515610e54576040517f08c379a00000000000000000000000000000000000000000000000000000000081526004018080602001828103825260178152602001807f436f6e7472616374206973206e6f7420736574746c656400000000000000000081525060200191505060405180910390fd5b600260008473ffffffffffffffffffffffffffffffffffffffff1673ffffffffffffffffffffffffffffffffffffffff16815260200190815260200160002060003373ffffffffffffffffffffffffffffffffffffffff1673ffffffffffffffffffffffffffffffffffffffff168152602001908152602001600020905060008160010154141515610fb257610fb18282337fffffffffffffffffffffffffffffffffffffffffffffffffffffffffffffffff8560010154028673ffffffffffffffffffffffffffffffffffffffff1663f348e8b26040518163ffffffff167c0100000000000000000000000000000000000000000000000000000000028152600401602060405180830381600087803b158015610f7157600080fd5b505af1158015610f85573d6000803e3d6000fd5b505050506040513d6020811015610f9b57600080fd5b8101908080519060200190929190505050611816565b5b6111748273ffffffffffffffffffffffffffffffffffffffff1663323bb7756040518163ffffffff167c0100000000000000000000000000000000000000000000000000000000028152600401602060405180830381600087803b15801561101957600080fd5b505af115801561102d573d6000803e3d6000fd5b505050506040513d602081101561104357600080fd5b8101908080519060200190929190505050600360008573ffffffffffffffffffffffffffffffffffffffff1663323bb7756040518163ffffffff167c0100000000000000000000000000000000000000000000000000000000028152600401602060405180830381600087803b1580156110bc57600080fd5b505af11580156110d0573d6000803e3d6000fd5b505050506040513d60208110156110e657600080fd5b810190808051906020019092919050505073ffffffffffffffffffffffffffffffffffffffff1673ffffffffffffffffffffffffffffffffffffffff16815260200190815260200160002060003373ffffffffffffffffffffffffffffffffffffffff1673ffffffffffffffffffffffffffffffffffffffff168152602001908152602001600020546106ba565b505050565b6004602052816000526040600020602052806000526040600020600091509150505481565b6000806000600260008773ffffffffffffffffffffffffffffffffffffffff1673ffffffffffffffffffffffffffffffffffffffff16815260200190815260200160002060008673ffffffffffffffffffffffffffffffffffffffff1673ffffffffffffffffffffffffffffffffffffffff1681526020019081526020016000206000018481548110151561122f57fe5b90600052602060002090600202019050806000015481600101549250925050935093915050565b6000809054906101000a900473ffffffffffffffffffffffffffffffffffffffff1681565b60016020528060005260406000206000915090505481565b6000600260008473ffffffffffffffffffffffffffffffffffffffff1673ffffffffffffffffffffffffffffffffffffffff16815260200190815260200160002060008373ffffffffffffffffffffffffffffffffffffffff1673ffffffffffffffffffffffffffffffffffffffff16815260200190815260200160002060000180549050905092915050565b6000809054906101000a900473ffffffffffffffffffffffffffffffffffffffff1673ffffffffffffffffffffffffffffffffffffffff163373ffffffffffffffffffffffffffffffffffffffff1614151561137b57600080fd5b600073ffffffffffffffffffffffffffffffffffffffff168173ffffffffffffffffffffffffffffffffffffffff16141515156113b757600080fd5b8073ffffffffffffffffffffffffffffffffffffffff166000809054906101000a900473ffffffffffffffffffffffffffffffffffffffff1673ffffffffffffffffffffffffffffffffffffffff167f8be0079c531659141344cd1fd0a4f28419497f9722a3daafe3b4186f6b6457e060405160405180910390a3806000806101000a81548173ffffffffffffffffffffffffffffffffffffffff021916908373ffffffffffffffffffffffffffffffffffffffff16021790555050565b600082821115151561148357fe5b818303905092915050565b8273ffffffffffffffffffffffffffffffffffffffff1663a9059cbb83836040518363ffffffff167c0100000000000000000000000000000000000000000000000000000000028152600401808373ffffffffffffffffffffffffffffffffffffffff1673ffffffffffffffffffffffffffffffffffffffff16815260200182815260200192505050602060405180830381600087803b15801561153157600080fd5b505af1158015611545573d6000803e3d6000fd5b505050506040513d602081101561155b57600080fd5b8101908080519060200190929190505050151561157457fe5b505050565b600080600260008773ffffffffffffffffffffffffffffffffffffffff1673ffffffffffffffffffffffffffffffffffffffff16815260200190815260200160002060008673ffffffffffffffffffffffffffffffffffffffff1673ffffffffffffffffffffffffffffffffffffffff1681526020019081526020016000209150600082600101541480611620575061161f848360010154611e9590919063ffffffff16565b5b15611637576116328683878787611eaf565b6116b1565b611640846121c1565b61164d83600101546121c1565b101515611666576116618683878787611816565b6116b0565b6116998683877fffffffffffffffffffffffffffffffffffffffffffffffffffffffffffffffff86600101540287611816565b8382600101540190506116af8683878487611eaf565b5b5b6116c88483600101546121df90919063ffffffff16565b8260010181905550505050505050565b60008082840190508381101515156116ec57fe5b8091505092915050565b8373ffffffffffffffffffffffffffffffffffffffff166323b872dd8484846040518463ffffffff167c0100000000000000000000000000000000000000000000000000000000028152600401808473ffffffffffffffffffffffffffffffffffffffff1673ffffffffffffffffffffffffffffffffffffffff1681526020018373ffffffffffffffffffffffffffffffffffffffff1673ffffffffffffffffffffffffffffffffffffffff1681526020018281526020019350505050602060405180830381600087803b1580156117cd57600080fd5b505af11580156117e1573d6000803e3d6000fd5b505050506040513d60208110156117f757600080fd5b8101908080519060200190929190505050151561181057fe5b50505050565b6000806000809250849150600087600001805490501415151561183557fe5b5b600082141515611e755786600001600188600001805490500381548110151561185b57fe5b90600052602060002090600202019050611874826121c1565b61188182600101546121c1565b111515611b7657611b3e73__MathLib_______________________________63ed981d4f8a73ffffffffffffffffffffffffffffffffffffffff1663c32b1dfa6040518163ffffffff167c0100000000000000000000000000000000000000000000000000000000028152600401602060405180830381600087803b15801561190957600080fd5b505af115801561191d573d6000803e3d6000fd5b505050506040513d602081101561193357600080fd5b81019080805190602001909291905050508b73ffffffffffffffffffffffffffffffffffffffff1663b5471dee6040518163ffffffff167c0100000000000000000000000000000000000000000000000000000000028152600401602060405180830381600087803b1580156119a857600080fd5b505af11580156119bc573d6000803e3d6000fd5b505050506040513d60208110156119d257600080fd5b81019080805190602001909291905050508c73ffffffffffffffffffffffffffffffffffffffff1663ca361d676040518163ffffffff167c0100000000000000000000000000000000000000000000000000000000028152600401602060405180830381600087803b158015611a4757600080fd5b505af1158015611a5b573d6000803e3d6000fd5b505050506040513d6020811015611a7157600080fd5b810190808051906020019092919050505086600101548a6040518663ffffffff167c0100000000000000000000000000000000000000000000000000000000028152600401808681526020018581526020018481526020018381526020018281526020019550505050505060206040518083038186803b158015611af457600080fd5b505af4158015611b08573d6000803e3d6000fd5b505050506040513d6020811015611b1e57600080fd5b8101908080519060200190929190505050846116d890919063ffffffff16565b9250611b578160010154836121df90919063ffffffff16565b915086600001805480919060019003611b709190612a23565b50611e70565b611b8d8282600101546121df90919063ffffffff16565b8160010181905550611e6973__MathLib_______________________________63ed981d4f8a73ffffffffffffffffffffffffffffffffffffffff1663c32b1dfa6040518163ffffffff167c0100000000000000000000000000000000000000000000000000000000028152600401602060405180830381600087803b158015611c1657600080fd5b505af1158015611c2a573d6000803e3d6000fd5b505050506040513d6020811015611c4057600080fd5b81019080805190602001909291905050508b73ffffffffffffffffffffffffffffffffffffffff1663b5471dee6040518163ffffffff167c0100000000000000000000000000000000000000000000000000000000028152600401602060405180830381600087803b158015611cb557600080fd5b505af1158015611cc9573d6000803e3d6000fd5b505050506040513d6020811015611cdf57600080fd5b81019080805190602001909291905050508c73ffffffffffffffffffffffffffffffffffffffff1663ca361d676040518163ffffffff167c0100000000000000000000000000000000000000000000000000000000028152600401602060405180830381600087803b158015611d5457600080fd5b505af1158015611d68573d6000803e3d6000fd5b505050506040513d6020811015611d7e57600080fd5b81019080805190602001909291905050507fffffffffffffffffffffffffffffffffffffffffffffffffffffffffffffffff88028a6040518663ffffffff167c0100000000000000000000000000000000000000000000000000000000028152600401808681526020018581526020018481526020018381526020018281526020019550505050505060206040518083038186803b158015611e1f57600080fd5b505af4158015611e33573d6000803e3d6000fd5b505050506040513d6020811015611e4957600080fd5b8101908080519060200190929190505050846116d890919063ffffffff16565b9250611e75565b611836565b600083141515611e8b57611e8a888785612247565b5b5050505050505050565b600081831480611ea757506000828402135b905092915050565b600073__MathLib_______________________________63ed981d4f8773ffffffffffffffffffffffffffffffffffffffff1663c32b1dfa6040518163ffffffff167c0100000000000000000000000000000000000000000000000000000000028152600401602060405180830381600087803b158015611f2f57600080fd5b505af1158015611f43573d6000803e3d6000fd5b505050506040513d6020811015611f5957600080fd5b81019080805190602001909291905050508873ffffffffffffffffffffffffffffffffffffffff1663b5471dee6040518163ffffffff167c0100000000000000000000000000000000000000000000000000000000028152600401602060405180830381600087803b158015611fce57600080fd5b505af1158015611fe2573d6000803e3d6000fd5b505050506040513d6020811015611ff857600080fd5b81019080805190602001909291905050508973ffffffffffffffffffffffffffffffffffffffff1663ca361d676040518163ffffffff167c0100000000000000000000000000000000000000000000000000000000028152600401602060405180830381600087803b15801561206d57600080fd5b505af1158015612081573d6000803e3d6000fd5b505050506040513d602081101561209757600080fd5b810190808051906020019092919050505087876040518663ffffffff167c0100000000000000000000000000000000000000000000000000000000028152600401808681526020018581526020018481526020018381526020018281526020019550505050505060206040518083038186803b15801561211657600080fd5b505af415801561212a573d6000803e3d6000fd5b505050506040513d602081101561214057600080fd5b8101908080519060200190929190505050905061215e868583612635565b84600001604080519081016040528084815260200185815250908060018154018082558091505090600182039060005260206000209060020201600090919290919091506000820151816000015560208201518160010155505050505050505050565b6000808212156121d6578160000390506121da565b8190505b919050565b60008082840190506121f18484611e95565b15156121ff57809150612240565b600084121515612225578360ff60019060020a021903831315151561222057fe5b61223c565b8360ff60019060020a0203831215151561223b57fe5b5b8091505b5092915050565b600061237682600360008773ffffffffffffffffffffffffffffffffffffffff1663323bb7756040518163ffffffff167c0100000000000000000000000000000000000000000000000000000000028152600401602060405180830381600087803b1580156122b557600080fd5b505af11580156122c9573d6000803e3d6000fd5b505050506040513d60208110156122df57600080fd5b810190808051906020019092919050505073ffffffffffffffffffffffffffffffffffffffff1673ffffffffffffffffffffffffffffffffffffffff16815260200190815260200160002060008673ffffffffffffffffffffffffffffffffffffffff1673ffffffffffffffffffffffffffffffffffffffff168152602001908152602001600020546116d890919063ffffffff16565b905080600360008673ffffffffffffffffffffffffffffffffffffffff1663323bb7756040518163ffffffff167c0100000000000000000000000000000000000000000000000000000000028152600401602060405180830381600087803b1580156123e157600080fd5b505af11580156123f5573d6000803e3d6000fd5b505050506040513d602081101561240b57600080fd5b810190808051906020019092919050505073ffffffffffffffffffffffffffffffffffffffff1673ffffffffffffffffffffffffffffffffffffffff16815260200190815260200160002060008573ffffffffffffffffffffffffffffffffffffffff1673ffffffffffffffffffffffffffffffffffffffff168152602001908152602001600020819055506124e982600160008773ffffffffffffffffffffffffffffffffffffffff1673ffffffffffffffffffffffffffffffffffffffff1681526020019081526020016000205461147590919063ffffffff16565b600160008673ffffffffffffffffffffffffffffffffffffffff1673ffffffffffffffffffffffffffffffffffffffff168152602001908152602001600020819055508273ffffffffffffffffffffffffffffffffffffffff168473ffffffffffffffffffffffffffffffffffffffff1663323bb7756040518163ffffffff167c0100000000000000000000000000000000000000000000000000000000028152600401602060405180830381600087803b1580156125a757600080fd5b505af11580156125bb573d6000803e3d6000fd5b505050506040513d60208110156125d157600080fd5b810190808051906020019092919050505073ffffffffffffffffffffffffffffffffffffffff167ff5caacab1b992b09cc130576f869129fd1275e04ea5eee86f5c0c4040f222fe1836040518082815260200191505060405180910390a350505050565b600061276482600360008773ffffffffffffffffffffffffffffffffffffffff1663323bb7756040518163ffffffff167c0100000000000000000000000000000000000000000000000000000000028152600401602060405180830381600087803b1580156126a357600080fd5b505af11580156126b7573d6000803e3d6000fd5b505050506040513d60208110156126cd57600080fd5b810190808051906020019092919050505073ffffffffffffffffffffffffffffffffffffffff1673ffffffffffffffffffffffffffffffffffffffff16815260200190815260200160002060008673ffffffffffffffffffffffffffffffffffffffff1673ffffffffffffffffffffffffffffffffffffffff1681526020019081526020016000205461147590919063ffffffff16565b905080600360008673ffffffffffffffffffffffffffffffffffffffff1663323bb7756040518163ffffffff167c0100000000000000000000000000000000000000000000000000000000028152600401602060405180830381600087803b1580156127cf57600080fd5b505af11580156127e3573d6000803e3d6000fd5b505050506040513d60208110156127f957600080fd5b810190808051906020019092919050505073ffffffffffffffffffffffffffffffffffffffff1673ffffffffffffffffffffffffffffffffffffffff16815260200190815260200160002060008573ffffffffffffffffffffffffffffffffffffffff1673ffffffffffffffffffffffffffffffffffffffff168152602001908152602001600020819055506128d782600160008773ffffffffffffffffffffffffffffffffffffffff1673ffffffffffffffffffffffffffffffffffffffff168152602001908152602001600020546116d890919063ffffffff16565b600160008673ffffffffffffffffffffffffffffffffffffffff1673ffffffffffffffffffffffffffffffffffffffff168152602001908152602001600020819055508273ffffffffffffffffffffffffffffffffffffffff168473ffffffffffffffffffffffffffffffffffffffff1663323bb7756040518163ffffffff167c0100000000000000000000000000000000000000000000000000000000028152600401602060405180830381600087803b15801561299557600080fd5b505af11580156129a9573d6000803e3d6000fd5b505050506040513d60208110156129bf57600080fd5b810190808051906020019092919050505073ffffffffffffffffffffffffffffffffffffffff167ff5caacab1b992b09cc130576f869129fd1275e04ea5eee86f5c0c4040f222fe1836040518082815260200191505060405180910390a350505050565b815481835581811115612a5057600202816002028360005260206000209182019101612a4f9190612a55565b5b505050565b612a8191905b80821115612a7d57600080820160009055600182016000905550600201612a5b565b5090565b905600a165627a7a723058201bcca9b75061e7b565ef87e5bb54135830dda363a6f228bfca97560dcb2b7ff20029",
  "source": "/*\n    Copyright 2017-2018 Phillip A. Elsasser\n\n    Licensed under the Apache License, Version 2.0 (the \"License\");\n    you may not use this file except in compliance with the License.\n    You may obtain a copy of the License at\n\n    http://www.apache.org/licenses/LICENSE-2.0\n\n    Unless required by applicable law or agreed to in writing, software\n    distributed under the License is distributed on an \"AS IS\" BASIS,\n    WITHOUT WARRANTIES OR CONDITIONS OF ANY KIND, either express or implied.\n    See the License for the specific language governing permissions and\n    limitations under the License.\n*/\n\npragma solidity ^0.4.24;\n\nimport \"./libraries/MathLib.sol\";\nimport \"./MarketContract.sol\";\n\nimport \"openzeppelin-solidity/contracts/token/ERC20/SafeERC20.sol\";\nimport \"openzeppelin-solidity/contracts/token/ERC20/ERC20.sol\";\nimport \"openzeppelin-solidity/contracts/ownership/Ownable.sol\";\n\n\n/// @title MarketCollateralPool is a contract controlled by Market Contracts.  It holds collateral balances\n/// as well as user balances and open positions.  It should be instantiated and then linked to a specific market\n/// contract factory.\n// TODO: add time lock!\n/// @author Phil Elsasser <phil@marketprotocol.io>\ncontract MarketCollateralPool is Ownable {\n    using MathLib for uint;\n    using MathLib for int;\n    using SafeERC20 for ERC20;\n\n    struct UserNetPosition {\n        Position[] positions;   // all open positions (lifo upon exit - allows us to not reindex array!)\n        int netPosition;        // net position across all prices / executions\n    }\n\n    struct Position {\n        uint price;\n        int qty;\n    }\n\n    mapping(address => uint) public contractAddressToCollateralPoolBalance;                 // current balance of all collateral committed\n    mapping(address => mapping(address => UserNetPosition)) contractAddressToUserPosition;\n\n    // stores account balances allowed to be allocated to orders\n    mapping(address => mapping(address => uint)) public tokenAddressToAccountBalance;\n    // stores account balances lock time\n    mapping(address => mapping(address => uint)) public tokenAddressToBalanceLockTime;\n\n    address public marketTradingHub;\n\n    event UpdatedUserBalance(address indexed collateralTokenAddress, address indexed user, uint balance);\n\n    constructor() public { }\n\n    /// @notice get the net position for a give user address\n    /// @param marketContractAddress MARKET Contract address to return position for\n    /// @param userAddress address to return position for\n    /// @return the users current open position.\n    function getUserNetPosition(address marketContractAddress, address userAddress) external view returns (int) {\n        return contractAddressToUserPosition[marketContractAddress][userAddress].netPosition;\n    }\n\n    /// @notice gets the number of positions currently held by this address. Useful for iterating\n    /// over the positions array in order to retrieve all users data.\n    /// @param marketContractAddress MARKET Contract address\n    /// @param userAddress address of user\n    /// @return number of open unique positions in the array.\n    function getUserPositionCount(address marketContractAddress, address userAddress) external view returns (uint) {\n        return contractAddressToUserPosition[marketContractAddress][userAddress].positions.length;\n    }\n\n    /// @notice Allows for retrieval of user position struct (since solidity cannot return the struct) we return\n    /// the data as a tuple of (uint, int) that represents (price, qty)\n    /// @param marketContractAddress MARKET Contract address\n    /// @param userAddress address of user\n    /// @param index 0 based index of position in array (older positions are lower indexes)\n    /// @return (price, qty) tuple\n    function getUserPosition(\n        address marketContractAddress,\n        address userAddress,\n        uint index\n    ) external view returns (uint, int)\n    {\n        Position storage pos = contractAddressToUserPosition[marketContractAddress][userAddress].positions[index];\n        return (pos.price, pos.qty);\n    }\n\n    /// @param collateralTokenAddress ERC20 token address\n    /// @param userAddress address of user\n    /// @return the users currently unallocated token balance\n    function getUserUnallocatedBalance(\n        address collateralTokenAddress,\n        address userAddress\n    ) external view returns (uint)\n    {\n        return tokenAddressToAccountBalance[collateralTokenAddress][userAddress];\n    }\n\n    /*\n    // EXTERNAL METHODS\n    */\n\n    /// @notice deposits tokens to the smart contract to fund the user account and provide needed tokens for collateral\n    /// pool upon trade matching.\n    /// @param collateralTokenAddress ERC20 token address\n    /// @param depositAmount qty of ERC20 tokens to deposit to the smart contract to cover open orders and collateral\n    function depositTokensForTrading(address collateralTokenAddress, uint256 depositAmount) external {\n        uint256 balanceAfterDeposit = tokenAddressToAccountBalance[collateralTokenAddress][msg.sender].add(depositAmount);\n        ERC20(collateralTokenAddress).safeTransferFrom(msg.sender, this, depositAmount);\n        tokenAddressToAccountBalance[collateralTokenAddress][msg.sender] = balanceAfterDeposit;\n        emit UpdatedUserBalance(collateralTokenAddress, msg.sender, balanceAfterDeposit);\n    }\n\n    // @notice called by a user after settlement has occurred.  This function will finalize all accounting around any\n    // outstanding positions and return all remaining collateral to the caller. This should only be called after\n    // settlement has occurred.\n    /// @param marketContractAddress address of the MARKET Contract being traded.\n    function settleAndClose(address marketContractAddress) external {\n        MarketContract marketContract = MarketContract(marketContractAddress);\n        require(marketContract.isSettled(), \"Contract is not settled\");\n        UserNetPosition storage userNetPos = contractAddressToUserPosition[marketContractAddress][msg.sender];\n        if (userNetPos.netPosition != 0) {\n            // this user has a position that we need to settle based upon the settlement price of the contract\n            reduceUserNetPosition(\n                marketContract,\n                userNetPos,\n                msg.sender,\n                userNetPos.netPosition * - 1,\n                marketContract.settlementPrice()\n            );\n        }\n\n        // transfer all balances back to user.\n        withdrawTokens(\n            marketContract.COLLATERAL_TOKEN_ADDRESS(),\n            tokenAddressToAccountBalance[marketContract.COLLATERAL_TOKEN_ADDRESS()][msg.sender]\n        );\n    }\n\n    /// @dev called by our linked trading hub when a trade occurs to update both maker and takers positions.\n    /// @param marketContractAddress address of the market contract being traded\n    /// @param maker address of the maker in the trade\n    /// @param taker address of the taker in the trade\n    /// @param qty quantity transacted between parties\n    /// @param price agreed price of the matched trade.\n    function updatePositions(\n        address marketContractAddress,\n        address maker,\n        address taker,\n        int qty,\n        uint price\n    ) external onlyTradingHub\n    {\n        MarketContract marketContract = MarketContract(marketContractAddress);\n        updatePosition(\n            marketContract,\n            maker,\n            qty,\n            price\n        );\n        // continue process for taker, but qty is opposite sign for taker\n        updatePosition(\n            marketContract,\n            taker,\n            qty * -1,\n            price\n        );\n    }\n\n    /*\n    // PUBLIC METHODS\n    */\n\n    /// @notice allows for us to set our trading hub address post deployment.\n    /// @param marketTradingHubAddress address of our linked trading hub\n    function setMarketTradingHubAddress(address marketTradingHubAddress) public onlyOwner {\n        marketTradingHub = marketTradingHubAddress;\n    }\n\n    /// @notice removes token from users trading account\n    /// @param collateralTokenAddress ERC20 token address\n    /// @param withdrawAmount qty of token to attempt to withdraw\n    function withdrawTokens(address collateralTokenAddress, uint256 withdrawAmount) public {\n        uint256 balanceAfterWithdrawal = tokenAddressToAccountBalance[collateralTokenAddress][msg.sender].subtract(\n            withdrawAmount\n        );\n\n        tokenAddressToAccountBalance[collateralTokenAddress][msg.sender] = balanceAfterWithdrawal;   // update balance before external call!\n        ERC20(collateralTokenAddress).safeTransfer(msg.sender, withdrawAmount);\n        emit UpdatedUserBalance(collateralTokenAddress, msg.sender, balanceAfterWithdrawal);\n    }\n\n    /*\n    // PRIVATE METHODS\n    */\n\n    /// @notice moves collateral from a user's account to the pool upon trade execution.\n    /// @param marketContract the MARKET Contract being traded.\n    /// @param fromAddress address of user entering trade\n    /// @param collateralAmount amount of collateral to transfer from user account to collateral pool\n    function commitCollateralToPool(\n        MarketContract marketContract,\n        address fromAddress,\n        uint collateralAmount\n    ) private\n    {\n        uint newBalance = tokenAddressToAccountBalance[marketContract.COLLATERAL_TOKEN_ADDRESS()][fromAddress].subtract(\n                collateralAmount\n        );\n\n        tokenAddressToAccountBalance[marketContract.COLLATERAL_TOKEN_ADDRESS()][fromAddress] = newBalance;\n        contractAddressToCollateralPoolBalance[marketContract] = contractAddressToCollateralPoolBalance[marketContract].add(collateralAmount);\n\n        emit UpdatedUserBalance(marketContract.COLLATERAL_TOKEN_ADDRESS(), fromAddress, newBalance);\n    }\n\n    /// @notice withdraws collateral from pool to a user account upon exit or trade settlement\n    /// @param marketContract the MARKET Contract being traded.\n    /// @param toAddress address of user\n    /// @param collateralAmount amount to transfer from pool to user.\n    function withdrawCollateralFromPool(\n        MarketContract marketContract,\n        address toAddress,\n        uint collateralAmount\n    ) private\n    {\n        uint newBalance = tokenAddressToAccountBalance[marketContract.COLLATERAL_TOKEN_ADDRESS()][toAddress].add(collateralAmount);\n        tokenAddressToAccountBalance[marketContract.COLLATERAL_TOKEN_ADDRESS()][toAddress] = newBalance;\n        contractAddressToCollateralPoolBalance[marketContract] = contractAddressToCollateralPoolBalance[marketContract].subtract(\n            collateralAmount\n        );\n\n        emit UpdatedUserBalance(marketContract.COLLATERAL_TOKEN_ADDRESS(), toAddress, newBalance);\n    }\n\n    /// @dev handles all needed internal accounting when a user enters into a new trade\n    /// @param marketContract the MARKET Contract being traded.\n    /// @param userAddress storage struct containing position information for this user\n    /// @param qty signed quantity this users position is changing by, + for buy and - for sell\n    /// @param price transacted price of the new position / trade\n    function updatePosition(\n        MarketContract marketContract,\n        address userAddress,\n        int qty,\n        uint price\n    ) private\n    {\n        UserNetPosition storage userNetPosition = contractAddressToUserPosition[marketContract][userAddress];\n        if (userNetPosition.netPosition == 0 || userNetPosition.netPosition.isSameSign(qty)) {\n            // new position or adding to open pos\n            addUserNetPosition(\n                marketContract,\n                userNetPosition,\n                userAddress,\n                qty,\n                price\n            );\n        } else {  // opposite side from open position, reduce, flattened, or flipped.\n            if (userNetPosition.netPosition.abs() >= qty.abs()) { // pos is reduced or flattened\n                reduceUserNetPosition(\n                    marketContract,\n                    userNetPosition,\n                    userAddress,\n                    qty,\n                    price\n                );\n            } else {    // pos is flipped, reduce and then create new open pos!\n                reduceUserNetPosition(\n                    marketContract,\n                    userNetPosition,\n                    userAddress,\n                    userNetPosition.netPosition * -1,\n                    price\n                ); // flatten completely\n\n                int newNetPos = userNetPosition.netPosition + qty;            // the portion remaining after flattening\n                addUserNetPosition(\n                    marketContract,\n                    userNetPosition,\n                    userAddress,\n                    newNetPos,\n                    price\n                );\n            }\n        }\n        userNetPosition.netPosition = userNetPosition.netPosition.add(qty);   // keep track of total net pos across all prices for user.\n    }\n\n    /// @dev calculates the needed collateral for a new position and commits it to the pool removing it from the\n    /// users account and creates the needed Position struct to record the new position.\n    /// @param marketContract The MARKET Contract being traded.\n    /// @param userNetPosition current positions held by user\n    /// @param userAddress address of user entering into the position\n    /// @param qty signed quantity of the trade\n    /// @param price agreed price of trade\n    function addUserNetPosition(\n        MarketContract marketContract,\n        UserNetPosition storage userNetPosition,\n        address userAddress,\n        int qty,\n        uint price\n    ) private\n    {\n        uint neededCollateral = MathLib.calculateNeededCollateral(\n            marketContract.PRICE_FLOOR(),\n            marketContract.PRICE_CAP(),\n            marketContract.QTY_MULTIPLIER(),\n            qty,\n            price\n        );\n        commitCollateralToPool(marketContract, userAddress, neededCollateral);\n        userNetPosition.positions.push(Position(price, qty));   // append array with new position\n    }\n\n    /// @dev reduces net position correctly allocating collateral back to user\n    /// @param marketContract The MARKET Contract being traded.\n    /// @param userNetPos storage struct for this users position\n    /// @param userAddress address of user who is reducing their pos\n    /// @param qty signed quantity of the qty to reduce this users position by\n    /// @param price transacted price\n    function reduceUserNetPosition(\n        MarketContract marketContract,\n        UserNetPosition storage userNetPos,\n        address userAddress,\n        int qty,\n        uint price\n    ) private\n    {\n        uint collateralToReturnToUserAccount = 0;\n        int qtyToReduce = qty;                      // note: this sign is opposite of our users position\n        assert(userNetPos.positions.length != 0);   // sanity check\n        while (qtyToReduce != 0) {   //TODO: ensure we dont run out of gas here!\n            Position storage position = userNetPos.positions[userNetPos.positions.length - 1];  // get the last pos (LIFO)\n            if (position.qty.abs() <= qtyToReduce.abs()) {   // this position is completely consumed!\n                collateralToReturnToUserAccount = collateralToReturnToUserAccount.add(\n                    MathLib.calculateNeededCollateral(\n                        marketContract.PRICE_FLOOR(),\n                        marketContract.PRICE_CAP(),\n                        marketContract.QTY_MULTIPLIER(),\n                        position.qty,\n                        price\n                    )\n                );\n                qtyToReduce = qtyToReduce.add(position.qty);\n                userNetPos.positions.length--;  // remove this position from our array.\n            } else {  // this position stays, just reduce the qty.\n                position.qty = position.qty.add(qtyToReduce);\n                // pos is opp sign of qty we are reducing here!\n                collateralToReturnToUserAccount = collateralToReturnToUserAccount.add(\n                    MathLib.calculateNeededCollateral(\n                        marketContract.PRICE_FLOOR(),\n                        marketContract.PRICE_CAP(),\n                        marketContract.QTY_MULTIPLIER(),\n                        qtyToReduce * -1,\n                        price\n                    )\n                );\n//                qtyToReduce = 0; // completely reduced now!\n                break;\n            }\n        }\n\n        if (collateralToReturnToUserAccount != 0) {  // allocate funds back to user acct.\n            withdrawCollateralFromPool(marketContract, userAddress, collateralToReturnToUserAccount);\n        }\n    }\n\n    modifier onlyTradingHub() {\n        require(msg.sender == marketTradingHub, \"Can only be called by the trading hub\");\n        _;\n    }\n}\n",
  "sourcePath": "/home/travis/build/MARKETProtocol/MARKETProtocol/contracts/MarketCollateralPool.sol",
  "compiler": {
    "name": "solc",
    "version": "0.4.24+commit.e67f0147.Emscripten.clang"
  },
  "schemaVersion": "2.0.1",
  "updatedAt": "2018-10-16T03:15:00.555Z"
}