{
  "contractName": "MarketCollateralPool",
  "abi": [
    {
      "constant": true,
      "inputs": [],
      "name": "MARKET_CONTRACT_REGISTRY",
      "outputs": [
        {
          "name": "",
          "type": "address"
        }
      ],
      "payable": false,
      "stateMutability": "view",
      "type": "function"
    },
    {
      "constant": true,
      "inputs": [],
      "name": "owner",
      "outputs": [
        {
          "name": "",
          "type": "address"
        }
      ],
      "payable": false,
      "stateMutability": "view",
      "type": "function"
    },
    {
      "constant": true,
      "inputs": [
        {
          "name": "",
          "type": "address"
        }
      ],
      "name": "contractAddressToCollateralPoolBalance",
      "outputs": [
        {
          "name": "",
          "type": "uint256"
        }
      ],
      "payable": false,
      "stateMutability": "view",
      "type": "function"
    },
    {
      "constant": false,
      "inputs": [
        {
          "name": "newOwner",
          "type": "address"
        }
      ],
      "name": "transferOwnership",
      "outputs": [],
      "payable": false,
      "stateMutability": "nonpayable",
      "type": "function"
    },
    {
      "inputs": [
        {
          "name": "marketContractRegistry",
          "type": "address"
        }
      ],
      "payable": false,
      "stateMutability": "nonpayable",
      "type": "constructor"
    },
    {
      "anonymous": false,
      "inputs": [
        {
          "indexed": true,
          "name": "marketContract",
          "type": "address"
        },
        {
          "indexed": true,
          "name": "user",
          "type": "address"
        },
        {
          "indexed": false,
          "name": "qtyMinted",
          "type": "uint256"
        },
        {
          "indexed": false,
          "name": "collateralLocked",
          "type": "uint256"
        }
      ],
      "name": "TokensMinted",
      "type": "event"
    },
    {
      "anonymous": false,
      "inputs": [
        {
          "indexed": true,
          "name": "marketContract",
          "type": "address"
        },
        {
          "indexed": true,
          "name": "user",
          "type": "address"
        },
        {
          "indexed": false,
          "name": "qtyRedeemed",
          "type": "uint256"
        },
        {
          "indexed": false,
          "name": "collateralUnlocked",
          "type": "uint256"
        },
        {
          "indexed": false,
          "name": "marketSide",
          "type": "uint8"
        }
      ],
      "name": "TokensRedeemed",
      "type": "event"
    },
    {
      "anonymous": false,
      "inputs": [
        {
          "indexed": true,
          "name": "previousOwner",
          "type": "address"
        },
        {
          "indexed": true,
          "name": "newOwner",
          "type": "address"
        }
      ],
      "name": "OwnershipTransferred",
      "type": "event"
    },
    {
      "constant": false,
      "inputs": [
        {
          "name": "marketContractAddress",
          "type": "address"
        },
        {
          "name": "qtyToMint",
          "type": "uint256"
        }
      ],
      "name": "mintPositionTokens",
      "outputs": [],
      "payable": false,
      "stateMutability": "nonpayable",
      "type": "function"
    },
    {
      "constant": false,
      "inputs": [
        {
          "name": "marketContractAddress",
          "type": "address"
        },
        {
          "name": "qtyToRedeem",
          "type": "uint256"
        }
      ],
      "name": "redeemPositionTokens",
      "outputs": [],
      "payable": false,
      "stateMutability": "nonpayable",
      "type": "function"
    },
    {
      "constant": false,
      "inputs": [
        {
          "name": "marketContractAddress",
          "type": "address"
        },
        {
          "name": "qtyToRedeem",
          "type": "int256"
        }
      ],
      "name": "settleAndClose",
      "outputs": [],
      "payable": false,
      "stateMutability": "nonpayable",
      "type": "function"
    }
  ],
  "bytecode": "0x608060405234801561001057600080fd5b50604051602080611b4383398101806040528101908080519060200190929190505050336000806101000a81548173ffffffffffffffffffffffffffffffffffffffff021916908373ffffffffffffffffffffffffffffffffffffffff16021790555080600160006101000a81548173ffffffffffffffffffffffffffffffffffffffff021916908373ffffffffffffffffffffffffffffffffffffffff16021790555050611a7f806100c46000396000f300608060405260043610610083576000357c0100000000000000000000000000000000000000000000000000000000900463ffffffff1680632239ab88146100885780632bb0d30f146100df5780638da5cb5b1461012c578063c1b2141114610183578063ca7b1b4d146101d0578063d33113d714610227578063f2fde38b14610274575b600080fd5b34801561009457600080fd5b5061009d6102b7565b604051808273ffffffffffffffffffffffffffffffffffffffff1673ffffffffffffffffffffffffffffffffffffffff16815260200191505060405180910390f35b3480156100eb57600080fd5b5061012a600480360381019080803573ffffffffffffffffffffffffffffffffffffffff169060200190929190803590602001909291905050506102dd565b005b34801561013857600080fd5b50610141610834565b604051808273ffffffffffffffffffffffffffffffffffffffff1673ffffffffffffffffffffffffffffffffffffffff16815260200191505060405180910390f35b34801561018f57600080fd5b506101ce600480360381019080803573ffffffffffffffffffffffffffffffffffffffff16906020019092919080359060200190929190505050610859565b005b3480156101dc57600080fd5b50610211600480360381019080803573ffffffffffffffffffffffffffffffffffffffff169060200190929190505050610d6e565b6040518082815260200191505060405180910390f35b34801561023357600080fd5b50610272600480360381019080803573ffffffffffffffffffffffffffffffffffffffff16906020019092919080359060200190929190505050610d86565b005b34801561028057600080fd5b506102b5600480360381019080803573ffffffffffffffffffffffffffffffffffffffff16906020019092919050505061166b565b005b600160009054906101000a900473ffffffffffffffffffffffffffffffffffffffff1681565b60008083600160009054906101000a900473ffffffffffffffffffffffffffffffffffffffff1673ffffffffffffffffffffffffffffffffffffffff1663ad23de63826040518263ffffffff167c0100000000000000000000000000000000000000000000000000000000028152600401808273ffffffffffffffffffffffffffffffffffffffff1673ffffffffffffffffffffffffffffffffffffffff168152602001915050602060405180830381600087803b15801561039e57600080fd5b505af11580156103b2573d6000803e3d6000fd5b505050506040513d60208110156103c857600080fd5b810190808051906020019092919050505015156103e457600080fd5b8492508273ffffffffffffffffffffffffffffffffffffffff16633270bb5b6040518163ffffffff167c0100000000000000000000000000000000000000000000000000000000028152600401602060405180830381600087803b15801561044b57600080fd5b505af115801561045f573d6000803e3d6000fd5b505050506040513d602081101561047557600080fd5b81019080805190602001909291905050501515156104fb576040517f08c379a000000000000000000000000000000000000000000000000000000000815260040180806020018281038252601b8152602001807f436f6e747261637420697320616c726561647920736574746c6564000000000081525060200191505060405180910390fd5b6105a3848473ffffffffffffffffffffffffffffffffffffffff1663e158e02d6040518163ffffffff167c0100000000000000000000000000000000000000000000000000000000028152600401602060405180830381600087803b15801561056357600080fd5b505af1158015610577573d6000803e3d6000fd5b505050506040513d602081101561058d57600080fd5b81019080805190602001909291905050506117c0565b91506106703330848673ffffffffffffffffffffffffffffffffffffffff1663323bb7756040518163ffffffff167c0100000000000000000000000000000000000000000000000000000000028152600401602060405180830381600087803b15801561060f57600080fd5b505af1158015610623573d6000803e3d6000fd5b505050506040513d602081101561063957600080fd5b810190808051906020019092919050505073ffffffffffffffffffffffffffffffffffffffff166117f3909392919063ffffffff16565b6106c282600260008873ffffffffffffffffffffffffffffffffffffffff1673ffffffffffffffffffffffffffffffffffffffff1681526020019081526020016000205461191390919063ffffffff16565b600260008773ffffffffffffffffffffffffffffffffffffffff1673ffffffffffffffffffffffffffffffffffffffff168152602001908152602001600020819055508273ffffffffffffffffffffffffffffffffffffffff1663cabd583485336040518363ffffffff167c0100000000000000000000000000000000000000000000000000000000028152600401808381526020018273ffffffffffffffffffffffffffffffffffffffff1673ffffffffffffffffffffffffffffffffffffffff16815260200192505050600060405180830381600087803b1580156107a857600080fd5b505af11580156107bc573d6000803e3d6000fd5b505050503373ffffffffffffffffffffffffffffffffffffffff168573ffffffffffffffffffffffffffffffffffffffff167fe456f0d575ef17126ead0c00ffd703adb3aa7b837d5b32ae967c707f804fa8678685604051808381526020018281526020019250505060405180910390a35050505050565b6000809054906101000a900473ffffffffffffffffffffffffffffffffffffffff1681565b60008083600160009054906101000a900473ffffffffffffffffffffffffffffffffffffffff1673ffffffffffffffffffffffffffffffffffffffff1663ad23de63826040518263ffffffff167c0100000000000000000000000000000000000000000000000000000000028152600401808273ffffffffffffffffffffffffffffffffffffffff1673ffffffffffffffffffffffffffffffffffffffff168152602001915050602060405180830381600087803b15801561091a57600080fd5b505af115801561092e573d6000803e3d6000fd5b505050506040513d602081101561094457600080fd5b8101908080519060200190929190505050151561096057600080fd5b8492508273ffffffffffffffffffffffffffffffffffffffff1663c25c444485336040518363ffffffff167c0100000000000000000000000000000000000000000000000000000000028152600401808381526020018273ffffffffffffffffffffffffffffffffffffffff1673ffffffffffffffffffffffffffffffffffffffff16815260200192505050600060405180830381600087803b158015610a0657600080fd5b505af1158015610a1a573d6000803e3d6000fd5b505050508273ffffffffffffffffffffffffffffffffffffffff16636d35946785336040518363ffffffff167c0100000000000000000000000000000000000000000000000000000000028152600401808381526020018273ffffffffffffffffffffffffffffffffffffffff1673ffffffffffffffffffffffffffffffffffffffff16815260200192505050600060405180830381600087803b158015610ac157600080fd5b505af1158015610ad5573d6000803e3d6000fd5b50505050610b81848473ffffffffffffffffffffffffffffffffffffffff1663e158e02d6040518163ffffffff167c0100000000000000000000000000000000000000000000000000000000028152600401602060405180830381600087803b158015610b4157600080fd5b505af1158015610b55573d6000803e3d6000fd5b505050506040513d6020811015610b6b57600080fd5b81019080805190602001909291905050506117c0565b9150610bd582600260008873ffffffffffffffffffffffffffffffffffffffff1673ffffffffffffffffffffffffffffffffffffffff1681526020019081526020016000205461193190919063ffffffff16565b600260008773ffffffffffffffffffffffffffffffffffffffff1673ffffffffffffffffffffffffffffffffffffffff16815260200190815260200160002081905550610ce133838573ffffffffffffffffffffffffffffffffffffffff1663323bb7756040518163ffffffff167c0100000000000000000000000000000000000000000000000000000000028152600401602060405180830381600087803b158015610c8157600080fd5b505af1158015610c95573d6000803e3d6000fd5b505050506040513d6020811015610cab57600080fd5b810190808051906020019092919050505073ffffffffffffffffffffffffffffffffffffffff1661194a9092919063ffffffff16565b3373ffffffffffffffffffffffffffffffffffffffff168573ffffffffffffffffffffffffffffffffffffffff167fef1e59938d06eb3085e5b0edb75940379c368e79ce2b258ef00feb49e30741228685600280811115610d3e57fe5b604051808481526020018381526020018260ff1660ff168152602001935050505060405180910390a35050505050565b60026020528060005260406000206000915090505481565b60008060008085600160009054906101000a900473ffffffffffffffffffffffffffffffffffffffff1673ffffffffffffffffffffffffffffffffffffffff1663ad23de63826040518263ffffffff167c0100000000000000000000000000000000000000000000000000000000028152600401808273ffffffffffffffffffffffffffffffffffffffff1673ffffffffffffffffffffffffffffffffffffffff168152602001915050602060405180830381600087803b158015610e4a57600080fd5b505af1158015610e5e573d6000803e3d6000fd5b505050506040513d6020811015610e7457600080fd5b81019080805190602001909291905050501515610e9057600080fd5b8694508473ffffffffffffffffffffffffffffffffffffffff16633270bb5b6040518163ffffffff167c0100000000000000000000000000000000000000000000000000000000028152600401602060405180830381600087803b158015610ef757600080fd5b505af1158015610f0b573d6000803e3d6000fd5b505050506040513d6020811015610f2157600080fd5b81019080805190602001909291905050501515610fa6576040517f08c379a00000000000000000000000000000000000000000000000000000000081526004018080602001828103825260178152602001807f436f6e7472616374206973206e6f7420736574746c656400000000000000000081525060200191505060405180910390fd5b610faf86611a35565b9250600086131561107e57600093508473ffffffffffffffffffffffffffffffffffffffff1663c25c444484336040518363ffffffff167c0100000000000000000000000000000000000000000000000000000000028152600401808381526020018273ffffffffffffffffffffffffffffffffffffffff1673ffffffffffffffffffffffffffffffffffffffff16815260200192505050600060405180830381600087803b15801561106157600080fd5b505af1158015611075573d6000803e3d6000fd5b5050505061113e565b600193508473ffffffffffffffffffffffffffffffffffffffff16636d35946784336040518363ffffffff167c0100000000000000000000000000000000000000000000000000000000028152600401808381526020018273ffffffffffffffffffffffffffffffffffffffff1673ffffffffffffffffffffffffffffffffffffffff16815260200192505050600060405180830381600087803b15801561112557600080fd5b505af1158015611139573d6000803e3d6000fd5b505050505b73__MathLib_______________________________63ed981d4f8673ffffffffffffffffffffffffffffffffffffffff1663c32b1dfa6040518163ffffffff167c0100000000000000000000000000000000000000000000000000000000028152600401602060405180830381600087803b1580156111bc57600080fd5b505af11580156111d0573d6000803e3d6000fd5b505050506040513d60208110156111e657600080fd5b81019080805190602001909291905050508773ffffffffffffffffffffffffffffffffffffffff1663b5471dee6040518163ffffffff167c0100000000000000000000000000000000000000000000000000000000028152600401602060405180830381600087803b15801561125b57600080fd5b505af115801561126f573d6000803e3d6000fd5b505050506040513d602081101561128557600080fd5b81019080805190602001909291905050508873ffffffffffffffffffffffffffffffffffffffff1663ca361d676040518163ffffffff167c0100000000000000000000000000000000000000000000000000000000028152600401602060405180830381600087803b1580156112fa57600080fd5b505af115801561130e573d6000803e3d6000fd5b505050506040513d602081101561132457600080fd5b81019080805190602001909291905050508a8a73ffffffffffffffffffffffffffffffffffffffff1663f348e8b26040518163ffffffff167c0100000000000000000000000000000000000000000000000000000000028152600401602060405180830381600087803b15801561139a57600080fd5b505af11580156113ae573d6000803e3d6000fd5b505050506040513d60208110156113c457600080fd5b81019080805190602001909291905050506040518663ffffffff167c0100000000000000000000000000000000000000000000000000000000028152600401808681526020018581526020018481526020018381526020018281526020019550505050505060206040518083038186803b15801561144157600080fd5b505af4158015611455573d6000803e3d6000fd5b505050506040513d602081101561146b57600080fd5b810190808051906020019092919050505091506114d082600260008873ffffffffffffffffffffffffffffffffffffffff1673ffffffffffffffffffffffffffffffffffffffff1681526020019081526020016000205461193190919063ffffffff16565b600260008773ffffffffffffffffffffffffffffffffffffffff1673ffffffffffffffffffffffffffffffffffffffff168152602001908152602001600020819055506115dc33838773ffffffffffffffffffffffffffffffffffffffff1663323bb7756040518163ffffffff167c0100000000000000000000000000000000000000000000000000000000028152600401602060405180830381600087803b15801561157c57600080fd5b505af1158015611590573d6000803e3d6000fd5b505050506040513d60208110156115a657600080fd5b810190808051906020019092919050505073ffffffffffffffffffffffffffffffffffffffff1661194a9092919063ffffffff16565b3373ffffffffffffffffffffffffffffffffffffffff168773ffffffffffffffffffffffffffffffffffffffff167fef1e59938d06eb3085e5b0edb75940379c368e79ce2b258ef00feb49e3074122858588600281111561163957fe5b604051808481526020018381526020018260ff1660ff168152602001935050505060405180910390a350505050505050565b6000809054906101000a900473ffffffffffffffffffffffffffffffffffffffff1673ffffffffffffffffffffffffffffffffffffffff163373ffffffffffffffffffffffffffffffffffffffff161415156116c657600080fd5b600073ffffffffffffffffffffffffffffffffffffffff168173ffffffffffffffffffffffffffffffffffffffff161415151561170257600080fd5b8073ffffffffffffffffffffffffffffffffffffffff166000809054906101000a900473ffffffffffffffffffffffffffffffffffffffff1673ffffffffffffffffffffffffffffffffffffffff167f8be0079c531659141344cd1fd0a4f28419497f9722a3daafe3b4186f6b6457e060405160405180910390a3806000806101000a81548173ffffffffffffffffffffffffffffffffffffffff021916908373ffffffffffffffffffffffffffffffffffffffff16021790555050565b600080828402905060008414806117e157508284828115156117de57fe5b04145b15156117e957fe5b8091505092915050565b8373ffffffffffffffffffffffffffffffffffffffff166323b872dd8484846040518463ffffffff167c0100000000000000000000000000000000000000000000000000000000028152600401808473ffffffffffffffffffffffffffffffffffffffff1673ffffffffffffffffffffffffffffffffffffffff1681526020018373ffffffffffffffffffffffffffffffffffffffff1673ffffffffffffffffffffffffffffffffffffffff1681526020018281526020019350505050602060405180830381600087803b1580156118ca57600080fd5b505af11580156118de573d6000803e3d6000fd5b505050506040513d60208110156118f457600080fd5b8101908080519060200190929190505050151561190d57fe5b50505050565b600080828401905083811015151561192757fe5b8091505092915050565b600082821115151561193f57fe5b818303905092915050565b8273ffffffffffffffffffffffffffffffffffffffff1663a9059cbb83836040518363ffffffff167c0100000000000000000000000000000000000000000000000000000000028152600401808373ffffffffffffffffffffffffffffffffffffffff1673ffffffffffffffffffffffffffffffffffffffff16815260200182815260200192505050602060405180830381600087803b1580156119ed57600080fd5b505af1158015611a01573d6000803e3d6000fd5b505050506040513d6020811015611a1757600080fd5b81019080805190602001909291905050501515611a3057fe5b505050565b600080821215611a4a57816000039050611a4e565b8190505b9190505600a165627a7a72305820f2a4c626750fc9add42fd0546d2a98f64711dca7cf0a078de14ecd2080d13da70029",
  "source": "/*\n    Copyright 2017-2018 Phillip A. Elsasser\n\n    Licensed under the Apache License, Version 2.0 (the \"License\");\n    you may not use this file except in compliance with the License.\n    You may obtain a copy of the License at\n\n    http://www.apache.org/licenses/LICENSE-2.0\n\n    Unless required by applicable law or agreed to in writing, software\n    distributed under the License is distributed on an \"AS IS\" BASIS,\n    WITHOUT WARRANTIES OR CONDITIONS OF ANY KIND, either express or implied.\n    See the License for the specific language governing permissions and\n    limitations under the License.\n*/\n\npragma solidity ^0.4.24;\n\nimport \"./libraries/MathLib.sol\";\nimport \"./MarketContract.sol\";\nimport \"./tokens/PositionToken.sol\";\nimport \"./MarketContractRegistryInterface.sol\";\n\nimport \"openzeppelin-solidity/contracts/token/ERC20/SafeERC20.sol\";\nimport \"openzeppelin-solidity/contracts/token/ERC20/ERC20.sol\";\nimport \"openzeppelin-solidity/contracts/ownership/Ownable.sol\";\n\n\n/// @title MarketCollateralPool\n/// @notice This collateral pool houses all of the collateral for all market contracts currently in circulation.\n/// This pool facilitates locking of collateral and minting / redemption of position tokens for that collateral.\n/// @author Phil Elsasser <phil@marketprotocol.io>\ncontract MarketCollateralPool is Ownable {\n    using MathLib for uint;\n    using MathLib for int;\n    using SafeERC20 for ERC20;\n\n    address public MARKET_CONTRACT_REGISTRY;\n    mapping(address => uint) public contractAddressToCollateralPoolBalance;                 // current balance of all collateral committed\n    enum MarketSide { Long, Short, Both}\n\n    event TokensMinted(address indexed marketContract, address indexed user, uint qtyMinted, uint collateralLocked);\n    event TokensRedeemed(address indexed marketContract, address indexed user, uint qtyRedeemed, uint collateralUnlocked, uint8 marketSide);\n\n    constructor(address marketContractRegistry) public {\n        MARKET_CONTRACT_REGISTRY = marketContractRegistry;\n    }\n\n    /*\n    // EXTERNAL METHODS\n    */\n\n    /// @notice Called by a user that would like to mint a new set of long and short token for a specified\n    /// market contract.  This will transfer and lock the correct amount of collateral into the pool\n    /// and issue them the requested qty of long and short tokens\n    /// @param marketContractAddress            address of the market contract to redeem tokens for\n    /// @param qtyToMint                      quantity of long / short tokens to mint.\n    function mintPositionTokens(\n        address marketContractAddress,\n        uint qtyToMint\n    ) external onlyWhiteListedAddress(marketContractAddress) {\n\n        MarketContract marketContract = MarketContract(marketContractAddress);\n        require(!marketContract.isSettled(), \"Contract is already settled\");\n\n        uint neededCollateral = MathLib.multiply(qtyToMint, marketContract.COLLATERAL_PER_UNIT());\n\n        // EXTERNAL CALL - transferring ERC20 tokens from sender to this contract.  User must have called\n        // ERC20.approve in order for this call to succeed.\n        ERC20(marketContract.COLLATERAL_TOKEN_ADDRESS()).safeTransferFrom(msg.sender, this, neededCollateral);\n\n        // Update the collateral pool locked balance.\n        contractAddressToCollateralPoolBalance[marketContractAddress] = contractAddressToCollateralPoolBalance[\n            marketContractAddress\n        ].add(neededCollateral);\n\n        // mint and distribute short and long position tokens to our caller\n        marketContract.mintPositionTokens(qtyToMint, msg.sender);\n\n        emit TokensMinted(marketContractAddress, msg.sender, qtyToMint, neededCollateral);\n    }\n\n    /// @notice Called by a user that currently holds both short and long position tokens and would like to redeem them\n    /// for their collateral.\n    /// @param marketContractAddress            address of the market contract to redeem tokens for\n    /// @param qtyToRedeem                      quantity of long / short tokens to redeem.\n    function redeemPositionTokens(\n        address marketContractAddress,\n        uint qtyToRedeem\n    ) external onlyWhiteListedAddress(marketContractAddress) {\n        MarketContract marketContract = MarketContract(marketContractAddress);\n\n        marketContract.redeemLongToken(qtyToRedeem, msg.sender);\n        marketContract.redeemShortToken(qtyToRedeem, msg.sender);\n\n        // calculate collateral to return and update pool balance\n        uint collateralToReturn = MathLib.multiply(qtyToRedeem, marketContract.COLLATERAL_PER_UNIT());\n        contractAddressToCollateralPoolBalance[marketContractAddress] = contractAddressToCollateralPoolBalance[\n            marketContractAddress\n        ].subtract(collateralToReturn);\n\n        // transfer collateral back to user\n        ERC20(marketContract.COLLATERAL_TOKEN_ADDRESS()).safeTransfer(msg.sender, collateralToReturn);\n\n        emit TokensRedeemed(\n            marketContractAddress,\n            msg.sender,\n            qtyToRedeem,\n            collateralToReturn,\n            uint8(MarketSide.Both)\n        );\n    }\n\n    // @notice called by a user after settlement has occurred.  This function will finalize all accounting around any\n    // outstanding positions and return all remaining collateral to the caller. This should only be called after\n    // settlement has occurred.\n    /// @param marketContractAddress address of the MARKET Contract being traded.\n    /// @param qtyToRedeem signed qtyToRedeem, positive (+) for long tokens, negative(-) for short tokens\n    function settleAndClose(\n        address marketContractAddress,\n        int qtyToRedeem\n    ) external onlyWhiteListedAddress(marketContractAddress) {\n        MarketContract marketContract = MarketContract(marketContractAddress);\n        require(marketContract.isSettled(), \"Contract is not settled\");\n\n        // burn tokens being redeemed.\n        MarketSide marketSide;\n        uint absQtyToRedeem = qtyToRedeem.abs(); // convert to a uint for non signed functions\n        if (qtyToRedeem > 0) {\n            marketSide = MarketSide.Long;\n            marketContract.redeemLongToken(absQtyToRedeem, msg.sender);\n        } else {\n            marketSide = MarketSide.Short;\n            marketContract.redeemShortToken(absQtyToRedeem, msg.sender);\n        }\n\n        // calculate amount of collateral to return and update pool balances\n        uint collateralToReturn = MathLib.calculateNeededCollateral(\n            marketContract.PRICE_FLOOR(),\n            marketContract.PRICE_CAP(),\n            marketContract.QTY_MULTIPLIER(),\n            qtyToRedeem,\n            marketContract.settlementPrice()\n        );\n\n        contractAddressToCollateralPoolBalance[marketContract] = contractAddressToCollateralPoolBalance[\n            marketContract\n        ].subtract(collateralToReturn);\n\n        // return collateral tokens\n        ERC20(marketContract.COLLATERAL_TOKEN_ADDRESS()).safeTransfer(msg.sender, collateralToReturn);\n\n        emit TokensRedeemed(\n            marketContractAddress,\n            msg.sender,\n            absQtyToRedeem,\n            collateralToReturn,\n            uint8(marketSide)\n        );\n    }\n\n    /// @notice only can be called with a market contract address that currently exists in our whitelist\n    /// this ensure's it is a market contract that has been created by us and therefore has a uniquely created\n    /// long and short token address.  If it didn't we could have spoofed contracts minting tokens with a\n    /// collateral token that wasn't the same as the intended token.\n    modifier onlyWhiteListedAddress(address marketContractAddress) {\n        require(MarketContractRegistryInterface(MARKET_CONTRACT_REGISTRY).isAddressWhiteListed(marketContractAddress));\n        _;\n    }\n}\n",
  "sourcePath": "/home/pelsasser/MARKETProtocol/contracts/MarketCollateralPool.sol",
  "compiler": {
    "name": "solc",
    "version": "0.4.24+commit.e67f0147.Emscripten.clang"
  },
  "schemaVersion": "2.0.1",
  "updatedAt": "2018-12-12T17:43:12.851Z"
}