{
  "contractName": "MathLib",
  "abi": [
    {
      "constant": true,
      "inputs": [
        {
          "name": "priceFloor",
          "type": "uint256"
        },
        {
          "name": "priceCap",
          "type": "uint256"
        },
        {
          "name": "qtyMultiplier",
          "type": "uint256"
        },
        {
          "name": "qty",
          "type": "int256"
        },
        {
          "name": "price",
          "type": "uint256"
        }
      ],
      "name": "calculateNeededCollateral",
      "outputs": [
        {
          "name": "neededCollateral",
          "type": "uint256"
        }
      ],
      "payable": false,
      "stateMutability": "pure",
      "type": "function"
    },
    {
      "constant": true,
      "inputs": [
        {
          "name": "priceFloor",
          "type": "uint256"
        },
        {
          "name": "priceCap",
          "type": "uint256"
        },
        {
          "name": "qtyMultiplier",
          "type": "uint256"
        }
      ],
      "name": "calculateTotalCollateral",
      "outputs": [
        {
          "name": "",
          "type": "uint256"
        }
      ],
      "payable": false,
      "stateMutability": "pure",
      "type": "function"
    },
    {
      "constant": true,
      "inputs": [
        {
          "name": "priceFloor",
          "type": "uint256"
        },
        {
          "name": "priceCap",
          "type": "uint256"
        },
        {
          "name": "qtyMultiplier",
          "type": "uint256"
        },
        {
          "name": "feeInBasisPoints",
          "type": "uint256"
        }
      ],
      "name": "calculateFeePerUnit",
      "outputs": [
        {
          "name": "",
          "type": "uint256"
        }
      ],
      "payable": false,
      "stateMutability": "pure",
      "type": "function"
    }
  ],
  "bytecode": "0x610309610030600b82828239805160001a6073146000811461002057610022565bfe5b5030600052607381538281f300730000000000000000000000000000000000000000301460806040526004361061006e576000357c0100000000000000000000000000000000000000000000000000000000900463ffffffff168063dab48bd914610073578063ed981d4f146100c5578063f226512c14610121575b600080fd5b6100af60048036038101908080359060200190929190803590602001909291908035906020019092919080359060200190929190505050610169565b6040518082815260200191505060405180910390f35b61010b60048036038101908080359060200190929190803590602001909291908035906020019092919080359060200190929190803590602001909291905050506101af565b6040518082815260200191505060405180910390f35b610153600480360381019080803590602001909291908035906020019092919080359060200190929190505050610226565b6040518082815260200191505060405180910390f35b60008060026101788688610244565b81151561018157fe5b04905061271061019a6101948387610265565b85610265565b8115156101a357fe5b04915050949350505050565b60008060008413156101df5786831115156101cd57600090506101da565b6101d783886102a3565b90505b6101ff565b85831015156101f157600090506101fe565b6101fb86846102a3565b90505b5b61021a6102148261020f876102bf565b610265565b86610265565b91505095945050505050565b600061023b61023584866102a3565b83610265565b90509392505050565b600080828401905083811015151561025b57600080fd5b8091505092915050565b600080600084141561027a576000915061029c565b828402905082848281151561028b57fe5b0414151561029857600080fd5b8091505b5092915050565b60008282111515156102b457600080fd5b818303905092915050565b6000808212156102d4578160000390506102d8565b8190505b9190505600a165627a7a72305820951055c332b3fef664d1cf5ee362b952eddc709a6f5909e06a4957be7651bcd00029",
  "source": "/*\n    Copyright 2017-2019 Phillip A. Elsasser\n\n    Licensed under the Apache License, Version 2.0 (the \"License\");\n    you may not use this file except in compliance with the License.\n    You may obtain a copy of the License at\n\n    http://www.apache.org/licenses/LICENSE-2.0\n\n    Unless required by applicable law or agreed to in writing, software\n    distributed under the License is distributed on an \"AS IS\" BASIS,\n    WITHOUT WARRANTIES OR CONDITIONS OF ANY KIND, either express or implied.\n    See the License for the specific language governing permissions and\n    limitations under the License.\n*/\npragma solidity 0.4.25;\n\n\n/// @title Math function library with overflow protection inspired by Open Zeppelin\nlibrary MathLib {\n\n    int256 constant INT256_MIN = int256((uint256(1) << 255));\n    int256 constant INT256_MAX = int256(~((uint256(1) << 255)));\n\n    function multiply(uint256 a, uint256 b) pure internal returns (uint256) {\n        if (a == 0) {\n            return 0;\n        }\n\n        uint256 c = a * b;\n        require(c / a == b);\n\n        return c;\n    }\n\n    function divideFractional(\n        uint256 a,\n        uint256 numerator,\n        uint256 denominator\n    ) pure internal returns (uint256)\n    {\n        return multiply(a, numerator) / denominator;\n    }\n\n    function subtract(uint256 a, uint256 b) pure internal returns (uint256) {\n        require(b <= a);\n        return a - b;\n    }\n\n    function add(uint256 a, uint256 b) pure internal returns (uint256) {\n        uint256 c = a + b;\n        require(c >= a);\n        return c;\n    }\n\n    /// @notice safely adds two signed integers ensuring that no wrap occurs\n    /// @param a value to add b to\n    /// @param b value to add to a\n    function add(int256 a, int256 b) pure internal returns (int256) {\n        int256 c = a + b;\n        if (!isSameSign(a, b)) { // result will always be smaller than current value, no wrap possible\n            return c;\n        }\n\n        if (a >= 0) { // a is positive, b must be less than MAX - a to prevent wrap\n            assert(b <= INT256_MAX - a);\n        } else { // a is negative, b must be greater than MIN - a to prevent wrap\n            assert(b >= INT256_MIN - a);\n        }\n        return c;\n    }\n\n    /// @notice safely subtracts two signed integers ensuring that no wrap occurs\n    /// @param a value to subtract b from\n    /// @param b value to subtract from a\n    function subtract(int256 a, int256 b) pure internal returns (int256) {\n        return add(a, -b); // use inverse add\n    }\n\n    /// @param a integer to determine sign of\n    /// @return int8 sign of original value, either +1,0,-1\n    function sign(int a) pure internal returns (int8) {\n        if (a > 0) {\n            return 1;\n        } else if (a < 0) {\n            return -1;\n        }\n        return 0;\n    }\n\n    /// @param a integer to compare to b\n    /// @param b integer to compare to a\n    /// @return bool true if a and b are the same sign (+/-)\n    function isSameSign(int a, int b) pure internal returns (bool) {\n        return ( a == b || a * b > 0);\n    }\n\n    /// @param a integer to determine absolute value of\n    /// @return uint non signed representation of a\n    function abs(int256 a) pure internal returns (uint256) {\n        if (a < 0) {\n            return uint(-a);\n        } else {\n            return uint(a);\n        }\n    }\n\n    /// @notice finds the value closer to zero regardless of sign\n    /// @param a integer to compare to b\n    /// @param b integer to compare to a\n    /// @return a if a is closer to zero than b - does not return abs value!\n    function absMin(int256 a, int256 b) pure internal returns (int256) {\n        return abs(a) < abs(b) ?  a : b;\n    }\n\n    /// @notice finds the value further from zero regardless of sign\n    /// @param a integer to compare to b\n    /// @param b integer to compare to a\n    /// @return a if a is further to zero than b - does not return abs value!\n    function absMax(int256 a, int256 b) pure internal returns (int256) {\n        return abs(a) >= abs(b) ?  a : b;\n    }\n\n    /// @notice determines the amount of needed collateral for a given position (qty and price)\n    /// @param priceFloor lowest price the contract is allowed to trade before expiration\n    /// @param priceCap highest price the contract is allowed to trade before expiration\n    /// @param qtyMultiplier multiplier for qty from base units\n    /// @param qty signed integer corresponding to the traded quantity\n    /// @param price of the trade\n    function calculateNeededCollateral(\n        uint priceFloor,\n        uint priceCap,\n        uint qtyMultiplier,\n        int qty,\n        uint price\n    ) pure public returns (uint neededCollateral)\n    {\n        uint maxLoss;\n        if (qty > 0) {   // this qty is long, calculate max loss from entry price to floor\n            if (price <= priceFloor) {\n                maxLoss = 0;\n            } else {\n                maxLoss = subtract(price, priceFloor);\n            }\n        } else { // this qty is short, calculate max loss from entry price to ceiling;\n            if (price >= priceCap) {\n                maxLoss = 0;\n            } else {\n                maxLoss = subtract(priceCap, price);\n            }\n        }\n        neededCollateral = multiply(multiply(maxLoss, abs(qty)),  qtyMultiplier);\n    }\n\n    /// @notice determines the amount of needed collateral for minting a long and short position token\n    function calculateTotalCollateral(\n        uint priceFloor,\n        uint priceCap,\n        uint qtyMultiplier\n    ) pure public returns (uint)\n    {\n        return multiply(subtract(priceCap, priceFloor), qtyMultiplier);\n    }\n\n    /// @notice calculates the fee in terms of base units of the collateral token per unit pair minted.\n    function calculateFeePerUnit(\n        uint priceFloor,\n        uint priceCap,\n        uint qtyMultiplier,\n        uint feeInBasisPoints\n    ) pure public returns (uint)\n    {\n        uint midPrice = add(priceCap, priceFloor) / 2;\n        return multiply(multiply(midPrice, qtyMultiplier), feeInBasisPoints) / 10000;\n    }\n}\n",
  "sourcePath": "/home/pelsasser/MARKETProtocol/contracts/libraries/MathLib.sol",
  "compiler": {
    "name": "solc",
    "version": "0.4.25+commit.59dbf8f1.Emscripten.clang"
  },
  "schemaVersion": "2.0.2",
  "updatedAt": "2019-04-02T21:49:37.080Z"
}