{
  "contractName": "MathLib",
  "abi": [
    {
      "constant": true,
      "inputs": [
        {
          "name": "priceFloor",
          "type": "uint256"
        },
        {
          "name": "priceCap",
          "type": "uint256"
        },
        {
          "name": "qtyMultiplier",
          "type": "uint256"
        },
        {
          "name": "qty",
          "type": "int256"
        },
        {
          "name": "price",
          "type": "uint256"
        }
      ],
      "name": "calculateNeededCollateral",
      "outputs": [
        {
          "name": "neededCollateral",
          "type": "uint256"
        }
      ],
      "payable": false,
      "stateMutability": "pure",
      "type": "function"
    },
    {
      "constant": true,
      "inputs": [
        {
          "name": "priceFloor",
          "type": "uint256"
        },
        {
          "name": "priceCap",
          "type": "uint256"
        },
        {
          "name": "qtyMultiplier",
          "type": "uint256"
        }
      ],
      "name": "calculateTotalCollateral",
      "outputs": [
        {
          "name": "",
          "type": "uint256"
        }
      ],
      "payable": false,
      "stateMutability": "pure",
      "type": "function"
    },
    {
      "constant": true,
      "inputs": [
        {
          "name": "priceFloor",
          "type": "uint256"
        },
        {
          "name": "priceCap",
          "type": "uint256"
        },
        {
          "name": "qtyMultiplier",
          "type": "uint256"
        },
        {
          "name": "feeInBasisPoints",
          "type": "uint256"
        }
      ],
      "name": "calculateFeePerUnit",
      "outputs": [
        {
          "name": "",
          "type": "uint256"
        }
      ],
      "payable": false,
      "stateMutability": "pure",
      "type": "function"
    }
  ],
  "bytecode": "0x604c602c600b82828239805160001a60731460008114601c57601e565bfe5b5030600052607381538281f3fe73000000000000000000000000000000000000000030146080604052600080fdfea165627a7a72305820536710891897d9bccd15308728c75a71fe41ab5a1adfc5c04519d966be053add0029",
  "deployedBytecode": "0x73000000000000000000000000000000000000000030146080604052600080fdfea165627a7a72305820536710891897d9bccd15308728c75a71fe41ab5a1adfc5c04519d966be053add0029",
  "source": "/*\n    Copyright 2017-2019 Phillip A. Elsasser\n\n    Licensed under the Apache License, Version 2.0 (the \"License\");\n    you may not use this file except in compliance with the License.\n    You may obtain a copy of the License at\n\n    http://www.apache.org/licenses/LICENSE-2.0\n\n    Unless required by applicable law or agreed to in writing, software\n    distributed under the License is distributed on an \"AS IS\" BASIS,\n    WITHOUT WARRANTIES OR CONDITIONS OF ANY KIND, either express or implied.\n    See the License for the specific language governing permissions and\n    limitations under the License.\n*/\npragma solidity 0.5.2;\n\n\n/// @title Math function library with overflow protection inspired by Open Zeppelin\nlibrary MathLib {\n\n    int256 constant INT256_MIN = int256((uint256(1) << 255));\n    int256 constant INT256_MAX = int256(~((uint256(1) << 255)));\n\n    function multiply(uint256 a, uint256 b) pure internal returns (uint256) {\n        if (a == 0) {\n            return 0;\n        }\n\n        uint256 c = a * b;\n        require(c / a == b,  \"MathLib: multiplication overflow\");\n\n        return c;\n    }\n\n    function divideFractional(\n        uint256 a,\n        uint256 numerator,\n        uint256 denominator\n    ) pure internal returns (uint256)\n    {\n        return multiply(a, numerator) / denominator;\n    }\n\n    function subtract(uint256 a, uint256 b) pure internal returns (uint256) {\n        require(b <= a, \"MathLib: subtraction overflow\");\n        return a - b;\n    }\n\n    function add(uint256 a, uint256 b) pure internal returns (uint256) {\n        uint256 c = a + b;\n        require(c >= a, \"MathLib: addition overflow\");\n        return c;\n    }\n\n    /// @notice determines the amount of needed collateral for a given position (qty and price)\n    /// @param priceFloor lowest price the contract is allowed to trade before expiration\n    /// @param priceCap highest price the contract is allowed to trade before expiration\n    /// @param qtyMultiplier multiplier for qty from base units\n    /// @param longQty qty to redeem\n    /// @param shortQty qty to redeem\n    /// @param price of the trade\n    function calculateCollateralToReturn(\n        uint priceFloor,\n        uint priceCap,\n        uint qtyMultiplier,\n        uint longQty,\n        uint shortQty,\n        uint price\n    ) pure internal returns (uint)\n    {\n        uint neededCollateral = 0;\n        uint maxLoss;\n        if (longQty > 0) {   // calculate max loss from entry price to floor\n            if (price <= priceFloor) {\n                maxLoss = 0;\n            } else {\n                maxLoss = subtract(price, priceFloor);\n            }\n            neededCollateral = multiply(multiply(maxLoss, longQty),  qtyMultiplier);\n        }\n\n        if (shortQty > 0) {  // calculate max loss from entry price to ceiling;\n            if (price >= priceCap) {\n                maxLoss = 0;\n            } else {\n                maxLoss = subtract(priceCap, price);\n            }\n            neededCollateral = add(neededCollateral, multiply(multiply(maxLoss, shortQty),  qtyMultiplier));\n        }\n        return neededCollateral;\n    }\n\n    /// @notice determines the amount of needed collateral for minting a long and short position token\n    function calculateTotalCollateral(\n        uint priceFloor,\n        uint priceCap,\n        uint qtyMultiplier\n    ) pure internal returns (uint)\n    {\n        return multiply(subtract(priceCap, priceFloor), qtyMultiplier);\n    }\n\n    /// @notice calculates the fee in terms of base units of the collateral token per unit pair minted.\n    function calculateFeePerUnit(\n        uint priceFloor,\n        uint priceCap,\n        uint qtyMultiplier,\n        uint feeInBasisPoints\n    ) pure internal returns (uint)\n    {\n        uint midPrice = add(priceCap, priceFloor) / 2;\n        return multiply(multiply(midPrice, qtyMultiplier), feeInBasisPoints) / 10000;\n    }\n}\n",
  "sourcePath": "/home/travis/build/MARKETProtocol/MARKETProtocol/contracts/libraries/MathLib.sol",
  "compiler": {
    "name": "solc",
    "version": "0.5.2+commit.1df8f40c.Emscripten.clang"
  },
  "schemaVersion": "3.0.9",
  "updatedAt": "2019-05-29T01:20:49.415Z",
  "devdoc": {
    "methods": {},
    "title": "Math function library with overflow protection inspired by Open Zeppelin"
  },
  "userdoc": {
    "methods": {}
  }
}