{
  "contractName": "OraclizeQueryTest",
  "abi": [
    {
      "constant": true,
      "inputs": [],
      "name": "QUERY_CALLBACK_GAS",
      "outputs": [
        {
          "name": "",
          "type": "uint256"
        }
      ],
      "payable": false,
      "stateMutability": "view",
      "type": "function"
    },
    {
      "inputs": [],
      "payable": false,
      "stateMutability": "nonpayable",
      "type": "constructor"
    },
    {
      "anonymous": false,
      "inputs": [
        {
          "indexed": true,
          "name": "queryIDCompleted",
          "type": "bytes32"
        }
      ],
      "name": "QueryCompleted",
      "type": "event"
    },
    {
      "anonymous": false,
      "inputs": [
        {
          "indexed": true,
          "name": "queryIDScheduled",
          "type": "bytes32"
        }
      ],
      "name": "QueryScheduled",
      "type": "event"
    },
    {
      "anonymous": false,
      "inputs": [
        {
          "indexed": false,
          "name": "value",
          "type": "uint256"
        }
      ],
      "name": "QueryPrice",
      "type": "event"
    },
    {
      "constant": false,
      "inputs": [
        {
          "name": "oracleDataSource",
          "type": "string"
        },
        {
          "name": "oracleQuery",
          "type": "string"
        }
      ],
      "name": "testOracleQuery",
      "outputs": [
        {
          "name": "",
          "type": "bytes32"
        }
      ],
      "payable": true,
      "stateMutability": "payable",
      "type": "function"
    },
    {
      "constant": true,
      "inputs": [
        {
          "name": "queryID",
          "type": "bytes32"
        }
      ],
      "name": "getQueryResults",
      "outputs": [
        {
          "name": "",
          "type": "string"
        }
      ],
      "payable": false,
      "stateMutability": "view",
      "type": "function"
    },
    {
      "constant": false,
      "inputs": [
        {
          "name": "oracleDataSource",
          "type": "string"
        }
      ],
      "name": "getQueryCost",
      "outputs": [
        {
          "name": "",
          "type": "uint256"
        }
      ],
      "payable": false,
      "stateMutability": "nonpayable",
      "type": "function"
    },
    {
      "constant": false,
      "inputs": [
        {
          "name": "myid",
          "type": "bytes32"
        },
        {
          "name": "result",
          "type": "string"
        }
      ],
      "name": "__callback",
      "outputs": [],
      "payable": false,
      "stateMutability": "nonpayable",
      "type": "function"
    },
    {
      "constant": false,
      "inputs": [
        {
          "name": "queryID",
          "type": "bytes32"
        },
        {
          "name": "result",
          "type": "string"
        },
        {
          "name": "proof",
          "type": "bytes"
        }
      ],
      "name": "__callback",
      "outputs": [],
      "payable": false,
      "stateMutability": "nonpayable",
      "type": "function"
    }
  ],
  "bytecode": "0x60806040523480156200001157600080fd5b506200007460017f01000000000000000000000000000000000000000000000000000000000000000260107f010000000000000000000000000000000000000000000000000000000000000002176200007a640100000000026401000000009004565b62000a7e565b60008060009054906101000a900473ffffffffffffffffffffffffffffffffffffffff1673ffffffffffffffffffffffffffffffffffffffff161480620000fb57506000620000f96000809054906101000a900473ffffffffffffffffffffffffffffffffffffffff166200042e640100000000026401000000009004565b145b156200011e576200011c600062000439640100000000026401000000009004565b505b6000809054906101000a900473ffffffffffffffffffffffffffffffffffffffff1673ffffffffffffffffffffffffffffffffffffffff166338cc48316040518163ffffffff167c0100000000000000000000000000000000000000000000000000000000028152600401602060405180830381600087803b158015620001a457600080fd5b505af1158015620001b9573d6000803e3d6000fd5b505050506040513d6020811015620001d057600080fd5b810190808051906020019092919050505073ffffffffffffffffffffffffffffffffffffffff16600160009054906101000a900473ffffffffffffffffffffffffffffffffffffffff1673ffffffffffffffffffffffffffffffffffffffff161415156200033c576000809054906101000a900473ffffffffffffffffffffffffffffffffffffffff1673ffffffffffffffffffffffffffffffffffffffff166338cc48316040518163ffffffff167c0100000000000000000000000000000000000000000000000000000000028152600401602060405180830381600087803b158015620002be57600080fd5b505af1158015620002d3573d6000803e3d6000fd5b505050506040513d6020811015620002ea57600080fd5b8101908080519060200190929190505050600160006101000a81548173ffffffffffffffffffffffffffffffffffffffff021916908373ffffffffffffffffffffffffffffffffffffffff1602179055505b600160009054906101000a900473ffffffffffffffffffffffffffffffffffffffff1673ffffffffffffffffffffffffffffffffffffffff1663688dcfd7826040518263ffffffff167c010000000000000000000000000000000000000000000000000000000002815260040180827effffffffffffffffffffffffffffffffffffffffffffffffffffffffffffff19167effffffffffffffffffffffffffffffffffffffffffffffffffffffffffffff19168152602001915050600060405180830381600087803b1580156200041257600080fd5b505af115801562000427573d6000803e3d6000fd5b5050505050565b6000813b9050919050565b6000620004546200045b640100000000026401000000009004565b9050919050565b6000806200048c731d3b2638a7cc9f2cb3d298a3da7a90b67e5506ed6200042e640100000000026401000000009004565b11156200054057731d3b2638a7cc9f2cb3d298a3da7a90b67e5506ed6000806101000a81548173ffffffffffffffffffffffffffffffffffffffff021916908373ffffffffffffffffffffffffffffffffffffffff160217905550620005366040805190810160405280600b81526020017f6574685f6d61696e6e6574000000000000000000000000000000000000000000815250620009b3640100000000026401000000009004565b60019050620009b0565b60006200057073c03a2615d5efaf5f49f60b7bb6583eaec212fdf16200042e640100000000026401000000009004565b1115620006245773c03a2615d5efaf5f49f60b7bb6583eaec212fdf16000806101000a81548173ffffffffffffffffffffffffffffffffffffffff021916908373ffffffffffffffffffffffffffffffffffffffff1602179055506200061a6040805190810160405280600c81526020017f6574685f726f707374656e330000000000000000000000000000000000000000815250620009b3640100000000026401000000009004565b60019050620009b0565b60006200065473b7a07bcf2ba2f2703b24c0691b5278999c59ac7e6200042e640100000000026401000000009004565b1115620007085773b7a07bcf2ba2f2703b24c0691b5278999c59ac7e6000806101000a81548173ffffffffffffffffffffffffffffffffffffffff021916908373ffffffffffffffffffffffffffffffffffffffff160217905550620006fe6040805190810160405280600981526020017f6574685f6b6f76616e0000000000000000000000000000000000000000000000815250620009b3640100000000026401000000009004565b60019050620009b0565b60006200073873146500cfd35b22e4a392fe0adc06de1a1368ed486200042e640100000000026401000000009004565b1115620007ec5773146500cfd35b22e4a392fe0adc06de1a1368ed486000806101000a81548173ffffffffffffffffffffffffffffffffffffffff021916908373ffffffffffffffffffffffffffffffffffffffff160217905550620007e26040805190810160405280600b81526020017f6574685f72696e6b656279000000000000000000000000000000000000000000815250620009b3640100000000026401000000009004565b60019050620009b0565b60006200081c736f485c8bf6fc43ea212e93bbf8ce046c7f1cb4756200042e640100000000026401000000009004565b11156200088157736f485c8bf6fc43ea212e93bbf8ce046c7f1cb4756000806101000a81548173ffffffffffffffffffffffffffffffffffffffff021916908373ffffffffffffffffffffffffffffffffffffffff16021790555060019050620009b0565b6000620008b17320e12a1f859b3feae5fb2a0a32c18f5a65555bbf6200042e640100000000026401000000009004565b111562000916577320e12a1f859b3feae5fb2a0a32c18f5a65555bbf6000806101000a81548173ffffffffffffffffffffffffffffffffffffffff021916908373ffffffffffffffffffffffffffffffffffffffff16021790555060019050620009b0565b6000620009467351efaf4c8b3c9afbd5ab9f4bbc82784ab6ef8faa6200042e640100000000026401000000009004565b1115620009ab577351efaf4c8b3c9afbd5ab9f4bbc82784ab6ef8faa6000806101000a81548173ffffffffffffffffffffffffffffffffffffffff021916908373ffffffffffffffffffffffffffffffffffffffff16021790555060019050620009b0565b600090505b90565b8060029080519060200190620009cb929190620009cf565b5050565b828054600181600116156101000203166002900490600052602060002090601f016020900481019282601f1062000a1257805160ff191683800117855562000a43565b8280016001018555821562000a43579182015b8281111562000a4257825182559160200191906001019062000a25565b5b50905062000a52919062000a56565b5090565b62000a7b91905b8082111562000a7757600081600090555060010162000a5d565b5090565b90565b61193b8062000a8e6000396000f300608060405260043610610078576000357c0100000000000000000000000000000000000000000000000000000000900463ffffffff168063191be7b71461007d57806327dc297e14610127578063340a247c1461019e57806338bbfa50146101ed578063411449bb146102aa578063416851a0146102d5575b600080fd5b34801561008957600080fd5b506100ac6004803603810190808035600019169060200190929190505050610337565b6040518080602001828103825283818151815260200191508051906020019080838360005b838110156100ec5780820151818401526020810190506100d1565b50505050905090810190601f1680156101195780820380516001836020036101000a031916815260200191505b509250505060405180910390f35b34801561013357600080fd5b5061019c6004803603810190808035600019169060200190929190803590602001908201803590602001908080601f01602080910402602001604051908101604052809392919081815260200183838082843782019150505050505091929192905050506103f4565b005b3480156101aa57600080fd5b506101d7600480360381019080803590602001908201803590602001919091929391929390505050610437565b6040518082815260200191505060405180910390f35b3480156101f957600080fd5b506102a86004803603810190808035600019169060200190929190803590602001908201803590602001908080601f0160208091040260200160405190810160405280939291908181526020018383808284378201915050505050509192919290803590602001908201803590602001908080601f0160208091040260200160405190810160405280939291908181526020018383808284378201915050505050509192919290505050610480565b005b3480156102b657600080fd5b506102bf610586565b6040518082815260200191505060405180910390f35b61031960048036038101908080359060200190820180359060200191909192939192939080359060200190820180359060200191909192939192939050505061058d565b60405180826000191660001916815260200191505060405180910390f35b60606004600083600019166000191681526020019081526020016000208054600181600116156101000203166002900480601f0160208091040260200160405190810160405280929190818152602001828054600181600116156101000203166002900480156103e85780601f106103bd576101008083540402835291602001916103e8565b820191906000526020600020905b8154815290600101906020018083116103cb57829003601f168201915b50505050509050919050565b610433828260006040519080825280601f01601f19166020018201604052801561042d5781602001602082028038833980820191505090505b50610480565b5050565b600061047883838080601f016020809104026020016040519081016040528093929190818152602001838380828437820191505050505050620249f06106df565b905092915050565b610488610ab8565b73ffffffffffffffffffffffffffffffffffffffff163373ffffffffffffffffffffffffffffffffffffffff161415156104c157600080fd5b60036000846000191660001916815260200190815260200160002060009054906101000a900460ff1615156104f557600080fd5b60036000846000191660001916815260200190815260200160002060006101000a81549060ff021916905581600460008560001916600019168152602001908152602001600020908051906020019061054f92919061186a565b5082600019167ffe22fe2071137d4bfe7c9151e4e911d37f4cfce6830f1cb8e7e81fcdbff3190f60405160405180910390a2505050565b620249f081565b60008060006105d187878080601f016020809104026020016040519081016040528093929190818152602001838380828437820191505050505050620249f06106df565b91508134101515156105e257600080fd5b61065487878080601f01602080910402602001604051908101604052809392919081815260200183838082843782019150505050505086868080601f016020809104026020016040519081016040528093929190818152602001838380828437820191505050505050620249f0610e16565b9050600060010281600019161415151561066d57600080fd5b600160036000836000191660001916815260200190815260200160002060006101000a81548160ff02191690831515021790555080600019167fe867c17b0c834e11265ca2f58a0c66869209d8333bf38fb4735b02468bee3c9460405160405180910390a28092505050949350505050565b6000806000809054906101000a900473ffffffffffffffffffffffffffffffffffffffff1673ffffffffffffffffffffffffffffffffffffffff16148061074f5750600061074d6000809054906101000a900473ffffffffffffffffffffffffffffffffffffffff166113a5565b145b156107605761075e60006113b0565b505b6000809054906101000a900473ffffffffffffffffffffffffffffffffffffffff1673ffffffffffffffffffffffffffffffffffffffff166338cc48316040518163ffffffff167c0100000000000000000000000000000000000000000000000000000000028152600401602060405180830381600087803b1580156107e557600080fd5b505af11580156107f9573d6000803e3d6000fd5b505050506040513d602081101561080f57600080fd5b810190808051906020019092919050505073ffffffffffffffffffffffffffffffffffffffff16600160009054906101000a900473ffffffffffffffffffffffffffffffffffffffff1673ffffffffffffffffffffffffffffffffffffffff16141515610977576000809054906101000a900473ffffffffffffffffffffffffffffffffffffffff1673ffffffffffffffffffffffffffffffffffffffff166338cc48316040518163ffffffff167c0100000000000000000000000000000000000000000000000000000000028152600401602060405180830381600087803b1580156108fb57600080fd5b505af115801561090f573d6000803e3d6000fd5b505050506040513d602081101561092557600080fd5b8101908080519060200190929190505050600160006101000a81548173ffffffffffffffffffffffffffffffffffffffff021916908373ffffffffffffffffffffffffffffffffffffffff1602179055505b600160009054906101000a900473ffffffffffffffffffffffffffffffffffffffff1673ffffffffffffffffffffffffffffffffffffffff16632ef3accc84846040518363ffffffff167c01000000000000000000000000000000000000000000000000000000000281526004018080602001838152602001828103825284818151815260200191508051906020019080838360005b83811015610a28578082015181840152602081019050610a0d565b50505050905090810190601f168015610a555780820380516001836020036101000a031916815260200191505b509350505050602060405180830381600087803b158015610a7557600080fd5b505af1158015610a89573d6000803e3d6000fd5b505050506040513d6020811015610a9f57600080fd5b8101908080519060200190929190505050905092915050565b6000806000809054906101000a900473ffffffffffffffffffffffffffffffffffffffff1673ffffffffffffffffffffffffffffffffffffffff161480610b2857506000610b266000809054906101000a900473ffffffffffffffffffffffffffffffffffffffff166113a5565b145b15610b3957610b3760006113b0565b505b6000809054906101000a900473ffffffffffffffffffffffffffffffffffffffff1673ffffffffffffffffffffffffffffffffffffffff166338cc48316040518163ffffffff167c0100000000000000000000000000000000000000000000000000000000028152600401602060405180830381600087803b158015610bbe57600080fd5b505af1158015610bd2573d6000803e3d6000fd5b505050506040513d6020811015610be857600080fd5b810190808051906020019092919050505073ffffffffffffffffffffffffffffffffffffffff16600160009054906101000a900473ffffffffffffffffffffffffffffffffffffffff1673ffffffffffffffffffffffffffffffffffffffff16141515610d50576000809054906101000a900473ffffffffffffffffffffffffffffffffffffffff1673ffffffffffffffffffffffffffffffffffffffff166338cc48316040518163ffffffff167c0100000000000000000000000000000000000000000000000000000000028152600401602060405180830381600087803b158015610cd457600080fd5b505af1158015610ce8573d6000803e3d6000fd5b505050506040513d6020811015610cfe57600080fd5b8101908080519060200190929190505050600160006101000a81548173ffffffffffffffffffffffffffffffffffffffff021916908373ffffffffffffffffffffffffffffffffffffffff1602179055505b600160009054906101000a900473ffffffffffffffffffffffffffffffffffffffff1673ffffffffffffffffffffffffffffffffffffffff1663c281d19e6040518163ffffffff167c0100000000000000000000000000000000000000000000000000000000028152600401602060405180830381600087803b158015610dd657600080fd5b505af1158015610dea573d6000803e3d6000fd5b505050506040513d6020811015610e0057600080fd5b8101908080519060200190929190505050905090565b60008060008060009054906101000a900473ffffffffffffffffffffffffffffffffffffffff1673ffffffffffffffffffffffffffffffffffffffff161480610e8857506000610e866000809054906101000a900473ffffffffffffffffffffffffffffffffffffffff166113a5565b145b15610e9957610e9760006113b0565b505b6000809054906101000a900473ffffffffffffffffffffffffffffffffffffffff1673ffffffffffffffffffffffffffffffffffffffff166338cc48316040518163ffffffff167c0100000000000000000000000000000000000000000000000000000000028152600401602060405180830381600087803b158015610f1e57600080fd5b505af1158015610f32573d6000803e3d6000fd5b505050506040513d6020811015610f4857600080fd5b810190808051906020019092919050505073ffffffffffffffffffffffffffffffffffffffff16600160009054906101000a900473ffffffffffffffffffffffffffffffffffffffff1673ffffffffffffffffffffffffffffffffffffffff161415156110b0576000809054906101000a900473ffffffffffffffffffffffffffffffffffffffff1673ffffffffffffffffffffffffffffffffffffffff166338cc48316040518163ffffffff167c0100000000000000000000000000000000000000000000000000000000028152600401602060405180830381600087803b15801561103457600080fd5b505af1158015611048573d6000803e3d6000fd5b505050506040513d602081101561105e57600080fd5b8101908080519060200190929190505050600160006101000a81548173ffffffffffffffffffffffffffffffffffffffff021916908373ffffffffffffffffffffffffffffffffffffffff1602179055505b600160009054906101000a900473ffffffffffffffffffffffffffffffffffffffff1673ffffffffffffffffffffffffffffffffffffffff16632ef3accc86856040518363ffffffff167c01000000000000000000000000000000000000000000000000000000000281526004018080602001838152602001828103825284818151815260200191508051906020019080838360005b83811015611161578082015181840152602081019050611146565b50505050905090810190601f16801561118e5780820380516001836020036101000a031916815260200191505b509350505050602060405180830381600087803b1580156111ae57600080fd5b505af11580156111c2573d6000803e3d6000fd5b505050506040513d60208110156111d857600080fd5b81019080805190602001909291905050509050600160009054906101000a900473ffffffffffffffffffffffffffffffffffffffff1673ffffffffffffffffffffffffffffffffffffffff1663c51be90f8260008888886040518663ffffffff167c0100000000000000000000000000000000000000000000000000000000028152600401808581526020018060200180602001848152602001838103835286818151815260200191508051906020019080838360005b838110156112aa57808201518184015260208101905061128f565b50505050905090810190601f1680156112d75780820380516001836020036101000a031916815260200191505b50838103825285818151815260200191508051906020019080838360005b838110156113105780820151818401526020810190506112f5565b50505050905090810190601f16801561133d5780820380516001836020036101000a031916815260200191505b5096505050505050506020604051808303818588803b15801561135f57600080fd5b505af1158015611373573d6000803e3d6000fd5b50505050506040513d602081101561138a57600080fd5b81019080805190602001909291905050509150509392505050565b6000813b9050919050565b60006113ba6113c1565b9050919050565b6000806113e1731d3b2638a7cc9f2cb3d298a3da7a90b67e5506ed6113a5565b111561148257731d3b2638a7cc9f2cb3d298a3da7a90b67e5506ed6000806101000a81548173ffffffffffffffffffffffffffffffffffffffff021916908373ffffffffffffffffffffffffffffffffffffffff1602179055506114796040805190810160405280600b81526020017f6574685f6d61696e6e6574000000000000000000000000000000000000000000815250611850565b6001905061184d565b60006114a173c03a2615d5efaf5f49f60b7bb6583eaec212fdf16113a5565b11156115425773c03a2615d5efaf5f49f60b7bb6583eaec212fdf16000806101000a81548173ffffffffffffffffffffffffffffffffffffffff021916908373ffffffffffffffffffffffffffffffffffffffff1602179055506115396040805190810160405280600c81526020017f6574685f726f707374656e330000000000000000000000000000000000000000815250611850565b6001905061184d565b600061156173b7a07bcf2ba2f2703b24c0691b5278999c59ac7e6113a5565b11156116025773b7a07bcf2ba2f2703b24c0691b5278999c59ac7e6000806101000a81548173ffffffffffffffffffffffffffffffffffffffff021916908373ffffffffffffffffffffffffffffffffffffffff1602179055506115f96040805190810160405280600981526020017f6574685f6b6f76616e0000000000000000000000000000000000000000000000815250611850565b6001905061184d565b600061162173146500cfd35b22e4a392fe0adc06de1a1368ed486113a5565b11156116c25773146500cfd35b22e4a392fe0adc06de1a1368ed486000806101000a81548173ffffffffffffffffffffffffffffffffffffffff021916908373ffffffffffffffffffffffffffffffffffffffff1602179055506116b96040805190810160405280600b81526020017f6574685f72696e6b656279000000000000000000000000000000000000000000815250611850565b6001905061184d565b60006116e1736f485c8bf6fc43ea212e93bbf8ce046c7f1cb4756113a5565b111561174457736f485c8bf6fc43ea212e93bbf8ce046c7f1cb4756000806101000a81548173ffffffffffffffffffffffffffffffffffffffff021916908373ffffffffffffffffffffffffffffffffffffffff1602179055506001905061184d565b60006117637320e12a1f859b3feae5fb2a0a32c18f5a65555bbf6113a5565b11156117c6577320e12a1f859b3feae5fb2a0a32c18f5a65555bbf6000806101000a81548173ffffffffffffffffffffffffffffffffffffffff021916908373ffffffffffffffffffffffffffffffffffffffff1602179055506001905061184d565b60006117e57351efaf4c8b3c9afbd5ab9f4bbc82784ab6ef8faa6113a5565b1115611848577351efaf4c8b3c9afbd5ab9f4bbc82784ab6ef8faa6000806101000a81548173ffffffffffffffffffffffffffffffffffffffff021916908373ffffffffffffffffffffffffffffffffffffffff1602179055506001905061184d565b600090505b90565b806002908051906020019061186692919061186a565b5050565b828054600181600116156101000203166002900490600052602060002090601f016020900481019282601f106118ab57805160ff19168380011785556118d9565b828001600101855582156118d9579182015b828111156118d85782518255916020019190600101906118bd565b5b5090506118e691906118ea565b5090565b61190c91905b808211156119085760008160009055506001016118f0565b5090565b905600a165627a7a7230582006f6aeba8ec22b20b6c7c315aa9846437ed653f48a285d46ac4b08dc75c9a82f0029",
  "source": "/*\n    Copyright 2017-2018 Phillip A. Elsasser\n\n    Licensed under the Apache License, Version 2.0 (the \"License\");\n    you may not use this file except in compliance with the License.\n    You may obtain a copy of the License at\n\n    http://www.apache.org/licenses/LICENSE-2.0\n\n    Unless required by applicable law or agreed to in writing, software\n    distributed under the License is distributed on an \"AS IS\" BASIS,\n    WITHOUT WARRANTIES OR CONDITIONS OF ANY KIND, either express or implied.\n    See the License for the specific language governing permissions and\n    limitations under the License.\n*/\n\npragma solidity ^0.4.24;\n\nimport \"./oraclizeAPI.sol\";\nimport \"../libraries/MathLib.sol\";\n\n\n/// @title QueryTest small contract to allow users to test query structure prior to contract deployment\n/// @author Phil Elsasser <phil@marketprotocol.io>\ncontract OraclizeQueryTest is usingOraclize {\n    using MathLib for uint;\n\n    // constants\n    uint constant public QUERY_CALLBACK_GAS = 150000;\n\n    // state variables\n    mapping(bytes32 => bool) validScheduledQueryIDs;\n    mapping(bytes32 => string) queryResults;\n\n    // events\n    event QueryCompleted(bytes32 indexed queryIDCompleted);\n    event QueryScheduled(bytes32 indexed queryIDScheduled);\n    event QueryPrice(uint value);\n\n    constructor() public {\n        oraclize_setProof(proofType_TLSNotary | proofStorage_IPFS); //set proof to match main contracts\n    }\n\n    /*\n    // PUBLIC METHODS\n    */\n\n    /// @notice allows a user to create a query and get a callback asap as to the result to ensure their query\n    /// is structured as expected\n    /// @param oracleDataSource a data-source such as \"URL\", \"WolframAlpha\", \"IPFS\"\n    /// see http://docs.oraclize.it/#ethereum-quick-start-simple-query\n    /// @param oracleQuery see http://docs.oraclize.it/#ethereum-quick-start-simple-query for examples\n    /// @return unique identifier to allow them to retrieve the query results once completed.\n    function testOracleQuery(string oracleDataSource, string oracleQuery) external payable returns (bytes32) {\n        uint cost = oraclize_getPrice(oracleDataSource, QUERY_CALLBACK_GAS);\n        require(msg.value >= cost); // user must pay enough to cover query and callback\n        bytes32 queryId = oraclize_query(\n            oracleDataSource,\n            oracleQuery,\n            QUERY_CALLBACK_GAS\n        );\n        require(queryId != 0);\n        validScheduledQueryIDs[queryId] = true;\n        emit QueryScheduled(queryId);\n        return queryId;\n    }\n\n    /// @notice allows a user to retrieve results from their test query.\n    /// @param queryID unique identifier for the query.\n    /// @return results (if any) from the query\n    function getQueryResults(bytes32 queryID) external view returns (string) {\n        return queryResults[queryID];\n    }\n\n    /// @notice allows a user to retrieve current pricing from oraclize API\n    /// @param oracleDataSource a data-source such as \"URL\", \"WolframAlpha\", \"IPFS\"\n    /// see http://docs.oraclize.it/#ethereum-quick-start-simple-query\n    /// @return cost in wei of query\n    function getQueryCost(string oracleDataSource) external returns (uint) {\n        return oraclize_getPrice(oracleDataSource, QUERY_CALLBACK_GAS);\n    }\n\n    /// @notice only public for callbacks from oraclize, do not call\n    /// @param queryID of the returning query, this should match our own internal mapping\n    /// @param result query to be processed\n    /// @param proof result proof\n    function __callback(bytes32 queryID, string result, bytes proof) public {\n        require(msg.sender == oraclize_cbAddress());\n        require(validScheduledQueryIDs[queryID]);\n        delete validScheduledQueryIDs[queryID];\n        queryResults[queryID] = result; //save result\n        emit QueryCompleted(queryID);    // fire event so user can retrieve the result.\n        proof;  // silence compiler warnings\n    }\n}\n",
  "sourcePath": "/home/pelsasser/MARKETProtocol/contracts/oraclize/OraclizeQueryTest.sol",
  "compiler": {
    "name": "solc",
    "version": "0.4.24+commit.e67f0147.Emscripten.clang"
  },
  "schemaVersion": "2.0.1",
  "updatedAt": "2018-10-05T14:03:26.614Z"
}