{
  "contractName": "OracleHubOraclize",
  "abi": [
    {
      "constant": true,
      "inputs": [
        {
          "name": "",
          "type": "bytes32"
        }
      ],
      "name": "validQueryIDs",
      "outputs": [
        {
          "name": "",
          "type": "bool"
        }
      ],
      "payable": false,
      "stateMutability": "view",
      "type": "function"
    },
    {
      "constant": true,
      "inputs": [],
      "name": "QUERY_CALLBACK_GAS",
      "outputs": [
        {
          "name": "",
          "type": "uint256"
        }
      ],
      "payable": false,
      "stateMutability": "view",
      "type": "function"
    },
    {
      "constant": true,
      "inputs": [],
      "name": "owner",
      "outputs": [
        {
          "name": "",
          "type": "address"
        }
      ],
      "payable": false,
      "stateMutability": "view",
      "type": "function"
    },
    {
      "constant": true,
      "inputs": [],
      "name": "marketContractFactoryAddress",
      "outputs": [
        {
          "name": "",
          "type": "address"
        }
      ],
      "payable": false,
      "stateMutability": "view",
      "type": "function"
    },
    {
      "constant": false,
      "inputs": [
        {
          "name": "newOwner",
          "type": "address"
        }
      ],
      "name": "transferOwnership",
      "outputs": [],
      "payable": false,
      "stateMutability": "nonpayable",
      "type": "function"
    },
    {
      "inputs": [
        {
          "name": "contractFactoryAddress",
          "type": "address"
        }
      ],
      "payable": true,
      "stateMutability": "payable",
      "type": "constructor"
    },
    {
      "anonymous": false,
      "inputs": [
        {
          "indexed": true,
          "name": "marketContract",
          "type": "address"
        },
        {
          "indexed": true,
          "name": "queryId",
          "type": "bytes32"
        }
      ],
      "name": "OraclizeQueryRequested",
      "type": "event"
    },
    {
      "anonymous": false,
      "inputs": [
        {
          "indexed": true,
          "name": "previousOwner",
          "type": "address"
        },
        {
          "indexed": true,
          "name": "newOwner",
          "type": "address"
        }
      ],
      "name": "OwnershipTransferred",
      "type": "event"
    },
    {
      "constant": false,
      "inputs": [
        {
          "name": "sendTo",
          "type": "address"
        },
        {
          "name": "amount",
          "type": "uint256"
        }
      ],
      "name": "withdrawEther",
      "outputs": [
        {
          "name": "",
          "type": "bool"
        }
      ],
      "payable": false,
      "stateMutability": "nonpayable",
      "type": "function"
    },
    {
      "constant": false,
      "inputs": [
        {
          "name": "marketContractAddress",
          "type": "address"
        }
      ],
      "name": "requestOnDemandQuery",
      "outputs": [],
      "payable": true,
      "stateMutability": "payable",
      "type": "function"
    },
    {
      "constant": false,
      "inputs": [
        {
          "name": "contractFactoryAddress",
          "type": "address"
        }
      ],
      "name": "setFactoryAddress",
      "outputs": [],
      "payable": false,
      "stateMutability": "nonpayable",
      "type": "function"
    },
    {
      "constant": false,
      "inputs": [
        {
          "name": "marketContractAddress",
          "type": "address"
        },
        {
          "name": "oracleDataSource",
          "type": "string"
        },
        {
          "name": "oracleQuery",
          "type": "string"
        },
        {
          "name": "expiration",
          "type": "uint256"
        }
      ],
      "name": "requestQuery",
      "outputs": [],
      "payable": false,
      "stateMutability": "nonpayable",
      "type": "function"
    },
    {
      "constant": false,
      "inputs": [
        {
          "name": "myid",
          "type": "bytes32"
        },
        {
          "name": "result",
          "type": "string"
        }
      ],
      "name": "__callback",
      "outputs": [],
      "payable": false,
      "stateMutability": "nonpayable",
      "type": "function"
    },
    {
      "constant": false,
      "inputs": [
        {
          "name": "queryID",
          "type": "bytes32"
        },
        {
          "name": "result",
          "type": "string"
        },
        {
          "name": "proof",
          "type": "bytes"
        }
      ],
      "name": "__callback",
      "outputs": [],
      "payable": false,
      "stateMutability": "nonpayable",
      "type": "function"
    }
  ],
  "bytecode": "0x60806040526040516020806200398d8339810180604052810190808051906020019092919050505033600360006101000a81548173ffffffffffffffffffffffffffffffffffffffff021916908373ffffffffffffffffffffffffffffffffffffffff160217905550620000ca60017f01000000000000000000000000000000000000000000000000000000000000000260107f0100000000000000000000000000000000000000000000000000000000000000021762000112640100000000026401000000009004565b80600660006101000a81548173ffffffffffffffffffffffffffffffffffffffff021916908373ffffffffffffffffffffffffffffffffffffffff1602179055505062000b16565b60008060009054906101000a900473ffffffffffffffffffffffffffffffffffffffff1673ffffffffffffffffffffffffffffffffffffffff1614806200019357506000620001916000809054906101000a900473ffffffffffffffffffffffffffffffffffffffff16620004c6640100000000026401000000009004565b145b15620001b657620001b46000620004d1640100000000026401000000009004565b505b6000809054906101000a900473ffffffffffffffffffffffffffffffffffffffff1673ffffffffffffffffffffffffffffffffffffffff166338cc48316040518163ffffffff167c0100000000000000000000000000000000000000000000000000000000028152600401602060405180830381600087803b1580156200023c57600080fd5b505af115801562000251573d6000803e3d6000fd5b505050506040513d60208110156200026857600080fd5b810190808051906020019092919050505073ffffffffffffffffffffffffffffffffffffffff16600160009054906101000a900473ffffffffffffffffffffffffffffffffffffffff1673ffffffffffffffffffffffffffffffffffffffff16141515620003d4576000809054906101000a900473ffffffffffffffffffffffffffffffffffffffff1673ffffffffffffffffffffffffffffffffffffffff166338cc48316040518163ffffffff167c0100000000000000000000000000000000000000000000000000000000028152600401602060405180830381600087803b1580156200035657600080fd5b505af11580156200036b573d6000803e3d6000fd5b505050506040513d60208110156200038257600080fd5b8101908080519060200190929190505050600160006101000a81548173ffffffffffffffffffffffffffffffffffffffff021916908373ffffffffffffffffffffffffffffffffffffffff1602179055505b600160009054906101000a900473ffffffffffffffffffffffffffffffffffffffff1673ffffffffffffffffffffffffffffffffffffffff1663688dcfd7826040518263ffffffff167c010000000000000000000000000000000000000000000000000000000002815260040180827effffffffffffffffffffffffffffffffffffffffffffffffffffffffffffff19167effffffffffffffffffffffffffffffffffffffffffffffffffffffffffffff19168152602001915050600060405180830381600087803b158015620004aa57600080fd5b505af1158015620004bf573d6000803e3d6000fd5b5050505050565b6000813b9050919050565b6000620004ec620004f3640100000000026401000000009004565b9050919050565b60008062000524731d3b2638a7cc9f2cb3d298a3da7a90b67e5506ed620004c6640100000000026401000000009004565b1115620005d857731d3b2638a7cc9f2cb3d298a3da7a90b67e5506ed6000806101000a81548173ffffffffffffffffffffffffffffffffffffffff021916908373ffffffffffffffffffffffffffffffffffffffff160217905550620005ce6040805190810160405280600b81526020017f6574685f6d61696e6e657400000000000000000000000000000000000000000081525062000a4b640100000000026401000000009004565b6001905062000a48565b60006200060873c03a2615d5efaf5f49f60b7bb6583eaec212fdf1620004c6640100000000026401000000009004565b1115620006bc5773c03a2615d5efaf5f49f60b7bb6583eaec212fdf16000806101000a81548173ffffffffffffffffffffffffffffffffffffffff021916908373ffffffffffffffffffffffffffffffffffffffff160217905550620006b26040805190810160405280600c81526020017f6574685f726f707374656e33000000000000000000000000000000000000000081525062000a4b640100000000026401000000009004565b6001905062000a48565b6000620006ec73b7a07bcf2ba2f2703b24c0691b5278999c59ac7e620004c6640100000000026401000000009004565b1115620007a05773b7a07bcf2ba2f2703b24c0691b5278999c59ac7e6000806101000a81548173ffffffffffffffffffffffffffffffffffffffff021916908373ffffffffffffffffffffffffffffffffffffffff160217905550620007966040805190810160405280600981526020017f6574685f6b6f76616e000000000000000000000000000000000000000000000081525062000a4b640100000000026401000000009004565b6001905062000a48565b6000620007d073146500cfd35b22e4a392fe0adc06de1a1368ed48620004c6640100000000026401000000009004565b1115620008845773146500cfd35b22e4a392fe0adc06de1a1368ed486000806101000a81548173ffffffffffffffffffffffffffffffffffffffff021916908373ffffffffffffffffffffffffffffffffffffffff1602179055506200087a6040805190810160405280600b81526020017f6574685f72696e6b65627900000000000000000000000000000000000000000081525062000a4b640100000000026401000000009004565b6001905062000a48565b6000620008b4736f485c8bf6fc43ea212e93bbf8ce046c7f1cb475620004c6640100000000026401000000009004565b11156200091957736f485c8bf6fc43ea212e93bbf8ce046c7f1cb4756000806101000a81548173ffffffffffffffffffffffffffffffffffffffff021916908373ffffffffffffffffffffffffffffffffffffffff1602179055506001905062000a48565b6000620009497320e12a1f859b3feae5fb2a0a32c18f5a65555bbf620004c6640100000000026401000000009004565b1115620009ae577320e12a1f859b3feae5fb2a0a32c18f5a65555bbf6000806101000a81548173ffffffffffffffffffffffffffffffffffffffff021916908373ffffffffffffffffffffffffffffffffffffffff1602179055506001905062000a48565b6000620009de7351efaf4c8b3c9afbd5ab9f4bbc82784ab6ef8faa620004c6640100000000026401000000009004565b111562000a43577351efaf4c8b3c9afbd5ab9f4bbc82784ab6ef8faa6000806101000a81548173ffffffffffffffffffffffffffffffffffffffff021916908373ffffffffffffffffffffffffffffffffffffffff1602179055506001905062000a48565b600090505b90565b806002908051906020019062000a6392919062000a67565b5050565b828054600181600116156101000203166002900490600052602060002090601f016020900481019282601f1062000aaa57805160ff191683800117855562000adb565b8280016001018555821562000adb579182015b8281111562000ada57825182559160200191906001019062000abd565b5b50905062000aea919062000aee565b5090565b62000b1391905b8082111562000b0f57600081600090555060010162000af5565b5090565b90565b612e678062000b266000396000f3006080604052600436106100af576000357c0100000000000000000000000000000000000000000000000000000000900463ffffffff1680631ada57a4146100b457806327dc297e146100fd57806338bbfa5014610174578063411449bb14610231578063522f68151461025c57806364e35bfa146102c157806383c17c55146102f75780638da5cb5b1461033a578063930a99cf14610391578063d02e9c8a146103e8578063f2fde38b14610465575b600080fd5b3480156100c057600080fd5b506100e360048036038101908080356000191690602001909291905050506104a8565b604051808215151515815260200191505060405180910390f35b34801561010957600080fd5b506101726004803603810190808035600019169060200190929190803590602001908201803590602001908080601f01602080910402602001604051908101604052809392919081815260200183838082843782019150505050505091929192905050506104c8565b005b34801561018057600080fd5b5061022f6004803603810190808035600019169060200190929190803590602001908201803590602001908080601f0160208091040260200160405190810160405280939291908181526020018383808284378201915050505050509192919290803590602001908201803590602001908080601f016020809104026020016040519081016040528093929190818152602001838380828437820191505050505050919291929050505061050b565b005b34801561023d57600080fd5b506102466108b9565b6040518082815260200191505060405180910390f35b34801561026857600080fd5b506102a7600480360381019080803573ffffffffffffffffffffffffffffffffffffffff169060200190929190803590602001909291905050506108c0565b604051808215151515815260200191505060405180910390f35b6102f5600480360381019080803573ffffffffffffffffffffffffffffffffffffffff16906020019092919050505061095b565b005b34801561030357600080fd5b50610338600480360381019080803573ffffffffffffffffffffffffffffffffffffffff169060200190929190505050610d12565b005b34801561034657600080fd5b5061034f610db2565b604051808273ffffffffffffffffffffffffffffffffffffffff1673ffffffffffffffffffffffffffffffffffffffff16815260200191505060405180910390f35b34801561039d57600080fd5b506103a6610dd8565b604051808273ffffffffffffffffffffffffffffffffffffffff1673ffffffffffffffffffffffffffffffffffffffff16815260200191505060405180910390f35b3480156103f457600080fd5b50610463600480360381019080803573ffffffffffffffffffffffffffffffffffffffff16906020019092919080359060200190820180359060200191909192939192939080359060200190820180359060200191909192939192939080359060200190929190505050610dfe565b005b34801561047157600080fd5b506104a6600480360381019080803573ffffffffffffffffffffffffffffffffffffffff1690602001909291905050506110f1565b005b60076020528060005260406000206000915054906101000a900460ff1681565b610507828260006040519080825280601f01601f1916602001820160405280156105015781602001602082028038833980820191505090505b5061050b565b5050565b610513612c57565b60008061051e611249565b73ffffffffffffffffffffffffffffffffffffffff163373ffffffffffffffffffffffffffffffffffffffff1614151561055757600080fd5b60076000876000191660001916815260200190815260200160002060009054906101000a900460ff16151561058b57600080fd5b600560008760001916600019168152602001908152602001600020606060405190810160405290816000820160009054906101000a900473ffffffffffffffffffffffffffffffffffffffff1673ffffffffffffffffffffffffffffffffffffffff1673ffffffffffffffffffffffffffffffffffffffff168152602001600182018054600181600116156101000203166002900480601f0160208091040260200160405190810160405280929190818152602001828054600181600116156101000203166002900480156106a15780601f10610676576101008083540402835291602001916106a1565b820191906000526020600020905b81548152906001019060200180831161068457829003601f168201915b50505050508152602001600282018054600181600116156101000203166002900480601f0160208091040260200160405190810160405280929190818152602001828054600181600116156101000203166002900480156107435780601f1061071857610100808354040283529160200191610743565b820191906000526020600020905b81548152906001019060200180831161072657829003601f168201915b5050505050815250509250826000015191506107fd858373ffffffffffffffffffffffffffffffffffffffff16632fed1b006040518163ffffffff167c0100000000000000000000000000000000000000000000000000000000028152600401602060405180830381600087803b1580156107bd57600080fd5b505af11580156107d1573d6000803e3d6000fd5b505050506040513d60208110156107e757600080fd5b81019080805190602001909291905050506115a7565b90508173ffffffffffffffffffffffffffffffffffffffff16636fbce940826040518263ffffffff167c010000000000000000000000000000000000000000000000000000000002815260040180828152602001915050600060405180830381600087803b15801561086e57600080fd5b505af1158015610882573d6000803e3d6000fd5b5050505060076000876000191660001916815260200190815260200160002060006101000a81549060ff0219169055505050505050565b6202710081565b6000600360009054906101000a900473ffffffffffffffffffffffffffffffffffffffff1673ffffffffffffffffffffffffffffffffffffffff163373ffffffffffffffffffffffffffffffffffffffff1614151561091e57600080fd5b8273ffffffffffffffffffffffffffffffffffffffff166108fc839081150290604051600060405180830381858888f19350505050905092915050565b6000806000600460008573ffffffffffffffffffffffffffffffffffffffff1673ffffffffffffffffffffffffffffffffffffffff1681526020019081526020016000209250610a4a836001018054600181600116156101000203166002900480601f016020809104026020016040519081016040528092919081815260200182805460018160011615610100020316600290048015610a3c5780601f10610a1157610100808354040283529160200191610a3c565b820191906000526020600020905b815481529060010190602001808311610a1f57829003601f168201915b50505050506202710061189b565b9150813410151515610a5b57600080fd5b610ba1836001018054600181600116156101000203166002900480601f016020809104026020016040519081016040528092919081815260200182805460018160011615610100020316600290048015610af65780601f10610acb57610100808354040283529160200191610af6565b820191906000526020600020905b815481529060010190602001808311610ad957829003601f168201915b5050505050846002018054600181600116156101000203166002900480601f016020809104026020016040519081016040528092919081815260200182805460018160011615610100020316600290048015610b935780601f10610b6857610100808354040283529160200191610b93565b820191906000526020600020905b815481529060010190602001808311610b7657829003601f168201915b505050505062027100611c74565b90506000600102816000191614151515610bba57600080fd5b600160076000836000191660001916815260200190815260200160002060006101000a81548160ff021916908315150217905550826005600083600019166000191681526020019081526020016000206000820160009054906101000a900473ffffffffffffffffffffffffffffffffffffffff168160000160006101000a81548173ffffffffffffffffffffffffffffffffffffffff021916908373ffffffffffffffffffffffffffffffffffffffff16021790555060018201816001019080546001816001161561010002031660029004610c98929190612c8f565b5060028201816002019080546001816001161561010002031660029004610cc0929190612c8f565b5090505080600019168473ffffffffffffffffffffffffffffffffffffffff167f1cca2e15f3ca6c1d2a953e642c1a56fe604a924d2fdef7b3014d459c6bec4d2e60405160405180910390a350505050565b600360009054906101000a900473ffffffffffffffffffffffffffffffffffffffff1673ffffffffffffffffffffffffffffffffffffffff163373ffffffffffffffffffffffffffffffffffffffff16141515610d6e57600080fd5b80600660006101000a81548173ffffffffffffffffffffffffffffffffffffffff021916908373ffffffffffffffffffffffffffffffffffffffff16021790555050565b600360009054906101000a900473ffffffffffffffffffffffffffffffffffffffff1681565b600660009054906101000a900473ffffffffffffffffffffffffffffffffffffffff1681565b600080600660009054906101000a900473ffffffffffffffffffffffffffffffffffffffff1673ffffffffffffffffffffffffffffffffffffffff163373ffffffffffffffffffffffffffffffffffffffff16141515610e5d57600080fd5b600460008973ffffffffffffffffffffffffffffffffffffffff1673ffffffffffffffffffffffffffffffffffffffff1681526020019081526020016000209150878260000160006101000a81548173ffffffffffffffffffffffffffffffffffffffff021916908373ffffffffffffffffffffffffffffffffffffffff1602179055508686836001019190610ef4929190612d16565b508484836002019190610f08929190612d16565b50610f7c8388888080601f01602080910402602001604051908101604052809392919081815260200183838082843782019150505050505087878080601f01602080910402602001604051908101604052809392919081815260200183838082843782019150505050505062027100612203565b90506000600102816000191614151515610f9557600080fd5b600160076000836000191660001916815260200190815260200160002060006101000a81548160ff021916908315150217905550816005600083600019166000191681526020019081526020016000206000820160009054906101000a900473ffffffffffffffffffffffffffffffffffffffff168160000160006101000a81548173ffffffffffffffffffffffffffffffffffffffff021916908373ffffffffffffffffffffffffffffffffffffffff16021790555060018201816001019080546001816001161561010002031660029004611073929190612c8f565b506002820181600201908054600181600116156101000203166002900461109b929190612c8f565b5090505080600019168873ffffffffffffffffffffffffffffffffffffffff167f1cca2e15f3ca6c1d2a953e642c1a56fe604a924d2fdef7b3014d459c6bec4d2e60405160405180910390a35050505050505050565b600360009054906101000a900473ffffffffffffffffffffffffffffffffffffffff1673ffffffffffffffffffffffffffffffffffffffff163373ffffffffffffffffffffffffffffffffffffffff1614151561114d57600080fd5b600073ffffffffffffffffffffffffffffffffffffffff168173ffffffffffffffffffffffffffffffffffffffff161415151561118957600080fd5b8073ffffffffffffffffffffffffffffffffffffffff16600360009054906101000a900473ffffffffffffffffffffffffffffffffffffffff1673ffffffffffffffffffffffffffffffffffffffff167f8be0079c531659141344cd1fd0a4f28419497f9722a3daafe3b4186f6b6457e060405160405180910390a380600360006101000a81548173ffffffffffffffffffffffffffffffffffffffff021916908373ffffffffffffffffffffffffffffffffffffffff16021790555050565b6000806000809054906101000a900473ffffffffffffffffffffffffffffffffffffffff1673ffffffffffffffffffffffffffffffffffffffff1614806112b9575060006112b76000809054906101000a900473ffffffffffffffffffffffffffffffffffffffff16612792565b145b156112ca576112c8600061279d565b505b6000809054906101000a900473ffffffffffffffffffffffffffffffffffffffff1673ffffffffffffffffffffffffffffffffffffffff166338cc48316040518163ffffffff167c0100000000000000000000000000000000000000000000000000000000028152600401602060405180830381600087803b15801561134f57600080fd5b505af1158015611363573d6000803e3d6000fd5b505050506040513d602081101561137957600080fd5b810190808051906020019092919050505073ffffffffffffffffffffffffffffffffffffffff16600160009054906101000a900473ffffffffffffffffffffffffffffffffffffffff1673ffffffffffffffffffffffffffffffffffffffff161415156114e1576000809054906101000a900473ffffffffffffffffffffffffffffffffffffffff1673ffffffffffffffffffffffffffffffffffffffff166338cc48316040518163ffffffff167c0100000000000000000000000000000000000000000000000000000000028152600401602060405180830381600087803b15801561146557600080fd5b505af1158015611479573d6000803e3d6000fd5b505050506040513d602081101561148f57600080fd5b8101908080519060200190929190505050600160006101000a81548173ffffffffffffffffffffffffffffffffffffffff021916908373ffffffffffffffffffffffffffffffffffffffff1602179055505b600160009054906101000a900473ffffffffffffffffffffffffffffffffffffffff1673ffffffffffffffffffffffffffffffffffffffff1663c281d19e6040518163ffffffff167c0100000000000000000000000000000000000000000000000000000000028152600401602060405180830381600087803b15801561156757600080fd5b505af115801561157b573d6000803e3d6000fd5b505050506040513d602081101561159157600080fd5b8101908080519060200190929190505050905090565b6000606060008060008693506000925060009150600090505b835181101561187c5760307f01000000000000000000000000000000000000000000000000000000000000000284828151811015156115fb57fe5b9060200101517f010000000000000000000000000000000000000000000000000000000000000090047f0100000000000000000000000000000000000000000000000000000000000000027effffffffffffffffffffffffffffffffffffffffffffffffffffffffffffff191610158015611713575060397f01000000000000000000000000000000000000000000000000000000000000000284828151811015156116a357fe5b9060200101517f010000000000000000000000000000000000000000000000000000000000000090047f0100000000000000000000000000000000000000000000000000000000000000027effffffffffffffffffffffffffffffffffffffffffffffffffffffffffffff191611155b156117c457811561173657600086141561172c5761187c565b8580600190039650505b600a830292506030848281518110151561174c57fe5b9060200101517f010000000000000000000000000000000000000000000000000000000000000090047f0100000000000000000000000000000000000000000000000000000000000000027f01000000000000000000000000000000000000000000000000000000000000009004038301925061186f565b602e7f01000000000000000000000000000000000000000000000000000000000000000284828151811015156117f657fe5b9060200101517f010000000000000000000000000000000000000000000000000000000000000090047f0100000000000000000000000000000000000000000000000000000000000000027effffffffffffffffffffffffffffffffffffffffffffffffffffffffffffff1916141561186e57600191505b5b80806001019150506115c0565b600086111561188e5785600a0a830292505b8294505050505092915050565b6000806000809054906101000a900473ffffffffffffffffffffffffffffffffffffffff1673ffffffffffffffffffffffffffffffffffffffff16148061190b575060006119096000809054906101000a900473ffffffffffffffffffffffffffffffffffffffff16612792565b145b1561191c5761191a600061279d565b505b6000809054906101000a900473ffffffffffffffffffffffffffffffffffffffff1673ffffffffffffffffffffffffffffffffffffffff166338cc48316040518163ffffffff167c0100000000000000000000000000000000000000000000000000000000028152600401602060405180830381600087803b1580156119a157600080fd5b505af11580156119b5573d6000803e3d6000fd5b505050506040513d60208110156119cb57600080fd5b810190808051906020019092919050505073ffffffffffffffffffffffffffffffffffffffff16600160009054906101000a900473ffffffffffffffffffffffffffffffffffffffff1673ffffffffffffffffffffffffffffffffffffffff16141515611b33576000809054906101000a900473ffffffffffffffffffffffffffffffffffffffff1673ffffffffffffffffffffffffffffffffffffffff166338cc48316040518163ffffffff167c0100000000000000000000000000000000000000000000000000000000028152600401602060405180830381600087803b158015611ab757600080fd5b505af1158015611acb573d6000803e3d6000fd5b505050506040513d6020811015611ae157600080fd5b8101908080519060200190929190505050600160006101000a81548173ffffffffffffffffffffffffffffffffffffffff021916908373ffffffffffffffffffffffffffffffffffffffff1602179055505b600160009054906101000a900473ffffffffffffffffffffffffffffffffffffffff1673ffffffffffffffffffffffffffffffffffffffff16632ef3accc84846040518363ffffffff167c01000000000000000000000000000000000000000000000000000000000281526004018080602001838152602001828103825284818151815260200191508051906020019080838360005b83811015611be4578082015181840152602081019050611bc9565b50505050905090810190601f168015611c115780820380516001836020036101000a031916815260200191505b509350505050602060405180830381600087803b158015611c3157600080fd5b505af1158015611c45573d6000803e3d6000fd5b505050506040513d6020811015611c5b57600080fd5b8101908080519060200190929190505050905092915050565b60008060008060009054906101000a900473ffffffffffffffffffffffffffffffffffffffff1673ffffffffffffffffffffffffffffffffffffffff161480611ce657506000611ce46000809054906101000a900473ffffffffffffffffffffffffffffffffffffffff16612792565b145b15611cf757611cf5600061279d565b505b6000809054906101000a900473ffffffffffffffffffffffffffffffffffffffff1673ffffffffffffffffffffffffffffffffffffffff166338cc48316040518163ffffffff167c0100000000000000000000000000000000000000000000000000000000028152600401602060405180830381600087803b158015611d7c57600080fd5b505af1158015611d90573d6000803e3d6000fd5b505050506040513d6020811015611da657600080fd5b810190808051906020019092919050505073ffffffffffffffffffffffffffffffffffffffff16600160009054906101000a900473ffffffffffffffffffffffffffffffffffffffff1673ffffffffffffffffffffffffffffffffffffffff16141515611f0e576000809054906101000a900473ffffffffffffffffffffffffffffffffffffffff1673ffffffffffffffffffffffffffffffffffffffff166338cc48316040518163ffffffff167c0100000000000000000000000000000000000000000000000000000000028152600401602060405180830381600087803b158015611e9257600080fd5b505af1158015611ea6573d6000803e3d6000fd5b505050506040513d6020811015611ebc57600080fd5b8101908080519060200190929190505050600160006101000a81548173ffffffffffffffffffffffffffffffffffffffff021916908373ffffffffffffffffffffffffffffffffffffffff1602179055505b600160009054906101000a900473ffffffffffffffffffffffffffffffffffffffff1673ffffffffffffffffffffffffffffffffffffffff16632ef3accc86856040518363ffffffff167c01000000000000000000000000000000000000000000000000000000000281526004018080602001838152602001828103825284818151815260200191508051906020019080838360005b83811015611fbf578082015181840152602081019050611fa4565b50505050905090810190601f168015611fec5780820380516001836020036101000a031916815260200191505b509350505050602060405180830381600087803b15801561200c57600080fd5b505af1158015612020573d6000803e3d6000fd5b505050506040513d602081101561203657600080fd5b81019080805190602001909291905050509050600160009054906101000a900473ffffffffffffffffffffffffffffffffffffffff1673ffffffffffffffffffffffffffffffffffffffff1663c51be90f8260008888886040518663ffffffff167c0100000000000000000000000000000000000000000000000000000000028152600401808581526020018060200180602001848152602001838103835286818151815260200191508051906020019080838360005b838110156121085780820151818401526020810190506120ed565b50505050905090810190601f1680156121355780820380516001836020036101000a031916815260200191505b50838103825285818151815260200191508051906020019080838360005b8381101561216e578082015181840152602081019050612153565b50505050905090810190601f16801561219b5780820380516001836020036101000a031916815260200191505b5096505050505050506020604051808303818588803b1580156121bd57600080fd5b505af11580156121d1573d6000803e3d6000fd5b50505050506040513d60208110156121e857600080fd5b81019080805190602001909291905050509150509392505050565b60008060008060009054906101000a900473ffffffffffffffffffffffffffffffffffffffff1673ffffffffffffffffffffffffffffffffffffffff161480612275575060006122736000809054906101000a900473ffffffffffffffffffffffffffffffffffffffff16612792565b145b1561228657612284600061279d565b505b6000809054906101000a900473ffffffffffffffffffffffffffffffffffffffff1673ffffffffffffffffffffffffffffffffffffffff166338cc48316040518163ffffffff167c0100000000000000000000000000000000000000000000000000000000028152600401602060405180830381600087803b15801561230b57600080fd5b505af115801561231f573d6000803e3d6000fd5b505050506040513d602081101561233557600080fd5b810190808051906020019092919050505073ffffffffffffffffffffffffffffffffffffffff16600160009054906101000a900473ffffffffffffffffffffffffffffffffffffffff1673ffffffffffffffffffffffffffffffffffffffff1614151561249d576000809054906101000a900473ffffffffffffffffffffffffffffffffffffffff1673ffffffffffffffffffffffffffffffffffffffff166338cc48316040518163ffffffff167c0100000000000000000000000000000000000000000000000000000000028152600401602060405180830381600087803b15801561242157600080fd5b505af1158015612435573d6000803e3d6000fd5b505050506040513d602081101561244b57600080fd5b8101908080519060200190929190505050600160006101000a81548173ffffffffffffffffffffffffffffffffffffffff021916908373ffffffffffffffffffffffffffffffffffffffff1602179055505b600160009054906101000a900473ffffffffffffffffffffffffffffffffffffffff1673ffffffffffffffffffffffffffffffffffffffff16632ef3accc86856040518363ffffffff167c01000000000000000000000000000000000000000000000000000000000281526004018080602001838152602001828103825284818151815260200191508051906020019080838360005b8381101561254e578082015181840152602081019050612533565b50505050905090810190601f16801561257b5780820380516001836020036101000a031916815260200191505b509350505050602060405180830381600087803b15801561259b57600080fd5b505af11580156125af573d6000803e3d6000fd5b505050506040513d60208110156125c557600080fd5b81019080805190602001909291905050509050600160009054906101000a900473ffffffffffffffffffffffffffffffffffffffff1673ffffffffffffffffffffffffffffffffffffffff1663c51be90f82888888886040518663ffffffff167c0100000000000000000000000000000000000000000000000000000000028152600401808581526020018060200180602001848152602001838103835286818151815260200191508051906020019080838360005b8381101561269657808201518184015260208101905061267b565b50505050905090810190601f1680156126c35780820380516001836020036101000a031916815260200191505b50838103825285818151815260200191508051906020019080838360005b838110156126fc5780820151818401526020810190506126e1565b50505050905090810190601f1680156127295780820380516001836020036101000a031916815260200191505b5096505050505050506020604051808303818588803b15801561274b57600080fd5b505af115801561275f573d6000803e3d6000fd5b50505050506040513d602081101561277657600080fd5b8101908080519060200190929190505050915050949350505050565b6000813b9050919050565b60006127a76127ae565b9050919050565b6000806127ce731d3b2638a7cc9f2cb3d298a3da7a90b67e5506ed612792565b111561286f57731d3b2638a7cc9f2cb3d298a3da7a90b67e5506ed6000806101000a81548173ffffffffffffffffffffffffffffffffffffffff021916908373ffffffffffffffffffffffffffffffffffffffff1602179055506128666040805190810160405280600b81526020017f6574685f6d61696e6e6574000000000000000000000000000000000000000000815250612c3d565b60019050612c3a565b600061288e73c03a2615d5efaf5f49f60b7bb6583eaec212fdf1612792565b111561292f5773c03a2615d5efaf5f49f60b7bb6583eaec212fdf16000806101000a81548173ffffffffffffffffffffffffffffffffffffffff021916908373ffffffffffffffffffffffffffffffffffffffff1602179055506129266040805190810160405280600c81526020017f6574685f726f707374656e330000000000000000000000000000000000000000815250612c3d565b60019050612c3a565b600061294e73b7a07bcf2ba2f2703b24c0691b5278999c59ac7e612792565b11156129ef5773b7a07bcf2ba2f2703b24c0691b5278999c59ac7e6000806101000a81548173ffffffffffffffffffffffffffffffffffffffff021916908373ffffffffffffffffffffffffffffffffffffffff1602179055506129e66040805190810160405280600981526020017f6574685f6b6f76616e0000000000000000000000000000000000000000000000815250612c3d565b60019050612c3a565b6000612a0e73146500cfd35b22e4a392fe0adc06de1a1368ed48612792565b1115612aaf5773146500cfd35b22e4a392fe0adc06de1a1368ed486000806101000a81548173ffffffffffffffffffffffffffffffffffffffff021916908373ffffffffffffffffffffffffffffffffffffffff160217905550612aa66040805190810160405280600b81526020017f6574685f72696e6b656279000000000000000000000000000000000000000000815250612c3d565b60019050612c3a565b6000612ace736f485c8bf6fc43ea212e93bbf8ce046c7f1cb475612792565b1115612b3157736f485c8bf6fc43ea212e93bbf8ce046c7f1cb4756000806101000a81548173ffffffffffffffffffffffffffffffffffffffff021916908373ffffffffffffffffffffffffffffffffffffffff16021790555060019050612c3a565b6000612b507320e12a1f859b3feae5fb2a0a32c18f5a65555bbf612792565b1115612bb3577320e12a1f859b3feae5fb2a0a32c18f5a65555bbf6000806101000a81548173ffffffffffffffffffffffffffffffffffffffff021916908373ffffffffffffffffffffffffffffffffffffffff16021790555060019050612c3a565b6000612bd27351efaf4c8b3c9afbd5ab9f4bbc82784ab6ef8faa612792565b1115612c35577351efaf4c8b3c9afbd5ab9f4bbc82784ab6ef8faa6000806101000a81548173ffffffffffffffffffffffffffffffffffffffff021916908373ffffffffffffffffffffffffffffffffffffffff16021790555060019050612c3a565b600090505b90565b8060029080519060200190612c53929190612d96565b5050565b606060405190810160405280600073ffffffffffffffffffffffffffffffffffffffff16815260200160608152602001606081525090565b828054600181600116156101000203166002900490600052602060002090601f016020900481019282601f10612cc85780548555612d05565b82800160010185558215612d0557600052602060002091601f016020900482015b82811115612d04578254825591600101919060010190612ce9565b5b509050612d129190612e16565b5090565b828054600181600116156101000203166002900490600052602060002090601f016020900481019282601f10612d5757803560ff1916838001178555612d85565b82800160010185558215612d85579182015b82811115612d84578235825591602001919060010190612d69565b5b509050612d929190612e16565b5090565b828054600181600116156101000203166002900490600052602060002090601f016020900481019282601f10612dd757805160ff1916838001178555612e05565b82800160010185558215612e05579182015b82811115612e04578251825591602001919060010190612de9565b5b509050612e129190612e16565b5090565b612e3891905b80821115612e34576000816000905550600101612e1c565b5090565b905600a165627a7a7230582049438fc2669f201cccf2d969a658bee0bdf3395502afb72ec460c2f479547ab10029",
  "source": "/*\n    Copyright 2017-2018 Phillip A. Elsasser\n\n    Licensed under the Apache License, Version 2.0 (the \"License\");\n    you may not use this file except in compliance with the License.\n    You may obtain a copy of the License at\n\n    http://www.apache.org/licenses/LICENSE-2.0\n\n    Unless required by applicable law or agreed to in writing, software\n    distributed under the License is distributed on an \"AS IS\" BASIS,\n    WITHOUT WARRANTIES OR CONDITIONS OF ANY KIND, either express or implied.\n    See the License for the specific language governing permissions and\n    limitations under the License.\n*/\n\npragma solidity ^0.4.24;\n\nimport \"./MarketContractOraclize.sol\";\nimport \"./oraclizeAPI.sol\";\nimport \"openzeppelin-solidity/contracts/ownership/Ownable.sol\";\n\ncontract OracleHubOraclize is usingOraclize, Ownable {\n\n    mapping(address => OraclizeQuery) contractAddressToOraclizeQuery;\n    mapping(bytes32 => OraclizeQuery) queryIDToOraclizeQuery;\n    address public marketContractFactoryAddress;\n    mapping(bytes32 => bool) public validQueryIDs;\n    uint constant public QUERY_CALLBACK_GAS = 160000;\n\n    /// @dev all needed pieces of an oraclize query.\n    struct OraclizeQuery {\n        address marketContractAddress;\n        string dataSource;\n        string query;\n    }\n\n    event OraclizeQueryRequested(address indexed marketContract, bytes32 indexed queryId);\n\n    /// @dev creates our OracleHub\n    /// @param contractFactoryAddress       address of our MarketContractFactory\n    constructor(address contractFactoryAddress) public payable {\n        oraclize_setProof(proofType_TLSNotary | proofStorage_IPFS);\n        marketContractFactoryAddress = contractFactoryAddress;\n    }\n\n    /*\n    // EXTERNAL METHODS\n    */\n\n    /// @dev allows us to withdraw eth as the owner of this contract\n    /// @param sendTo       address of where to send ETH\n    /// @param amount       amount of ETH (in baseUnits)\n    function withdrawEther(address sendTo, uint256 amount) external onlyOwner returns (bool) {\n        return sendTo.send(amount);\n    }\n\n    /// @notice allows a user to request an extra query to oracle in order to push the contract into\n    /// settlement.  A user may call this as many times as they like, since they are the ones paying for\n    /// the call to our oracle and post processing. This is useful for both a failsafe and as a way to\n    /// settle a contract early if a price cap or floor has been breached.\n    function requestOnDemandQuery(address marketContractAddress) external payable {\n        OraclizeQuery storage oraclizeQuery = contractAddressToOraclizeQuery[marketContractAddress];\n        uint cost = oraclize_getPrice(oraclizeQuery.dataSource, QUERY_CALLBACK_GAS);\n        require(msg.value >= cost); // user must pay enough to cover query and callback\n\n        bytes32 queryId = oraclize_query(\n            oraclizeQuery.dataSource,\n            oraclizeQuery.query,\n            QUERY_CALLBACK_GAS\n        );\n\n        require(queryId != 0);\n        validQueryIDs[queryId] = true;\n        queryIDToOraclizeQuery[queryId] = oraclizeQuery;\n        emit OraclizeQueryRequested(marketContractAddress, queryId);\n    }\n\n\n    /// @dev allows for the owner to set a factory address that is then allowed the priviledge of creating\n    /// queries.\n    function setFactoryAddress(address contractFactoryAddress) external onlyOwner {\n        marketContractFactoryAddress = contractFactoryAddress;\n    }\n\n    /// @dev called by our factory to create the needed initial query for a new MarketContract\n    /// @param marketContractAddress - address of the newly created MarketContract\n    /// @param oracleDataSource a data-source such as \"URL\", \"WolframAlpha\", \"IPFS\"\n    /// see http://docs.oraclize.it/#ethereum-quick-start-simple-query\n    /// @param oracleQuery see http://docs.oraclize.it/#ethereum-quick-start-simple-query for examples\n    function requestQuery(\n        address marketContractAddress,\n        string oracleDataSource,\n        string oracleQuery,\n        uint expiration\n    ) external onlyFactory\n    {\n        OraclizeQuery storage oraclizeQuery = contractAddressToOraclizeQuery[marketContractAddress];\n        oraclizeQuery.marketContractAddress = marketContractAddress;\n        oraclizeQuery.dataSource = oracleDataSource;\n        oraclizeQuery.query = oracleQuery;\n\n        bytes32 queryId = oraclize_query(\n            expiration,\n            oracleDataSource,\n            oracleQuery,\n            QUERY_CALLBACK_GAS\n        );\n\n        require(queryId != 0);\n        validQueryIDs[queryId] = true;\n        queryIDToOraclizeQuery[queryId] = oraclizeQuery;  // save query struct for later recall on callback.\n        emit OraclizeQueryRequested(marketContractAddress, queryId);\n    }\n\n    /// @notice only public for callbacks from oraclize, do not call\n    /// @param queryID of the returning query, this should match our own internal mapping\n    /// @param result query to be processed\n    /// @param proof result proof\n    function __callback(bytes32 queryID, string result, bytes proof) public {\n        require(msg.sender == oraclize_cbAddress());\n        require(validQueryIDs[queryID]);  // At expiration or early settlement.\n\n        OraclizeQuery memory oraclizeQuery = queryIDToOraclizeQuery[queryID];\n        MarketContractOraclize marketContract = MarketContractOraclize(oraclizeQuery.marketContractAddress);\n        uint price = parseInt(result, marketContract.PRICE_DECIMAL_PLACES());\n        marketContract.oracleCallBack(price);\n\n        delete validQueryIDs[queryID];\n        proof;  // silence compiler warnings\n    }\n\n    /*\n    // MODIFIERS\n    */\n\n    /// @dev only callable by the designated factory!\n    modifier onlyFactory() {\n        require(msg.sender == marketContractFactoryAddress);\n        _;\n    }\n}\n",
  "sourcePath": "/home/pelsasser/MARKETProtocol/contracts/oraclize/OracleHubOraclize.sol",
  "compiler": {
    "name": "solc",
    "version": "0.4.24+commit.e67f0147.Emscripten.clang"
  },
  "schemaVersion": "2.0.1",
  "updatedAt": "2018-12-12T17:43:12.861Z"
}