{
  "contractName": "OracleHubOraclize",
  "abi": [
    {
      "constant": true,
      "inputs": [
        {
          "name": "",
          "type": "bytes32"
        }
      ],
      "name": "validQueryIDs",
      "outputs": [
        {
          "name": "",
          "type": "bool"
        }
      ],
      "payable": false,
      "stateMutability": "view",
      "type": "function"
    },
    {
      "constant": true,
      "inputs": [],
      "name": "QUERY_CALLBACK_GAS",
      "outputs": [
        {
          "name": "",
          "type": "uint256"
        }
      ],
      "payable": false,
      "stateMutability": "view",
      "type": "function"
    },
    {
      "constant": true,
      "inputs": [],
      "name": "owner",
      "outputs": [
        {
          "name": "",
          "type": "address"
        }
      ],
      "payable": false,
      "stateMutability": "view",
      "type": "function"
    },
    {
      "constant": true,
      "inputs": [],
      "name": "marketContractFactoryAddress",
      "outputs": [
        {
          "name": "",
          "type": "address"
        }
      ],
      "payable": false,
      "stateMutability": "view",
      "type": "function"
    },
    {
      "constant": false,
      "inputs": [
        {
          "name": "newOwner",
          "type": "address"
        }
      ],
      "name": "transferOwnership",
      "outputs": [],
      "payable": false,
      "stateMutability": "nonpayable",
      "type": "function"
    },
    {
      "inputs": [
        {
          "name": "contractFactoryAddress",
          "type": "address"
        }
      ],
      "payable": true,
      "stateMutability": "payable",
      "type": "constructor"
    },
    {
      "anonymous": false,
      "inputs": [
        {
          "indexed": true,
          "name": "marketContract",
          "type": "address"
        },
        {
          "indexed": true,
          "name": "queryId",
          "type": "bytes32"
        }
      ],
      "name": "OraclizeQueryRequested",
      "type": "event"
    },
    {
      "anonymous": false,
      "inputs": [
        {
          "indexed": true,
          "name": "previousOwner",
          "type": "address"
        },
        {
          "indexed": true,
          "name": "newOwner",
          "type": "address"
        }
      ],
      "name": "OwnershipTransferred",
      "type": "event"
    },
    {
      "constant": false,
      "inputs": [
        {
          "name": "sendTo",
          "type": "address"
        },
        {
          "name": "amount",
          "type": "uint256"
        }
      ],
      "name": "withdrawEther",
      "outputs": [
        {
          "name": "",
          "type": "bool"
        }
      ],
      "payable": false,
      "stateMutability": "nonpayable",
      "type": "function"
    },
    {
      "constant": false,
      "inputs": [
        {
          "name": "marketContractAddress",
          "type": "address"
        }
      ],
      "name": "requestOnDemandQuery",
      "outputs": [],
      "payable": true,
      "stateMutability": "payable",
      "type": "function"
    },
    {
      "constant": false,
      "inputs": [
        {
          "name": "contractFactoryAddress",
          "type": "address"
        }
      ],
      "name": "setFactoryAddress",
      "outputs": [],
      "payable": false,
      "stateMutability": "nonpayable",
      "type": "function"
    },
    {
      "constant": false,
      "inputs": [
        {
          "name": "marketContractAddress",
          "type": "address"
        },
        {
          "name": "oracleDataSource",
          "type": "string"
        },
        {
          "name": "oracleQuery",
          "type": "string"
        },
        {
          "name": "expiration",
          "type": "uint256"
        }
      ],
      "name": "requestQuery",
      "outputs": [],
      "payable": false,
      "stateMutability": "nonpayable",
      "type": "function"
    },
    {
      "constant": false,
      "inputs": [
        {
          "name": "myid",
          "type": "bytes32"
        },
        {
          "name": "result",
          "type": "string"
        }
      ],
      "name": "__callback",
      "outputs": [],
      "payable": false,
      "stateMutability": "nonpayable",
      "type": "function"
    },
    {
      "constant": false,
      "inputs": [
        {
          "name": "queryID",
          "type": "bytes32"
        },
        {
          "name": "result",
          "type": "string"
        },
        {
          "name": "proof",
          "type": "bytes"
        }
      ],
      "name": "__callback",
      "outputs": [],
      "payable": false,
      "stateMutability": "nonpayable",
      "type": "function"
    }
  ],
  "bytecode": "0x6080604052604051602080620039f68339810180604052810190808051906020019092919050505033600360006101000a81548173ffffffffffffffffffffffffffffffffffffffff021916908373ffffffffffffffffffffffffffffffffffffffff160217905550620000ca60017f01000000000000000000000000000000000000000000000000000000000000000260107f0100000000000000000000000000000000000000000000000000000000000000021762000112640100000000026401000000009004565b80600660006101000a81548173ffffffffffffffffffffffffffffffffffffffff021916908373ffffffffffffffffffffffffffffffffffffffff1602179055505062000b16565b60008060009054906101000a900473ffffffffffffffffffffffffffffffffffffffff1673ffffffffffffffffffffffffffffffffffffffff1614806200019357506000620001916000809054906101000a900473ffffffffffffffffffffffffffffffffffffffff16620004c6640100000000026401000000009004565b145b15620001b657620001b46000620004d1640100000000026401000000009004565b505b6000809054906101000a900473ffffffffffffffffffffffffffffffffffffffff1673ffffffffffffffffffffffffffffffffffffffff166338cc48316040518163ffffffff167c0100000000000000000000000000000000000000000000000000000000028152600401602060405180830381600087803b1580156200023c57600080fd5b505af115801562000251573d6000803e3d6000fd5b505050506040513d60208110156200026857600080fd5b810190808051906020019092919050505073ffffffffffffffffffffffffffffffffffffffff16600160009054906101000a900473ffffffffffffffffffffffffffffffffffffffff1673ffffffffffffffffffffffffffffffffffffffff16141515620003d4576000809054906101000a900473ffffffffffffffffffffffffffffffffffffffff1673ffffffffffffffffffffffffffffffffffffffff166338cc48316040518163ffffffff167c0100000000000000000000000000000000000000000000000000000000028152600401602060405180830381600087803b1580156200035657600080fd5b505af11580156200036b573d6000803e3d6000fd5b505050506040513d60208110156200038257600080fd5b8101908080519060200190929190505050600160006101000a81548173ffffffffffffffffffffffffffffffffffffffff021916908373ffffffffffffffffffffffffffffffffffffffff1602179055505b600160009054906101000a900473ffffffffffffffffffffffffffffffffffffffff1673ffffffffffffffffffffffffffffffffffffffff1663688dcfd7826040518263ffffffff167c010000000000000000000000000000000000000000000000000000000002815260040180827effffffffffffffffffffffffffffffffffffffffffffffffffffffffffffff19167effffffffffffffffffffffffffffffffffffffffffffffffffffffffffffff19168152602001915050600060405180830381600087803b158015620004aa57600080fd5b505af1158015620004bf573d6000803e3d6000fd5b5050505050565b6000813b9050919050565b6000620004ec620004f3640100000000026401000000009004565b9050919050565b60008062000524731d3b2638a7cc9f2cb3d298a3da7a90b67e5506ed620004c6640100000000026401000000009004565b1115620005d857731d3b2638a7cc9f2cb3d298a3da7a90b67e5506ed6000806101000a81548173ffffffffffffffffffffffffffffffffffffffff021916908373ffffffffffffffffffffffffffffffffffffffff160217905550620005ce6040805190810160405280600b81526020017f6574685f6d61696e6e657400000000000000000000000000000000000000000081525062000a4b640100000000026401000000009004565b6001905062000a48565b60006200060873c03a2615d5efaf5f49f60b7bb6583eaec212fdf1620004c6640100000000026401000000009004565b1115620006bc5773c03a2615d5efaf5f49f60b7bb6583eaec212fdf16000806101000a81548173ffffffffffffffffffffffffffffffffffffffff021916908373ffffffffffffffffffffffffffffffffffffffff160217905550620006b26040805190810160405280600c81526020017f6574685f726f707374656e33000000000000000000000000000000000000000081525062000a4b640100000000026401000000009004565b6001905062000a48565b6000620006ec73b7a07bcf2ba2f2703b24c0691b5278999c59ac7e620004c6640100000000026401000000009004565b1115620007a05773b7a07bcf2ba2f2703b24c0691b5278999c59ac7e6000806101000a81548173ffffffffffffffffffffffffffffffffffffffff021916908373ffffffffffffffffffffffffffffffffffffffff160217905550620007966040805190810160405280600981526020017f6574685f6b6f76616e000000000000000000000000000000000000000000000081525062000a4b640100000000026401000000009004565b6001905062000a48565b6000620007d073146500cfd35b22e4a392fe0adc06de1a1368ed48620004c6640100000000026401000000009004565b1115620008845773146500cfd35b22e4a392fe0adc06de1a1368ed486000806101000a81548173ffffffffffffffffffffffffffffffffffffffff021916908373ffffffffffffffffffffffffffffffffffffffff1602179055506200087a6040805190810160405280600b81526020017f6574685f72696e6b65627900000000000000000000000000000000000000000081525062000a4b640100000000026401000000009004565b6001905062000a48565b6000620008b4736f485c8bf6fc43ea212e93bbf8ce046c7f1cb475620004c6640100000000026401000000009004565b11156200091957736f485c8bf6fc43ea212e93bbf8ce046c7f1cb4756000806101000a81548173ffffffffffffffffffffffffffffffffffffffff021916908373ffffffffffffffffffffffffffffffffffffffff1602179055506001905062000a48565b6000620009497320e12a1f859b3feae5fb2a0a32c18f5a65555bbf620004c6640100000000026401000000009004565b1115620009ae577320e12a1f859b3feae5fb2a0a32c18f5a65555bbf6000806101000a81548173ffffffffffffffffffffffffffffffffffffffff021916908373ffffffffffffffffffffffffffffffffffffffff1602179055506001905062000a48565b6000620009de7351efaf4c8b3c9afbd5ab9f4bbc82784ab6ef8faa620004c6640100000000026401000000009004565b111562000a43577351efaf4c8b3c9afbd5ab9f4bbc82784ab6ef8faa6000806101000a81548173ffffffffffffffffffffffffffffffffffffffff021916908373ffffffffffffffffffffffffffffffffffffffff1602179055506001905062000a48565b600090505b90565b806002908051906020019062000a6392919062000a67565b5050565b828054600181600116156101000203166002900490600052602060002090601f016020900481019282601f1062000aaa57805160ff191683800117855562000adb565b8280016001018555821562000adb579182015b8281111562000ada57825182559160200191906001019062000abd565b5b50905062000aea919062000aee565b5090565b62000b1391905b8082111562000b0f57600081600090555060010162000af5565b5090565b90565b612ed08062000b266000396000f3006080604052600436106100af576000357c0100000000000000000000000000000000000000000000000000000000900463ffffffff1680631ada57a4146100b457806327dc297e146100fd57806338bbfa5014610174578063411449bb14610231578063522f68151461025c57806364e35bfa146102c157806383c17c55146102f75780638da5cb5b1461033a578063930a99cf14610391578063d02e9c8a146103e8578063f2fde38b14610465575b600080fd5b3480156100c057600080fd5b506100e360048036038101908080356000191690602001909291905050506104a8565b604051808215151515815260200191505060405180910390f35b34801561010957600080fd5b506101726004803603810190808035600019169060200190929190803590602001908201803590602001908080601f01602080910402602001604051908101604052809392919081815260200183838082843782019150505050505091929192905050506104c8565b005b34801561018057600080fd5b5061022f6004803603810190808035600019169060200190929190803590602001908201803590602001908080601f0160208091040260200160405190810160405280939291908181526020018383808284378201915050505050509192919290803590602001908201803590602001908080601f016020809104026020016040519081016040528093929190818152602001838380828437820191505050505050919291929050505061050b565b005b34801561023d57600080fd5b506102466108b9565b6040518082815260200191505060405180910390f35b34801561026857600080fd5b506102a7600480360381019080803573ffffffffffffffffffffffffffffffffffffffff169060200190929190803590602001909291905050506108c0565b604051808215151515815260200191505060405180910390f35b6102f5600480360381019080803573ffffffffffffffffffffffffffffffffffffffff16906020019092919050505061095b565b005b34801561030357600080fd5b50610338600480360381019080803573ffffffffffffffffffffffffffffffffffffffff169060200190929190505050610d7b565b005b34801561034657600080fd5b5061034f610e1b565b604051808273ffffffffffffffffffffffffffffffffffffffff1673ffffffffffffffffffffffffffffffffffffffff16815260200191505060405180910390f35b34801561039d57600080fd5b506103a6610e41565b604051808273ffffffffffffffffffffffffffffffffffffffff1673ffffffffffffffffffffffffffffffffffffffff16815260200191505060405180910390f35b3480156103f457600080fd5b50610463600480360381019080803573ffffffffffffffffffffffffffffffffffffffff16906020019092919080359060200190820180359060200191909192939192939080359060200190820180359060200191909192939192939080359060200190929190505050610e67565b005b34801561047157600080fd5b506104a6600480360381019080803573ffffffffffffffffffffffffffffffffffffffff16906020019092919050505061115a565b005b60076020528060005260406000206000915054906101000a900460ff1681565b610507828260006040519080825280601f01601f1916602001820160405280156105015781602001602082028038833980820191505090505b5061050b565b5050565b610513612cc0565b60008061051e6112b2565b73ffffffffffffffffffffffffffffffffffffffff163373ffffffffffffffffffffffffffffffffffffffff1614151561055757600080fd5b60076000876000191660001916815260200190815260200160002060009054906101000a900460ff16151561058b57600080fd5b600560008760001916600019168152602001908152602001600020606060405190810160405290816000820160009054906101000a900473ffffffffffffffffffffffffffffffffffffffff1673ffffffffffffffffffffffffffffffffffffffff1673ffffffffffffffffffffffffffffffffffffffff168152602001600182018054600181600116156101000203166002900480601f0160208091040260200160405190810160405280929190818152602001828054600181600116156101000203166002900480156106a15780601f10610676576101008083540402835291602001916106a1565b820191906000526020600020905b81548152906001019060200180831161068457829003601f168201915b50505050508152602001600282018054600181600116156101000203166002900480601f0160208091040260200160405190810160405280929190818152602001828054600181600116156101000203166002900480156107435780601f1061071857610100808354040283529160200191610743565b820191906000526020600020905b81548152906001019060200180831161072657829003601f168201915b5050505050815250509250826000015191506107fd858373ffffffffffffffffffffffffffffffffffffffff16632fed1b006040518163ffffffff167c0100000000000000000000000000000000000000000000000000000000028152600401602060405180830381600087803b1580156107bd57600080fd5b505af11580156107d1573d6000803e3d6000fd5b505050506040513d60208110156107e757600080fd5b8101908080519060200190929190505050611610565b90508173ffffffffffffffffffffffffffffffffffffffff16636fbce940826040518263ffffffff167c010000000000000000000000000000000000000000000000000000000002815260040180828152602001915050600060405180830381600087803b15801561086e57600080fd5b505af1158015610882573d6000803e3d6000fd5b5050505060076000876000191660001916815260200190815260200160002060006101000a81549060ff0219169055505050505050565b6202710081565b6000600360009054906101000a900473ffffffffffffffffffffffffffffffffffffffff1673ffffffffffffffffffffffffffffffffffffffff163373ffffffffffffffffffffffffffffffffffffffff1614151561091e57600080fd5b8273ffffffffffffffffffffffffffffffffffffffff166108fc839081150290604051600060405180830381858888f19350505050905092915050565b6000806000600460008573ffffffffffffffffffffffffffffffffffffffff1673ffffffffffffffffffffffffffffffffffffffff1681526020019081526020016000209250610a4a836001018054600181600116156101000203166002900480601f016020809104026020016040519081016040528092919081815260200182805460018160011615610100020316600290048015610a3c5780601f10610a1157610100808354040283529160200191610a3c565b820191906000526020600020905b815481529060010190602001808311610a1f57829003601f168201915b505050505062027100611904565b9150813410151515610ac4576040517f08c379a00000000000000000000000000000000000000000000000000000000081526004018080602001828103825260168152602001807f726571756972657320612068696768657220636f73740000000000000000000081525060200191505060405180910390fd5b610c0a836001018054600181600116156101000203166002900480601f016020809104026020016040519081016040528092919081815260200182805460018160011615610100020316600290048015610b5f5780601f10610b3457610100808354040283529160200191610b5f565b820191906000526020600020905b815481529060010190602001808311610b4257829003601f168201915b5050505050846002018054600181600116156101000203166002900480601f016020809104026020016040519081016040528092919081815260200182805460018160011615610100020316600290048015610bfc5780601f10610bd157610100808354040283529160200191610bfc565b820191906000526020600020905b815481529060010190602001808311610bdf57829003601f168201915b505050505062027100611cdd565b90506000600102816000191614151515610c2357600080fd5b600160076000836000191660001916815260200190815260200160002060006101000a81548160ff021916908315150217905550826005600083600019166000191681526020019081526020016000206000820160009054906101000a900473ffffffffffffffffffffffffffffffffffffffff168160000160006101000a81548173ffffffffffffffffffffffffffffffffffffffff021916908373ffffffffffffffffffffffffffffffffffffffff16021790555060018201816001019080546001816001161561010002031660029004610d01929190612cf8565b5060028201816002019080546001816001161561010002031660029004610d29929190612cf8565b5090505080600019168473ffffffffffffffffffffffffffffffffffffffff167f1cca2e15f3ca6c1d2a953e642c1a56fe604a924d2fdef7b3014d459c6bec4d2e60405160405180910390a350505050565b600360009054906101000a900473ffffffffffffffffffffffffffffffffffffffff1673ffffffffffffffffffffffffffffffffffffffff163373ffffffffffffffffffffffffffffffffffffffff16141515610dd757600080fd5b80600660006101000a81548173ffffffffffffffffffffffffffffffffffffffff021916908373ffffffffffffffffffffffffffffffffffffffff16021790555050565b600360009054906101000a900473ffffffffffffffffffffffffffffffffffffffff1681565b600660009054906101000a900473ffffffffffffffffffffffffffffffffffffffff1681565b600080600660009054906101000a900473ffffffffffffffffffffffffffffffffffffffff1673ffffffffffffffffffffffffffffffffffffffff163373ffffffffffffffffffffffffffffffffffffffff16141515610ec657600080fd5b600460008973ffffffffffffffffffffffffffffffffffffffff1673ffffffffffffffffffffffffffffffffffffffff1681526020019081526020016000209150878260000160006101000a81548173ffffffffffffffffffffffffffffffffffffffff021916908373ffffffffffffffffffffffffffffffffffffffff1602179055508686836001019190610f5d929190612d7f565b508484836002019190610f71929190612d7f565b50610fe58388888080601f01602080910402602001604051908101604052809392919081815260200183838082843782019150505050505087878080601f0160208091040260200160405190810160405280939291908181526020018383808284378201915050505050506202710061226c565b90506000600102816000191614151515610ffe57600080fd5b600160076000836000191660001916815260200190815260200160002060006101000a81548160ff021916908315150217905550816005600083600019166000191681526020019081526020016000206000820160009054906101000a900473ffffffffffffffffffffffffffffffffffffffff168160000160006101000a81548173ffffffffffffffffffffffffffffffffffffffff021916908373ffffffffffffffffffffffffffffffffffffffff160217905550600182018160010190805460018160011615610100020316600290046110dc929190612cf8565b5060028201816002019080546001816001161561010002031660029004611104929190612cf8565b5090505080600019168873ffffffffffffffffffffffffffffffffffffffff167f1cca2e15f3ca6c1d2a953e642c1a56fe604a924d2fdef7b3014d459c6bec4d2e60405160405180910390a35050505050505050565b600360009054906101000a900473ffffffffffffffffffffffffffffffffffffffff1673ffffffffffffffffffffffffffffffffffffffff163373ffffffffffffffffffffffffffffffffffffffff161415156111b657600080fd5b600073ffffffffffffffffffffffffffffffffffffffff168173ffffffffffffffffffffffffffffffffffffffff16141515156111f257600080fd5b8073ffffffffffffffffffffffffffffffffffffffff16600360009054906101000a900473ffffffffffffffffffffffffffffffffffffffff1673ffffffffffffffffffffffffffffffffffffffff167f8be0079c531659141344cd1fd0a4f28419497f9722a3daafe3b4186f6b6457e060405160405180910390a380600360006101000a81548173ffffffffffffffffffffffffffffffffffffffff021916908373ffffffffffffffffffffffffffffffffffffffff16021790555050565b6000806000809054906101000a900473ffffffffffffffffffffffffffffffffffffffff1673ffffffffffffffffffffffffffffffffffffffff161480611322575060006113206000809054906101000a900473ffffffffffffffffffffffffffffffffffffffff166127fb565b145b15611333576113316000612806565b505b6000809054906101000a900473ffffffffffffffffffffffffffffffffffffffff1673ffffffffffffffffffffffffffffffffffffffff166338cc48316040518163ffffffff167c0100000000000000000000000000000000000000000000000000000000028152600401602060405180830381600087803b1580156113b857600080fd5b505af11580156113cc573d6000803e3d6000fd5b505050506040513d60208110156113e257600080fd5b810190808051906020019092919050505073ffffffffffffffffffffffffffffffffffffffff16600160009054906101000a900473ffffffffffffffffffffffffffffffffffffffff1673ffffffffffffffffffffffffffffffffffffffff1614151561154a576000809054906101000a900473ffffffffffffffffffffffffffffffffffffffff1673ffffffffffffffffffffffffffffffffffffffff166338cc48316040518163ffffffff167c0100000000000000000000000000000000000000000000000000000000028152600401602060405180830381600087803b1580156114ce57600080fd5b505af11580156114e2573d6000803e3d6000fd5b505050506040513d60208110156114f857600080fd5b8101908080519060200190929190505050600160006101000a81548173ffffffffffffffffffffffffffffffffffffffff021916908373ffffffffffffffffffffffffffffffffffffffff1602179055505b600160009054906101000a900473ffffffffffffffffffffffffffffffffffffffff1673ffffffffffffffffffffffffffffffffffffffff1663c281d19e6040518163ffffffff167c0100000000000000000000000000000000000000000000000000000000028152600401602060405180830381600087803b1580156115d057600080fd5b505af11580156115e4573d6000803e3d6000fd5b505050506040513d60208110156115fa57600080fd5b8101908080519060200190929190505050905090565b6000606060008060008693506000925060009150600090505b83518110156118e55760307f010000000000000000000000000000000000000000000000000000000000000002848281518110151561166457fe5b9060200101517f010000000000000000000000000000000000000000000000000000000000000090047f0100000000000000000000000000000000000000000000000000000000000000027effffffffffffffffffffffffffffffffffffffffffffffffffffffffffffff19161015801561177c575060397f010000000000000000000000000000000000000000000000000000000000000002848281518110151561170c57fe5b9060200101517f010000000000000000000000000000000000000000000000000000000000000090047f0100000000000000000000000000000000000000000000000000000000000000027effffffffffffffffffffffffffffffffffffffffffffffffffffffffffffff191611155b1561182d57811561179f576000861415611795576118e5565b8580600190039650505b600a83029250603084828151811015156117b557fe5b9060200101517f010000000000000000000000000000000000000000000000000000000000000090047f0100000000000000000000000000000000000000000000000000000000000000027f0100000000000000000000000000000000000000000000000000000000000000900403830192506118d8565b602e7f010000000000000000000000000000000000000000000000000000000000000002848281518110151561185f57fe5b9060200101517f010000000000000000000000000000000000000000000000000000000000000090047f0100000000000000000000000000000000000000000000000000000000000000027effffffffffffffffffffffffffffffffffffffffffffffffffffffffffffff191614156118d757600191505b5b8080600101915050611629565b60008611156118f75785600a0a830292505b8294505050505092915050565b6000806000809054906101000a900473ffffffffffffffffffffffffffffffffffffffff1673ffffffffffffffffffffffffffffffffffffffff161480611974575060006119726000809054906101000a900473ffffffffffffffffffffffffffffffffffffffff166127fb565b145b15611985576119836000612806565b505b6000809054906101000a900473ffffffffffffffffffffffffffffffffffffffff1673ffffffffffffffffffffffffffffffffffffffff166338cc48316040518163ffffffff167c0100000000000000000000000000000000000000000000000000000000028152600401602060405180830381600087803b158015611a0a57600080fd5b505af1158015611a1e573d6000803e3d6000fd5b505050506040513d6020811015611a3457600080fd5b810190808051906020019092919050505073ffffffffffffffffffffffffffffffffffffffff16600160009054906101000a900473ffffffffffffffffffffffffffffffffffffffff1673ffffffffffffffffffffffffffffffffffffffff16141515611b9c576000809054906101000a900473ffffffffffffffffffffffffffffffffffffffff1673ffffffffffffffffffffffffffffffffffffffff166338cc48316040518163ffffffff167c0100000000000000000000000000000000000000000000000000000000028152600401602060405180830381600087803b158015611b2057600080fd5b505af1158015611b34573d6000803e3d6000fd5b505050506040513d6020811015611b4a57600080fd5b8101908080519060200190929190505050600160006101000a81548173ffffffffffffffffffffffffffffffffffffffff021916908373ffffffffffffffffffffffffffffffffffffffff1602179055505b600160009054906101000a900473ffffffffffffffffffffffffffffffffffffffff1673ffffffffffffffffffffffffffffffffffffffff16632ef3accc84846040518363ffffffff167c01000000000000000000000000000000000000000000000000000000000281526004018080602001838152602001828103825284818151815260200191508051906020019080838360005b83811015611c4d578082015181840152602081019050611c32565b50505050905090810190601f168015611c7a5780820380516001836020036101000a031916815260200191505b509350505050602060405180830381600087803b158015611c9a57600080fd5b505af1158015611cae573d6000803e3d6000fd5b505050506040513d6020811015611cc457600080fd5b8101908080519060200190929190505050905092915050565b60008060008060009054906101000a900473ffffffffffffffffffffffffffffffffffffffff1673ffffffffffffffffffffffffffffffffffffffff161480611d4f57506000611d4d6000809054906101000a900473ffffffffffffffffffffffffffffffffffffffff166127fb565b145b15611d6057611d5e6000612806565b505b6000809054906101000a900473ffffffffffffffffffffffffffffffffffffffff1673ffffffffffffffffffffffffffffffffffffffff166338cc48316040518163ffffffff167c0100000000000000000000000000000000000000000000000000000000028152600401602060405180830381600087803b158015611de557600080fd5b505af1158015611df9573d6000803e3d6000fd5b505050506040513d6020811015611e0f57600080fd5b810190808051906020019092919050505073ffffffffffffffffffffffffffffffffffffffff16600160009054906101000a900473ffffffffffffffffffffffffffffffffffffffff1673ffffffffffffffffffffffffffffffffffffffff16141515611f77576000809054906101000a900473ffffffffffffffffffffffffffffffffffffffff1673ffffffffffffffffffffffffffffffffffffffff166338cc48316040518163ffffffff167c0100000000000000000000000000000000000000000000000000000000028152600401602060405180830381600087803b158015611efb57600080fd5b505af1158015611f0f573d6000803e3d6000fd5b505050506040513d6020811015611f2557600080fd5b8101908080519060200190929190505050600160006101000a81548173ffffffffffffffffffffffffffffffffffffffff021916908373ffffffffffffffffffffffffffffffffffffffff1602179055505b600160009054906101000a900473ffffffffffffffffffffffffffffffffffffffff1673ffffffffffffffffffffffffffffffffffffffff16632ef3accc86856040518363ffffffff167c01000000000000000000000000000000000000000000000000000000000281526004018080602001838152602001828103825284818151815260200191508051906020019080838360005b8381101561202857808201518184015260208101905061200d565b50505050905090810190601f1680156120555780820380516001836020036101000a031916815260200191505b509350505050602060405180830381600087803b15801561207557600080fd5b505af1158015612089573d6000803e3d6000fd5b505050506040513d602081101561209f57600080fd5b81019080805190602001909291905050509050600160009054906101000a900473ffffffffffffffffffffffffffffffffffffffff1673ffffffffffffffffffffffffffffffffffffffff1663c51be90f8260008888886040518663ffffffff167c0100000000000000000000000000000000000000000000000000000000028152600401808581526020018060200180602001848152602001838103835286818151815260200191508051906020019080838360005b83811015612171578082015181840152602081019050612156565b50505050905090810190601f16801561219e5780820380516001836020036101000a031916815260200191505b50838103825285818151815260200191508051906020019080838360005b838110156121d75780820151818401526020810190506121bc565b50505050905090810190601f1680156122045780820380516001836020036101000a031916815260200191505b5096505050505050506020604051808303818588803b15801561222657600080fd5b505af115801561223a573d6000803e3d6000fd5b50505050506040513d602081101561225157600080fd5b81019080805190602001909291905050509150509392505050565b60008060008060009054906101000a900473ffffffffffffffffffffffffffffffffffffffff1673ffffffffffffffffffffffffffffffffffffffff1614806122de575060006122dc6000809054906101000a900473ffffffffffffffffffffffffffffffffffffffff166127fb565b145b156122ef576122ed6000612806565b505b6000809054906101000a900473ffffffffffffffffffffffffffffffffffffffff1673ffffffffffffffffffffffffffffffffffffffff166338cc48316040518163ffffffff167c0100000000000000000000000000000000000000000000000000000000028152600401602060405180830381600087803b15801561237457600080fd5b505af1158015612388573d6000803e3d6000fd5b505050506040513d602081101561239e57600080fd5b810190808051906020019092919050505073ffffffffffffffffffffffffffffffffffffffff16600160009054906101000a900473ffffffffffffffffffffffffffffffffffffffff1673ffffffffffffffffffffffffffffffffffffffff16141515612506576000809054906101000a900473ffffffffffffffffffffffffffffffffffffffff1673ffffffffffffffffffffffffffffffffffffffff166338cc48316040518163ffffffff167c0100000000000000000000000000000000000000000000000000000000028152600401602060405180830381600087803b15801561248a57600080fd5b505af115801561249e573d6000803e3d6000fd5b505050506040513d60208110156124b457600080fd5b8101908080519060200190929190505050600160006101000a81548173ffffffffffffffffffffffffffffffffffffffff021916908373ffffffffffffffffffffffffffffffffffffffff1602179055505b600160009054906101000a900473ffffffffffffffffffffffffffffffffffffffff1673ffffffffffffffffffffffffffffffffffffffff16632ef3accc86856040518363ffffffff167c01000000000000000000000000000000000000000000000000000000000281526004018080602001838152602001828103825284818151815260200191508051906020019080838360005b838110156125b757808201518184015260208101905061259c565b50505050905090810190601f1680156125e45780820380516001836020036101000a031916815260200191505b509350505050602060405180830381600087803b15801561260457600080fd5b505af1158015612618573d6000803e3d6000fd5b505050506040513d602081101561262e57600080fd5b81019080805190602001909291905050509050600160009054906101000a900473ffffffffffffffffffffffffffffffffffffffff1673ffffffffffffffffffffffffffffffffffffffff1663c51be90f82888888886040518663ffffffff167c0100000000000000000000000000000000000000000000000000000000028152600401808581526020018060200180602001848152602001838103835286818151815260200191508051906020019080838360005b838110156126ff5780820151818401526020810190506126e4565b50505050905090810190601f16801561272c5780820380516001836020036101000a031916815260200191505b50838103825285818151815260200191508051906020019080838360005b8381101561276557808201518184015260208101905061274a565b50505050905090810190601f1680156127925780820380516001836020036101000a031916815260200191505b5096505050505050506020604051808303818588803b1580156127b457600080fd5b505af11580156127c8573d6000803e3d6000fd5b50505050506040513d60208110156127df57600080fd5b8101908080519060200190929190505050915050949350505050565b6000813b9050919050565b6000612810612817565b9050919050565b600080612837731d3b2638a7cc9f2cb3d298a3da7a90b67e5506ed6127fb565b11156128d857731d3b2638a7cc9f2cb3d298a3da7a90b67e5506ed6000806101000a81548173ffffffffffffffffffffffffffffffffffffffff021916908373ffffffffffffffffffffffffffffffffffffffff1602179055506128cf6040805190810160405280600b81526020017f6574685f6d61696e6e6574000000000000000000000000000000000000000000815250612ca6565b60019050612ca3565b60006128f773c03a2615d5efaf5f49f60b7bb6583eaec212fdf16127fb565b11156129985773c03a2615d5efaf5f49f60b7bb6583eaec212fdf16000806101000a81548173ffffffffffffffffffffffffffffffffffffffff021916908373ffffffffffffffffffffffffffffffffffffffff16021790555061298f6040805190810160405280600c81526020017f6574685f726f707374656e330000000000000000000000000000000000000000815250612ca6565b60019050612ca3565b60006129b773b7a07bcf2ba2f2703b24c0691b5278999c59ac7e6127fb565b1115612a585773b7a07bcf2ba2f2703b24c0691b5278999c59ac7e6000806101000a81548173ffffffffffffffffffffffffffffffffffffffff021916908373ffffffffffffffffffffffffffffffffffffffff160217905550612a4f6040805190810160405280600981526020017f6574685f6b6f76616e0000000000000000000000000000000000000000000000815250612ca6565b60019050612ca3565b6000612a7773146500cfd35b22e4a392fe0adc06de1a1368ed486127fb565b1115612b185773146500cfd35b22e4a392fe0adc06de1a1368ed486000806101000a81548173ffffffffffffffffffffffffffffffffffffffff021916908373ffffffffffffffffffffffffffffffffffffffff160217905550612b0f6040805190810160405280600b81526020017f6574685f72696e6b656279000000000000000000000000000000000000000000815250612ca6565b60019050612ca3565b6000612b37736f485c8bf6fc43ea212e93bbf8ce046c7f1cb4756127fb565b1115612b9a57736f485c8bf6fc43ea212e93bbf8ce046c7f1cb4756000806101000a81548173ffffffffffffffffffffffffffffffffffffffff021916908373ffffffffffffffffffffffffffffffffffffffff16021790555060019050612ca3565b6000612bb97320e12a1f859b3feae5fb2a0a32c18f5a65555bbf6127fb565b1115612c1c577320e12a1f859b3feae5fb2a0a32c18f5a65555bbf6000806101000a81548173ffffffffffffffffffffffffffffffffffffffff021916908373ffffffffffffffffffffffffffffffffffffffff16021790555060019050612ca3565b6000612c3b7351efaf4c8b3c9afbd5ab9f4bbc82784ab6ef8faa6127fb565b1115612c9e577351efaf4c8b3c9afbd5ab9f4bbc82784ab6ef8faa6000806101000a81548173ffffffffffffffffffffffffffffffffffffffff021916908373ffffffffffffffffffffffffffffffffffffffff16021790555060019050612ca3565b600090505b90565b8060029080519060200190612cbc929190612dff565b5050565b606060405190810160405280600073ffffffffffffffffffffffffffffffffffffffff16815260200160608152602001606081525090565b828054600181600116156101000203166002900490600052602060002090601f016020900481019282601f10612d315780548555612d6e565b82800160010185558215612d6e57600052602060002091601f016020900482015b82811115612d6d578254825591600101919060010190612d52565b5b509050612d7b9190612e7f565b5090565b828054600181600116156101000203166002900490600052602060002090601f016020900481019282601f10612dc057803560ff1916838001178555612dee565b82800160010185558215612dee579182015b82811115612ded578235825591602001919060010190612dd2565b5b509050612dfb9190612e7f565b5090565b828054600181600116156101000203166002900490600052602060002090601f016020900481019282601f10612e4057805160ff1916838001178555612e6e565b82800160010185558215612e6e579182015b82811115612e6d578251825591602001919060010190612e52565b5b509050612e7b9190612e7f565b5090565b612ea191905b80821115612e9d576000816000905550600101612e85565b5090565b905600a165627a7a7230582047c97c888fbc011e0e2a7d019e284abefdeb44ddf73c0adc80291a96b0b71d500029",
  "source": "/*\n    Copyright 2017-2018 Phillip A. Elsasser\n\n    Licensed under the Apache License, Version 2.0 (the \"License\");\n    you may not use this file except in compliance with the License.\n    You may obtain a copy of the License at\n\n    http://www.apache.org/licenses/LICENSE-2.0\n\n    Unless required by applicable law or agreed to in writing, software\n    distributed under the License is distributed on an \"AS IS\" BASIS,\n    WITHOUT WARRANTIES OR CONDITIONS OF ANY KIND, either express or implied.\n    See the License for the specific language governing permissions and\n    limitations under the License.\n*/\n\npragma solidity ^0.4.24;\n\nimport \"./MarketContractOraclize.sol\";\nimport \"./oraclizeAPI.sol\";\nimport \"openzeppelin-solidity/contracts/ownership/Ownable.sol\";\n\ncontract OracleHubOraclize is usingOraclize, Ownable {\n\n    mapping(address => OraclizeQuery) contractAddressToOraclizeQuery;\n    mapping(bytes32 => OraclizeQuery) queryIDToOraclizeQuery;\n    address public marketContractFactoryAddress;\n    mapping(bytes32 => bool) public validQueryIDs;\n    uint constant public QUERY_CALLBACK_GAS = 160000;\n\n    /// @dev all needed pieces of an oraclize query.\n    struct OraclizeQuery {\n        address marketContractAddress;\n        string dataSource;\n        string query;\n    }\n\n    event OraclizeQueryRequested(address indexed marketContract, bytes32 indexed queryId);\n\n    /// @dev creates our OracleHub\n    /// @param contractFactoryAddress       address of our MarketContractFactory\n    constructor(address contractFactoryAddress) public payable {\n        oraclize_setProof(proofType_TLSNotary | proofStorage_IPFS);\n        marketContractFactoryAddress = contractFactoryAddress;\n    }\n\n    /*\n    // EXTERNAL METHODS\n    */\n\n    /// @dev allows us to withdraw eth as the owner of this contract\n    /// @param sendTo       address of where to send ETH\n    /// @param amount       amount of ETH (in baseUnits)\n    function withdrawEther(address sendTo, uint256 amount) external onlyOwner returns (bool) {\n        return sendTo.send(amount);\n    }\n\n    /// @notice allows a user to request an extra query to oracle in order to push the contract into\n    /// settlement.  A user may call this as many times as they like, since they are the ones paying for\n    /// the call to our oracle and post processing. This is useful for both a failsafe and as a way to\n    /// settle a contract early if a price cap or floor has been breached.\n    function requestOnDemandQuery(address marketContractAddress) external payable {\n        OraclizeQuery storage oraclizeQuery = contractAddressToOraclizeQuery[marketContractAddress];\n        uint cost = oraclize_getPrice(oraclizeQuery.dataSource, QUERY_CALLBACK_GAS);\n        require(msg.value >= cost, \"requires a higher cost\"); // user must pay enough to cover query and callback\n\n        bytes32 queryId = oraclize_query(\n            oraclizeQuery.dataSource,\n            oraclizeQuery.query,\n            QUERY_CALLBACK_GAS\n        );\n\n        require(queryId != 0);\n        validQueryIDs[queryId] = true;\n        queryIDToOraclizeQuery[queryId] = oraclizeQuery;\n        emit OraclizeQueryRequested(marketContractAddress, queryId);\n    }\n\n\n    /// @dev allows for the owner to set a factory address that is then allowed the priviledge of creating\n    /// queries.\n    function setFactoryAddress(address contractFactoryAddress) external onlyOwner {\n        marketContractFactoryAddress = contractFactoryAddress;\n    }\n\n    /// @dev called by our factory to create the needed initial query for a new MarketContract\n    /// @param marketContractAddress - address of the newly created MarketContract\n    /// @param oracleDataSource a data-source such as \"URL\", \"WolframAlpha\", \"IPFS\"\n    /// see http://docs.oraclize.it/#ethereum-quick-start-simple-query\n    /// @param oracleQuery see http://docs.oraclize.it/#ethereum-quick-start-simple-query for examples\n    function requestQuery(\n        address marketContractAddress,\n        string oracleDataSource,\n        string oracleQuery,\n        uint expiration\n    ) external onlyFactory\n    {\n        OraclizeQuery storage oraclizeQuery = contractAddressToOraclizeQuery[marketContractAddress];\n        oraclizeQuery.marketContractAddress = marketContractAddress;\n        oraclizeQuery.dataSource = oracleDataSource;\n        oraclizeQuery.query = oracleQuery;\n\n        bytes32 queryId = oraclize_query(\n            expiration,\n            oracleDataSource,\n            oracleQuery,\n            QUERY_CALLBACK_GAS\n        );\n\n        require(queryId != 0);\n        validQueryIDs[queryId] = true;\n        queryIDToOraclizeQuery[queryId] = oraclizeQuery;  // save query struct for later recall on callback.\n        emit OraclizeQueryRequested(marketContractAddress, queryId);\n    }\n\n    /// @notice only public for callbacks from oraclize, do not call\n    /// @param queryID of the returning query, this should match our own internal mapping\n    /// @param result query to be processed\n    /// @param proof result proof\n    function __callback(bytes32 queryID, string result, bytes proof) public {\n        require(msg.sender == oraclize_cbAddress());\n        require(validQueryIDs[queryID]);  // At expiration or early settlement.\n\n        OraclizeQuery memory oraclizeQuery = queryIDToOraclizeQuery[queryID];\n        MarketContractOraclize marketContract = MarketContractOraclize(oraclizeQuery.marketContractAddress);\n        uint price = parseInt(result, marketContract.PRICE_DECIMAL_PLACES());\n        marketContract.oracleCallBack(price);\n\n        delete validQueryIDs[queryID];\n        proof;  // silence compiler warnings\n    }\n\n    /*\n    // MODIFIERS\n    */\n\n    /// @dev only callable by the designated factory!\n    modifier onlyFactory() {\n        require(msg.sender == marketContractFactoryAddress);\n        _;\n    }\n}\n",
  "sourcePath": "/home/pelsasser/MARKETProtocol/contracts/oraclize/OracleHubOraclize.sol",
  "compiler": {
    "name": "solc",
    "version": "0.4.24+commit.e67f0147.Emscripten.clang"
  },
  "schemaVersion": "2.0.1",
  "updatedAt": "2019-01-03T14:49:33.713Z"
}