{
  "contractName": "OrderLib",
  "abi": [
    {
      "constant": true,
      "inputs": [
        {
          "name": "contractAddress",
          "type": "address"
        },
        {
          "name": "orderAddresses",
          "type": "address[3]"
        },
        {
          "name": "unsignedOrderValues",
          "type": "uint256[5]"
        },
        {
          "name": "orderQty",
          "type": "int256"
        }
      ],
      "name": "createOrderHash",
      "outputs": [
        {
          "name": "",
          "type": "bytes32"
        }
      ],
      "payable": false,
      "stateMutability": "pure",
      "type": "function"
    },
    {
      "constant": true,
      "inputs": [
        {
          "name": "signerAddress",
          "type": "address"
        },
        {
          "name": "hash",
          "type": "bytes32"
        },
        {
          "name": "v",
          "type": "uint8"
        },
        {
          "name": "r",
          "type": "bytes32"
        },
        {
          "name": "s",
          "type": "bytes32"
        }
      ],
      "name": "isValidSignature",
      "outputs": [
        {
          "name": "",
          "type": "bool"
        }
      ],
      "payable": false,
      "stateMutability": "pure",
      "type": "function"
    }
  ],
  "bytecode": "0x61059a610030600b82828239805160001a6073146000811461002057610022565bfe5b5030600052607381538281f3007300000000000000000000000000000000000000003014608060405260043610610063576000357c0100000000000000000000000000000000000000000000000000000000900463ffffffff16806336a716da146100685780638163681e14610122575b600080fd5b610104600480360381019080803573ffffffffffffffffffffffffffffffffffffffff16906020019092919080606001906003806020026040519081016040528092919082600360200280828437820191505050505091929192908060a00190600580602002604051908101604052809291908260056020028082843782019150505050509192919290803590602001909291905050506101a7565b60405180826000191660001916815260200191505060405180910390f35b61018d600480360381019080803573ffffffffffffffffffffffffffffffffffffffff1690602001909291908035600019169060200190929190803560ff16906020019092919080356000191690602001909291908035600019169060200190929190505050610401565b604051808215151515815260200191505060405180910390f35b6000848460006003811015156101b957fe5b60200201518560016003811015156101cd57fe5b60200201518660026003811015156101e157fe5b60200201518660006005811015156101f557fe5b602002015187600160058110151561020957fe5b602002015188600260058110151561021d57fe5b602002015189600360058110151561023157fe5b60200201518a600460058110151561024557fe5b60200201518a604051602001808b73ffffffffffffffffffffffffffffffffffffffff1673ffffffffffffffffffffffffffffffffffffffff166c010000000000000000000000000281526014018a73ffffffffffffffffffffffffffffffffffffffff1673ffffffffffffffffffffffffffffffffffffffff166c010000000000000000000000000281526014018973ffffffffffffffffffffffffffffffffffffffff1673ffffffffffffffffffffffffffffffffffffffff166c010000000000000000000000000281526014018873ffffffffffffffffffffffffffffffffffffffff1673ffffffffffffffffffffffffffffffffffffffff166c010000000000000000000000000281526014018781526020018681526020018581526020018481526020018381526020018281526020019a50505050505050505050506040516020818303038152906040526040518082805190602001908083835b6020831015156103ca57805182526020820191506020810190506020830392506103a5565b6001836020036101000a03801982511681845116808217855250505050505090500191505060405180910390209050949350505050565b600060018560405160200180807f19457468657265756d205369676e6564204d6573736167653a0a333200000000815250601c0182600019166000191681526020019150506040516020818303038152906040526040518082805190602001908083835b60208310151561048a5780518252602082019150602081019050602083039250610465565b6001836020036101000a0380198251168184511680821785525050505050509050019150506040518091039020858585604051600081526020016040526040518085600019166000191681526020018460ff1660ff1681526020018360001916600019168152602001826000191660001916815260200194505050505060206040516020810390808403906000865af115801561052b573d6000803e3d6000fd5b5050506020604051035173ffffffffffffffffffffffffffffffffffffffff168673ffffffffffffffffffffffffffffffffffffffff16149050959450505050505600a165627a7a72305820c0ecf0698e9a62ec9787b19b4d4f7c078c92ab1809c98cd1f2655c4a87f69e7d0029",
  "source": "/*\n    Copyright 2017-2018 Phillip A. Elsasser\n\n    Licensed under the Apache License, Version 2.0 (the \"License\");\n    you may not use this file except in compliance with the License.\n    You may obtain a copy of the License at\n\n    http://www.apache.org/licenses/LICENSE-2.0\n\n    Unless required by applicable law or agreed to in writing, software\n    distributed under the License is distributed on an \"AS IS\" BASIS,\n    WITHOUT WARRANTIES OR CONDITIONS OF ANY KIND, either express or implied.\n    See the License for the specific language governing permissions and\n    limitations under the License.\n*/\npragma solidity ^0.4.24;\n\nimport \"./MathLib.sol\";\n\n\n/// @title OrderLib\n/// @author Phil Elsasser <phil@marketprotocol.io>\nlibrary OrderLib {\n    using MathLib for int;\n\n    struct OrderMappings {\n        mapping (bytes32 => int) filledOrderQty;\n        mapping (bytes32 => int) cancelledOrderQty;\n    }\n\n    struct Order {\n        address maker;\n        address taker;\n        address feeRecipient;\n        uint makerFee;\n        uint takerFee;\n        uint price;\n        uint expirationTimeStamp;\n        int qty;\n        bytes32 orderHash;\n    }\n\n    /*\n    // PUBLIC METHODS\n    */\n\n    /// @notice returns the qty that is no longer available to trade for a given order\n    /// @param orderHash hash of order to find filled and cancelled qty\n    /// @return int quantity that is no longer able to filled from the supplied order hash\n    function getQtyFilledOrCancelledFromOrder(\n        OrderMappings storage self,\n        bytes32 orderHash\n    ) internal view returns (int)\n    {\n        return self.filledOrderQty[orderHash].add(self.cancelledOrderQty[orderHash]);\n    }\n\n    /// @notice creates the hash for the given order parameters.\n    /// @param contractAddress address of the calling contract, orders are unique to each contract\n    /// @param orderAddresses array of 3 address. maker, taker, and feeRecipient\n    /// @param unsignedOrderValues array of 5 unsigned integers. makerFee, takerFee, price, expirationTimeStamp and salt\n    /// @param orderQty signed qty of the original order.\n    function createOrderHash(\n        address contractAddress,\n        address[3] orderAddresses,\n        uint[5] unsignedOrderValues,\n        int orderQty\n    ) public pure returns (bytes32)\n    {\n        return keccak256(\n            abi.encodePacked(\n                contractAddress,\n                orderAddresses[0],\n                orderAddresses[1],\n                orderAddresses[2],\n                unsignedOrderValues[0],\n                unsignedOrderValues[1],\n                unsignedOrderValues[2],\n                unsignedOrderValues[3],\n                unsignedOrderValues[4],\n                orderQty\n            )\n        );\n    }\n\n    /// @notice confirms hash originated from signer\n    /// @param signerAddress - address of order originator\n    /// @param hash - original order hash\n    /// @param v order signature\n    /// @param r order signature\n    /// @param s order signature\n    function isValidSignature(\n        address signerAddress,\n        bytes32 hash,\n        uint8 v,\n        bytes32 r,\n        bytes32 s\n    ) public pure returns (bool)\n    {\n        return signerAddress == ecrecover(\n            keccak256(abi.encodePacked(\"\\x19Ethereum Signed Message:\\n32\", hash)),\n            v,\n            r,\n            s\n        );\n    }\n\n    /*\n    // INTERNAL METHODS\n    */\n\n    /// @dev factory for orders to be created with needed hash.\n    /// @param contractAddress address of the calling contract, orders are unique to each contract\n    /// @param orderAddresses array of 3 address. maker, taker, and feeRecipient\n    /// @param unsignedOrderValues array of 5 unsigned integers. makerFee, takerFee, price, expirationTimeStamp and salt\n    /// @param orderQty signed qty of the original order.\n    function createOrder(\n        address contractAddress,\n        address[3] orderAddresses,\n        uint[5] unsignedOrderValues,\n        int orderQty\n    ) internal pure returns (Order order)\n    {\n        order.maker = orderAddresses[0];\n        order.taker = orderAddresses[1];\n        order.feeRecipient = orderAddresses[2];\n        order.makerFee = unsignedOrderValues[0];\n        order.takerFee = unsignedOrderValues[1];\n        order.price = unsignedOrderValues[2];\n        order.expirationTimeStamp = unsignedOrderValues[3];\n        order.qty = orderQty;\n        order.orderHash = createOrderHash(\n            contractAddress,\n            orderAddresses,\n            unsignedOrderValues,\n            orderQty\n        );\n        return order;\n    }\n\n    // @dev increment our filled order mappings to avoid overfill\n    // @param self storage struct\n    // @param orderHash hashed value for order\n    // @param filledQty amount to add to our mapping\n    function addFilledQtyToOrder(OrderMappings storage self, bytes32 orderHash, int filledQty) internal {\n        self.filledOrderQty[orderHash] = self.filledOrderQty[orderHash].add(filledQty);\n    }\n\n    // @dev increment our cancelled order mappings\n    // @param self storage struct\n    // @param orderHash hashed value for order\n    // @param cancelledQty amount to add to our mapping\n    function addCancelledQtyToOrder(OrderMappings storage self, bytes32 orderHash, int cancelledQty) internal {\n        self.cancelledOrderQty[orderHash] = self.cancelledOrderQty[orderHash].add(cancelledQty);\n    }\n}\n\n",
  "sourcePath": "/home/travis/build/MARKETProtocol/MARKETProtocol/contracts/libraries/OrderLib.sol",
  "compiler": {
    "name": "solc",
    "version": "0.4.24+commit.e67f0147.Emscripten.clang"
  },
  "schemaVersion": "2.0.1",
  "updatedAt": "2018-07-12T16:03:47.414Z"
}